{
	"20. call.sol": {
		"Receiver": {
			"abi": [
				{
					"anonymous": false,
					"inputs": [
						{
							"indexed": false,
							"internalType": "address",
							"name": "caller",
							"type": "address"
						},
						{
							"indexed": false,
							"internalType": "uint256",
							"name": "amount",
							"type": "uint256"
						},
						{
							"indexed": false,
							"internalType": "string",
							"name": "message",
							"type": "string"
						}
					],
					"name": "Received",
					"type": "event"
				},
				{
					"stateMutability": "payable",
					"type": "fallback"
				},
				{
					"inputs": [
						{
							"internalType": "string",
							"name": "_message",
							"type": "string"
						},
						{
							"internalType": "uint256",
							"name": "_x",
							"type": "uint256"
						}
					],
					"name": "foo",
					"outputs": [
						{
							"internalType": "bool",
							"name": "",
							"type": "bool"
						},
						{
							"internalType": "uint256",
							"name": "",
							"type": "uint256"
						}
					],
					"stateMutability": "payable",
					"type": "function"
				},
				{
					"inputs": [],
					"name": "message",
					"outputs": [
						{
							"internalType": "string",
							"name": "",
							"type": "string"
						}
					],
					"stateMutability": "view",
					"type": "function"
				},
				{
					"inputs": [],
					"name": "x",
					"outputs": [
						{
							"internalType": "uint256",
							"name": "",
							"type": "uint256"
						}
					],
					"stateMutability": "view",
					"type": "function"
				},
				{
					"stateMutability": "payable",
					"type": "receive"
				}
			],
			"devdoc": {
				"kind": "dev",
				"methods": {},
				"version": 1
			},
			"evm": {
				"assembly": "    /* \"20. call.sol\":58:642  contract Receiver {... */\n  mstore(0x40, 0x80)\n  callvalue\n  dup1\n  iszero\n  tag_1\n  jumpi\n  0x00\n  dup1\n  revert\ntag_1:\n  pop\n  dataSize(sub_0)\n  dup1\n  dataOffset(sub_0)\n  0x00\n  codecopy\n  0x00\n  return\nstop\n\nsub_0: assembly {\n        /* \"20. call.sol\":58:642  contract Receiver {... */\n      mstore(0x40, 0x80)\n      jumpi(tag_1, lt(calldatasize, 0x04))\n      shr(0xe0, calldataload(0x00))\n      dup1\n      0x0c55699c\n      eq\n      tag_3\n      jumpi\n      dup1\n      0x24ccab8f\n      eq\n      tag_4\n      jumpi\n      dup1\n      0xe21f37ce\n      eq\n      tag_5\n      jumpi\n      jump(tag_2)\n    tag_1:\n      jumpi(tag_2, calldatasize)\n        /* \"20. call.sol\":351:404  Received(msg.sender, msg.value, \"Receive was called\") */\n      0x59e04c3f0d44b7caf6e8ef854b61d9a51cf1960d7a88ff6356cc5e946b4b5832\n        /* \"20. call.sol\":360:370  msg.sender */\n      caller\n        /* \"20. call.sol\":372:381  msg.value */\n      callvalue\n        /* \"20. call.sol\":351:404  Received(msg.sender, msg.value, \"Receive was called\") */\n      mload(0x40)\n      tag_8\n      swap3\n      swap2\n      swap1\n      tag_9\n      jump\t// in\n    tag_8:\n      mload(0x40)\n      dup1\n      swap2\n      sub\n      swap1\n      log1\n        /* \"20. call.sol\":58:642  contract Receiver {... */\n      stop\n    tag_2:\n        /* \"20. call.sol\":242:296  Received(msg.sender, msg.value, \"Fallback was called\") */\n      0x59e04c3f0d44b7caf6e8ef854b61d9a51cf1960d7a88ff6356cc5e946b4b5832\n        /* \"20. call.sol\":251:261  msg.sender */\n      caller\n        /* \"20. call.sol\":263:272  msg.value */\n      callvalue\n        /* \"20. call.sol\":242:296  Received(msg.sender, msg.value, \"Fallback was called\") */\n      mload(0x40)\n      tag_12\n      swap3\n      swap2\n      swap1\n      tag_13\n      jump\t// in\n    tag_12:\n      mload(0x40)\n      dup1\n      swap2\n      sub\n      swap1\n      log1\n        /* \"20. call.sol\":58:642  contract Receiver {... */\n      stop\n        /* \"20. call.sol\":109:122  uint public x */\n    tag_3:\n      callvalue\n      dup1\n      iszero\n      tag_14\n      jumpi\n      0x00\n      dup1\n      revert\n    tag_14:\n      pop\n      tag_15\n      tag_16\n      jump\t// in\n    tag_15:\n      mload(0x40)\n      tag_17\n      swap2\n      swap1\n      tag_18\n      jump\t// in\n    tag_17:\n      mload(0x40)\n      dup1\n      swap2\n      sub\n      swap1\n      return\n        /* \"20. call.sol\":417:640  function foo(string memory _message, uint256 _x) public payable returns (bool, uint256) {... */\n    tag_4:\n      tag_19\n      0x04\n      dup1\n      calldatasize\n      sub\n      dup2\n      add\n      swap1\n      tag_20\n      swap2\n      swap1\n      tag_21\n      jump\t// in\n    tag_20:\n      tag_22\n      jump\t// in\n    tag_19:\n      mload(0x40)\n      tag_23\n      swap3\n      swap2\n      swap1\n      tag_24\n      jump\t// in\n    tag_23:\n      mload(0x40)\n      dup1\n      swap2\n      sub\n      swap1\n      return\n        /* \"20. call.sol\":82:103  string public message */\n    tag_5:\n      callvalue\n      dup1\n      iszero\n      tag_25\n      jumpi\n      0x00\n      dup1\n      revert\n    tag_25:\n      pop\n      tag_26\n      tag_27\n      jump\t// in\n    tag_26:\n      mload(0x40)\n      tag_28\n      swap2\n      swap1\n      tag_29\n      jump\t// in\n    tag_28:\n      mload(0x40)\n      dup1\n      swap2\n      sub\n      swap1\n      return\n        /* \"20. call.sol\":109:122  uint public x */\n    tag_16:\n      sload(0x01)\n      dup2\n      jump\t// out\n        /* \"20. call.sol\":417:640  function foo(string memory _message, uint256 _x) public payable returns (bool, uint256) {... */\n    tag_22:\n        /* \"20. call.sol\":490:494  bool */\n      0x00\n        /* \"20. call.sol\":496:503  uint256 */\n      dup1\n        /* \"20. call.sol\":520:561  Received(msg.sender, msg.value, _message) */\n      0x59e04c3f0d44b7caf6e8ef854b61d9a51cf1960d7a88ff6356cc5e946b4b5832\n        /* \"20. call.sol\":529:539  msg.sender */\n      caller\n        /* \"20. call.sol\":541:550  msg.value */\n      callvalue\n        /* \"20. call.sol\":552:560  _message */\n      dup7\n        /* \"20. call.sol\":520:561  Received(msg.sender, msg.value, _message) */\n      mload(0x40)\n      tag_31\n      swap4\n      swap3\n      swap2\n      swap1\n      tag_32\n      jump\t// in\n    tag_31:\n      mload(0x40)\n      dup1\n      swap2\n      sub\n      swap1\n      log1\n        /* \"20. call.sol\":581:589  _message */\n      dup4\n        /* \"20. call.sol\":571:578  message */\n      0x00\n        /* \"20. call.sol\":571:589  message = _message */\n      swap1\n      dup2\n      tag_33\n      swap2\n      swap1\n      tag_34\n      jump\t// in\n    tag_33:\n      pop\n        /* \"20. call.sol\":603:605  _x */\n      dup3\n        /* \"20. call.sol\":599:600  x */\n      0x01\n        /* \"20. call.sol\":599:605  x = _x */\n      dup2\n      swap1\n      sstore\n      pop\n        /* \"20. call.sol\":623:627  true */\n      0x01\n        /* \"20. call.sol\":629:632  100 */\n      0x64\n        /* \"20. call.sol\":615:633  return (true, 100) */\n      swap2\n      pop\n      swap2\n      pop\n        /* \"20. call.sol\":417:640  function foo(string memory _message, uint256 _x) public payable returns (bool, uint256) {... */\n      swap3\n      pop\n      swap3\n      swap1\n      pop\n      jump\t// out\n        /* \"20. call.sol\":82:103  string public message */\n    tag_27:\n      0x00\n      dup1\n      sload\n      tag_35\n      swap1\n      tag_36\n      jump\t// in\n    tag_35:\n      dup1\n      0x1f\n      add\n      0x20\n      dup1\n      swap2\n      div\n      mul\n      0x20\n      add\n      mload(0x40)\n      swap1\n      dup2\n      add\n      0x40\n      mstore\n      dup1\n      swap3\n      swap2\n      swap1\n      dup2\n      dup2\n      mstore\n      0x20\n      add\n      dup3\n      dup1\n      sload\n      tag_37\n      swap1\n      tag_36\n      jump\t// in\n    tag_37:\n      dup1\n      iszero\n      tag_38\n      jumpi\n      dup1\n      0x1f\n      lt\n      tag_39\n      jumpi\n      0x0100\n      dup1\n      dup4\n      sload\n      div\n      mul\n      dup4\n      mstore\n      swap2\n      0x20\n      add\n      swap2\n      jump(tag_38)\n    tag_39:\n      dup3\n      add\n      swap2\n      swap1\n      0x00\n      mstore\n      keccak256(0x00, 0x20)\n      swap1\n    tag_40:\n      dup2\n      sload\n      dup2\n      mstore\n      swap1\n      0x01\n      add\n      swap1\n      0x20\n      add\n      dup1\n      dup4\n      gt\n      tag_40\n      jumpi\n      dup3\n      swap1\n      sub\n      0x1f\n      and\n      dup3\n      add\n      swap2\n    tag_38:\n      pop\n      pop\n      pop\n      pop\n      pop\n      dup2\n      jump\t// out\n        /* \"#utility.yul\":7:133   */\n    tag_41:\n        /* \"#utility.yul\":44:51   */\n      0x00\n        /* \"#utility.yul\":84:126   */\n      0xffffffffffffffffffffffffffffffffffffffff\n        /* \"#utility.yul\":77:82   */\n      dup3\n        /* \"#utility.yul\":73:127   */\n      and\n        /* \"#utility.yul\":62:127   */\n      swap1\n      pop\n        /* \"#utility.yul\":7:133   */\n      swap2\n      swap1\n      pop\n      jump\t// out\n        /* \"#utility.yul\":139:235   */\n    tag_42:\n        /* \"#utility.yul\":176:183   */\n      0x00\n        /* \"#utility.yul\":205:229   */\n      tag_90\n        /* \"#utility.yul\":223:228   */\n      dup3\n        /* \"#utility.yul\":205:229   */\n      tag_41\n      jump\t// in\n    tag_90:\n        /* \"#utility.yul\":194:229   */\n      swap1\n      pop\n        /* \"#utility.yul\":139:235   */\n      swap2\n      swap1\n      pop\n      jump\t// out\n        /* \"#utility.yul\":241:359   */\n    tag_43:\n        /* \"#utility.yul\":328:352   */\n      tag_92\n        /* \"#utility.yul\":346:351   */\n      dup2\n        /* \"#utility.yul\":328:352   */\n      tag_42\n      jump\t// in\n    tag_92:\n        /* \"#utility.yul\":323:326   */\n      dup3\n        /* \"#utility.yul\":316:353   */\n      mstore\n        /* \"#utility.yul\":241:359   */\n      pop\n      pop\n      jump\t// out\n        /* \"#utility.yul\":365:442   */\n    tag_44:\n        /* \"#utility.yul\":402:409   */\n      0x00\n        /* \"#utility.yul\":431:436   */\n      dup2\n        /* \"#utility.yul\":420:436   */\n      swap1\n      pop\n        /* \"#utility.yul\":365:442   */\n      swap2\n      swap1\n      pop\n      jump\t// out\n        /* \"#utility.yul\":448:566   */\n    tag_45:\n        /* \"#utility.yul\":535:559   */\n      tag_95\n        /* \"#utility.yul\":553:558   */\n      dup2\n        /* \"#utility.yul\":535:559   */\n      tag_44\n      jump\t// in\n    tag_95:\n        /* \"#utility.yul\":530:533   */\n      dup3\n        /* \"#utility.yul\":523:560   */\n      mstore\n        /* \"#utility.yul\":448:566   */\n      pop\n      pop\n      jump\t// out\n        /* \"#utility.yul\":572:741   */\n    tag_46:\n        /* \"#utility.yul\":656:667   */\n      0x00\n        /* \"#utility.yul\":690:696   */\n      dup3\n        /* \"#utility.yul\":685:688   */\n      dup3\n        /* \"#utility.yul\":678:697   */\n      mstore\n        /* \"#utility.yul\":730:734   */\n      0x20\n        /* \"#utility.yul\":725:728   */\n      dup3\n        /* \"#utility.yul\":721:735   */\n      add\n        /* \"#utility.yul\":706:735   */\n      swap1\n      pop\n        /* \"#utility.yul\":572:741   */\n      swap3\n      swap2\n      pop\n      pop\n      jump\t// out\n        /* \"#utility.yul\":747:915   */\n    tag_47:\n        /* \"#utility.yul\":887:907   */\n      0x52656365697665207761732063616c6c65640000000000000000000000000000\n        /* \"#utility.yul\":883:884   */\n      0x00\n        /* \"#utility.yul\":875:881   */\n      dup3\n        /* \"#utility.yul\":871:885   */\n      add\n        /* \"#utility.yul\":864:908   */\n      mstore\n        /* \"#utility.yul\":747:915   */\n      pop\n      jump\t// out\n        /* \"#utility.yul\":921:1287   */\n    tag_48:\n        /* \"#utility.yul\":1063:1066   */\n      0x00\n        /* \"#utility.yul\":1084:1151   */\n      tag_99\n        /* \"#utility.yul\":1148:1150   */\n      0x12\n        /* \"#utility.yul\":1143:1146   */\n      dup4\n        /* \"#utility.yul\":1084:1151   */\n      tag_46\n      jump\t// in\n    tag_99:\n        /* \"#utility.yul\":1077:1151   */\n      swap2\n      pop\n        /* \"#utility.yul\":1160:1253   */\n      tag_100\n        /* \"#utility.yul\":1249:1252   */\n      dup3\n        /* \"#utility.yul\":1160:1253   */\n      tag_47\n      jump\t// in\n    tag_100:\n        /* \"#utility.yul\":1278:1280   */\n      0x20\n        /* \"#utility.yul\":1273:1276   */\n      dup3\n        /* \"#utility.yul\":1269:1281   */\n      add\n        /* \"#utility.yul\":1262:1281   */\n      swap1\n      pop\n        /* \"#utility.yul\":921:1287   */\n      swap2\n      swap1\n      pop\n      jump\t// out\n        /* \"#utility.yul\":1293:1932   */\n    tag_9:\n        /* \"#utility.yul\":1515:1519   */\n      0x00\n        /* \"#utility.yul\":1553:1555   */\n      0x60\n        /* \"#utility.yul\":1542:1551   */\n      dup3\n        /* \"#utility.yul\":1538:1556   */\n      add\n        /* \"#utility.yul\":1530:1556   */\n      swap1\n      pop\n        /* \"#utility.yul\":1566:1637   */\n      tag_102\n        /* \"#utility.yul\":1634:1635   */\n      0x00\n        /* \"#utility.yul\":1623:1632   */\n      dup4\n        /* \"#utility.yul\":1619:1636   */\n      add\n        /* \"#utility.yul\":1610:1616   */\n      dup6\n        /* \"#utility.yul\":1566:1637   */\n      tag_43\n      jump\t// in\n    tag_102:\n        /* \"#utility.yul\":1647:1719   */\n      tag_103\n        /* \"#utility.yul\":1715:1717   */\n      0x20\n        /* \"#utility.yul\":1704:1713   */\n      dup4\n        /* \"#utility.yul\":1700:1718   */\n      add\n        /* \"#utility.yul\":1691:1697   */\n      dup5\n        /* \"#utility.yul\":1647:1719   */\n      tag_45\n      jump\t// in\n    tag_103:\n        /* \"#utility.yul\":1766:1775   */\n      dup2\n        /* \"#utility.yul\":1760:1764   */\n      dup2\n        /* \"#utility.yul\":1756:1776   */\n      sub\n        /* \"#utility.yul\":1751:1753   */\n      0x40\n        /* \"#utility.yul\":1740:1749   */\n      dup4\n        /* \"#utility.yul\":1736:1754   */\n      add\n        /* \"#utility.yul\":1729:1777   */\n      mstore\n        /* \"#utility.yul\":1794:1925   */\n      tag_104\n        /* \"#utility.yul\":1920:1924   */\n      dup2\n        /* \"#utility.yul\":1794:1925   */\n      tag_48\n      jump\t// in\n    tag_104:\n        /* \"#utility.yul\":1786:1925   */\n      swap1\n      pop\n        /* \"#utility.yul\":1293:1932   */\n      swap4\n      swap3\n      pop\n      pop\n      pop\n      jump\t// out\n        /* \"#utility.yul\":1938:2107   */\n    tag_49:\n        /* \"#utility.yul\":2078:2099   */\n      0x46616c6c6261636b207761732063616c6c656400000000000000000000000000\n        /* \"#utility.yul\":2074:2075   */\n      0x00\n        /* \"#utility.yul\":2066:2072   */\n      dup3\n        /* \"#utility.yul\":2062:2076   */\n      add\n        /* \"#utility.yul\":2055:2100   */\n      mstore\n        /* \"#utility.yul\":1938:2107   */\n      pop\n      jump\t// out\n        /* \"#utility.yul\":2113:2479   */\n    tag_50:\n        /* \"#utility.yul\":2255:2258   */\n      0x00\n        /* \"#utility.yul\":2276:2343   */\n      tag_107\n        /* \"#utility.yul\":2340:2342   */\n      0x13\n        /* \"#utility.yul\":2335:2338   */\n      dup4\n        /* \"#utility.yul\":2276:2343   */\n      tag_46\n      jump\t// in\n    tag_107:\n        /* \"#utility.yul\":2269:2343   */\n      swap2\n      pop\n        /* \"#utility.yul\":2352:2445   */\n      tag_108\n        /* \"#utility.yul\":2441:2444   */\n      dup3\n        /* \"#utility.yul\":2352:2445   */\n      tag_49\n      jump\t// in\n    tag_108:\n        /* \"#utility.yul\":2470:2472   */\n      0x20\n        /* \"#utility.yul\":2465:2468   */\n      dup3\n        /* \"#utility.yul\":2461:2473   */\n      add\n        /* \"#utility.yul\":2454:2473   */\n      swap1\n      pop\n        /* \"#utility.yul\":2113:2479   */\n      swap2\n      swap1\n      pop\n      jump\t// out\n        /* \"#utility.yul\":2485:3124   */\n    tag_13:\n        /* \"#utility.yul\":2707:2711   */\n      0x00\n        /* \"#utility.yul\":2745:2747   */\n      0x60\n        /* \"#utility.yul\":2734:2743   */\n      dup3\n        /* \"#utility.yul\":2730:2748   */\n      add\n        /* \"#utility.yul\":2722:2748   */\n      swap1\n      pop\n        /* \"#utility.yul\":2758:2829   */\n      tag_110\n        /* \"#utility.yul\":2826:2827   */\n      0x00\n        /* \"#utility.yul\":2815:2824   */\n      dup4\n        /* \"#utility.yul\":2811:2828   */\n      add\n        /* \"#utility.yul\":2802:2808   */\n      dup6\n        /* \"#utility.yul\":2758:2829   */\n      tag_43\n      jump\t// in\n    tag_110:\n        /* \"#utility.yul\":2839:2911   */\n      tag_111\n        /* \"#utility.yul\":2907:2909   */\n      0x20\n        /* \"#utility.yul\":2896:2905   */\n      dup4\n        /* \"#utility.yul\":2892:2910   */\n      add\n        /* \"#utility.yul\":2883:2889   */\n      dup5\n        /* \"#utility.yul\":2839:2911   */\n      tag_45\n      jump\t// in\n    tag_111:\n        /* \"#utility.yul\":2958:2967   */\n      dup2\n        /* \"#utility.yul\":2952:2956   */\n      dup2\n        /* \"#utility.yul\":2948:2968   */\n      sub\n        /* \"#utility.yul\":2943:2945   */\n      0x40\n        /* \"#utility.yul\":2932:2941   */\n      dup4\n        /* \"#utility.yul\":2928:2946   */\n      add\n        /* \"#utility.yul\":2921:2969   */\n      mstore\n        /* \"#utility.yul\":2986:3117   */\n      tag_112\n        /* \"#utility.yul\":3112:3116   */\n      dup2\n        /* \"#utility.yul\":2986:3117   */\n      tag_50\n      jump\t// in\n    tag_112:\n        /* \"#utility.yul\":2978:3117   */\n      swap1\n      pop\n        /* \"#utility.yul\":2485:3124   */\n      swap4\n      swap3\n      pop\n      pop\n      pop\n      jump\t// out\n        /* \"#utility.yul\":3130:3352   */\n    tag_18:\n        /* \"#utility.yul\":3223:3227   */\n      0x00\n        /* \"#utility.yul\":3261:3263   */\n      0x20\n        /* \"#utility.yul\":3250:3259   */\n      dup3\n        /* \"#utility.yul\":3246:3264   */\n      add\n        /* \"#utility.yul\":3238:3264   */\n      swap1\n      pop\n        /* \"#utility.yul\":3274:3345   */\n      tag_114\n        /* \"#utility.yul\":3342:3343   */\n      0x00\n        /* \"#utility.yul\":3331:3340   */\n      dup4\n        /* \"#utility.yul\":3327:3344   */\n      add\n        /* \"#utility.yul\":3318:3324   */\n      dup5\n        /* \"#utility.yul\":3274:3345   */\n      tag_45\n      jump\t// in\n    tag_114:\n        /* \"#utility.yul\":3130:3352   */\n      swap3\n      swap2\n      pop\n      pop\n      jump\t// out\n        /* \"#utility.yul\":3358:3433   */\n    tag_51:\n        /* \"#utility.yul\":3391:3397   */\n      0x00\n        /* \"#utility.yul\":3424:3426   */\n      0x40\n        /* \"#utility.yul\":3418:3427   */\n      mload\n        /* \"#utility.yul\":3408:3427   */\n      swap1\n      pop\n        /* \"#utility.yul\":3358:3433   */\n      swap1\n      jump\t// out\n        /* \"#utility.yul\":3439:3556   */\n    tag_52:\n        /* \"#utility.yul\":3548:3549   */\n      0x00\n        /* \"#utility.yul\":3545:3546   */\n      dup1\n        /* \"#utility.yul\":3538:3550   */\n      revert\n        /* \"#utility.yul\":3562:3679   */\n    tag_53:\n        /* \"#utility.yul\":3671:3672   */\n      0x00\n        /* \"#utility.yul\":3668:3669   */\n      dup1\n        /* \"#utility.yul\":3661:3673   */\n      revert\n        /* \"#utility.yul\":3685:3802   */\n    tag_54:\n        /* \"#utility.yul\":3794:3795   */\n      0x00\n        /* \"#utility.yul\":3791:3792   */\n      dup1\n        /* \"#utility.yul\":3784:3796   */\n      revert\n        /* \"#utility.yul\":3808:3925   */\n    tag_55:\n        /* \"#utility.yul\":3917:3918   */\n      0x00\n        /* \"#utility.yul\":3914:3915   */\n      dup1\n        /* \"#utility.yul\":3907:3919   */\n      revert\n        /* \"#utility.yul\":3931:4033   */\n    tag_56:\n        /* \"#utility.yul\":3972:3978   */\n      0x00\n        /* \"#utility.yul\":4023:4025   */\n      0x1f\n        /* \"#utility.yul\":4019:4026   */\n      not\n        /* \"#utility.yul\":4014:4016   */\n      0x1f\n        /* \"#utility.yul\":4007:4012   */\n      dup4\n        /* \"#utility.yul\":4003:4017   */\n      add\n        /* \"#utility.yul\":3999:4027   */\n      and\n        /* \"#utility.yul\":3989:4027   */\n      swap1\n      pop\n        /* \"#utility.yul\":3931:4033   */\n      swap2\n      swap1\n      pop\n      jump\t// out\n        /* \"#utility.yul\":4039:4219   */\n    tag_57:\n        /* \"#utility.yul\":4087:4164   */\n      0x4e487b7100000000000000000000000000000000000000000000000000000000\n        /* \"#utility.yul\":4084:4085   */\n      0x00\n        /* \"#utility.yul\":4077:4165   */\n      mstore\n        /* \"#utility.yul\":4184:4188   */\n      0x41\n        /* \"#utility.yul\":4181:4182   */\n      0x04\n        /* \"#utility.yul\":4174:4189   */\n      mstore\n        /* \"#utility.yul\":4208:4212   */\n      0x24\n        /* \"#utility.yul\":4205:4206   */\n      0x00\n        /* \"#utility.yul\":4198:4213   */\n      revert\n        /* \"#utility.yul\":4225:4506   */\n    tag_58:\n        /* \"#utility.yul\":4308:4335   */\n      tag_123\n        /* \"#utility.yul\":4330:4334   */\n      dup3\n        /* \"#utility.yul\":4308:4335   */\n      tag_56\n      jump\t// in\n    tag_123:\n        /* \"#utility.yul\":4300:4306   */\n      dup2\n        /* \"#utility.yul\":4296:4336   */\n      add\n        /* \"#utility.yul\":4438:4444   */\n      dup2\n        /* \"#utility.yul\":4426:4436   */\n      dup2\n        /* \"#utility.yul\":4423:4445   */\n      lt\n        /* \"#utility.yul\":4402:4420   */\n      0xffffffffffffffff\n        /* \"#utility.yul\":4390:4400   */\n      dup3\n        /* \"#utility.yul\":4387:4421   */\n      gt\n        /* \"#utility.yul\":4384:4446   */\n      or\n        /* \"#utility.yul\":4381:4469   */\n      iszero\n      tag_124\n      jumpi\n        /* \"#utility.yul\":4449:4467   */\n      tag_125\n      tag_57\n      jump\t// in\n    tag_125:\n        /* \"#utility.yul\":4381:4469   */\n    tag_124:\n        /* \"#utility.yul\":4489:4499   */\n      dup1\n        /* \"#utility.yul\":4485:4487   */\n      0x40\n        /* \"#utility.yul\":4478:4500   */\n      mstore\n        /* \"#utility.yul\":4268:4506   */\n      pop\n        /* \"#utility.yul\":4225:4506   */\n      pop\n      pop\n      jump\t// out\n        /* \"#utility.yul\":4512:4641   */\n    tag_59:\n        /* \"#utility.yul\":4546:4552   */\n      0x00\n        /* \"#utility.yul\":4573:4593   */\n      tag_127\n      tag_51\n      jump\t// in\n    tag_127:\n        /* \"#utility.yul\":4563:4593   */\n      swap1\n      pop\n        /* \"#utility.yul\":4602:4635   */\n      tag_128\n        /* \"#utility.yul\":4630:4634   */\n      dup3\n        /* \"#utility.yul\":4622:4628   */\n      dup3\n        /* \"#utility.yul\":4602:4635   */\n      tag_58\n      jump\t// in\n    tag_128:\n        /* \"#utility.yul\":4512:4641   */\n      swap2\n      swap1\n      pop\n      jump\t// out\n        /* \"#utility.yul\":4647:4955   */\n    tag_60:\n        /* \"#utility.yul\":4709:4713   */\n      0x00\n        /* \"#utility.yul\":4799:4817   */\n      0xffffffffffffffff\n        /* \"#utility.yul\":4791:4797   */\n      dup3\n        /* \"#utility.yul\":4788:4818   */\n      gt\n        /* \"#utility.yul\":4785:4841   */\n      iszero\n      tag_130\n      jumpi\n        /* \"#utility.yul\":4821:4839   */\n      tag_131\n      tag_57\n      jump\t// in\n    tag_131:\n        /* \"#utility.yul\":4785:4841   */\n    tag_130:\n        /* \"#utility.yul\":4859:4888   */\n      tag_132\n        /* \"#utility.yul\":4881:4887   */\n      dup3\n        /* \"#utility.yul\":4859:4888   */\n      tag_56\n      jump\t// in\n    tag_132:\n        /* \"#utility.yul\":4851:4888   */\n      swap1\n      pop\n        /* \"#utility.yul\":4943:4947   */\n      0x20\n        /* \"#utility.yul\":4937:4941   */\n      dup2\n        /* \"#utility.yul\":4933:4948   */\n      add\n        /* \"#utility.yul\":4925:4948   */\n      swap1\n      pop\n        /* \"#utility.yul\":4647:4955   */\n      swap2\n      swap1\n      pop\n      jump\t// out\n        /* \"#utility.yul\":4961:5107   */\n    tag_61:\n        /* \"#utility.yul\":5058:5064   */\n      dup3\n        /* \"#utility.yul\":5053:5056   */\n      dup2\n        /* \"#utility.yul\":5048:5051   */\n      dup4\n        /* \"#utility.yul\":5035:5065   */\n      calldatacopy\n        /* \"#utility.yul\":5099:5100   */\n      0x00\n        /* \"#utility.yul\":5090:5096   */\n      dup4\n        /* \"#utility.yul\":5085:5088   */\n      dup4\n        /* \"#utility.yul\":5081:5097   */\n      add\n        /* \"#utility.yul\":5074:5101   */\n      mstore\n        /* \"#utility.yul\":4961:5107   */\n      pop\n      pop\n      pop\n      jump\t// out\n        /* \"#utility.yul\":5113:5538   */\n    tag_62:\n        /* \"#utility.yul\":5191:5196   */\n      0x00\n        /* \"#utility.yul\":5216:5282   */\n      tag_135\n        /* \"#utility.yul\":5232:5281   */\n      tag_136\n        /* \"#utility.yul\":5274:5280   */\n      dup5\n        /* \"#utility.yul\":5232:5281   */\n      tag_60\n      jump\t// in\n    tag_136:\n        /* \"#utility.yul\":5216:5282   */\n      tag_59\n      jump\t// in\n    tag_135:\n        /* \"#utility.yul\":5207:5282   */\n      swap1\n      pop\n        /* \"#utility.yul\":5305:5311   */\n      dup3\n        /* \"#utility.yul\":5298:5303   */\n      dup2\n        /* \"#utility.yul\":5291:5312   */\n      mstore\n        /* \"#utility.yul\":5343:5347   */\n      0x20\n        /* \"#utility.yul\":5336:5341   */\n      dup2\n        /* \"#utility.yul\":5332:5348   */\n      add\n        /* \"#utility.yul\":5381:5384   */\n      dup5\n        /* \"#utility.yul\":5372:5378   */\n      dup5\n        /* \"#utility.yul\":5367:5370   */\n      dup5\n        /* \"#utility.yul\":5363:5379   */\n      add\n        /* \"#utility.yul\":5360:5385   */\n      gt\n        /* \"#utility.yul\":5357:5469   */\n      iszero\n      tag_137\n      jumpi\n        /* \"#utility.yul\":5388:5467   */\n      tag_138\n      tag_55\n      jump\t// in\n    tag_138:\n        /* \"#utility.yul\":5357:5469   */\n    tag_137:\n        /* \"#utility.yul\":5478:5532   */\n      tag_139\n        /* \"#utility.yul\":5525:5531   */\n      dup5\n        /* \"#utility.yul\":5520:5523   */\n      dup3\n        /* \"#utility.yul\":5515:5518   */\n      dup6\n        /* \"#utility.yul\":5478:5532   */\n      tag_61\n      jump\t// in\n    tag_139:\n        /* \"#utility.yul\":5197:5538   */\n      pop\n        /* \"#utility.yul\":5113:5538   */\n      swap4\n      swap3\n      pop\n      pop\n      pop\n      jump\t// out\n        /* \"#utility.yul\":5558:5898   */\n    tag_63:\n        /* \"#utility.yul\":5614:5619   */\n      0x00\n        /* \"#utility.yul\":5663:5666   */\n      dup3\n        /* \"#utility.yul\":5656:5660   */\n      0x1f\n        /* \"#utility.yul\":5648:5654   */\n      dup4\n        /* \"#utility.yul\":5644:5661   */\n      add\n        /* \"#utility.yul\":5640:5667   */\n      slt\n        /* \"#utility.yul\":5630:5752   */\n      tag_141\n      jumpi\n        /* \"#utility.yul\":5671:5750   */\n      tag_142\n      tag_54\n      jump\t// in\n    tag_142:\n        /* \"#utility.yul\":5630:5752   */\n    tag_141:\n        /* \"#utility.yul\":5788:5794   */\n      dup2\n        /* \"#utility.yul\":5775:5795   */\n      calldataload\n        /* \"#utility.yul\":5813:5892   */\n      tag_143\n        /* \"#utility.yul\":5888:5891   */\n      dup5\n        /* \"#utility.yul\":5880:5886   */\n      dup3\n        /* \"#utility.yul\":5873:5877   */\n      0x20\n        /* \"#utility.yul\":5865:5871   */\n      dup7\n        /* \"#utility.yul\":5861:5878   */\n      add\n        /* \"#utility.yul\":5813:5892   */\n      tag_62\n      jump\t// in\n    tag_143:\n        /* \"#utility.yul\":5804:5892   */\n      swap2\n      pop\n        /* \"#utility.yul\":5620:5898   */\n      pop\n        /* \"#utility.yul\":5558:5898   */\n      swap3\n      swap2\n      pop\n      pop\n      jump\t// out\n        /* \"#utility.yul\":5904:6026   */\n    tag_64:\n        /* \"#utility.yul\":5977:6001   */\n      tag_145\n        /* \"#utility.yul\":5995:6000   */\n      dup2\n        /* \"#utility.yul\":5977:6001   */\n      tag_44\n      jump\t// in\n    tag_145:\n        /* \"#utility.yul\":5970:5975   */\n      dup2\n        /* \"#utility.yul\":5967:6002   */\n      eq\n        /* \"#utility.yul\":5957:6020   */\n      tag_146\n      jumpi\n        /* \"#utility.yul\":6016:6017   */\n      0x00\n        /* \"#utility.yul\":6013:6014   */\n      dup1\n        /* \"#utility.yul\":6006:6018   */\n      revert\n        /* \"#utility.yul\":5957:6020   */\n    tag_146:\n        /* \"#utility.yul\":5904:6026   */\n      pop\n      jump\t// out\n        /* \"#utility.yul\":6032:6171   */\n    tag_65:\n        /* \"#utility.yul\":6078:6083   */\n      0x00\n        /* \"#utility.yul\":6116:6122   */\n      dup2\n        /* \"#utility.yul\":6103:6123   */\n      calldataload\n        /* \"#utility.yul\":6094:6123   */\n      swap1\n      pop\n        /* \"#utility.yul\":6132:6165   */\n      tag_148\n        /* \"#utility.yul\":6159:6164   */\n      dup2\n        /* \"#utility.yul\":6132:6165   */\n      tag_64\n      jump\t// in\n    tag_148:\n        /* \"#utility.yul\":6032:6171   */\n      swap3\n      swap2\n      pop\n      pop\n      jump\t// out\n        /* \"#utility.yul\":6177:6831   */\n    tag_21:\n        /* \"#utility.yul\":6255:6261   */\n      0x00\n        /* \"#utility.yul\":6263:6269   */\n      dup1\n        /* \"#utility.yul\":6312:6314   */\n      0x40\n        /* \"#utility.yul\":6300:6309   */\n      dup4\n        /* \"#utility.yul\":6291:6298   */\n      dup6\n        /* \"#utility.yul\":6287:6310   */\n      sub\n        /* \"#utility.yul\":6283:6315   */\n      slt\n        /* \"#utility.yul\":6280:6399   */\n      iszero\n      tag_150\n      jumpi\n        /* \"#utility.yul\":6318:6397   */\n      tag_151\n      tag_52\n      jump\t// in\n    tag_151:\n        /* \"#utility.yul\":6280:6399   */\n    tag_150:\n        /* \"#utility.yul\":6466:6467   */\n      0x00\n        /* \"#utility.yul\":6455:6464   */\n      dup4\n        /* \"#utility.yul\":6451:6468   */\n      add\n        /* \"#utility.yul\":6438:6469   */\n      calldataload\n        /* \"#utility.yul\":6496:6514   */\n      0xffffffffffffffff\n        /* \"#utility.yul\":6488:6494   */\n      dup2\n        /* \"#utility.yul\":6485:6515   */\n      gt\n        /* \"#utility.yul\":6482:6599   */\n      iszero\n      tag_152\n      jumpi\n        /* \"#utility.yul\":6518:6597   */\n      tag_153\n      tag_53\n      jump\t// in\n    tag_153:\n        /* \"#utility.yul\":6482:6599   */\n    tag_152:\n        /* \"#utility.yul\":6623:6686   */\n      tag_154\n        /* \"#utility.yul\":6678:6685   */\n      dup6\n        /* \"#utility.yul\":6669:6675   */\n      dup3\n        /* \"#utility.yul\":6658:6667   */\n      dup7\n        /* \"#utility.yul\":6654:6676   */\n      add\n        /* \"#utility.yul\":6623:6686   */\n      tag_63\n      jump\t// in\n    tag_154:\n        /* \"#utility.yul\":6613:6686   */\n      swap3\n      pop\n        /* \"#utility.yul\":6409:6696   */\n      pop\n        /* \"#utility.yul\":6735:6737   */\n      0x20\n        /* \"#utility.yul\":6761:6814   */\n      tag_155\n        /* \"#utility.yul\":6806:6813   */\n      dup6\n        /* \"#utility.yul\":6797:6803   */\n      dup3\n        /* \"#utility.yul\":6786:6795   */\n      dup7\n        /* \"#utility.yul\":6782:6804   */\n      add\n        /* \"#utility.yul\":6761:6814   */\n      tag_65\n      jump\t// in\n    tag_155:\n        /* \"#utility.yul\":6751:6814   */\n      swap2\n      pop\n        /* \"#utility.yul\":6706:6824   */\n      pop\n        /* \"#utility.yul\":6177:6831   */\n      swap3\n      pop\n      swap3\n      swap1\n      pop\n      jump\t// out\n        /* \"#utility.yul\":6837:6927   */\n    tag_66:\n        /* \"#utility.yul\":6871:6878   */\n      0x00\n        /* \"#utility.yul\":6914:6919   */\n      dup2\n        /* \"#utility.yul\":6907:6920   */\n      iszero\n        /* \"#utility.yul\":6900:6921   */\n      iszero\n        /* \"#utility.yul\":6889:6921   */\n      swap1\n      pop\n        /* \"#utility.yul\":6837:6927   */\n      swap2\n      swap1\n      pop\n      jump\t// out\n        /* \"#utility.yul\":6933:7042   */\n    tag_67:\n        /* \"#utility.yul\":7014:7035   */\n      tag_158\n        /* \"#utility.yul\":7029:7034   */\n      dup2\n        /* \"#utility.yul\":7014:7035   */\n      tag_66\n      jump\t// in\n    tag_158:\n        /* \"#utility.yul\":7009:7012   */\n      dup3\n        /* \"#utility.yul\":7002:7036   */\n      mstore\n        /* \"#utility.yul\":6933:7042   */\n      pop\n      pop\n      jump\t// out\n        /* \"#utility.yul\":7048:7368   */\n    tag_24:\n        /* \"#utility.yul\":7163:7167   */\n      0x00\n        /* \"#utility.yul\":7201:7203   */\n      0x40\n        /* \"#utility.yul\":7190:7199   */\n      dup3\n        /* \"#utility.yul\":7186:7204   */\n      add\n        /* \"#utility.yul\":7178:7204   */\n      swap1\n      pop\n        /* \"#utility.yul\":7214:7279   */\n      tag_160\n        /* \"#utility.yul\":7276:7277   */\n      0x00\n        /* \"#utility.yul\":7265:7274   */\n      dup4\n        /* \"#utility.yul\":7261:7278   */\n      add\n        /* \"#utility.yul\":7252:7258   */\n      dup6\n        /* \"#utility.yul\":7214:7279   */\n      tag_67\n      jump\t// in\n    tag_160:\n        /* \"#utility.yul\":7289:7361   */\n      tag_161\n        /* \"#utility.yul\":7357:7359   */\n      0x20\n        /* \"#utility.yul\":7346:7355   */\n      dup4\n        /* \"#utility.yul\":7342:7360   */\n      add\n        /* \"#utility.yul\":7333:7339   */\n      dup5\n        /* \"#utility.yul\":7289:7361   */\n      tag_45\n      jump\t// in\n    tag_161:\n        /* \"#utility.yul\":7048:7368   */\n      swap4\n      swap3\n      pop\n      pop\n      pop\n      jump\t// out\n        /* \"#utility.yul\":7374:7473   */\n    tag_68:\n        /* \"#utility.yul\":7426:7432   */\n      0x00\n        /* \"#utility.yul\":7460:7465   */\n      dup2\n        /* \"#utility.yul\":7454:7466   */\n      mload\n        /* \"#utility.yul\":7444:7466   */\n      swap1\n      pop\n        /* \"#utility.yul\":7374:7473   */\n      swap2\n      swap1\n      pop\n      jump\t// out\n        /* \"#utility.yul\":7479:7725   */\n    tag_69:\n        /* \"#utility.yul\":7560:7561   */\n      0x00\n        /* \"#utility.yul\":7570:7683   */\n    tag_164:\n        /* \"#utility.yul\":7584:7590   */\n      dup4\n        /* \"#utility.yul\":7581:7582   */\n      dup2\n        /* \"#utility.yul\":7578:7591   */\n      lt\n        /* \"#utility.yul\":7570:7683   */\n      iszero\n      tag_166\n      jumpi\n        /* \"#utility.yul\":7669:7670   */\n      dup1\n        /* \"#utility.yul\":7664:7667   */\n      dup3\n        /* \"#utility.yul\":7660:7671   */\n      add\n        /* \"#utility.yul\":7654:7672   */\n      mload\n        /* \"#utility.yul\":7650:7651   */\n      dup2\n        /* \"#utility.yul\":7645:7648   */\n      dup5\n        /* \"#utility.yul\":7641:7652   */\n      add\n        /* \"#utility.yul\":7634:7673   */\n      mstore\n        /* \"#utility.yul\":7606:7608   */\n      0x20\n        /* \"#utility.yul\":7603:7604   */\n      dup2\n        /* \"#utility.yul\":7599:7609   */\n      add\n        /* \"#utility.yul\":7594:7609   */\n      swap1\n      pop\n        /* \"#utility.yul\":7570:7683   */\n      jump(tag_164)\n    tag_166:\n        /* \"#utility.yul\":7717:7718   */\n      0x00\n        /* \"#utility.yul\":7708:7714   */\n      dup5\n        /* \"#utility.yul\":7703:7706   */\n      dup5\n        /* \"#utility.yul\":7699:7715   */\n      add\n        /* \"#utility.yul\":7692:7719   */\n      mstore\n        /* \"#utility.yul\":7541:7725   */\n      pop\n        /* \"#utility.yul\":7479:7725   */\n      pop\n      pop\n      pop\n      jump\t// out\n        /* \"#utility.yul\":7731:8108   */\n    tag_70:\n        /* \"#utility.yul\":7819:7822   */\n      0x00\n        /* \"#utility.yul\":7847:7886   */\n      tag_168\n        /* \"#utility.yul\":7880:7885   */\n      dup3\n        /* \"#utility.yul\":7847:7886   */\n      tag_68\n      jump\t// in\n    tag_168:\n        /* \"#utility.yul\":7902:7973   */\n      tag_169\n        /* \"#utility.yul\":7966:7972   */\n      dup2\n        /* \"#utility.yul\":7961:7964   */\n      dup6\n        /* \"#utility.yul\":7902:7973   */\n      tag_46\n      jump\t// in\n    tag_169:\n        /* \"#utility.yul\":7895:7973   */\n      swap4\n      pop\n        /* \"#utility.yul\":7982:8047   */\n      tag_170\n        /* \"#utility.yul\":8040:8046   */\n      dup2\n        /* \"#utility.yul\":8035:8038   */\n      dup6\n        /* \"#utility.yul\":8028:8032   */\n      0x20\n        /* \"#utility.yul\":8021:8026   */\n      dup7\n        /* \"#utility.yul\":8017:8033   */\n      add\n        /* \"#utility.yul\":7982:8047   */\n      tag_69\n      jump\t// in\n    tag_170:\n        /* \"#utility.yul\":8072:8101   */\n      tag_171\n        /* \"#utility.yul\":8094:8100   */\n      dup2\n        /* \"#utility.yul\":8072:8101   */\n      tag_56\n      jump\t// in\n    tag_171:\n        /* \"#utility.yul\":8067:8070   */\n      dup5\n        /* \"#utility.yul\":8063:8102   */\n      add\n        /* \"#utility.yul\":8056:8102   */\n      swap2\n      pop\n        /* \"#utility.yul\":7823:8108   */\n      pop\n        /* \"#utility.yul\":7731:8108   */\n      swap3\n      swap2\n      pop\n      pop\n      jump\t// out\n        /* \"#utility.yul\":8114:8427   */\n    tag_29:\n        /* \"#utility.yul\":8227:8231   */\n      0x00\n        /* \"#utility.yul\":8265:8267   */\n      0x20\n        /* \"#utility.yul\":8254:8263   */\n      dup3\n        /* \"#utility.yul\":8250:8268   */\n      add\n        /* \"#utility.yul\":8242:8268   */\n      swap1\n      pop\n        /* \"#utility.yul\":8314:8323   */\n      dup2\n        /* \"#utility.yul\":8308:8312   */\n      dup2\n        /* \"#utility.yul\":8304:8324   */\n      sub\n        /* \"#utility.yul\":8300:8301   */\n      0x00\n        /* \"#utility.yul\":8289:8298   */\n      dup4\n        /* \"#utility.yul\":8285:8302   */\n      add\n        /* \"#utility.yul\":8278:8325   */\n      mstore\n        /* \"#utility.yul\":8342:8420   */\n      tag_173\n        /* \"#utility.yul\":8415:8419   */\n      dup2\n        /* \"#utility.yul\":8406:8412   */\n      dup5\n        /* \"#utility.yul\":8342:8420   */\n      tag_70\n      jump\t// in\n    tag_173:\n        /* \"#utility.yul\":8334:8420   */\n      swap1\n      pop\n        /* \"#utility.yul\":8114:8427   */\n      swap3\n      swap2\n      pop\n      pop\n      jump\t// out\n        /* \"#utility.yul\":8433:8966   */\n    tag_32:\n        /* \"#utility.yul\":8602:8606   */\n      0x00\n        /* \"#utility.yul\":8640:8642   */\n      0x60\n        /* \"#utility.yul\":8629:8638   */\n      dup3\n        /* \"#utility.yul\":8625:8643   */\n      add\n        /* \"#utility.yul\":8617:8643   */\n      swap1\n      pop\n        /* \"#utility.yul\":8653:8724   */\n      tag_175\n        /* \"#utility.yul\":8721:8722   */\n      0x00\n        /* \"#utility.yul\":8710:8719   */\n      dup4\n        /* \"#utility.yul\":8706:8723   */\n      add\n        /* \"#utility.yul\":8697:8703   */\n      dup7\n        /* \"#utility.yul\":8653:8724   */\n      tag_43\n      jump\t// in\n    tag_175:\n        /* \"#utility.yul\":8734:8806   */\n      tag_176\n        /* \"#utility.yul\":8802:8804   */\n      0x20\n        /* \"#utility.yul\":8791:8800   */\n      dup4\n        /* \"#utility.yul\":8787:8805   */\n      add\n        /* \"#utility.yul\":8778:8784   */\n      dup6\n        /* \"#utility.yul\":8734:8806   */\n      tag_45\n      jump\t// in\n    tag_176:\n        /* \"#utility.yul\":8853:8862   */\n      dup2\n        /* \"#utility.yul\":8847:8851   */\n      dup2\n        /* \"#utility.yul\":8843:8863   */\n      sub\n        /* \"#utility.yul\":8838:8840   */\n      0x40\n        /* \"#utility.yul\":8827:8836   */\n      dup4\n        /* \"#utility.yul\":8823:8841   */\n      add\n        /* \"#utility.yul\":8816:8864   */\n      mstore\n        /* \"#utility.yul\":8881:8959   */\n      tag_177\n        /* \"#utility.yul\":8954:8958   */\n      dup2\n        /* \"#utility.yul\":8945:8951   */\n      dup5\n        /* \"#utility.yul\":8881:8959   */\n      tag_70\n      jump\t// in\n    tag_177:\n        /* \"#utility.yul\":8873:8959   */\n      swap1\n      pop\n        /* \"#utility.yul\":8433:8966   */\n      swap5\n      swap4\n      pop\n      pop\n      pop\n      pop\n      jump\t// out\n        /* \"#utility.yul\":8972:9152   */\n    tag_71:\n        /* \"#utility.yul\":9020:9097   */\n      0x4e487b7100000000000000000000000000000000000000000000000000000000\n        /* \"#utility.yul\":9017:9018   */\n      0x00\n        /* \"#utility.yul\":9010:9098   */\n      mstore\n        /* \"#utility.yul\":9117:9121   */\n      0x22\n        /* \"#utility.yul\":9114:9115   */\n      0x04\n        /* \"#utility.yul\":9107:9122   */\n      mstore\n        /* \"#utility.yul\":9141:9145   */\n      0x24\n        /* \"#utility.yul\":9138:9139   */\n      0x00\n        /* \"#utility.yul\":9131:9146   */\n      revert\n        /* \"#utility.yul\":9158:9478   */\n    tag_36:\n        /* \"#utility.yul\":9202:9208   */\n      0x00\n        /* \"#utility.yul\":9239:9240   */\n      0x02\n        /* \"#utility.yul\":9233:9237   */\n      dup3\n        /* \"#utility.yul\":9229:9241   */\n      div\n        /* \"#utility.yul\":9219:9241   */\n      swap1\n      pop\n        /* \"#utility.yul\":9286:9287   */\n      0x01\n        /* \"#utility.yul\":9280:9284   */\n      dup3\n        /* \"#utility.yul\":9276:9288   */\n      and\n        /* \"#utility.yul\":9307:9325   */\n      dup1\n        /* \"#utility.yul\":9297:9378   */\n      tag_180\n      jumpi\n        /* \"#utility.yul\":9363:9367   */\n      0x7f\n        /* \"#utility.yul\":9355:9361   */\n      dup3\n        /* \"#utility.yul\":9351:9368   */\n      and\n        /* \"#utility.yul\":9341:9368   */\n      swap2\n      pop\n        /* \"#utility.yul\":9297:9378   */\n    tag_180:\n        /* \"#utility.yul\":9425:9427   */\n      0x20\n        /* \"#utility.yul\":9417:9423   */\n      dup3\n        /* \"#utility.yul\":9414:9428   */\n      lt\n        /* \"#utility.yul\":9394:9412   */\n      dup2\n        /* \"#utility.yul\":9391:9429   */\n      sub\n        /* \"#utility.yul\":9388:9472   */\n      tag_181\n      jumpi\n        /* \"#utility.yul\":9444:9462   */\n      tag_182\n      tag_71\n      jump\t// in\n    tag_182:\n        /* \"#utility.yul\":9388:9472   */\n    tag_181:\n        /* \"#utility.yul\":9209:9478   */\n      pop\n        /* \"#utility.yul\":9158:9478   */\n      swap2\n      swap1\n      pop\n      jump\t// out\n        /* \"#utility.yul\":9484:9625   */\n    tag_72:\n        /* \"#utility.yul\":9533:9537   */\n      0x00\n        /* \"#utility.yul\":9556:9559   */\n      dup2\n        /* \"#utility.yul\":9548:9559   */\n      swap1\n      pop\n        /* \"#utility.yul\":9579:9582   */\n      dup2\n        /* \"#utility.yul\":9576:9577   */\n      0x00\n        /* \"#utility.yul\":9569:9583   */\n      mstore\n        /* \"#utility.yul\":9613:9617   */\n      0x20\n        /* \"#utility.yul\":9610:9611   */\n      0x00\n        /* \"#utility.yul\":9600:9618   */\n      keccak256\n        /* \"#utility.yul\":9592:9618   */\n      swap1\n      pop\n        /* \"#utility.yul\":9484:9625   */\n      swap2\n      swap1\n      pop\n      jump\t// out\n        /* \"#utility.yul\":9631:9724   */\n    tag_73:\n        /* \"#utility.yul\":9668:9674   */\n      0x00\n        /* \"#utility.yul\":9715:9717   */\n      0x20\n        /* \"#utility.yul\":9710:9712   */\n      0x1f\n        /* \"#utility.yul\":9703:9708   */\n      dup4\n        /* \"#utility.yul\":9699:9713   */\n      add\n        /* \"#utility.yul\":9695:9718   */\n      div\n        /* \"#utility.yul\":9685:9718   */\n      swap1\n      pop\n        /* \"#utility.yul\":9631:9724   */\n      swap2\n      swap1\n      pop\n      jump\t// out\n        /* \"#utility.yul\":9730:9837   */\n    tag_74:\n        /* \"#utility.yul\":9774:9782   */\n      0x00\n        /* \"#utility.yul\":9824:9829   */\n      dup3\n        /* \"#utility.yul\":9818:9822   */\n      dup3\n        /* \"#utility.yul\":9814:9830   */\n      shl\n        /* \"#utility.yul\":9793:9830   */\n      swap1\n      pop\n        /* \"#utility.yul\":9730:9837   */\n      swap3\n      swap2\n      pop\n      pop\n      jump\t// out\n        /* \"#utility.yul\":9843:10236   */\n    tag_75:\n        /* \"#utility.yul\":9912:9918   */\n      0x00\n        /* \"#utility.yul\":9962:9963   */\n      0x08\n        /* \"#utility.yul\":9950:9960   */\n      dup4\n        /* \"#utility.yul\":9946:9964   */\n      mul\n        /* \"#utility.yul\":9985:10082   */\n      tag_187\n        /* \"#utility.yul\":10015:10081   */\n      0xffffffffffffffffffffffffffffffffffffffffffffffffffffffffffffffff\n        /* \"#utility.yul\":10004:10013   */\n      dup3\n        /* \"#utility.yul\":9985:10082   */\n      tag_74\n      jump\t// in\n    tag_187:\n        /* \"#utility.yul\":10103:10142   */\n      tag_188\n        /* \"#utility.yul\":10133:10141   */\n      dup7\n        /* \"#utility.yul\":10122:10131   */\n      dup4\n        /* \"#utility.yul\":10103:10142   */\n      tag_74\n      jump\t// in\n    tag_188:\n        /* \"#utility.yul\":10091:10142   */\n      swap6\n      pop\n        /* \"#utility.yul\":10175:10179   */\n      dup1\n        /* \"#utility.yul\":10171:10180   */\n      not\n        /* \"#utility.yul\":10164:10169   */\n      dup5\n        /* \"#utility.yul\":10160:10181   */\n      and\n        /* \"#utility.yul\":10151:10181   */\n      swap4\n      pop\n        /* \"#utility.yul\":10224:10228   */\n      dup1\n        /* \"#utility.yul\":10214:10222   */\n      dup7\n        /* \"#utility.yul\":10210:10229   */\n      and\n        /* \"#utility.yul\":10203:10208   */\n      dup5\n        /* \"#utility.yul\":10200:10230   */\n      or\n        /* \"#utility.yul\":10190:10230   */\n      swap3\n      pop\n        /* \"#utility.yul\":9919:10236   */\n      pop\n      pop\n        /* \"#utility.yul\":9843:10236   */\n      swap4\n      swap3\n      pop\n      pop\n      pop\n      jump\t// out\n        /* \"#utility.yul\":10242:10302   */\n    tag_76:\n        /* \"#utility.yul\":10270:10273   */\n      0x00\n        /* \"#utility.yul\":10291:10296   */\n      dup2\n        /* \"#utility.yul\":10284:10296   */\n      swap1\n      pop\n        /* \"#utility.yul\":10242:10302   */\n      swap2\n      swap1\n      pop\n      jump\t// out\n        /* \"#utility.yul\":10308:10450   */\n    tag_77:\n        /* \"#utility.yul\":10358:10367   */\n      0x00\n        /* \"#utility.yul\":10391:10444   */\n      tag_191\n        /* \"#utility.yul\":10409:10443   */\n      tag_192\n        /* \"#utility.yul\":10418:10442   */\n      tag_193\n        /* \"#utility.yul\":10436:10441   */\n      dup5\n        /* \"#utility.yul\":10418:10442   */\n      tag_44\n      jump\t// in\n    tag_193:\n        /* \"#utility.yul\":10409:10443   */\n      tag_76\n      jump\t// in\n    tag_192:\n        /* \"#utility.yul\":10391:10444   */\n      tag_44\n      jump\t// in\n    tag_191:\n        /* \"#utility.yul\":10378:10444   */\n      swap1\n      pop\n        /* \"#utility.yul\":10308:10450   */\n      swap2\n      swap1\n      pop\n      jump\t// out\n        /* \"#utility.yul\":10456:10531   */\n    tag_78:\n        /* \"#utility.yul\":10499:10502   */\n      0x00\n        /* \"#utility.yul\":10520:10525   */\n      dup2\n        /* \"#utility.yul\":10513:10525   */\n      swap1\n      pop\n        /* \"#utility.yul\":10456:10531   */\n      swap2\n      swap1\n      pop\n      jump\t// out\n        /* \"#utility.yul\":10537:10806   */\n    tag_79:\n        /* \"#utility.yul\":10647:10686   */\n      tag_196\n        /* \"#utility.yul\":10678:10685   */\n      dup4\n        /* \"#utility.yul\":10647:10686   */\n      tag_77\n      jump\t// in\n    tag_196:\n        /* \"#utility.yul\":10708:10799   */\n      tag_197\n        /* \"#utility.yul\":10757:10798   */\n      tag_198\n        /* \"#utility.yul\":10781:10797   */\n      dup3\n        /* \"#utility.yul\":10757:10798   */\n      tag_78\n      jump\t// in\n    tag_198:\n        /* \"#utility.yul\":10749:10755   */\n      dup5\n        /* \"#utility.yul\":10742:10746   */\n      dup5\n        /* \"#utility.yul\":10736:10747   */\n      sload\n        /* \"#utility.yul\":10708:10799   */\n      tag_75\n      jump\t// in\n    tag_197:\n        /* \"#utility.yul\":10702:10706   */\n      dup3\n        /* \"#utility.yul\":10695:10800   */\n      sstore\n        /* \"#utility.yul\":10613:10806   */\n      pop\n        /* \"#utility.yul\":10537:10806   */\n      pop\n      pop\n      pop\n      jump\t// out\n        /* \"#utility.yul\":10812:10885   */\n    tag_80:\n        /* \"#utility.yul\":10857:10860   */\n      0x00\n        /* \"#utility.yul\":10812:10885   */\n      swap1\n      jump\t// out\n        /* \"#utility.yul\":10891:11080   */\n    tag_81:\n        /* \"#utility.yul\":10968:11000   */\n      tag_201\n      tag_80\n      jump\t// in\n    tag_201:\n        /* \"#utility.yul\":11009:11074   */\n      tag_202\n        /* \"#utility.yul\":11067:11073   */\n      dup2\n        /* \"#utility.yul\":11059:11065   */\n      dup5\n        /* \"#utility.yul\":11053:11057   */\n      dup5\n        /* \"#utility.yul\":11009:11074   */\n      tag_79\n      jump\t// in\n    tag_202:\n        /* \"#utility.yul\":10944:11080   */\n      pop\n        /* \"#utility.yul\":10891:11080   */\n      pop\n      pop\n      jump\t// out\n        /* \"#utility.yul\":11086:11272   */\n    tag_82:\n        /* \"#utility.yul\":11146:11266   */\n    tag_204:\n        /* \"#utility.yul\":11163:11166   */\n      dup2\n        /* \"#utility.yul\":11156:11161   */\n      dup2\n        /* \"#utility.yul\":11153:11167   */\n      lt\n        /* \"#utility.yul\":11146:11266   */\n      iszero\n      tag_206\n      jumpi\n        /* \"#utility.yul\":11217:11256   */\n      tag_207\n        /* \"#utility.yul\":11254:11255   */\n      0x00\n        /* \"#utility.yul\":11247:11252   */\n      dup3\n        /* \"#utility.yul\":11217:11256   */\n      tag_81\n      jump\t// in\n    tag_207:\n        /* \"#utility.yul\":11190:11191   */\n      0x01\n        /* \"#utility.yul\":11183:11188   */\n      dup2\n        /* \"#utility.yul\":11179:11192   */\n      add\n        /* \"#utility.yul\":11170:11192   */\n      swap1\n      pop\n        /* \"#utility.yul\":11146:11266   */\n      jump(tag_204)\n    tag_206:\n        /* \"#utility.yul\":11086:11272   */\n      pop\n      pop\n      jump\t// out\n        /* \"#utility.yul\":11278:11821   */\n    tag_83:\n        /* \"#utility.yul\":11379:11381   */\n      0x1f\n        /* \"#utility.yul\":11374:11377   */\n      dup3\n        /* \"#utility.yul\":11371:11382   */\n      gt\n        /* \"#utility.yul\":11368:11814   */\n      iszero\n      tag_209\n      jumpi\n        /* \"#utility.yul\":11413:11451   */\n      tag_210\n        /* \"#utility.yul\":11445:11450   */\n      dup2\n        /* \"#utility.yul\":11413:11451   */\n      tag_72\n      jump\t// in\n    tag_210:\n        /* \"#utility.yul\":11497:11526   */\n      tag_211\n        /* \"#utility.yul\":11515:11525   */\n      dup5\n        /* \"#utility.yul\":11497:11526   */\n      tag_73\n      jump\t// in\n    tag_211:\n        /* \"#utility.yul\":11487:11495   */\n      dup2\n        /* \"#utility.yul\":11483:11527   */\n      add\n        /* \"#utility.yul\":11680:11682   */\n      0x20\n        /* \"#utility.yul\":11668:11678   */\n      dup6\n        /* \"#utility.yul\":11665:11683   */\n      lt\n        /* \"#utility.yul\":11662:11711   */\n      iszero\n      tag_212\n      jumpi\n        /* \"#utility.yul\":11701:11709   */\n      dup2\n        /* \"#utility.yul\":11686:11709   */\n      swap1\n      pop\n        /* \"#utility.yul\":11662:11711   */\n    tag_212:\n        /* \"#utility.yul\":11724:11804   */\n      tag_213\n        /* \"#utility.yul\":11780:11802   */\n      tag_214\n        /* \"#utility.yul\":11798:11801   */\n      dup6\n        /* \"#utility.yul\":11780:11802   */\n      tag_73\n      jump\t// in\n    tag_214:\n        /* \"#utility.yul\":11770:11778   */\n      dup4\n        /* \"#utility.yul\":11766:11803   */\n      add\n        /* \"#utility.yul\":11753:11764   */\n      dup3\n        /* \"#utility.yul\":11724:11804   */\n      tag_82\n      jump\t// in\n    tag_213:\n        /* \"#utility.yul\":11383:11814   */\n      pop\n      pop\n        /* \"#utility.yul\":11368:11814   */\n    tag_209:\n        /* \"#utility.yul\":11278:11821   */\n      pop\n      pop\n      pop\n      jump\t// out\n        /* \"#utility.yul\":11827:11944   */\n    tag_84:\n        /* \"#utility.yul\":11881:11889   */\n      0x00\n        /* \"#utility.yul\":11931:11936   */\n      dup3\n        /* \"#utility.yul\":11925:11929   */\n      dup3\n        /* \"#utility.yul\":11921:11937   */\n      shr\n        /* \"#utility.yul\":11900:11937   */\n      swap1\n      pop\n        /* \"#utility.yul\":11827:11944   */\n      swap3\n      swap2\n      pop\n      pop\n      jump\t// out\n        /* \"#utility.yul\":11950:12119   */\n    tag_85:\n        /* \"#utility.yul\":11994:12000   */\n      0x00\n        /* \"#utility.yul\":12027:12078   */\n      tag_217\n        /* \"#utility.yul\":12075:12076   */\n      0x00\n        /* \"#utility.yul\":12071:12077   */\n      not\n        /* \"#utility.yul\":12063:12068   */\n      dup5\n        /* \"#utility.yul\":12060:12061   */\n      0x08\n        /* \"#utility.yul\":12056:12069   */\n      mul\n        /* \"#utility.yul\":12027:12078   */\n      tag_84\n      jump\t// in\n    tag_217:\n        /* \"#utility.yul\":12023:12079   */\n      not\n        /* \"#utility.yul\":12108:12112   */\n      dup1\n        /* \"#utility.yul\":12102:12106   */\n      dup4\n        /* \"#utility.yul\":12098:12113   */\n      and\n        /* \"#utility.yul\":12088:12113   */\n      swap2\n      pop\n        /* \"#utility.yul\":12001:12119   */\n      pop\n        /* \"#utility.yul\":11950:12119   */\n      swap3\n      swap2\n      pop\n      pop\n      jump\t// out\n        /* \"#utility.yul\":12124:12419   */\n    tag_86:\n        /* \"#utility.yul\":12200:12204   */\n      0x00\n        /* \"#utility.yul\":12346:12375   */\n      tag_219\n        /* \"#utility.yul\":12371:12374   */\n      dup4\n        /* \"#utility.yul\":12365:12369   */\n      dup4\n        /* \"#utility.yul\":12346:12375   */\n      tag_85\n      jump\t// in\n    tag_219:\n        /* \"#utility.yul\":12338:12375   */\n      swap2\n      pop\n        /* \"#utility.yul\":12408:12411   */\n      dup3\n        /* \"#utility.yul\":12405:12406   */\n      0x02\n        /* \"#utility.yul\":12401:12412   */\n      mul\n        /* \"#utility.yul\":12395:12399   */\n      dup3\n        /* \"#utility.yul\":12392:12413   */\n      or\n        /* \"#utility.yul\":12384:12413   */\n      swap1\n      pop\n        /* \"#utility.yul\":12124:12419   */\n      swap3\n      swap2\n      pop\n      pop\n      jump\t// out\n        /* \"#utility.yul\":12424:13819   */\n    tag_34:\n        /* \"#utility.yul\":12541:12578   */\n      tag_221\n        /* \"#utility.yul\":12574:12577   */\n      dup3\n        /* \"#utility.yul\":12541:12578   */\n      tag_68\n      jump\t// in\n    tag_221:\n        /* \"#utility.yul\":12643:12661   */\n      0xffffffffffffffff\n        /* \"#utility.yul\":12635:12641   */\n      dup2\n        /* \"#utility.yul\":12632:12662   */\n      gt\n        /* \"#utility.yul\":12629:12685   */\n      iszero\n      tag_222\n      jumpi\n        /* \"#utility.yul\":12665:12683   */\n      tag_223\n      tag_57\n      jump\t// in\n    tag_223:\n        /* \"#utility.yul\":12629:12685   */\n    tag_222:\n        /* \"#utility.yul\":12709:12747   */\n      tag_224\n        /* \"#utility.yul\":12741:12745   */\n      dup3\n        /* \"#utility.yul\":12735:12746   */\n      sload\n        /* \"#utility.yul\":12709:12747   */\n      tag_36\n      jump\t// in\n    tag_224:\n        /* \"#utility.yul\":12794:12861   */\n      tag_225\n        /* \"#utility.yul\":12854:12860   */\n      dup3\n        /* \"#utility.yul\":12846:12852   */\n      dup3\n        /* \"#utility.yul\":12840:12844   */\n      dup6\n        /* \"#utility.yul\":12794:12861   */\n      tag_83\n      jump\t// in\n    tag_225:\n        /* \"#utility.yul\":12888:12889   */\n      0x00\n        /* \"#utility.yul\":12912:12916   */\n      0x20\n        /* \"#utility.yul\":12899:12916   */\n      swap1\n      pop\n        /* \"#utility.yul\":12944:12946   */\n      0x1f\n        /* \"#utility.yul\":12936:12942   */\n      dup4\n        /* \"#utility.yul\":12933:12947   */\n      gt\n        /* \"#utility.yul\":12961:12962   */\n      0x01\n        /* \"#utility.yul\":12956:13574   */\n      dup2\n      eq\n      tag_227\n      jumpi\n        /* \"#utility.yul\":13618:13619   */\n      0x00\n        /* \"#utility.yul\":13635:13641   */\n      dup5\n        /* \"#utility.yul\":13632:13709   */\n      iszero\n      tag_228\n      jumpi\n        /* \"#utility.yul\":13684:13693   */\n      dup3\n        /* \"#utility.yul\":13679:13682   */\n      dup8\n        /* \"#utility.yul\":13675:13694   */\n      add\n        /* \"#utility.yul\":13669:13695   */\n      mload\n        /* \"#utility.yul\":13660:13695   */\n      swap1\n      pop\n        /* \"#utility.yul\":13632:13709   */\n    tag_228:\n        /* \"#utility.yul\":13735:13802   */\n      tag_229\n        /* \"#utility.yul\":13795:13801   */\n      dup6\n        /* \"#utility.yul\":13788:13793   */\n      dup3\n        /* \"#utility.yul\":13735:13802   */\n      tag_86\n      jump\t// in\n    tag_229:\n        /* \"#utility.yul\":13729:13733   */\n      dup7\n        /* \"#utility.yul\":13722:13803   */\n      sstore\n        /* \"#utility.yul\":13591:13813   */\n      pop\n        /* \"#utility.yul\":12926:13813   */\n      jump(tag_226)\n        /* \"#utility.yul\":12956:13574   */\n    tag_227:\n        /* \"#utility.yul\":13008:13012   */\n      0x1f\n        /* \"#utility.yul\":13004:13013   */\n      not\n        /* \"#utility.yul\":12996:13002   */\n      dup5\n        /* \"#utility.yul\":12992:13014   */\n      and\n        /* \"#utility.yul\":13042:13079   */\n      tag_230\n        /* \"#utility.yul\":13074:13078   */\n      dup7\n        /* \"#utility.yul\":13042:13079   */\n      tag_72\n      jump\t// in\n    tag_230:\n        /* \"#utility.yul\":13101:13102   */\n      0x00\n        /* \"#utility.yul\":13115:13323   */\n    tag_231:\n        /* \"#utility.yul\":13129:13136   */\n      dup3\n        /* \"#utility.yul\":13126:13127   */\n      dup2\n        /* \"#utility.yul\":13123:13137   */\n      lt\n        /* \"#utility.yul\":13115:13323   */\n      iszero\n      tag_233\n      jumpi\n        /* \"#utility.yul\":13208:13217   */\n      dup5\n        /* \"#utility.yul\":13203:13206   */\n      dup10\n        /* \"#utility.yul\":13199:13218   */\n      add\n        /* \"#utility.yul\":13193:13219   */\n      mload\n        /* \"#utility.yul\":13185:13191   */\n      dup3\n        /* \"#utility.yul\":13178:13220   */\n      sstore\n        /* \"#utility.yul\":13259:13260   */\n      0x01\n        /* \"#utility.yul\":13251:13257   */\n      dup3\n        /* \"#utility.yul\":13247:13261   */\n      add\n        /* \"#utility.yul\":13237:13261   */\n      swap2\n      pop\n        /* \"#utility.yul\":13306:13308   */\n      0x20\n        /* \"#utility.yul\":13295:13304   */\n      dup6\n        /* \"#utility.yul\":13291:13309   */\n      add\n        /* \"#utility.yul\":13278:13309   */\n      swap5\n      pop\n        /* \"#utility.yul\":13152:13156   */\n      0x20\n        /* \"#utility.yul\":13149:13150   */\n      dup2\n        /* \"#utility.yul\":13145:13157   */\n      add\n        /* \"#utility.yul\":13140:13157   */\n      swap1\n      pop\n        /* \"#utility.yul\":13115:13323   */\n      jump(tag_231)\n    tag_233:\n        /* \"#utility.yul\":13351:13357   */\n      dup7\n        /* \"#utility.yul\":13342:13349   */\n      dup4\n        /* \"#utility.yul\":13339:13358   */\n      lt\n        /* \"#utility.yul\":13336:13515   */\n      iszero\n      tag_234\n      jumpi\n        /* \"#utility.yul\":13409:13418   */\n      dup5\n        /* \"#utility.yul\":13404:13407   */\n      dup10\n        /* \"#utility.yul\":13400:13419   */\n      add\n        /* \"#utility.yul\":13394:13420   */\n      mload\n        /* \"#utility.yul\":13452:13500   */\n      tag_235\n        /* \"#utility.yul\":13494:13498   */\n      0x1f\n        /* \"#utility.yul\":13486:13492   */\n      dup10\n        /* \"#utility.yul\":13482:13499   */\n      and\n        /* \"#utility.yul\":13471:13480   */\n      dup3\n        /* \"#utility.yul\":13452:13500   */\n      tag_85\n      jump\t// in\n    tag_235:\n        /* \"#utility.yul\":13444:13450   */\n      dup4\n        /* \"#utility.yul\":13437:13501   */\n      sstore\n        /* \"#utility.yul\":13359:13515   */\n      pop\n        /* \"#utility.yul\":13336:13515   */\n    tag_234:\n        /* \"#utility.yul\":13561:13562   */\n      0x01\n        /* \"#utility.yul\":13557:13558   */\n      0x02\n        /* \"#utility.yul\":13549:13555   */\n      dup9\n        /* \"#utility.yul\":13545:13559   */\n      mul\n        /* \"#utility.yul\":13541:13563   */\n      add\n        /* \"#utility.yul\":13535:13539   */\n      dup9\n        /* \"#utility.yul\":13528:13564   */\n      sstore\n        /* \"#utility.yul\":12963:13574   */\n      pop\n      pop\n      pop\n        /* \"#utility.yul\":12926:13813   */\n    tag_226:\n      pop\n        /* \"#utility.yul\":12516:13819   */\n      pop\n      pop\n      pop\n        /* \"#utility.yul\":12424:13819   */\n      pop\n      pop\n      jump\t// out\n\n    auxdata: 0xa26469706673582212208fb82053b0e9b9f43a7b4899b1a9dcbbdddc173e28cb2afd53cef88e38b1a7e264736f6c63430008120033\n}\n",
				"bytecode": {
					"linkReferences": {},
					"object": "608060405234801561001057600080fd5b506109d0806100206000396000f3fe6080604052600436106100385760003560e01c80630c55699c146100b357806324ccab8f146100de578063e21f37ce1461010f57610078565b36610078577f59e04c3f0d44b7caf6e8ef854b61d9a51cf1960d7a88ff6356cc5e946b4b5832333460405161006e9291906102e9565b60405180910390a1005b7f59e04c3f0d44b7caf6e8ef854b61d9a51cf1960d7a88ff6356cc5e946b4b583233346040516100a9929190610371565b60405180910390a1005b3480156100bf57600080fd5b506100c861013a565b6040516100d591906103ad565b60405180910390f35b6100f860048036038101906100f3919061054e565b610140565b6040516101069291906105c5565b60405180910390f35b34801561011b57600080fd5b506101246101a4565b604051610131919061065c565b60405180910390f35b60015481565b6000807f59e04c3f0d44b7caf6e8ef854b61d9a51cf1960d7a88ff6356cc5e946b4b58323334866040516101769392919061067e565b60405180910390a1836000908161018d91906108c8565b508260018190555060016064915091509250929050565b600080546101b1906106eb565b80601f01602080910402602001604051908101604052809291908181526020018280546101dd906106eb565b801561022a5780601f106101ff5761010080835404028352916020019161022a565b820191906000526020600020905b81548152906001019060200180831161020d57829003601f168201915b505050505081565b600073ffffffffffffffffffffffffffffffffffffffff82169050919050565b600061025d82610232565b9050919050565b61026d81610252565b82525050565b6000819050919050565b61028681610273565b82525050565b600082825260208201905092915050565b7f52656365697665207761732063616c6c65640000000000000000000000000000600082015250565b60006102d360128361028c565b91506102de8261029d565b602082019050919050565b60006060820190506102fe6000830185610264565b61030b602083018461027d565b818103604083015261031c816102c6565b90509392505050565b7f46616c6c6261636b207761732063616c6c656400000000000000000000000000600082015250565b600061035b60138361028c565b915061036682610325565b602082019050919050565b60006060820190506103866000830185610264565b610393602083018461027d565b81810360408301526103a48161034e565b90509392505050565b60006020820190506103c2600083018461027d565b92915050565b6000604051905090565b600080fd5b600080fd5b600080fd5b600080fd5b6000601f19601f8301169050919050565b7f4e487b7100000000000000000000000000000000000000000000000000000000600052604160045260246000fd5b61042f826103e6565b810181811067ffffffffffffffff8211171561044e5761044d6103f7565b5b80604052505050565b60006104616103c8565b905061046d8282610426565b919050565b600067ffffffffffffffff82111561048d5761048c6103f7565b5b610496826103e6565b9050602081019050919050565b82818337600083830152505050565b60006104c56104c084610472565b610457565b9050828152602081018484840111156104e1576104e06103e1565b5b6104ec8482856104a3565b509392505050565b600082601f830112610509576105086103dc565b5b81356105198482602086016104b2565b91505092915050565b61052b81610273565b811461053657600080fd5b50565b60008135905061054881610522565b92915050565b60008060408385031215610565576105646103d2565b5b600083013567ffffffffffffffff811115610583576105826103d7565b5b61058f858286016104f4565b92505060206105a085828601610539565b9150509250929050565b60008115159050919050565b6105bf816105aa565b82525050565b60006040820190506105da60008301856105b6565b6105e7602083018461027d565b9392505050565b600081519050919050565b60005b838110156106175780820151818401526020810190506105fc565b60008484015250505050565b600061062e826105ee565b610638818561028c565b93506106488185602086016105f9565b610651816103e6565b840191505092915050565b600060208201905081810360008301526106768184610623565b905092915050565b60006060820190506106936000830186610264565b6106a0602083018561027d565b81810360408301526106b28184610623565b9050949350505050565b7f4e487b7100000000000000000000000000000000000000000000000000000000600052602260045260246000fd5b6000600282049050600182168061070357607f821691505b602082108103610716576107156106bc565b5b50919050565b60008190508160005260206000209050919050565b60006020601f8301049050919050565b600082821b905092915050565b60006008830261077e7fffffffffffffffffffffffffffffffffffffffffffffffffffffffffffffffff82610741565b6107888683610741565b95508019841693508086168417925050509392505050565b6000819050919050565b60006107c56107c06107bb84610273565b6107a0565b610273565b9050919050565b6000819050919050565b6107df836107aa565b6107f36107eb826107cc565b84845461074e565b825550505050565b600090565b6108086107fb565b6108138184846107d6565b505050565b5b818110156108375761082c600082610800565b600181019050610819565b5050565b601f82111561087c5761084d8161071c565b61085684610731565b81016020851015610865578190505b61087961087185610731565b830182610818565b50505b505050565b600082821c905092915050565b600061089f60001984600802610881565b1980831691505092915050565b60006108b8838361088e565b9150826002028217905092915050565b6108d1826105ee565b67ffffffffffffffff8111156108ea576108e96103f7565b5b6108f482546106eb565b6108ff82828561083b565b600060209050601f8311600181146109325760008415610920578287015190505b61092a85826108ac565b865550610992565b601f1984166109408661071c565b60005b8281101561096857848901518255600182019150602085019450602081019050610943565b868310156109855784890151610981601f89168261088e565b8355505b6001600288020188555050505b50505050505056fea26469706673582212208fb82053b0e9b9f43a7b4899b1a9dcbbdddc173e28cb2afd53cef88e38b1a7e264736f6c63430008120033",
					"opcodes": "PUSH1 0x80 PUSH1 0x40 MSTORE CALLVALUE DUP1 ISZERO PUSH2 0x10 JUMPI PUSH1 0x0 DUP1 REVERT JUMPDEST POP PUSH2 0x9D0 DUP1 PUSH2 0x20 PUSH1 0x0 CODECOPY PUSH1 0x0 RETURN INVALID PUSH1 0x80 PUSH1 0x40 MSTORE PUSH1 0x4 CALLDATASIZE LT PUSH2 0x38 JUMPI PUSH1 0x0 CALLDATALOAD PUSH1 0xE0 SHR DUP1 PUSH4 0xC55699C EQ PUSH2 0xB3 JUMPI DUP1 PUSH4 0x24CCAB8F EQ PUSH2 0xDE JUMPI DUP1 PUSH4 0xE21F37CE EQ PUSH2 0x10F JUMPI PUSH2 0x78 JUMP JUMPDEST CALLDATASIZE PUSH2 0x78 JUMPI PUSH32 0x59E04C3F0D44B7CAF6E8EF854B61D9A51CF1960D7A88FF6356CC5E946B4B5832 CALLER CALLVALUE PUSH1 0x40 MLOAD PUSH2 0x6E SWAP3 SWAP2 SWAP1 PUSH2 0x2E9 JUMP JUMPDEST PUSH1 0x40 MLOAD DUP1 SWAP2 SUB SWAP1 LOG1 STOP JUMPDEST PUSH32 0x59E04C3F0D44B7CAF6E8EF854B61D9A51CF1960D7A88FF6356CC5E946B4B5832 CALLER CALLVALUE PUSH1 0x40 MLOAD PUSH2 0xA9 SWAP3 SWAP2 SWAP1 PUSH2 0x371 JUMP JUMPDEST PUSH1 0x40 MLOAD DUP1 SWAP2 SUB SWAP1 LOG1 STOP JUMPDEST CALLVALUE DUP1 ISZERO PUSH2 0xBF JUMPI PUSH1 0x0 DUP1 REVERT JUMPDEST POP PUSH2 0xC8 PUSH2 0x13A JUMP JUMPDEST PUSH1 0x40 MLOAD PUSH2 0xD5 SWAP2 SWAP1 PUSH2 0x3AD JUMP JUMPDEST PUSH1 0x40 MLOAD DUP1 SWAP2 SUB SWAP1 RETURN JUMPDEST PUSH2 0xF8 PUSH1 0x4 DUP1 CALLDATASIZE SUB DUP2 ADD SWAP1 PUSH2 0xF3 SWAP2 SWAP1 PUSH2 0x54E JUMP JUMPDEST PUSH2 0x140 JUMP JUMPDEST PUSH1 0x40 MLOAD PUSH2 0x106 SWAP3 SWAP2 SWAP1 PUSH2 0x5C5 JUMP JUMPDEST PUSH1 0x40 MLOAD DUP1 SWAP2 SUB SWAP1 RETURN JUMPDEST CALLVALUE DUP1 ISZERO PUSH2 0x11B JUMPI PUSH1 0x0 DUP1 REVERT JUMPDEST POP PUSH2 0x124 PUSH2 0x1A4 JUMP JUMPDEST PUSH1 0x40 MLOAD PUSH2 0x131 SWAP2 SWAP1 PUSH2 0x65C JUMP JUMPDEST PUSH1 0x40 MLOAD DUP1 SWAP2 SUB SWAP1 RETURN JUMPDEST PUSH1 0x1 SLOAD DUP2 JUMP JUMPDEST PUSH1 0x0 DUP1 PUSH32 0x59E04C3F0D44B7CAF6E8EF854B61D9A51CF1960D7A88FF6356CC5E946B4B5832 CALLER CALLVALUE DUP7 PUSH1 0x40 MLOAD PUSH2 0x176 SWAP4 SWAP3 SWAP2 SWAP1 PUSH2 0x67E JUMP JUMPDEST PUSH1 0x40 MLOAD DUP1 SWAP2 SUB SWAP1 LOG1 DUP4 PUSH1 0x0 SWAP1 DUP2 PUSH2 0x18D SWAP2 SWAP1 PUSH2 0x8C8 JUMP JUMPDEST POP DUP3 PUSH1 0x1 DUP2 SWAP1 SSTORE POP PUSH1 0x1 PUSH1 0x64 SWAP2 POP SWAP2 POP SWAP3 POP SWAP3 SWAP1 POP JUMP JUMPDEST PUSH1 0x0 DUP1 SLOAD PUSH2 0x1B1 SWAP1 PUSH2 0x6EB JUMP JUMPDEST DUP1 PUSH1 0x1F ADD PUSH1 0x20 DUP1 SWAP2 DIV MUL PUSH1 0x20 ADD PUSH1 0x40 MLOAD SWAP1 DUP2 ADD PUSH1 0x40 MSTORE DUP1 SWAP3 SWAP2 SWAP1 DUP2 DUP2 MSTORE PUSH1 0x20 ADD DUP3 DUP1 SLOAD PUSH2 0x1DD SWAP1 PUSH2 0x6EB JUMP JUMPDEST DUP1 ISZERO PUSH2 0x22A JUMPI DUP1 PUSH1 0x1F LT PUSH2 0x1FF JUMPI PUSH2 0x100 DUP1 DUP4 SLOAD DIV MUL DUP4 MSTORE SWAP2 PUSH1 0x20 ADD SWAP2 PUSH2 0x22A JUMP JUMPDEST DUP3 ADD SWAP2 SWAP1 PUSH1 0x0 MSTORE PUSH1 0x20 PUSH1 0x0 KECCAK256 SWAP1 JUMPDEST DUP2 SLOAD DUP2 MSTORE SWAP1 PUSH1 0x1 ADD SWAP1 PUSH1 0x20 ADD DUP1 DUP4 GT PUSH2 0x20D JUMPI DUP3 SWAP1 SUB PUSH1 0x1F AND DUP3 ADD SWAP2 JUMPDEST POP POP POP POP POP DUP2 JUMP JUMPDEST PUSH1 0x0 PUSH20 0xFFFFFFFFFFFFFFFFFFFFFFFFFFFFFFFFFFFFFFFF DUP3 AND SWAP1 POP SWAP2 SWAP1 POP JUMP JUMPDEST PUSH1 0x0 PUSH2 0x25D DUP3 PUSH2 0x232 JUMP JUMPDEST SWAP1 POP SWAP2 SWAP1 POP JUMP JUMPDEST PUSH2 0x26D DUP2 PUSH2 0x252 JUMP JUMPDEST DUP3 MSTORE POP POP JUMP JUMPDEST PUSH1 0x0 DUP2 SWAP1 POP SWAP2 SWAP1 POP JUMP JUMPDEST PUSH2 0x286 DUP2 PUSH2 0x273 JUMP JUMPDEST DUP3 MSTORE POP POP JUMP JUMPDEST PUSH1 0x0 DUP3 DUP3 MSTORE PUSH1 0x20 DUP3 ADD SWAP1 POP SWAP3 SWAP2 POP POP JUMP JUMPDEST PUSH32 0x52656365697665207761732063616C6C65640000000000000000000000000000 PUSH1 0x0 DUP3 ADD MSTORE POP JUMP JUMPDEST PUSH1 0x0 PUSH2 0x2D3 PUSH1 0x12 DUP4 PUSH2 0x28C JUMP JUMPDEST SWAP2 POP PUSH2 0x2DE DUP3 PUSH2 0x29D JUMP JUMPDEST PUSH1 0x20 DUP3 ADD SWAP1 POP SWAP2 SWAP1 POP JUMP JUMPDEST PUSH1 0x0 PUSH1 0x60 DUP3 ADD SWAP1 POP PUSH2 0x2FE PUSH1 0x0 DUP4 ADD DUP6 PUSH2 0x264 JUMP JUMPDEST PUSH2 0x30B PUSH1 0x20 DUP4 ADD DUP5 PUSH2 0x27D JUMP JUMPDEST DUP2 DUP2 SUB PUSH1 0x40 DUP4 ADD MSTORE PUSH2 0x31C DUP2 PUSH2 0x2C6 JUMP JUMPDEST SWAP1 POP SWAP4 SWAP3 POP POP POP JUMP JUMPDEST PUSH32 0x46616C6C6261636B207761732063616C6C656400000000000000000000000000 PUSH1 0x0 DUP3 ADD MSTORE POP JUMP JUMPDEST PUSH1 0x0 PUSH2 0x35B PUSH1 0x13 DUP4 PUSH2 0x28C JUMP JUMPDEST SWAP2 POP PUSH2 0x366 DUP3 PUSH2 0x325 JUMP JUMPDEST PUSH1 0x20 DUP3 ADD SWAP1 POP SWAP2 SWAP1 POP JUMP JUMPDEST PUSH1 0x0 PUSH1 0x60 DUP3 ADD SWAP1 POP PUSH2 0x386 PUSH1 0x0 DUP4 ADD DUP6 PUSH2 0x264 JUMP JUMPDEST PUSH2 0x393 PUSH1 0x20 DUP4 ADD DUP5 PUSH2 0x27D JUMP JUMPDEST DUP2 DUP2 SUB PUSH1 0x40 DUP4 ADD MSTORE PUSH2 0x3A4 DUP2 PUSH2 0x34E JUMP JUMPDEST SWAP1 POP SWAP4 SWAP3 POP POP POP JUMP JUMPDEST PUSH1 0x0 PUSH1 0x20 DUP3 ADD SWAP1 POP PUSH2 0x3C2 PUSH1 0x0 DUP4 ADD DUP5 PUSH2 0x27D JUMP JUMPDEST SWAP3 SWAP2 POP POP JUMP JUMPDEST PUSH1 0x0 PUSH1 0x40 MLOAD SWAP1 POP SWAP1 JUMP JUMPDEST PUSH1 0x0 DUP1 REVERT JUMPDEST PUSH1 0x0 DUP1 REVERT JUMPDEST PUSH1 0x0 DUP1 REVERT JUMPDEST PUSH1 0x0 DUP1 REVERT JUMPDEST PUSH1 0x0 PUSH1 0x1F NOT PUSH1 0x1F DUP4 ADD AND SWAP1 POP SWAP2 SWAP1 POP JUMP JUMPDEST PUSH32 0x4E487B7100000000000000000000000000000000000000000000000000000000 PUSH1 0x0 MSTORE PUSH1 0x41 PUSH1 0x4 MSTORE PUSH1 0x24 PUSH1 0x0 REVERT JUMPDEST PUSH2 0x42F DUP3 PUSH2 0x3E6 JUMP JUMPDEST DUP2 ADD DUP2 DUP2 LT PUSH8 0xFFFFFFFFFFFFFFFF DUP3 GT OR ISZERO PUSH2 0x44E JUMPI PUSH2 0x44D PUSH2 0x3F7 JUMP JUMPDEST JUMPDEST DUP1 PUSH1 0x40 MSTORE POP POP POP JUMP JUMPDEST PUSH1 0x0 PUSH2 0x461 PUSH2 0x3C8 JUMP JUMPDEST SWAP1 POP PUSH2 0x46D DUP3 DUP3 PUSH2 0x426 JUMP JUMPDEST SWAP2 SWAP1 POP JUMP JUMPDEST PUSH1 0x0 PUSH8 0xFFFFFFFFFFFFFFFF DUP3 GT ISZERO PUSH2 0x48D JUMPI PUSH2 0x48C PUSH2 0x3F7 JUMP JUMPDEST JUMPDEST PUSH2 0x496 DUP3 PUSH2 0x3E6 JUMP JUMPDEST SWAP1 POP PUSH1 0x20 DUP2 ADD SWAP1 POP SWAP2 SWAP1 POP JUMP JUMPDEST DUP3 DUP2 DUP4 CALLDATACOPY PUSH1 0x0 DUP4 DUP4 ADD MSTORE POP POP POP JUMP JUMPDEST PUSH1 0x0 PUSH2 0x4C5 PUSH2 0x4C0 DUP5 PUSH2 0x472 JUMP JUMPDEST PUSH2 0x457 JUMP JUMPDEST SWAP1 POP DUP3 DUP2 MSTORE PUSH1 0x20 DUP2 ADD DUP5 DUP5 DUP5 ADD GT ISZERO PUSH2 0x4E1 JUMPI PUSH2 0x4E0 PUSH2 0x3E1 JUMP JUMPDEST JUMPDEST PUSH2 0x4EC DUP5 DUP3 DUP6 PUSH2 0x4A3 JUMP JUMPDEST POP SWAP4 SWAP3 POP POP POP JUMP JUMPDEST PUSH1 0x0 DUP3 PUSH1 0x1F DUP4 ADD SLT PUSH2 0x509 JUMPI PUSH2 0x508 PUSH2 0x3DC JUMP JUMPDEST JUMPDEST DUP2 CALLDATALOAD PUSH2 0x519 DUP5 DUP3 PUSH1 0x20 DUP7 ADD PUSH2 0x4B2 JUMP JUMPDEST SWAP2 POP POP SWAP3 SWAP2 POP POP JUMP JUMPDEST PUSH2 0x52B DUP2 PUSH2 0x273 JUMP JUMPDEST DUP2 EQ PUSH2 0x536 JUMPI PUSH1 0x0 DUP1 REVERT JUMPDEST POP JUMP JUMPDEST PUSH1 0x0 DUP2 CALLDATALOAD SWAP1 POP PUSH2 0x548 DUP2 PUSH2 0x522 JUMP JUMPDEST SWAP3 SWAP2 POP POP JUMP JUMPDEST PUSH1 0x0 DUP1 PUSH1 0x40 DUP4 DUP6 SUB SLT ISZERO PUSH2 0x565 JUMPI PUSH2 0x564 PUSH2 0x3D2 JUMP JUMPDEST JUMPDEST PUSH1 0x0 DUP4 ADD CALLDATALOAD PUSH8 0xFFFFFFFFFFFFFFFF DUP2 GT ISZERO PUSH2 0x583 JUMPI PUSH2 0x582 PUSH2 0x3D7 JUMP JUMPDEST JUMPDEST PUSH2 0x58F DUP6 DUP3 DUP7 ADD PUSH2 0x4F4 JUMP JUMPDEST SWAP3 POP POP PUSH1 0x20 PUSH2 0x5A0 DUP6 DUP3 DUP7 ADD PUSH2 0x539 JUMP JUMPDEST SWAP2 POP POP SWAP3 POP SWAP3 SWAP1 POP JUMP JUMPDEST PUSH1 0x0 DUP2 ISZERO ISZERO SWAP1 POP SWAP2 SWAP1 POP JUMP JUMPDEST PUSH2 0x5BF DUP2 PUSH2 0x5AA JUMP JUMPDEST DUP3 MSTORE POP POP JUMP JUMPDEST PUSH1 0x0 PUSH1 0x40 DUP3 ADD SWAP1 POP PUSH2 0x5DA PUSH1 0x0 DUP4 ADD DUP6 PUSH2 0x5B6 JUMP JUMPDEST PUSH2 0x5E7 PUSH1 0x20 DUP4 ADD DUP5 PUSH2 0x27D JUMP JUMPDEST SWAP4 SWAP3 POP POP POP JUMP JUMPDEST PUSH1 0x0 DUP2 MLOAD SWAP1 POP SWAP2 SWAP1 POP JUMP JUMPDEST PUSH1 0x0 JUMPDEST DUP4 DUP2 LT ISZERO PUSH2 0x617 JUMPI DUP1 DUP3 ADD MLOAD DUP2 DUP5 ADD MSTORE PUSH1 0x20 DUP2 ADD SWAP1 POP PUSH2 0x5FC JUMP JUMPDEST PUSH1 0x0 DUP5 DUP5 ADD MSTORE POP POP POP POP JUMP JUMPDEST PUSH1 0x0 PUSH2 0x62E DUP3 PUSH2 0x5EE JUMP JUMPDEST PUSH2 0x638 DUP2 DUP6 PUSH2 0x28C JUMP JUMPDEST SWAP4 POP PUSH2 0x648 DUP2 DUP6 PUSH1 0x20 DUP7 ADD PUSH2 0x5F9 JUMP JUMPDEST PUSH2 0x651 DUP2 PUSH2 0x3E6 JUMP JUMPDEST DUP5 ADD SWAP2 POP POP SWAP3 SWAP2 POP POP JUMP JUMPDEST PUSH1 0x0 PUSH1 0x20 DUP3 ADD SWAP1 POP DUP2 DUP2 SUB PUSH1 0x0 DUP4 ADD MSTORE PUSH2 0x676 DUP2 DUP5 PUSH2 0x623 JUMP JUMPDEST SWAP1 POP SWAP3 SWAP2 POP POP JUMP JUMPDEST PUSH1 0x0 PUSH1 0x60 DUP3 ADD SWAP1 POP PUSH2 0x693 PUSH1 0x0 DUP4 ADD DUP7 PUSH2 0x264 JUMP JUMPDEST PUSH2 0x6A0 PUSH1 0x20 DUP4 ADD DUP6 PUSH2 0x27D JUMP JUMPDEST DUP2 DUP2 SUB PUSH1 0x40 DUP4 ADD MSTORE PUSH2 0x6B2 DUP2 DUP5 PUSH2 0x623 JUMP JUMPDEST SWAP1 POP SWAP5 SWAP4 POP POP POP POP JUMP JUMPDEST PUSH32 0x4E487B7100000000000000000000000000000000000000000000000000000000 PUSH1 0x0 MSTORE PUSH1 0x22 PUSH1 0x4 MSTORE PUSH1 0x24 PUSH1 0x0 REVERT JUMPDEST PUSH1 0x0 PUSH1 0x2 DUP3 DIV SWAP1 POP PUSH1 0x1 DUP3 AND DUP1 PUSH2 0x703 JUMPI PUSH1 0x7F DUP3 AND SWAP2 POP JUMPDEST PUSH1 0x20 DUP3 LT DUP2 SUB PUSH2 0x716 JUMPI PUSH2 0x715 PUSH2 0x6BC JUMP JUMPDEST JUMPDEST POP SWAP2 SWAP1 POP JUMP JUMPDEST PUSH1 0x0 DUP2 SWAP1 POP DUP2 PUSH1 0x0 MSTORE PUSH1 0x20 PUSH1 0x0 KECCAK256 SWAP1 POP SWAP2 SWAP1 POP JUMP JUMPDEST PUSH1 0x0 PUSH1 0x20 PUSH1 0x1F DUP4 ADD DIV SWAP1 POP SWAP2 SWAP1 POP JUMP JUMPDEST PUSH1 0x0 DUP3 DUP3 SHL SWAP1 POP SWAP3 SWAP2 POP POP JUMP JUMPDEST PUSH1 0x0 PUSH1 0x8 DUP4 MUL PUSH2 0x77E PUSH32 0xFFFFFFFFFFFFFFFFFFFFFFFFFFFFFFFFFFFFFFFFFFFFFFFFFFFFFFFFFFFFFFFF DUP3 PUSH2 0x741 JUMP JUMPDEST PUSH2 0x788 DUP7 DUP4 PUSH2 0x741 JUMP JUMPDEST SWAP6 POP DUP1 NOT DUP5 AND SWAP4 POP DUP1 DUP7 AND DUP5 OR SWAP3 POP POP POP SWAP4 SWAP3 POP POP POP JUMP JUMPDEST PUSH1 0x0 DUP2 SWAP1 POP SWAP2 SWAP1 POP JUMP JUMPDEST PUSH1 0x0 PUSH2 0x7C5 PUSH2 0x7C0 PUSH2 0x7BB DUP5 PUSH2 0x273 JUMP JUMPDEST PUSH2 0x7A0 JUMP JUMPDEST PUSH2 0x273 JUMP JUMPDEST SWAP1 POP SWAP2 SWAP1 POP JUMP JUMPDEST PUSH1 0x0 DUP2 SWAP1 POP SWAP2 SWAP1 POP JUMP JUMPDEST PUSH2 0x7DF DUP4 PUSH2 0x7AA JUMP JUMPDEST PUSH2 0x7F3 PUSH2 0x7EB DUP3 PUSH2 0x7CC JUMP JUMPDEST DUP5 DUP5 SLOAD PUSH2 0x74E JUMP JUMPDEST DUP3 SSTORE POP POP POP POP JUMP JUMPDEST PUSH1 0x0 SWAP1 JUMP JUMPDEST PUSH2 0x808 PUSH2 0x7FB JUMP JUMPDEST PUSH2 0x813 DUP2 DUP5 DUP5 PUSH2 0x7D6 JUMP JUMPDEST POP POP POP JUMP JUMPDEST JUMPDEST DUP2 DUP2 LT ISZERO PUSH2 0x837 JUMPI PUSH2 0x82C PUSH1 0x0 DUP3 PUSH2 0x800 JUMP JUMPDEST PUSH1 0x1 DUP2 ADD SWAP1 POP PUSH2 0x819 JUMP JUMPDEST POP POP JUMP JUMPDEST PUSH1 0x1F DUP3 GT ISZERO PUSH2 0x87C JUMPI PUSH2 0x84D DUP2 PUSH2 0x71C JUMP JUMPDEST PUSH2 0x856 DUP5 PUSH2 0x731 JUMP JUMPDEST DUP2 ADD PUSH1 0x20 DUP6 LT ISZERO PUSH2 0x865 JUMPI DUP2 SWAP1 POP JUMPDEST PUSH2 0x879 PUSH2 0x871 DUP6 PUSH2 0x731 JUMP JUMPDEST DUP4 ADD DUP3 PUSH2 0x818 JUMP JUMPDEST POP POP JUMPDEST POP POP POP JUMP JUMPDEST PUSH1 0x0 DUP3 DUP3 SHR SWAP1 POP SWAP3 SWAP2 POP POP JUMP JUMPDEST PUSH1 0x0 PUSH2 0x89F PUSH1 0x0 NOT DUP5 PUSH1 0x8 MUL PUSH2 0x881 JUMP JUMPDEST NOT DUP1 DUP4 AND SWAP2 POP POP SWAP3 SWAP2 POP POP JUMP JUMPDEST PUSH1 0x0 PUSH2 0x8B8 DUP4 DUP4 PUSH2 0x88E JUMP JUMPDEST SWAP2 POP DUP3 PUSH1 0x2 MUL DUP3 OR SWAP1 POP SWAP3 SWAP2 POP POP JUMP JUMPDEST PUSH2 0x8D1 DUP3 PUSH2 0x5EE JUMP JUMPDEST PUSH8 0xFFFFFFFFFFFFFFFF DUP2 GT ISZERO PUSH2 0x8EA JUMPI PUSH2 0x8E9 PUSH2 0x3F7 JUMP JUMPDEST JUMPDEST PUSH2 0x8F4 DUP3 SLOAD PUSH2 0x6EB JUMP JUMPDEST PUSH2 0x8FF DUP3 DUP3 DUP6 PUSH2 0x83B JUMP JUMPDEST PUSH1 0x0 PUSH1 0x20 SWAP1 POP PUSH1 0x1F DUP4 GT PUSH1 0x1 DUP2 EQ PUSH2 0x932 JUMPI PUSH1 0x0 DUP5 ISZERO PUSH2 0x920 JUMPI DUP3 DUP8 ADD MLOAD SWAP1 POP JUMPDEST PUSH2 0x92A DUP6 DUP3 PUSH2 0x8AC JUMP JUMPDEST DUP7 SSTORE POP PUSH2 0x992 JUMP JUMPDEST PUSH1 0x1F NOT DUP5 AND PUSH2 0x940 DUP7 PUSH2 0x71C JUMP JUMPDEST PUSH1 0x0 JUMPDEST DUP3 DUP2 LT ISZERO PUSH2 0x968 JUMPI DUP5 DUP10 ADD MLOAD DUP3 SSTORE PUSH1 0x1 DUP3 ADD SWAP2 POP PUSH1 0x20 DUP6 ADD SWAP5 POP PUSH1 0x20 DUP2 ADD SWAP1 POP PUSH2 0x943 JUMP JUMPDEST DUP7 DUP4 LT ISZERO PUSH2 0x985 JUMPI DUP5 DUP10 ADD MLOAD PUSH2 0x981 PUSH1 0x1F DUP10 AND DUP3 PUSH2 0x88E JUMP JUMPDEST DUP4 SSTORE POP JUMPDEST PUSH1 0x1 PUSH1 0x2 DUP9 MUL ADD DUP9 SSTORE POP POP POP JUMPDEST POP POP POP POP POP POP JUMP INVALID LOG2 PUSH5 0x6970667358 0x22 SLT KECCAK256 DUP16 0xB8 KECCAK256 MSTORE8 0xB0 0xE9 0xB9 DELEGATECALL GASPRICE PUSH28 0x4899B1A9DCBBDDDC173E28CB2AFD53CEF88E38B1A7E264736F6C6343 STOP ADDMOD SLT STOP CALLER "
				},
				"gasEstimates": {
					"creation": {
						"codeDepositCost": "502400",
						"executionCost": "537",
						"totalCost": "502937"
					},
					"external": {
						"": "2696",
						"foo(string,uint256)": "infinite",
						"message()": "infinite",
						"x()": "2407"
					}
				},
				"methodIdentifiers": {
					"foo(string,uint256)": "24ccab8f",
					"message()": "e21f37ce",
					"x()": "0c55699c"
				}
			},
			"storageLayout": {
				"storage": [
					{
						"astId": 3,
						"contract": "20. call.sol:Receiver",
						"label": "message",
						"offset": 0,
						"slot": "0",
						"type": "t_string_storage"
					},
					{
						"astId": 5,
						"contract": "20. call.sol:Receiver",
						"label": "x",
						"offset": 0,
						"slot": "1",
						"type": "t_uint256"
					}
				],
				"types": {
					"t_string_storage": {
						"encoding": "bytes",
						"label": "string",
						"numberOfBytes": "32"
					},
					"t_uint256": {
						"encoding": "inplace",
						"label": "uint256",
						"numberOfBytes": "32"
					}
				}
			},
			"userdoc": {
				"kind": "user",
				"methods": {},
				"version": 1
			}
		}
	}
}