{
	"24. keccak256_hash_function.sol": {
		"HashFunc": {
			"abi": [
				{
					"inputs": [],
					"name": "collision",
					"outputs": [
						{
							"internalType": "bytes32",
							"name": "",
							"type": "bytes32"
						},
						{
							"internalType": "bytes32",
							"name": "",
							"type": "bytes32"
						}
					],
					"stateMutability": "pure",
					"type": "function"
				},
				{
					"inputs": [
						{
							"internalType": "string",
							"name": "text0",
							"type": "string"
						},
						{
							"internalType": "string",
							"name": "text1",
							"type": "string"
						}
					],
					"name": "encode",
					"outputs": [
						{
							"internalType": "bytes",
							"name": "",
							"type": "bytes"
						}
					],
					"stateMutability": "pure",
					"type": "function"
				},
				{
					"inputs": [
						{
							"internalType": "string",
							"name": "text0",
							"type": "string"
						},
						{
							"internalType": "string",
							"name": "text1",
							"type": "string"
						}
					],
					"name": "encode_packed",
					"outputs": [
						{
							"internalType": "bytes",
							"name": "",
							"type": "bytes"
						}
					],
					"stateMutability": "pure",
					"type": "function"
				},
				{
					"inputs": [
						{
							"internalType": "bytes32",
							"name": "a",
							"type": "bytes32"
						},
						{
							"internalType": "address",
							"name": "b",
							"type": "address"
						}
					],
					"name": "hash",
					"outputs": [
						{
							"internalType": "bytes32",
							"name": "",
							"type": "bytes32"
						}
					],
					"stateMutability": "pure",
					"type": "function"
				},
				{
					"inputs": [],
					"name": "solve_collision",
					"outputs": [
						{
							"internalType": "bytes32",
							"name": "",
							"type": "bytes32"
						},
						{
							"internalType": "bytes32",
							"name": "",
							"type": "bytes32"
						}
					],
					"stateMutability": "pure",
					"type": "function"
				}
			],
			"devdoc": {
				"kind": "dev",
				"methods": {},
				"version": 1
			},
			"evm": {
				"assembly": "    /* \"24. keccak256_hash_function.sol\":131:1179  contract HashFunc {... */\n  mstore(0x40, 0x80)\n  callvalue\n  dup1\n  iszero\n  tag_1\n  jumpi\n  0x00\n  dup1\n  revert\ntag_1:\n  pop\n  dataSize(sub_0)\n  dup1\n  dataOffset(sub_0)\n  0x00\n  codecopy\n  0x00\n  return\nstop\n\nsub_0: assembly {\n        /* \"24. keccak256_hash_function.sol\":131:1179  contract HashFunc {... */\n      mstore(0x40, 0x80)\n      callvalue\n      dup1\n      iszero\n      tag_1\n      jumpi\n      0x00\n      dup1\n      revert\n    tag_1:\n      pop\n      jumpi(tag_2, lt(calldatasize, 0x04))\n      shr(0xe0, calldataload(0x00))\n      dup1\n      0x17fe2da2\n      eq\n      tag_3\n      jumpi\n      dup1\n      0x1924a5de\n      eq\n      tag_4\n      jumpi\n      dup1\n      0x506f6f78\n      eq\n      tag_5\n      jumpi\n      dup1\n      0xd72b8d71\n      eq\n      tag_6\n      jumpi\n      dup1\n      0xfc3251e4\n      eq\n      tag_7\n      jumpi\n    tag_2:\n      0x00\n      dup1\n      revert\n        /* \"24. keccak256_hash_function.sol\":291:476  function encode(string calldata text0, string calldata text1) external pure returns (bytes memory) {... */\n    tag_3:\n      tag_8\n      0x04\n      dup1\n      calldatasize\n      sub\n      dup2\n      add\n      swap1\n      tag_9\n      swap2\n      swap1\n      tag_10\n      jump\t// in\n    tag_9:\n      tag_11\n      jump\t// in\n    tag_8:\n      mload(0x40)\n      tag_12\n      swap2\n      swap1\n      tag_13\n      jump\t// in\n    tag_12:\n      mload(0x40)\n      dup1\n      swap2\n      sub\n      swap1\n      return\n        /* \"24. keccak256_hash_function.sol\":711:953  function collision() external pure returns (bytes32, bytes32) {... */\n    tag_4:\n      tag_14\n      tag_15\n      jump\t// in\n    tag_14:\n      mload(0x40)\n      tag_16\n      swap3\n      swap2\n      swap1\n      tag_17\n      jump\t// in\n    tag_16:\n      mload(0x40)\n      dup1\n      swap2\n      sub\n      swap1\n      return\n        /* \"24. keccak256_hash_function.sol\":961:1176  function solve_collision() external pure returns (bytes32, bytes32) {... */\n    tag_5:\n      tag_18\n      tag_19\n      jump\t// in\n    tag_18:\n      mload(0x40)\n      tag_20\n      swap3\n      swap2\n      swap1\n      tag_17\n      jump\t// in\n    tag_20:\n      mload(0x40)\n      dup1\n      swap2\n      sub\n      swap1\n      return\n        /* \"24. keccak256_hash_function.sol\":156:283  function hash(bytes32 a, address b) external pure returns (bytes32) {... */\n    tag_6:\n      tag_21\n      0x04\n      dup1\n      calldatasize\n      sub\n      dup2\n      add\n      swap1\n      tag_22\n      swap2\n      swap1\n      tag_23\n      jump\t// in\n    tag_22:\n      tag_24\n      jump\t// in\n    tag_21:\n      mload(0x40)\n      tag_25\n      swap2\n      swap1\n      tag_26\n      jump\t// in\n    tag_25:\n      mload(0x40)\n      dup1\n      swap2\n      sub\n      swap1\n      return\n        /* \"24. keccak256_hash_function.sol\":484:703  function encode_packed(string calldata text0, string calldata text1) external pure returns (bytes memory) {... */\n    tag_7:\n      tag_27\n      0x04\n      dup1\n      calldatasize\n      sub\n      dup2\n      add\n      swap1\n      tag_28\n      swap2\n      swap1\n      tag_10\n      jump\t// in\n    tag_28:\n      tag_29\n      jump\t// in\n    tag_27:\n      mload(0x40)\n      tag_30\n      swap2\n      swap1\n      tag_13\n      jump\t// in\n    tag_30:\n      mload(0x40)\n      dup1\n      swap2\n      sub\n      swap1\n      return\n        /* \"24. keccak256_hash_function.sol\":291:476  function encode(string calldata text0, string calldata text1) external pure returns (bytes memory) {... */\n    tag_11:\n        /* \"24. keccak256_hash_function.sol\":376:388  bytes memory */\n      0x60\n        /* \"24. keccak256_hash_function.sol\":455:460  text0 */\n      dup5\n      dup5\n        /* \"24. keccak256_hash_function.sol\":462:467  text1 */\n      dup5\n      dup5\n        /* \"24. keccak256_hash_function.sol\":444:468  abi.encode(text0, text1) */\n      add(0x20, mload(0x40))\n      tag_32\n      swap5\n      swap4\n      swap3\n      swap2\n      swap1\n      tag_33\n      jump\t// in\n    tag_32:\n      mload(0x40)\n      0x20\n      dup2\n      dup4\n      sub\n      sub\n      dup2\n      mstore\n      swap1\n      0x40\n      mstore\n        /* \"24. keccak256_hash_function.sol\":437:468  return abi.encode(text0, text1) */\n      swap1\n      pop\n        /* \"24. keccak256_hash_function.sol\":291:476  function encode(string calldata text0, string calldata text1) external pure returns (bytes memory) {... */\n      swap5\n      swap4\n      pop\n      pop\n      pop\n      pop\n      jump\t// out\n        /* \"24. keccak256_hash_function.sol\":711:953  function collision() external pure returns (bytes32, bytes32) {... */\n    tag_15:\n        /* \"24. keccak256_hash_function.sol\":755:762  bytes32 */\n      0x00\n        /* \"24. keccak256_hash_function.sol\":764:771  bytes32 */\n      dup1\n        /* \"24. keccak256_hash_function.sol\":865:896  abi.encodePacked(\"AAAA\", \"BBB\") */\n      add(0x20, mload(0x40))\n      tag_35\n      swap1\n      tag_36\n      jump\t// in\n    tag_35:\n      mload(0x40)\n      0x20\n      dup2\n      dup4\n      sub\n      sub\n      dup2\n      mstore\n      swap1\n      0x40\n      mstore\n        /* \"24. keccak256_hash_function.sol\":854:898  keccak256((abi.encodePacked(\"AAAA\", \"BBB\"))) */\n      dup1\n      mload\n      swap1\n      0x20\n      add\n      keccak256\n        /* \"24. keccak256_hash_function.sol\":911:942  abi.encodePacked(\"AAA\", \"ABBB\") */\n      add(0x20, mload(0x40))\n      tag_37\n      swap1\n      tag_38\n      jump\t// in\n    tag_37:\n      mload(0x40)\n      0x20\n      dup2\n      dup4\n      sub\n      sub\n      dup2\n      mstore\n      swap1\n      0x40\n      mstore\n        /* \"24. keccak256_hash_function.sol\":900:944  keccak256((abi.encodePacked(\"AAA\", \"ABBB\"))) */\n      dup1\n      mload\n      swap1\n      0x20\n      add\n      keccak256\n        /* \"24. keccak256_hash_function.sol\":846:945  return (keccak256((abi.encodePacked(\"AAAA\", \"BBB\"))), keccak256((abi.encodePacked(\"AAA\", \"ABBB\")))) */\n      swap2\n      pop\n      swap2\n      pop\n        /* \"24. keccak256_hash_function.sol\":711:953  function collision() external pure returns (bytes32, bytes32) {... */\n      swap1\n      swap2\n      jump\t// out\n        /* \"24. keccak256_hash_function.sol\":961:1176  function solve_collision() external pure returns (bytes32, bytes32) {... */\n    tag_19:\n        /* \"24. keccak256_hash_function.sol\":1011:1018  bytes32 */\n      0x00\n        /* \"24. keccak256_hash_function.sol\":1020:1027  bytes32 */\n      dup1\n        /* \"24. keccak256_hash_function.sol\":1040:1046  uint x */\n      0x00\n        /* \"24. keccak256_hash_function.sol\":1049:1052  123 */\n      0x7b\n        /* \"24. keccak256_hash_function.sol\":1040:1052  uint x = 123 */\n      swap1\n      pop\n        /* \"24. keccak256_hash_function.sol\":1107:1108  x */\n      dup1\n        /* \"24. keccak256_hash_function.sol\":1082:1116  abi.encodePacked(\"AAAA\", x, \"BBB\") */\n      add(0x20, mload(0x40))\n      tag_40\n      swap2\n      swap1\n      tag_41\n      jump\t// in\n    tag_40:\n      mload(0x40)\n      0x20\n      dup2\n      dup4\n      sub\n      sub\n      dup2\n      mstore\n      swap1\n      0x40\n      mstore\n        /* \"24. keccak256_hash_function.sol\":1071:1118  keccak256((abi.encodePacked(\"AAAA\", x, \"BBB\"))) */\n      dup1\n      mload\n      swap1\n      0x20\n      add\n      keccak256\n        /* \"24. keccak256_hash_function.sol\":1155:1156  x */\n      dup2\n        /* \"24. keccak256_hash_function.sol\":1131:1165  abi.encodePacked(\"AAA\", x, \"ABBB\") */\n      add(0x20, mload(0x40))\n      tag_42\n      swap2\n      swap1\n      tag_43\n      jump\t// in\n    tag_42:\n      mload(0x40)\n      0x20\n      dup2\n      dup4\n      sub\n      sub\n      dup2\n      mstore\n      swap1\n      0x40\n      mstore\n        /* \"24. keccak256_hash_function.sol\":1120:1167  keccak256((abi.encodePacked(\"AAA\", x, \"ABBB\"))) */\n      dup1\n      mload\n      swap1\n      0x20\n      add\n      keccak256\n        /* \"24. keccak256_hash_function.sol\":1063:1168  return (keccak256((abi.encodePacked(\"AAAA\", x, \"BBB\"))), keccak256((abi.encodePacked(\"AAA\", x, \"ABBB\")))) */\n      swap3\n      pop\n      swap3\n      pop\n      pop\n        /* \"24. keccak256_hash_function.sol\":961:1176  function solve_collision() external pure returns (bytes32, bytes32) {... */\n      swap1\n      swap2\n      jump\t// out\n        /* \"24. keccak256_hash_function.sol\":156:283  function hash(bytes32 a, address b) external pure returns (bytes32) {... */\n    tag_24:\n        /* \"24. keccak256_hash_function.sol\":215:222  bytes32 */\n      0x00\n        /* \"24. keccak256_hash_function.sol\":269:270  a */\n      dup3\n        /* \"24. keccak256_hash_function.sol\":272:273  b */\n      dup3\n        /* \"24. keccak256_hash_function.sol\":252:274  abi.encodePacked(a, b) */\n      add(0x20, mload(0x40))\n      tag_45\n      swap3\n      swap2\n      swap1\n      tag_46\n      jump\t// in\n    tag_45:\n      mload(0x40)\n      0x20\n      dup2\n      dup4\n      sub\n      sub\n      dup2\n      mstore\n      swap1\n      0x40\n      mstore\n        /* \"24. keccak256_hash_function.sol\":242:275  keccak256(abi.encodePacked(a, b)) */\n      dup1\n      mload\n      swap1\n      0x20\n      add\n      keccak256\n        /* \"24. keccak256_hash_function.sol\":235:275  return keccak256(abi.encodePacked(a, b)) */\n      swap1\n      pop\n        /* \"24. keccak256_hash_function.sol\":156:283  function hash(bytes32 a, address b) external pure returns (bytes32) {... */\n      swap3\n      swap2\n      pop\n      pop\n      jump\t// out\n        /* \"24. keccak256_hash_function.sol\":484:703  function encode_packed(string calldata text0, string calldata text1) external pure returns (bytes memory) {... */\n    tag_29:\n        /* \"24. keccak256_hash_function.sol\":576:588  bytes memory */\n      0x60\n        /* \"24. keccak256_hash_function.sol\":682:687  text0 */\n      dup5\n      dup5\n        /* \"24. keccak256_hash_function.sol\":689:694  text1 */\n      dup5\n      dup5\n        /* \"24. keccak256_hash_function.sol\":665:695  abi.encodePacked(text0, text1) */\n      add(0x20, mload(0x40))\n      tag_48\n      swap5\n      swap4\n      swap3\n      swap2\n      swap1\n      tag_49\n      jump\t// in\n    tag_48:\n      mload(0x40)\n      0x20\n      dup2\n      dup4\n      sub\n      sub\n      dup2\n      mstore\n      swap1\n      0x40\n      mstore\n        /* \"24. keccak256_hash_function.sol\":658:695  return abi.encodePacked(text0, text1) */\n      swap1\n      pop\n        /* \"24. keccak256_hash_function.sol\":484:703  function encode_packed(string calldata text0, string calldata text1) external pure returns (bytes memory) {... */\n      swap5\n      swap4\n      pop\n      pop\n      pop\n      pop\n      jump\t// out\n        /* \"#utility.yul\":88:205   */\n    tag_51:\n        /* \"#utility.yul\":197:198   */\n      0x00\n        /* \"#utility.yul\":194:195   */\n      dup1\n        /* \"#utility.yul\":187:199   */\n      revert\n        /* \"#utility.yul\":211:328   */\n    tag_52:\n        /* \"#utility.yul\":320:321   */\n      0x00\n        /* \"#utility.yul\":317:318   */\n      dup1\n        /* \"#utility.yul\":310:322   */\n      revert\n        /* \"#utility.yul\":334:451   */\n    tag_53:\n        /* \"#utility.yul\":443:444   */\n      0x00\n        /* \"#utility.yul\":440:441   */\n      dup1\n        /* \"#utility.yul\":433:445   */\n      revert\n        /* \"#utility.yul\":457:574   */\n    tag_54:\n        /* \"#utility.yul\":566:567   */\n      0x00\n        /* \"#utility.yul\":563:564   */\n      dup1\n        /* \"#utility.yul\":556:568   */\n      revert\n        /* \"#utility.yul\":580:697   */\n    tag_55:\n        /* \"#utility.yul\":689:690   */\n      0x00\n        /* \"#utility.yul\":686:687   */\n      dup1\n        /* \"#utility.yul\":679:691   */\n      revert\n        /* \"#utility.yul\":717:1270   */\n    tag_56:\n        /* \"#utility.yul\":775:783   */\n      0x00\n        /* \"#utility.yul\":785:791   */\n      dup1\n        /* \"#utility.yul\":835:838   */\n      dup4\n        /* \"#utility.yul\":828:832   */\n      0x1f\n        /* \"#utility.yul\":820:826   */\n      dup5\n        /* \"#utility.yul\":816:833   */\n      add\n        /* \"#utility.yul\":812:839   */\n      slt\n        /* \"#utility.yul\":802:924   */\n      tag_100\n      jumpi\n        /* \"#utility.yul\":843:922   */\n      tag_101\n      tag_53\n      jump\t// in\n    tag_101:\n        /* \"#utility.yul\":802:924   */\n    tag_100:\n        /* \"#utility.yul\":956:962   */\n      dup3\n        /* \"#utility.yul\":943:963   */\n      calldataload\n        /* \"#utility.yul\":933:963   */\n      swap1\n      pop\n        /* \"#utility.yul\":986:1004   */\n      0xffffffffffffffff\n        /* \"#utility.yul\":978:984   */\n      dup2\n        /* \"#utility.yul\":975:1005   */\n      gt\n        /* \"#utility.yul\":972:1089   */\n      iszero\n      tag_102\n      jumpi\n        /* \"#utility.yul\":1008:1087   */\n      tag_103\n      tag_54\n      jump\t// in\n    tag_103:\n        /* \"#utility.yul\":972:1089   */\n    tag_102:\n        /* \"#utility.yul\":1122:1126   */\n      0x20\n        /* \"#utility.yul\":1114:1120   */\n      dup4\n        /* \"#utility.yul\":1110:1127   */\n      add\n        /* \"#utility.yul\":1098:1127   */\n      swap2\n      pop\n        /* \"#utility.yul\":1176:1179   */\n      dup4\n        /* \"#utility.yul\":1168:1172   */\n      0x01\n        /* \"#utility.yul\":1160:1166   */\n      dup3\n        /* \"#utility.yul\":1156:1173   */\n      mul\n        /* \"#utility.yul\":1146:1154   */\n      dup4\n        /* \"#utility.yul\":1142:1174   */\n      add\n        /* \"#utility.yul\":1139:1180   */\n      gt\n        /* \"#utility.yul\":1136:1264   */\n      iszero\n      tag_104\n      jumpi\n        /* \"#utility.yul\":1183:1262   */\n      tag_105\n      tag_55\n      jump\t// in\n    tag_105:\n        /* \"#utility.yul\":1136:1264   */\n    tag_104:\n        /* \"#utility.yul\":717:1270   */\n      swap3\n      pop\n      swap3\n      swap1\n      pop\n      jump\t// out\n        /* \"#utility.yul\":1276:2150   */\n    tag_10:\n        /* \"#utility.yul\":1368:1374   */\n      0x00\n        /* \"#utility.yul\":1376:1382   */\n      dup1\n        /* \"#utility.yul\":1384:1390   */\n      0x00\n        /* \"#utility.yul\":1392:1398   */\n      dup1\n        /* \"#utility.yul\":1441:1443   */\n      0x40\n        /* \"#utility.yul\":1429:1438   */\n      dup6\n        /* \"#utility.yul\":1420:1427   */\n      dup8\n        /* \"#utility.yul\":1416:1439   */\n      sub\n        /* \"#utility.yul\":1412:1444   */\n      slt\n        /* \"#utility.yul\":1409:1528   */\n      iszero\n      tag_107\n      jumpi\n        /* \"#utility.yul\":1447:1526   */\n      tag_108\n      tag_51\n      jump\t// in\n    tag_108:\n        /* \"#utility.yul\":1409:1528   */\n    tag_107:\n        /* \"#utility.yul\":1595:1596   */\n      0x00\n        /* \"#utility.yul\":1584:1593   */\n      dup6\n        /* \"#utility.yul\":1580:1597   */\n      add\n        /* \"#utility.yul\":1567:1598   */\n      calldataload\n        /* \"#utility.yul\":1625:1643   */\n      0xffffffffffffffff\n        /* \"#utility.yul\":1617:1623   */\n      dup2\n        /* \"#utility.yul\":1614:1644   */\n      gt\n        /* \"#utility.yul\":1611:1728   */\n      iszero\n      tag_109\n      jumpi\n        /* \"#utility.yul\":1647:1726   */\n      tag_110\n      tag_52\n      jump\t// in\n    tag_110:\n        /* \"#utility.yul\":1611:1728   */\n    tag_109:\n        /* \"#utility.yul\":1760:1825   */\n      tag_111\n        /* \"#utility.yul\":1817:1824   */\n      dup8\n        /* \"#utility.yul\":1808:1814   */\n      dup3\n        /* \"#utility.yul\":1797:1806   */\n      dup9\n        /* \"#utility.yul\":1793:1815   */\n      add\n        /* \"#utility.yul\":1760:1825   */\n      tag_56\n      jump\t// in\n    tag_111:\n        /* \"#utility.yul\":1742:1825   */\n      swap5\n      pop\n      swap5\n      pop\n        /* \"#utility.yul\":1538:1835   */\n      pop\n        /* \"#utility.yul\":1902:1904   */\n      0x20\n        /* \"#utility.yul\":1891:1900   */\n      dup6\n        /* \"#utility.yul\":1887:1905   */\n      add\n        /* \"#utility.yul\":1874:1906   */\n      calldataload\n        /* \"#utility.yul\":1933:1951   */\n      0xffffffffffffffff\n        /* \"#utility.yul\":1925:1931   */\n      dup2\n        /* \"#utility.yul\":1922:1952   */\n      gt\n        /* \"#utility.yul\":1919:2036   */\n      iszero\n      tag_112\n      jumpi\n        /* \"#utility.yul\":1955:2034   */\n      tag_113\n      tag_52\n      jump\t// in\n    tag_113:\n        /* \"#utility.yul\":1919:2036   */\n    tag_112:\n        /* \"#utility.yul\":2068:2133   */\n      tag_114\n        /* \"#utility.yul\":2125:2132   */\n      dup8\n        /* \"#utility.yul\":2116:2122   */\n      dup3\n        /* \"#utility.yul\":2105:2114   */\n      dup9\n        /* \"#utility.yul\":2101:2123   */\n      add\n        /* \"#utility.yul\":2068:2133   */\n      tag_56\n      jump\t// in\n    tag_114:\n        /* \"#utility.yul\":2050:2133   */\n      swap3\n      pop\n      swap3\n      pop\n        /* \"#utility.yul\":1845:2143   */\n      pop\n        /* \"#utility.yul\":1276:2150   */\n      swap3\n      swap6\n      swap2\n      swap5\n      pop\n      swap3\n      pop\n      jump\t// out\n        /* \"#utility.yul\":2156:2254   */\n    tag_57:\n        /* \"#utility.yul\":2207:2213   */\n      0x00\n        /* \"#utility.yul\":2241:2246   */\n      dup2\n        /* \"#utility.yul\":2235:2247   */\n      mload\n        /* \"#utility.yul\":2225:2247   */\n      swap1\n      pop\n        /* \"#utility.yul\":2156:2254   */\n      swap2\n      swap1\n      pop\n      jump\t// out\n        /* \"#utility.yul\":2260:2428   */\n    tag_58:\n        /* \"#utility.yul\":2343:2354   */\n      0x00\n        /* \"#utility.yul\":2377:2383   */\n      dup3\n        /* \"#utility.yul\":2372:2375   */\n      dup3\n        /* \"#utility.yul\":2365:2384   */\n      mstore\n        /* \"#utility.yul\":2417:2421   */\n      0x20\n        /* \"#utility.yul\":2412:2415   */\n      dup3\n        /* \"#utility.yul\":2408:2422   */\n      add\n        /* \"#utility.yul\":2393:2422   */\n      swap1\n      pop\n        /* \"#utility.yul\":2260:2428   */\n      swap3\n      swap2\n      pop\n      pop\n      jump\t// out\n        /* \"#utility.yul\":2434:2680   */\n    tag_59:\n        /* \"#utility.yul\":2515:2516   */\n      0x00\n        /* \"#utility.yul\":2525:2638   */\n    tag_118:\n        /* \"#utility.yul\":2539:2545   */\n      dup4\n        /* \"#utility.yul\":2536:2537   */\n      dup2\n        /* \"#utility.yul\":2533:2546   */\n      lt\n        /* \"#utility.yul\":2525:2638   */\n      iszero\n      tag_120\n      jumpi\n        /* \"#utility.yul\":2624:2625   */\n      dup1\n        /* \"#utility.yul\":2619:2622   */\n      dup3\n        /* \"#utility.yul\":2615:2626   */\n      add\n        /* \"#utility.yul\":2609:2627   */\n      mload\n        /* \"#utility.yul\":2605:2606   */\n      dup2\n        /* \"#utility.yul\":2600:2603   */\n      dup5\n        /* \"#utility.yul\":2596:2607   */\n      add\n        /* \"#utility.yul\":2589:2628   */\n      mstore\n        /* \"#utility.yul\":2561:2563   */\n      0x20\n        /* \"#utility.yul\":2558:2559   */\n      dup2\n        /* \"#utility.yul\":2554:2564   */\n      add\n        /* \"#utility.yul\":2549:2564   */\n      swap1\n      pop\n        /* \"#utility.yul\":2525:2638   */\n      jump(tag_118)\n    tag_120:\n        /* \"#utility.yul\":2672:2673   */\n      0x00\n        /* \"#utility.yul\":2663:2669   */\n      dup5\n        /* \"#utility.yul\":2658:2661   */\n      dup5\n        /* \"#utility.yul\":2654:2670   */\n      add\n        /* \"#utility.yul\":2647:2674   */\n      mstore\n        /* \"#utility.yul\":2496:2680   */\n      pop\n        /* \"#utility.yul\":2434:2680   */\n      pop\n      pop\n      pop\n      jump\t// out\n        /* \"#utility.yul\":2686:2788   */\n    tag_60:\n        /* \"#utility.yul\":2727:2733   */\n      0x00\n        /* \"#utility.yul\":2778:2780   */\n      0x1f\n        /* \"#utility.yul\":2774:2781   */\n      not\n        /* \"#utility.yul\":2769:2771   */\n      0x1f\n        /* \"#utility.yul\":2762:2767   */\n      dup4\n        /* \"#utility.yul\":2758:2772   */\n      add\n        /* \"#utility.yul\":2754:2782   */\n      and\n        /* \"#utility.yul\":2744:2782   */\n      swap1\n      pop\n        /* \"#utility.yul\":2686:2788   */\n      swap2\n      swap1\n      pop\n      jump\t// out\n        /* \"#utility.yul\":2794:3167   */\n    tag_61:\n        /* \"#utility.yul\":2880:2883   */\n      0x00\n        /* \"#utility.yul\":2908:2946   */\n      tag_123\n        /* \"#utility.yul\":2940:2945   */\n      dup3\n        /* \"#utility.yul\":2908:2946   */\n      tag_57\n      jump\t// in\n    tag_123:\n        /* \"#utility.yul\":2962:3032   */\n      tag_124\n        /* \"#utility.yul\":3025:3031   */\n      dup2\n        /* \"#utility.yul\":3020:3023   */\n      dup6\n        /* \"#utility.yul\":2962:3032   */\n      tag_58\n      jump\t// in\n    tag_124:\n        /* \"#utility.yul\":2955:3032   */\n      swap4\n      pop\n        /* \"#utility.yul\":3041:3106   */\n      tag_125\n        /* \"#utility.yul\":3099:3105   */\n      dup2\n        /* \"#utility.yul\":3094:3097   */\n      dup6\n        /* \"#utility.yul\":3087:3091   */\n      0x20\n        /* \"#utility.yul\":3080:3085   */\n      dup7\n        /* \"#utility.yul\":3076:3092   */\n      add\n        /* \"#utility.yul\":3041:3106   */\n      tag_59\n      jump\t// in\n    tag_125:\n        /* \"#utility.yul\":3131:3160   */\n      tag_126\n        /* \"#utility.yul\":3153:3159   */\n      dup2\n        /* \"#utility.yul\":3131:3160   */\n      tag_60\n      jump\t// in\n    tag_126:\n        /* \"#utility.yul\":3126:3129   */\n      dup5\n        /* \"#utility.yul\":3122:3161   */\n      add\n        /* \"#utility.yul\":3115:3161   */\n      swap2\n      pop\n        /* \"#utility.yul\":2884:3167   */\n      pop\n        /* \"#utility.yul\":2794:3167   */\n      swap3\n      swap2\n      pop\n      pop\n      jump\t// out\n        /* \"#utility.yul\":3173:3482   */\n    tag_13:\n        /* \"#utility.yul\":3284:3288   */\n      0x00\n        /* \"#utility.yul\":3322:3324   */\n      0x20\n        /* \"#utility.yul\":3311:3320   */\n      dup3\n        /* \"#utility.yul\":3307:3325   */\n      add\n        /* \"#utility.yul\":3299:3325   */\n      swap1\n      pop\n        /* \"#utility.yul\":3371:3380   */\n      dup2\n        /* \"#utility.yul\":3365:3369   */\n      dup2\n        /* \"#utility.yul\":3361:3381   */\n      sub\n        /* \"#utility.yul\":3357:3358   */\n      0x00\n        /* \"#utility.yul\":3346:3355   */\n      dup4\n        /* \"#utility.yul\":3342:3359   */\n      add\n        /* \"#utility.yul\":3335:3382   */\n      mstore\n        /* \"#utility.yul\":3399:3475   */\n      tag_128\n        /* \"#utility.yul\":3470:3474   */\n      dup2\n        /* \"#utility.yul\":3461:3467   */\n      dup5\n        /* \"#utility.yul\":3399:3475   */\n      tag_61\n      jump\t// in\n    tag_128:\n        /* \"#utility.yul\":3391:3475   */\n      swap1\n      pop\n        /* \"#utility.yul\":3173:3482   */\n      swap3\n      swap2\n      pop\n      pop\n      jump\t// out\n        /* \"#utility.yul\":3488:3565   */\n    tag_62:\n        /* \"#utility.yul\":3525:3532   */\n      0x00\n        /* \"#utility.yul\":3554:3559   */\n      dup2\n        /* \"#utility.yul\":3543:3559   */\n      swap1\n      pop\n        /* \"#utility.yul\":3488:3565   */\n      swap2\n      swap1\n      pop\n      jump\t// out\n        /* \"#utility.yul\":3571:3689   */\n    tag_63:\n        /* \"#utility.yul\":3658:3682   */\n      tag_131\n        /* \"#utility.yul\":3676:3681   */\n      dup2\n        /* \"#utility.yul\":3658:3682   */\n      tag_62\n      jump\t// in\n    tag_131:\n        /* \"#utility.yul\":3653:3656   */\n      dup3\n        /* \"#utility.yul\":3646:3683   */\n      mstore\n        /* \"#utility.yul\":3571:3689   */\n      pop\n      pop\n      jump\t// out\n        /* \"#utility.yul\":3695:4027   */\n    tag_17:\n        /* \"#utility.yul\":3816:3820   */\n      0x00\n        /* \"#utility.yul\":3854:3856   */\n      0x40\n        /* \"#utility.yul\":3843:3852   */\n      dup3\n        /* \"#utility.yul\":3839:3857   */\n      add\n        /* \"#utility.yul\":3831:3857   */\n      swap1\n      pop\n        /* \"#utility.yul\":3867:3938   */\n      tag_133\n        /* \"#utility.yul\":3935:3936   */\n      0x00\n        /* \"#utility.yul\":3924:3933   */\n      dup4\n        /* \"#utility.yul\":3920:3937   */\n      add\n        /* \"#utility.yul\":3911:3917   */\n      dup6\n        /* \"#utility.yul\":3867:3938   */\n      tag_63\n      jump\t// in\n    tag_133:\n        /* \"#utility.yul\":3948:4020   */\n      tag_134\n        /* \"#utility.yul\":4016:4018   */\n      0x20\n        /* \"#utility.yul\":4005:4014   */\n      dup4\n        /* \"#utility.yul\":4001:4019   */\n      add\n        /* \"#utility.yul\":3992:3998   */\n      dup5\n        /* \"#utility.yul\":3948:4020   */\n      tag_63\n      jump\t// in\n    tag_134:\n        /* \"#utility.yul\":3695:4027   */\n      swap4\n      swap3\n      pop\n      pop\n      pop\n      jump\t// out\n        /* \"#utility.yul\":4033:4155   */\n    tag_64:\n        /* \"#utility.yul\":4106:4130   */\n      tag_136\n        /* \"#utility.yul\":4124:4129   */\n      dup2\n        /* \"#utility.yul\":4106:4130   */\n      tag_62\n      jump\t// in\n    tag_136:\n        /* \"#utility.yul\":4099:4104   */\n      dup2\n        /* \"#utility.yul\":4096:4131   */\n      eq\n        /* \"#utility.yul\":4086:4149   */\n      tag_137\n      jumpi\n        /* \"#utility.yul\":4145:4146   */\n      0x00\n        /* \"#utility.yul\":4142:4143   */\n      dup1\n        /* \"#utility.yul\":4135:4147   */\n      revert\n        /* \"#utility.yul\":4086:4149   */\n    tag_137:\n        /* \"#utility.yul\":4033:4155   */\n      pop\n      jump\t// out\n        /* \"#utility.yul\":4161:4300   */\n    tag_65:\n        /* \"#utility.yul\":4207:4212   */\n      0x00\n        /* \"#utility.yul\":4245:4251   */\n      dup2\n        /* \"#utility.yul\":4232:4252   */\n      calldataload\n        /* \"#utility.yul\":4223:4252   */\n      swap1\n      pop\n        /* \"#utility.yul\":4261:4294   */\n      tag_139\n        /* \"#utility.yul\":4288:4293   */\n      dup2\n        /* \"#utility.yul\":4261:4294   */\n      tag_64\n      jump\t// in\n    tag_139:\n        /* \"#utility.yul\":4161:4300   */\n      swap3\n      swap2\n      pop\n      pop\n      jump\t// out\n        /* \"#utility.yul\":4306:4432   */\n    tag_66:\n        /* \"#utility.yul\":4343:4350   */\n      0x00\n        /* \"#utility.yul\":4383:4425   */\n      0xffffffffffffffffffffffffffffffffffffffff\n        /* \"#utility.yul\":4376:4381   */\n      dup3\n        /* \"#utility.yul\":4372:4426   */\n      and\n        /* \"#utility.yul\":4361:4426   */\n      swap1\n      pop\n        /* \"#utility.yul\":4306:4432   */\n      swap2\n      swap1\n      pop\n      jump\t// out\n        /* \"#utility.yul\":4438:4534   */\n    tag_67:\n        /* \"#utility.yul\":4475:4482   */\n      0x00\n        /* \"#utility.yul\":4504:4528   */\n      tag_142\n        /* \"#utility.yul\":4522:4527   */\n      dup3\n        /* \"#utility.yul\":4504:4528   */\n      tag_66\n      jump\t// in\n    tag_142:\n        /* \"#utility.yul\":4493:4528   */\n      swap1\n      pop\n        /* \"#utility.yul\":4438:4534   */\n      swap2\n      swap1\n      pop\n      jump\t// out\n        /* \"#utility.yul\":4540:4662   */\n    tag_68:\n        /* \"#utility.yul\":4613:4637   */\n      tag_144\n        /* \"#utility.yul\":4631:4636   */\n      dup2\n        /* \"#utility.yul\":4613:4637   */\n      tag_67\n      jump\t// in\n    tag_144:\n        /* \"#utility.yul\":4606:4611   */\n      dup2\n        /* \"#utility.yul\":4603:4638   */\n      eq\n        /* \"#utility.yul\":4593:4656   */\n      tag_145\n      jumpi\n        /* \"#utility.yul\":4652:4653   */\n      0x00\n        /* \"#utility.yul\":4649:4650   */\n      dup1\n        /* \"#utility.yul\":4642:4654   */\n      revert\n        /* \"#utility.yul\":4593:4656   */\n    tag_145:\n        /* \"#utility.yul\":4540:4662   */\n      pop\n      jump\t// out\n        /* \"#utility.yul\":4668:4807   */\n    tag_69:\n        /* \"#utility.yul\":4714:4719   */\n      0x00\n        /* \"#utility.yul\":4752:4758   */\n      dup2\n        /* \"#utility.yul\":4739:4759   */\n      calldataload\n        /* \"#utility.yul\":4730:4759   */\n      swap1\n      pop\n        /* \"#utility.yul\":4768:4801   */\n      tag_147\n        /* \"#utility.yul\":4795:4800   */\n      dup2\n        /* \"#utility.yul\":4768:4801   */\n      tag_68\n      jump\t// in\n    tag_147:\n        /* \"#utility.yul\":4668:4807   */\n      swap3\n      swap2\n      pop\n      pop\n      jump\t// out\n        /* \"#utility.yul\":4813:5287   */\n    tag_23:\n        /* \"#utility.yul\":4881:4887   */\n      0x00\n        /* \"#utility.yul\":4889:4895   */\n      dup1\n        /* \"#utility.yul\":4938:4940   */\n      0x40\n        /* \"#utility.yul\":4926:4935   */\n      dup4\n        /* \"#utility.yul\":4917:4924   */\n      dup6\n        /* \"#utility.yul\":4913:4936   */\n      sub\n        /* \"#utility.yul\":4909:4941   */\n      slt\n        /* \"#utility.yul\":4906:5025   */\n      iszero\n      tag_149\n      jumpi\n        /* \"#utility.yul\":4944:5023   */\n      tag_150\n      tag_51\n      jump\t// in\n    tag_150:\n        /* \"#utility.yul\":4906:5025   */\n    tag_149:\n        /* \"#utility.yul\":5064:5065   */\n      0x00\n        /* \"#utility.yul\":5089:5142   */\n      tag_151\n        /* \"#utility.yul\":5134:5141   */\n      dup6\n        /* \"#utility.yul\":5125:5131   */\n      dup3\n        /* \"#utility.yul\":5114:5123   */\n      dup7\n        /* \"#utility.yul\":5110:5132   */\n      add\n        /* \"#utility.yul\":5089:5142   */\n      tag_65\n      jump\t// in\n    tag_151:\n        /* \"#utility.yul\":5079:5142   */\n      swap3\n      pop\n        /* \"#utility.yul\":5035:5152   */\n      pop\n        /* \"#utility.yul\":5191:5193   */\n      0x20\n        /* \"#utility.yul\":5217:5270   */\n      tag_152\n        /* \"#utility.yul\":5262:5269   */\n      dup6\n        /* \"#utility.yul\":5253:5259   */\n      dup3\n        /* \"#utility.yul\":5242:5251   */\n      dup7\n        /* \"#utility.yul\":5238:5260   */\n      add\n        /* \"#utility.yul\":5217:5270   */\n      tag_69\n      jump\t// in\n    tag_152:\n        /* \"#utility.yul\":5207:5270   */\n      swap2\n      pop\n        /* \"#utility.yul\":5162:5280   */\n      pop\n        /* \"#utility.yul\":4813:5287   */\n      swap3\n      pop\n      swap3\n      swap1\n      pop\n      jump\t// out\n        /* \"#utility.yul\":5293:5515   */\n    tag_26:\n        /* \"#utility.yul\":5386:5390   */\n      0x00\n        /* \"#utility.yul\":5424:5426   */\n      0x20\n        /* \"#utility.yul\":5413:5422   */\n      dup3\n        /* \"#utility.yul\":5409:5427   */\n      add\n        /* \"#utility.yul\":5401:5427   */\n      swap1\n      pop\n        /* \"#utility.yul\":5437:5508   */\n      tag_154\n        /* \"#utility.yul\":5505:5506   */\n      0x00\n        /* \"#utility.yul\":5494:5503   */\n      dup4\n        /* \"#utility.yul\":5490:5507   */\n      add\n        /* \"#utility.yul\":5481:5487   */\n      dup5\n        /* \"#utility.yul\":5437:5508   */\n      tag_63\n      jump\t// in\n    tag_154:\n        /* \"#utility.yul\":5293:5515   */\n      swap3\n      swap2\n      pop\n      pop\n      jump\t// out\n        /* \"#utility.yul\":5521:5690   */\n    tag_70:\n        /* \"#utility.yul\":5605:5616   */\n      0x00\n        /* \"#utility.yul\":5639:5645   */\n      dup3\n        /* \"#utility.yul\":5634:5637   */\n      dup3\n        /* \"#utility.yul\":5627:5646   */\n      mstore\n        /* \"#utility.yul\":5679:5683   */\n      0x20\n        /* \"#utility.yul\":5674:5677   */\n      dup3\n        /* \"#utility.yul\":5670:5684   */\n      add\n        /* \"#utility.yul\":5655:5684   */\n      swap1\n      pop\n        /* \"#utility.yul\":5521:5690   */\n      swap3\n      swap2\n      pop\n      pop\n      jump\t// out\n        /* \"#utility.yul\":5696:5842   */\n    tag_71:\n        /* \"#utility.yul\":5793:5799   */\n      dup3\n        /* \"#utility.yul\":5788:5791   */\n      dup2\n        /* \"#utility.yul\":5783:5786   */\n      dup4\n        /* \"#utility.yul\":5770:5800   */\n      calldatacopy\n        /* \"#utility.yul\":5834:5835   */\n      0x00\n        /* \"#utility.yul\":5825:5831   */\n      dup4\n        /* \"#utility.yul\":5820:5823   */\n      dup4\n        /* \"#utility.yul\":5816:5832   */\n      add\n        /* \"#utility.yul\":5809:5836   */\n      mstore\n        /* \"#utility.yul\":5696:5842   */\n      pop\n      pop\n      pop\n      jump\t// out\n        /* \"#utility.yul\":5872:6189   */\n    tag_72:\n        /* \"#utility.yul\":5970:5973   */\n      0x00\n        /* \"#utility.yul\":5991:6062   */\n      tag_158\n        /* \"#utility.yul\":6055:6061   */\n      dup4\n        /* \"#utility.yul\":6050:6053   */\n      dup6\n        /* \"#utility.yul\":5991:6062   */\n      tag_70\n      jump\t// in\n    tag_158:\n        /* \"#utility.yul\":5984:6062   */\n      swap4\n      pop\n        /* \"#utility.yul\":6072:6128   */\n      tag_159\n        /* \"#utility.yul\":6121:6127   */\n      dup4\n        /* \"#utility.yul\":6116:6119   */\n      dup6\n        /* \"#utility.yul\":6109:6114   */\n      dup5\n        /* \"#utility.yul\":6072:6128   */\n      tag_71\n      jump\t// in\n    tag_159:\n        /* \"#utility.yul\":6153:6182   */\n      tag_160\n        /* \"#utility.yul\":6175:6181   */\n      dup4\n        /* \"#utility.yul\":6153:6182   */\n      tag_60\n      jump\t// in\n    tag_160:\n        /* \"#utility.yul\":6148:6151   */\n      dup5\n        /* \"#utility.yul\":6144:6183   */\n      add\n        /* \"#utility.yul\":6137:6183   */\n      swap1\n      pop\n        /* \"#utility.yul\":5872:6189   */\n      swap4\n      swap3\n      pop\n      pop\n      pop\n      jump\t// out\n        /* \"#utility.yul\":6195:6749   */\n    tag_33:\n        /* \"#utility.yul\":6376:6380   */\n      0x00\n        /* \"#utility.yul\":6414:6416   */\n      0x40\n        /* \"#utility.yul\":6403:6412   */\n      dup3\n        /* \"#utility.yul\":6399:6417   */\n      add\n        /* \"#utility.yul\":6391:6417   */\n      swap1\n      pop\n        /* \"#utility.yul\":6463:6472   */\n      dup2\n        /* \"#utility.yul\":6457:6461   */\n      dup2\n        /* \"#utility.yul\":6453:6473   */\n      sub\n        /* \"#utility.yul\":6449:6450   */\n      0x00\n        /* \"#utility.yul\":6438:6447   */\n      dup4\n        /* \"#utility.yul\":6434:6451   */\n      add\n        /* \"#utility.yul\":6427:6474   */\n      mstore\n        /* \"#utility.yul\":6491:6579   */\n      tag_162\n        /* \"#utility.yul\":6574:6578   */\n      dup2\n        /* \"#utility.yul\":6565:6571   */\n      dup7\n        /* \"#utility.yul\":6557:6563   */\n      dup9\n        /* \"#utility.yul\":6491:6579   */\n      tag_72\n      jump\t// in\n    tag_162:\n        /* \"#utility.yul\":6483:6579   */\n      swap1\n      pop\n        /* \"#utility.yul\":6626:6635   */\n      dup2\n        /* \"#utility.yul\":6620:6624   */\n      dup2\n        /* \"#utility.yul\":6616:6636   */\n      sub\n        /* \"#utility.yul\":6611:6613   */\n      0x20\n        /* \"#utility.yul\":6600:6609   */\n      dup4\n        /* \"#utility.yul\":6596:6614   */\n      add\n        /* \"#utility.yul\":6589:6637   */\n      mstore\n        /* \"#utility.yul\":6654:6742   */\n      tag_163\n        /* \"#utility.yul\":6737:6741   */\n      dup2\n        /* \"#utility.yul\":6728:6734   */\n      dup5\n        /* \"#utility.yul\":6720:6726   */\n      dup7\n        /* \"#utility.yul\":6654:6742   */\n      tag_72\n      jump\t// in\n    tag_163:\n        /* \"#utility.yul\":6646:6742   */\n      swap1\n      pop\n        /* \"#utility.yul\":6195:6749   */\n      swap6\n      swap5\n      pop\n      pop\n      pop\n      pop\n      pop\n      jump\t// out\n        /* \"#utility.yul\":6755:6903   */\n    tag_73:\n        /* \"#utility.yul\":6857:6868   */\n      0x00\n        /* \"#utility.yul\":6894:6897   */\n      dup2\n        /* \"#utility.yul\":6879:6897   */\n      swap1\n      pop\n        /* \"#utility.yul\":6755:6903   */\n      swap3\n      swap2\n      pop\n      pop\n      jump\t// out\n        /* \"#utility.yul\":6909:7063   */\n    tag_74:\n        /* \"#utility.yul\":7049:7055   */\n      0x4141414100000000000000000000000000000000000000000000000000000000\n        /* \"#utility.yul\":7045:7046   */\n      0x00\n        /* \"#utility.yul\":7037:7043   */\n      dup3\n        /* \"#utility.yul\":7033:7047   */\n      add\n        /* \"#utility.yul\":7026:7056   */\n      mstore\n        /* \"#utility.yul\":6909:7063   */\n      pop\n      jump\t// out\n        /* \"#utility.yul\":7069:7469   */\n    tag_75:\n        /* \"#utility.yul\":7229:7232   */\n      0x00\n        /* \"#utility.yul\":7250:7334   */\n      tag_167\n        /* \"#utility.yul\":7332:7333   */\n      0x04\n        /* \"#utility.yul\":7327:7330   */\n      dup4\n        /* \"#utility.yul\":7250:7334   */\n      tag_73\n      jump\t// in\n    tag_167:\n        /* \"#utility.yul\":7243:7334   */\n      swap2\n      pop\n        /* \"#utility.yul\":7343:7436   */\n      tag_168\n        /* \"#utility.yul\":7432:7435   */\n      dup3\n        /* \"#utility.yul\":7343:7436   */\n      tag_74\n      jump\t// in\n    tag_168:\n        /* \"#utility.yul\":7461:7462   */\n      0x04\n        /* \"#utility.yul\":7456:7459   */\n      dup3\n        /* \"#utility.yul\":7452:7463   */\n      add\n        /* \"#utility.yul\":7445:7463   */\n      swap1\n      pop\n        /* \"#utility.yul\":7069:7469   */\n      swap2\n      swap1\n      pop\n      jump\t// out\n        /* \"#utility.yul\":7475:7628   */\n    tag_76:\n        /* \"#utility.yul\":7615:7620   */\n      0x4242420000000000000000000000000000000000000000000000000000000000\n        /* \"#utility.yul\":7611:7612   */\n      0x00\n        /* \"#utility.yul\":7603:7609   */\n      dup3\n        /* \"#utility.yul\":7599:7613   */\n      add\n        /* \"#utility.yul\":7592:7621   */\n      mstore\n        /* \"#utility.yul\":7475:7628   */\n      pop\n      jump\t// out\n        /* \"#utility.yul\":7634:8034   */\n    tag_77:\n        /* \"#utility.yul\":7794:7797   */\n      0x00\n        /* \"#utility.yul\":7815:7899   */\n      tag_171\n        /* \"#utility.yul\":7897:7898   */\n      0x03\n        /* \"#utility.yul\":7892:7895   */\n      dup4\n        /* \"#utility.yul\":7815:7899   */\n      tag_73\n      jump\t// in\n    tag_171:\n        /* \"#utility.yul\":7808:7899   */\n      swap2\n      pop\n        /* \"#utility.yul\":7908:8001   */\n      tag_172\n        /* \"#utility.yul\":7997:8000   */\n      dup3\n        /* \"#utility.yul\":7908:8001   */\n      tag_76\n      jump\t// in\n    tag_172:\n        /* \"#utility.yul\":8026:8027   */\n      0x03\n        /* \"#utility.yul\":8021:8024   */\n      dup3\n        /* \"#utility.yul\":8017:8028   */\n      add\n        /* \"#utility.yul\":8010:8028   */\n      swap1\n      pop\n        /* \"#utility.yul\":7634:8034   */\n      swap2\n      swap1\n      pop\n      jump\t// out\n        /* \"#utility.yul\":8040:8687   */\n    tag_36:\n        /* \"#utility.yul\":8326:8329   */\n      0x00\n        /* \"#utility.yul\":8348:8496   */\n      tag_174\n        /* \"#utility.yul\":8492:8495   */\n      dup3\n        /* \"#utility.yul\":8348:8496   */\n      tag_75\n      jump\t// in\n    tag_174:\n        /* \"#utility.yul\":8341:8496   */\n      swap2\n      pop\n        /* \"#utility.yul\":8513:8661   */\n      tag_175\n        /* \"#utility.yul\":8657:8660   */\n      dup3\n        /* \"#utility.yul\":8513:8661   */\n      tag_77\n      jump\t// in\n    tag_175:\n        /* \"#utility.yul\":8506:8661   */\n      swap2\n      pop\n        /* \"#utility.yul\":8678:8681   */\n      dup2\n        /* \"#utility.yul\":8671:8681   */\n      swap1\n      pop\n        /* \"#utility.yul\":8040:8687   */\n      swap2\n      swap1\n      pop\n      jump\t// out\n        /* \"#utility.yul\":8693:8846   */\n    tag_78:\n        /* \"#utility.yul\":8833:8838   */\n      0x4141410000000000000000000000000000000000000000000000000000000000\n        /* \"#utility.yul\":8829:8830   */\n      0x00\n        /* \"#utility.yul\":8821:8827   */\n      dup3\n        /* \"#utility.yul\":8817:8831   */\n      add\n        /* \"#utility.yul\":8810:8839   */\n      mstore\n        /* \"#utility.yul\":8693:8846   */\n      pop\n      jump\t// out\n        /* \"#utility.yul\":8852:9252   */\n    tag_79:\n        /* \"#utility.yul\":9012:9015   */\n      0x00\n        /* \"#utility.yul\":9033:9117   */\n      tag_178\n        /* \"#utility.yul\":9115:9116   */\n      0x03\n        /* \"#utility.yul\":9110:9113   */\n      dup4\n        /* \"#utility.yul\":9033:9117   */\n      tag_73\n      jump\t// in\n    tag_178:\n        /* \"#utility.yul\":9026:9117   */\n      swap2\n      pop\n        /* \"#utility.yul\":9126:9219   */\n      tag_179\n        /* \"#utility.yul\":9215:9218   */\n      dup3\n        /* \"#utility.yul\":9126:9219   */\n      tag_78\n      jump\t// in\n    tag_179:\n        /* \"#utility.yul\":9244:9245   */\n      0x03\n        /* \"#utility.yul\":9239:9242   */\n      dup3\n        /* \"#utility.yul\":9235:9246   */\n      add\n        /* \"#utility.yul\":9228:9246   */\n      swap1\n      pop\n        /* \"#utility.yul\":8852:9252   */\n      swap2\n      swap1\n      pop\n      jump\t// out\n        /* \"#utility.yul\":9258:9412   */\n    tag_80:\n        /* \"#utility.yul\":9398:9404   */\n      0x4142424200000000000000000000000000000000000000000000000000000000\n        /* \"#utility.yul\":9394:9395   */\n      0x00\n        /* \"#utility.yul\":9386:9392   */\n      dup3\n        /* \"#utility.yul\":9382:9396   */\n      add\n        /* \"#utility.yul\":9375:9405   */\n      mstore\n        /* \"#utility.yul\":9258:9412   */\n      pop\n      jump\t// out\n        /* \"#utility.yul\":9418:9818   */\n    tag_81:\n        /* \"#utility.yul\":9578:9581   */\n      0x00\n        /* \"#utility.yul\":9599:9683   */\n      tag_182\n        /* \"#utility.yul\":9681:9682   */\n      0x04\n        /* \"#utility.yul\":9676:9679   */\n      dup4\n        /* \"#utility.yul\":9599:9683   */\n      tag_73\n      jump\t// in\n    tag_182:\n        /* \"#utility.yul\":9592:9683   */\n      swap2\n      pop\n        /* \"#utility.yul\":9692:9785   */\n      tag_183\n        /* \"#utility.yul\":9781:9784   */\n      dup3\n        /* \"#utility.yul\":9692:9785   */\n      tag_80\n      jump\t// in\n    tag_183:\n        /* \"#utility.yul\":9810:9811   */\n      0x04\n        /* \"#utility.yul\":9805:9808   */\n      dup3\n        /* \"#utility.yul\":9801:9812   */\n      add\n        /* \"#utility.yul\":9794:9812   */\n      swap1\n      pop\n        /* \"#utility.yul\":9418:9818   */\n      swap2\n      swap1\n      pop\n      jump\t// out\n        /* \"#utility.yul\":9824:10471   */\n    tag_38:\n        /* \"#utility.yul\":10110:10113   */\n      0x00\n        /* \"#utility.yul\":10132:10280   */\n      tag_185\n        /* \"#utility.yul\":10276:10279   */\n      dup3\n        /* \"#utility.yul\":10132:10280   */\n      tag_79\n      jump\t// in\n    tag_185:\n        /* \"#utility.yul\":10125:10280   */\n      swap2\n      pop\n        /* \"#utility.yul\":10297:10445   */\n      tag_186\n        /* \"#utility.yul\":10441:10444   */\n      dup3\n        /* \"#utility.yul\":10297:10445   */\n      tag_81\n      jump\t// in\n    tag_186:\n        /* \"#utility.yul\":10290:10445   */\n      swap2\n      pop\n        /* \"#utility.yul\":10462:10465   */\n      dup2\n        /* \"#utility.yul\":10455:10465   */\n      swap1\n      pop\n        /* \"#utility.yul\":9824:10471   */\n      swap2\n      swap1\n      pop\n      jump\t// out\n        /* \"#utility.yul\":10477:10554   */\n    tag_82:\n        /* \"#utility.yul\":10514:10521   */\n      0x00\n        /* \"#utility.yul\":10543:10548   */\n      dup2\n        /* \"#utility.yul\":10532:10548   */\n      swap1\n      pop\n        /* \"#utility.yul\":10477:10554   */\n      swap2\n      swap1\n      pop\n      jump\t// out\n        /* \"#utility.yul\":10560:10639   */\n    tag_83:\n        /* \"#utility.yul\":10599:10606   */\n      0x00\n        /* \"#utility.yul\":10628:10633   */\n      dup2\n        /* \"#utility.yul\":10617:10633   */\n      swap1\n      pop\n        /* \"#utility.yul\":10560:10639   */\n      swap2\n      swap1\n      pop\n      jump\t// out\n        /* \"#utility.yul\":10645:10802   */\n    tag_84:\n        /* \"#utility.yul\":10750:10795   */\n      tag_190\n        /* \"#utility.yul\":10770:10794   */\n      tag_191\n        /* \"#utility.yul\":10788:10793   */\n      dup3\n        /* \"#utility.yul\":10770:10794   */\n      tag_82\n      jump\t// in\n    tag_191:\n        /* \"#utility.yul\":10750:10795   */\n      tag_83\n      jump\t// in\n    tag_190:\n        /* \"#utility.yul\":10745:10748   */\n      dup3\n        /* \"#utility.yul\":10738:10796   */\n      mstore\n        /* \"#utility.yul\":10645:10802   */\n      pop\n      pop\n      jump\t// out\n        /* \"#utility.yul\":10808:11596   */\n    tag_41:\n        /* \"#utility.yul\":11122:11125   */\n      0x00\n        /* \"#utility.yul\":11144:11292   */\n      tag_193\n        /* \"#utility.yul\":11288:11291   */\n      dup3\n        /* \"#utility.yul\":11144:11292   */\n      tag_75\n      jump\t// in\n    tag_193:\n        /* \"#utility.yul\":11137:11292   */\n      swap2\n      pop\n        /* \"#utility.yul\":11302:11377   */\n      tag_194\n        /* \"#utility.yul\":11373:11376   */\n      dup3\n        /* \"#utility.yul\":11364:11370   */\n      dup5\n        /* \"#utility.yul\":11302:11377   */\n      tag_84\n      jump\t// in\n    tag_194:\n        /* \"#utility.yul\":11402:11404   */\n      0x20\n        /* \"#utility.yul\":11397:11400   */\n      dup3\n        /* \"#utility.yul\":11393:11405   */\n      add\n        /* \"#utility.yul\":11386:11405   */\n      swap2\n      pop\n        /* \"#utility.yul\":11422:11570   */\n      tag_195\n        /* \"#utility.yul\":11566:11569   */\n      dup3\n        /* \"#utility.yul\":11422:11570   */\n      tag_77\n      jump\t// in\n    tag_195:\n        /* \"#utility.yul\":11415:11570   */\n      swap2\n      pop\n        /* \"#utility.yul\":11587:11590   */\n      dup2\n        /* \"#utility.yul\":11580:11590   */\n      swap1\n      pop\n        /* \"#utility.yul\":10808:11596   */\n      swap3\n      swap2\n      pop\n      pop\n      jump\t// out\n        /* \"#utility.yul\":11602:12390   */\n    tag_43:\n        /* \"#utility.yul\":11916:11919   */\n      0x00\n        /* \"#utility.yul\":11938:12086   */\n      tag_197\n        /* \"#utility.yul\":12082:12085   */\n      dup3\n        /* \"#utility.yul\":11938:12086   */\n      tag_79\n      jump\t// in\n    tag_197:\n        /* \"#utility.yul\":11931:12086   */\n      swap2\n      pop\n        /* \"#utility.yul\":12096:12171   */\n      tag_198\n        /* \"#utility.yul\":12167:12170   */\n      dup3\n        /* \"#utility.yul\":12158:12164   */\n      dup5\n        /* \"#utility.yul\":12096:12171   */\n      tag_84\n      jump\t// in\n    tag_198:\n        /* \"#utility.yul\":12196:12198   */\n      0x20\n        /* \"#utility.yul\":12191:12194   */\n      dup3\n        /* \"#utility.yul\":12187:12199   */\n      add\n        /* \"#utility.yul\":12180:12199   */\n      swap2\n      pop\n        /* \"#utility.yul\":12216:12364   */\n      tag_199\n        /* \"#utility.yul\":12360:12363   */\n      dup3\n        /* \"#utility.yul\":12216:12364   */\n      tag_81\n      jump\t// in\n    tag_199:\n        /* \"#utility.yul\":12209:12364   */\n      swap2\n      pop\n        /* \"#utility.yul\":12381:12384   */\n      dup2\n        /* \"#utility.yul\":12374:12384   */\n      swap1\n      pop\n        /* \"#utility.yul\":11602:12390   */\n      swap3\n      swap2\n      pop\n      pop\n      jump\t// out\n        /* \"#utility.yul\":12396:12475   */\n    tag_85:\n        /* \"#utility.yul\":12435:12442   */\n      0x00\n        /* \"#utility.yul\":12464:12469   */\n      dup2\n        /* \"#utility.yul\":12453:12469   */\n      swap1\n      pop\n        /* \"#utility.yul\":12396:12475   */\n      swap2\n      swap1\n      pop\n      jump\t// out\n        /* \"#utility.yul\":12481:12638   */\n    tag_86:\n        /* \"#utility.yul\":12586:12631   */\n      tag_202\n        /* \"#utility.yul\":12606:12630   */\n      tag_203\n        /* \"#utility.yul\":12624:12629   */\n      dup3\n        /* \"#utility.yul\":12606:12630   */\n      tag_62\n      jump\t// in\n    tag_203:\n        /* \"#utility.yul\":12586:12631   */\n      tag_85\n      jump\t// in\n    tag_202:\n        /* \"#utility.yul\":12581:12584   */\n      dup3\n        /* \"#utility.yul\":12574:12632   */\n      mstore\n        /* \"#utility.yul\":12481:12638   */\n      pop\n      pop\n      jump\t// out\n        /* \"#utility.yul\":12644:12738   */\n    tag_87:\n        /* \"#utility.yul\":12677:12685   */\n      0x00\n        /* \"#utility.yul\":12725:12730   */\n      dup2\n        /* \"#utility.yul\":12721:12723   */\n      0x60\n        /* \"#utility.yul\":12717:12731   */\n      shl\n        /* \"#utility.yul\":12696:12731   */\n      swap1\n      pop\n        /* \"#utility.yul\":12644:12738   */\n      swap2\n      swap1\n      pop\n      jump\t// out\n        /* \"#utility.yul\":12744:12838   */\n    tag_88:\n        /* \"#utility.yul\":12783:12790   */\n      0x00\n        /* \"#utility.yul\":12812:12832   */\n      tag_206\n        /* \"#utility.yul\":12826:12831   */\n      dup3\n        /* \"#utility.yul\":12812:12832   */\n      tag_87\n      jump\t// in\n    tag_206:\n        /* \"#utility.yul\":12801:12832   */\n      swap1\n      pop\n        /* \"#utility.yul\":12744:12838   */\n      swap2\n      swap1\n      pop\n      jump\t// out\n        /* \"#utility.yul\":12844:12944   */\n    tag_89:\n        /* \"#utility.yul\":12883:12890   */\n      0x00\n        /* \"#utility.yul\":12912:12938   */\n      tag_208\n        /* \"#utility.yul\":12932:12937   */\n      dup3\n        /* \"#utility.yul\":12912:12938   */\n      tag_88\n      jump\t// in\n    tag_208:\n        /* \"#utility.yul\":12901:12938   */\n      swap1\n      pop\n        /* \"#utility.yul\":12844:12944   */\n      swap2\n      swap1\n      pop\n      jump\t// out\n        /* \"#utility.yul\":12950:13107   */\n    tag_90:\n        /* \"#utility.yul\":13055:13100   */\n      tag_210\n        /* \"#utility.yul\":13075:13099   */\n      tag_211\n        /* \"#utility.yul\":13093:13098   */\n      dup3\n        /* \"#utility.yul\":13075:13099   */\n      tag_67\n      jump\t// in\n    tag_211:\n        /* \"#utility.yul\":13055:13100   */\n      tag_89\n      jump\t// in\n    tag_210:\n        /* \"#utility.yul\":13050:13053   */\n      dup3\n        /* \"#utility.yul\":13043:13101   */\n      mstore\n        /* \"#utility.yul\":12950:13107   */\n      pop\n      pop\n      jump\t// out\n        /* \"#utility.yul\":13113:13510   */\n    tag_46:\n        /* \"#utility.yul\":13253:13256   */\n      0x00\n        /* \"#utility.yul\":13268:13343   */\n      tag_213\n        /* \"#utility.yul\":13339:13342   */\n      dup3\n        /* \"#utility.yul\":13330:13336   */\n      dup6\n        /* \"#utility.yul\":13268:13343   */\n      tag_86\n      jump\t// in\n    tag_213:\n        /* \"#utility.yul\":13368:13370   */\n      0x20\n        /* \"#utility.yul\":13363:13366   */\n      dup3\n        /* \"#utility.yul\":13359:13371   */\n      add\n        /* \"#utility.yul\":13352:13371   */\n      swap2\n      pop\n        /* \"#utility.yul\":13381:13456   */\n      tag_214\n        /* \"#utility.yul\":13452:13455   */\n      dup3\n        /* \"#utility.yul\":13443:13449   */\n      dup5\n        /* \"#utility.yul\":13381:13456   */\n      tag_90\n      jump\t// in\n    tag_214:\n        /* \"#utility.yul\":13481:13483   */\n      0x14\n        /* \"#utility.yul\":13476:13479   */\n      dup3\n        /* \"#utility.yul\":13472:13484   */\n      add\n        /* \"#utility.yul\":13465:13484   */\n      swap2\n      pop\n        /* \"#utility.yul\":13501:13504   */\n      dup2\n        /* \"#utility.yul\":13494:13504   */\n      swap1\n      pop\n        /* \"#utility.yul\":13113:13510   */\n      swap4\n      swap3\n      pop\n      pop\n      pop\n      jump\t// out\n        /* \"#utility.yul\":13540:13870   */\n    tag_91:\n        /* \"#utility.yul\":13656:13659   */\n      0x00\n        /* \"#utility.yul\":13677:13766   */\n      tag_216\n        /* \"#utility.yul\":13759:13765   */\n      dup4\n        /* \"#utility.yul\":13754:13757   */\n      dup6\n        /* \"#utility.yul\":13677:13766   */\n      tag_73\n      jump\t// in\n    tag_216:\n        /* \"#utility.yul\":13670:13766   */\n      swap4\n      pop\n        /* \"#utility.yul\":13776:13832   */\n      tag_217\n        /* \"#utility.yul\":13825:13831   */\n      dup4\n        /* \"#utility.yul\":13820:13823   */\n      dup6\n        /* \"#utility.yul\":13813:13818   */\n      dup5\n        /* \"#utility.yul\":13776:13832   */\n      tag_71\n      jump\t// in\n    tag_217:\n        /* \"#utility.yul\":13857:13863   */\n      dup3\n        /* \"#utility.yul\":13852:13855   */\n      dup5\n        /* \"#utility.yul\":13848:13864   */\n      add\n        /* \"#utility.yul\":13841:13864   */\n      swap1\n      pop\n        /* \"#utility.yul\":13540:13870   */\n      swap4\n      swap3\n      pop\n      pop\n      pop\n      jump\t// out\n        /* \"#utility.yul\":13876:14351   */\n    tag_49:\n        /* \"#utility.yul\":14076:14079   */\n      0x00\n        /* \"#utility.yul\":14098:14203   */\n      tag_219\n        /* \"#utility.yul\":14199:14202   */\n      dup3\n        /* \"#utility.yul\":14190:14196   */\n      dup7\n        /* \"#utility.yul\":14182:14188   */\n      dup9\n        /* \"#utility.yul\":14098:14203   */\n      tag_91\n      jump\t// in\n    tag_219:\n        /* \"#utility.yul\":14091:14203   */\n      swap2\n      pop\n        /* \"#utility.yul\":14220:14325   */\n      tag_220\n        /* \"#utility.yul\":14321:14324   */\n      dup3\n        /* \"#utility.yul\":14312:14318   */\n      dup5\n        /* \"#utility.yul\":14304:14310   */\n      dup7\n        /* \"#utility.yul\":14220:14325   */\n      tag_91\n      jump\t// in\n    tag_220:\n        /* \"#utility.yul\":14213:14325   */\n      swap2\n      pop\n        /* \"#utility.yul\":14342:14345   */\n      dup2\n        /* \"#utility.yul\":14335:14345   */\n      swap1\n      pop\n        /* \"#utility.yul\":13876:14351   */\n      swap6\n      swap5\n      pop\n      pop\n      pop\n      pop\n      pop\n      jump\t// out\n\n    auxdata: 0xa26469706673582212203afa86577335d27a40ff9f96ee38acfaf882405ee583c4c413672adc2d457f1164736f6c63430008120033\n}\n",
				"bytecode": {
					"linkReferences": {},
					"object": "608060405234801561001057600080fd5b506108e7806100206000396000f3fe608060405234801561001057600080fd5b50600436106100575760003560e01c806317fe2da21461005c5780631924a5de1461008c578063506f6f78146100ab578063d72b8d71146100ca578063fc3251e4146100fa575b600080fd5b610076600480360381019061007191906102e5565b61012a565b60405161008391906103f6565b60405180910390f35b61009461015c565b6040516100a2929190610431565b60405180910390f35b6100b36101b1565b6040516100c1929190610431565b60405180910390f35b6100e460048036038101906100df91906104e4565b610211565b6040516100f19190610524565b60405180910390f35b610114600480360381019061010f91906102e5565b610244565b60405161012191906103f6565b60405180910390f35b606084848484604051602001610143949392919061058c565b6040516020818303038152906040529050949350505050565b60008060405160200161016e9061066a565b6040516020818303038152906040528051906020012060405160200161019390610722565b60405160208183030381529060405280519060200120915091509091565b6000806000607b9050806040516020016101cb919061076d565b60405160208183030381529060405280519060200120816040516020016101f2919061079e565b6040516020818303038152906040528051906020012092509250509091565b60008282604051602001610226929190610838565b60405160208183030381529060405280519060200120905092915050565b60608484848460405160200161025d9493929190610889565b6040516020818303038152906040529050949350505050565b600080fd5b600080fd5b600080fd5b600080fd5b600080fd5b60008083601f8401126102a5576102a4610280565b5b8235905067ffffffffffffffff8111156102c2576102c1610285565b5b6020830191508360018202830111156102de576102dd61028a565b5b9250929050565b600080600080604085870312156102ff576102fe610276565b5b600085013567ffffffffffffffff81111561031d5761031c61027b565b5b6103298782880161028f565b9450945050602085013567ffffffffffffffff81111561034c5761034b61027b565b5b6103588782880161028f565b925092505092959194509250565b600081519050919050565b600082825260208201905092915050565b60005b838110156103a0578082015181840152602081019050610385565b60008484015250505050565b6000601f19601f8301169050919050565b60006103c882610366565b6103d28185610371565b93506103e2818560208601610382565b6103eb816103ac565b840191505092915050565b6000602082019050818103600083015261041081846103bd565b905092915050565b6000819050919050565b61042b81610418565b82525050565b60006040820190506104466000830185610422565b6104536020830184610422565b9392505050565b61046381610418565b811461046e57600080fd5b50565b6000813590506104808161045a565b92915050565b600073ffffffffffffffffffffffffffffffffffffffff82169050919050565b60006104b182610486565b9050919050565b6104c1816104a6565b81146104cc57600080fd5b50565b6000813590506104de816104b8565b92915050565b600080604083850312156104fb576104fa610276565b5b600061050985828601610471565b925050602061051a858286016104cf565b9150509250929050565b60006020820190506105396000830184610422565b92915050565b600082825260208201905092915050565b82818337600083830152505050565b600061056b838561053f565b9350610578838584610550565b610581836103ac565b840190509392505050565b600060408201905081810360008301526105a781868861055f565b905081810360208301526105bc81848661055f565b905095945050505050565b600081905092915050565b7f4141414100000000000000000000000000000000000000000000000000000000600082015250565b60006106086004836105c7565b9150610613826105d2565b600482019050919050565b7f4242420000000000000000000000000000000000000000000000000000000000600082015250565b60006106546003836105c7565b915061065f8261061e565b600382019050919050565b6000610675826105fb565b915061068082610647565b9150819050919050565b7f4141410000000000000000000000000000000000000000000000000000000000600082015250565b60006106c06003836105c7565b91506106cb8261068a565b600382019050919050565b7f4142424200000000000000000000000000000000000000000000000000000000600082015250565b600061070c6004836105c7565b9150610717826106d6565b600482019050919050565b600061072d826106b3565b9150610738826106ff565b9150819050919050565b6000819050919050565b6000819050919050565b61076761076282610742565b61074c565b82525050565b6000610778826105fb565b91506107848284610756565b60208201915061079382610647565b915081905092915050565b60006107a9826106b3565b91506107b58284610756565b6020820191506107c4826106ff565b915081905092915050565b6000819050919050565b6107ea6107e582610418565b6107cf565b82525050565b60008160601b9050919050565b6000610808826107f0565b9050919050565b600061081a826107fd565b9050919050565b61083261082d826104a6565b61080f565b82525050565b600061084482856107d9565b6020820191506108548284610821565b6014820191508190509392505050565b600061087083856105c7565b935061087d838584610550565b82840190509392505050565b6000610896828688610864565b91506108a3828486610864565b91508190509594505050505056fea26469706673582212203afa86577335d27a40ff9f96ee38acfaf882405ee583c4c413672adc2d457f1164736f6c63430008120033",
					"opcodes": "PUSH1 0x80 PUSH1 0x40 MSTORE CALLVALUE DUP1 ISZERO PUSH2 0x10 JUMPI PUSH1 0x0 DUP1 REVERT JUMPDEST POP PUSH2 0x8E7 DUP1 PUSH2 0x20 PUSH1 0x0 CODECOPY PUSH1 0x0 RETURN INVALID PUSH1 0x80 PUSH1 0x40 MSTORE CALLVALUE DUP1 ISZERO PUSH2 0x10 JUMPI PUSH1 0x0 DUP1 REVERT JUMPDEST POP PUSH1 0x4 CALLDATASIZE LT PUSH2 0x57 JUMPI PUSH1 0x0 CALLDATALOAD PUSH1 0xE0 SHR DUP1 PUSH4 0x17FE2DA2 EQ PUSH2 0x5C JUMPI DUP1 PUSH4 0x1924A5DE EQ PUSH2 0x8C JUMPI DUP1 PUSH4 0x506F6F78 EQ PUSH2 0xAB JUMPI DUP1 PUSH4 0xD72B8D71 EQ PUSH2 0xCA JUMPI DUP1 PUSH4 0xFC3251E4 EQ PUSH2 0xFA JUMPI JUMPDEST PUSH1 0x0 DUP1 REVERT JUMPDEST PUSH2 0x76 PUSH1 0x4 DUP1 CALLDATASIZE SUB DUP2 ADD SWAP1 PUSH2 0x71 SWAP2 SWAP1 PUSH2 0x2E5 JUMP JUMPDEST PUSH2 0x12A JUMP JUMPDEST PUSH1 0x40 MLOAD PUSH2 0x83 SWAP2 SWAP1 PUSH2 0x3F6 JUMP JUMPDEST PUSH1 0x40 MLOAD DUP1 SWAP2 SUB SWAP1 RETURN JUMPDEST PUSH2 0x94 PUSH2 0x15C JUMP JUMPDEST PUSH1 0x40 MLOAD PUSH2 0xA2 SWAP3 SWAP2 SWAP1 PUSH2 0x431 JUMP JUMPDEST PUSH1 0x40 MLOAD DUP1 SWAP2 SUB SWAP1 RETURN JUMPDEST PUSH2 0xB3 PUSH2 0x1B1 JUMP JUMPDEST PUSH1 0x40 MLOAD PUSH2 0xC1 SWAP3 SWAP2 SWAP1 PUSH2 0x431 JUMP JUMPDEST PUSH1 0x40 MLOAD DUP1 SWAP2 SUB SWAP1 RETURN JUMPDEST PUSH2 0xE4 PUSH1 0x4 DUP1 CALLDATASIZE SUB DUP2 ADD SWAP1 PUSH2 0xDF SWAP2 SWAP1 PUSH2 0x4E4 JUMP JUMPDEST PUSH2 0x211 JUMP JUMPDEST PUSH1 0x40 MLOAD PUSH2 0xF1 SWAP2 SWAP1 PUSH2 0x524 JUMP JUMPDEST PUSH1 0x40 MLOAD DUP1 SWAP2 SUB SWAP1 RETURN JUMPDEST PUSH2 0x114 PUSH1 0x4 DUP1 CALLDATASIZE SUB DUP2 ADD SWAP1 PUSH2 0x10F SWAP2 SWAP1 PUSH2 0x2E5 JUMP JUMPDEST PUSH2 0x244 JUMP JUMPDEST PUSH1 0x40 MLOAD PUSH2 0x121 SWAP2 SWAP1 PUSH2 0x3F6 JUMP JUMPDEST PUSH1 0x40 MLOAD DUP1 SWAP2 SUB SWAP1 RETURN JUMPDEST PUSH1 0x60 DUP5 DUP5 DUP5 DUP5 PUSH1 0x40 MLOAD PUSH1 0x20 ADD PUSH2 0x143 SWAP5 SWAP4 SWAP3 SWAP2 SWAP1 PUSH2 0x58C JUMP JUMPDEST PUSH1 0x40 MLOAD PUSH1 0x20 DUP2 DUP4 SUB SUB DUP2 MSTORE SWAP1 PUSH1 0x40 MSTORE SWAP1 POP SWAP5 SWAP4 POP POP POP POP JUMP JUMPDEST PUSH1 0x0 DUP1 PUSH1 0x40 MLOAD PUSH1 0x20 ADD PUSH2 0x16E SWAP1 PUSH2 0x66A JUMP JUMPDEST PUSH1 0x40 MLOAD PUSH1 0x20 DUP2 DUP4 SUB SUB DUP2 MSTORE SWAP1 PUSH1 0x40 MSTORE DUP1 MLOAD SWAP1 PUSH1 0x20 ADD KECCAK256 PUSH1 0x40 MLOAD PUSH1 0x20 ADD PUSH2 0x193 SWAP1 PUSH2 0x722 JUMP JUMPDEST PUSH1 0x40 MLOAD PUSH1 0x20 DUP2 DUP4 SUB SUB DUP2 MSTORE SWAP1 PUSH1 0x40 MSTORE DUP1 MLOAD SWAP1 PUSH1 0x20 ADD KECCAK256 SWAP2 POP SWAP2 POP SWAP1 SWAP2 JUMP JUMPDEST PUSH1 0x0 DUP1 PUSH1 0x0 PUSH1 0x7B SWAP1 POP DUP1 PUSH1 0x40 MLOAD PUSH1 0x20 ADD PUSH2 0x1CB SWAP2 SWAP1 PUSH2 0x76D JUMP JUMPDEST PUSH1 0x40 MLOAD PUSH1 0x20 DUP2 DUP4 SUB SUB DUP2 MSTORE SWAP1 PUSH1 0x40 MSTORE DUP1 MLOAD SWAP1 PUSH1 0x20 ADD KECCAK256 DUP2 PUSH1 0x40 MLOAD PUSH1 0x20 ADD PUSH2 0x1F2 SWAP2 SWAP1 PUSH2 0x79E JUMP JUMPDEST PUSH1 0x40 MLOAD PUSH1 0x20 DUP2 DUP4 SUB SUB DUP2 MSTORE SWAP1 PUSH1 0x40 MSTORE DUP1 MLOAD SWAP1 PUSH1 0x20 ADD KECCAK256 SWAP3 POP SWAP3 POP POP SWAP1 SWAP2 JUMP JUMPDEST PUSH1 0x0 DUP3 DUP3 PUSH1 0x40 MLOAD PUSH1 0x20 ADD PUSH2 0x226 SWAP3 SWAP2 SWAP1 PUSH2 0x838 JUMP JUMPDEST PUSH1 0x40 MLOAD PUSH1 0x20 DUP2 DUP4 SUB SUB DUP2 MSTORE SWAP1 PUSH1 0x40 MSTORE DUP1 MLOAD SWAP1 PUSH1 0x20 ADD KECCAK256 SWAP1 POP SWAP3 SWAP2 POP POP JUMP JUMPDEST PUSH1 0x60 DUP5 DUP5 DUP5 DUP5 PUSH1 0x40 MLOAD PUSH1 0x20 ADD PUSH2 0x25D SWAP5 SWAP4 SWAP3 SWAP2 SWAP1 PUSH2 0x889 JUMP JUMPDEST PUSH1 0x40 MLOAD PUSH1 0x20 DUP2 DUP4 SUB SUB DUP2 MSTORE SWAP1 PUSH1 0x40 MSTORE SWAP1 POP SWAP5 SWAP4 POP POP POP POP JUMP JUMPDEST PUSH1 0x0 DUP1 REVERT JUMPDEST PUSH1 0x0 DUP1 REVERT JUMPDEST PUSH1 0x0 DUP1 REVERT JUMPDEST PUSH1 0x0 DUP1 REVERT JUMPDEST PUSH1 0x0 DUP1 REVERT JUMPDEST PUSH1 0x0 DUP1 DUP4 PUSH1 0x1F DUP5 ADD SLT PUSH2 0x2A5 JUMPI PUSH2 0x2A4 PUSH2 0x280 JUMP JUMPDEST JUMPDEST DUP3 CALLDATALOAD SWAP1 POP PUSH8 0xFFFFFFFFFFFFFFFF DUP2 GT ISZERO PUSH2 0x2C2 JUMPI PUSH2 0x2C1 PUSH2 0x285 JUMP JUMPDEST JUMPDEST PUSH1 0x20 DUP4 ADD SWAP2 POP DUP4 PUSH1 0x1 DUP3 MUL DUP4 ADD GT ISZERO PUSH2 0x2DE JUMPI PUSH2 0x2DD PUSH2 0x28A JUMP JUMPDEST JUMPDEST SWAP3 POP SWAP3 SWAP1 POP JUMP JUMPDEST PUSH1 0x0 DUP1 PUSH1 0x0 DUP1 PUSH1 0x40 DUP6 DUP8 SUB SLT ISZERO PUSH2 0x2FF JUMPI PUSH2 0x2FE PUSH2 0x276 JUMP JUMPDEST JUMPDEST PUSH1 0x0 DUP6 ADD CALLDATALOAD PUSH8 0xFFFFFFFFFFFFFFFF DUP2 GT ISZERO PUSH2 0x31D JUMPI PUSH2 0x31C PUSH2 0x27B JUMP JUMPDEST JUMPDEST PUSH2 0x329 DUP8 DUP3 DUP9 ADD PUSH2 0x28F JUMP JUMPDEST SWAP5 POP SWAP5 POP POP PUSH1 0x20 DUP6 ADD CALLDATALOAD PUSH8 0xFFFFFFFFFFFFFFFF DUP2 GT ISZERO PUSH2 0x34C JUMPI PUSH2 0x34B PUSH2 0x27B JUMP JUMPDEST JUMPDEST PUSH2 0x358 DUP8 DUP3 DUP9 ADD PUSH2 0x28F JUMP JUMPDEST SWAP3 POP SWAP3 POP POP SWAP3 SWAP6 SWAP2 SWAP5 POP SWAP3 POP JUMP JUMPDEST PUSH1 0x0 DUP2 MLOAD SWAP1 POP SWAP2 SWAP1 POP JUMP JUMPDEST PUSH1 0x0 DUP3 DUP3 MSTORE PUSH1 0x20 DUP3 ADD SWAP1 POP SWAP3 SWAP2 POP POP JUMP JUMPDEST PUSH1 0x0 JUMPDEST DUP4 DUP2 LT ISZERO PUSH2 0x3A0 JUMPI DUP1 DUP3 ADD MLOAD DUP2 DUP5 ADD MSTORE PUSH1 0x20 DUP2 ADD SWAP1 POP PUSH2 0x385 JUMP JUMPDEST PUSH1 0x0 DUP5 DUP5 ADD MSTORE POP POP POP POP JUMP JUMPDEST PUSH1 0x0 PUSH1 0x1F NOT PUSH1 0x1F DUP4 ADD AND SWAP1 POP SWAP2 SWAP1 POP JUMP JUMPDEST PUSH1 0x0 PUSH2 0x3C8 DUP3 PUSH2 0x366 JUMP JUMPDEST PUSH2 0x3D2 DUP2 DUP6 PUSH2 0x371 JUMP JUMPDEST SWAP4 POP PUSH2 0x3E2 DUP2 DUP6 PUSH1 0x20 DUP7 ADD PUSH2 0x382 JUMP JUMPDEST PUSH2 0x3EB DUP2 PUSH2 0x3AC JUMP JUMPDEST DUP5 ADD SWAP2 POP POP SWAP3 SWAP2 POP POP JUMP JUMPDEST PUSH1 0x0 PUSH1 0x20 DUP3 ADD SWAP1 POP DUP2 DUP2 SUB PUSH1 0x0 DUP4 ADD MSTORE PUSH2 0x410 DUP2 DUP5 PUSH2 0x3BD JUMP JUMPDEST SWAP1 POP SWAP3 SWAP2 POP POP JUMP JUMPDEST PUSH1 0x0 DUP2 SWAP1 POP SWAP2 SWAP1 POP JUMP JUMPDEST PUSH2 0x42B DUP2 PUSH2 0x418 JUMP JUMPDEST DUP3 MSTORE POP POP JUMP JUMPDEST PUSH1 0x0 PUSH1 0x40 DUP3 ADD SWAP1 POP PUSH2 0x446 PUSH1 0x0 DUP4 ADD DUP6 PUSH2 0x422 JUMP JUMPDEST PUSH2 0x453 PUSH1 0x20 DUP4 ADD DUP5 PUSH2 0x422 JUMP JUMPDEST SWAP4 SWAP3 POP POP POP JUMP JUMPDEST PUSH2 0x463 DUP2 PUSH2 0x418 JUMP JUMPDEST DUP2 EQ PUSH2 0x46E JUMPI PUSH1 0x0 DUP1 REVERT JUMPDEST POP JUMP JUMPDEST PUSH1 0x0 DUP2 CALLDATALOAD SWAP1 POP PUSH2 0x480 DUP2 PUSH2 0x45A JUMP JUMPDEST SWAP3 SWAP2 POP POP JUMP JUMPDEST PUSH1 0x0 PUSH20 0xFFFFFFFFFFFFFFFFFFFFFFFFFFFFFFFFFFFFFFFF DUP3 AND SWAP1 POP SWAP2 SWAP1 POP JUMP JUMPDEST PUSH1 0x0 PUSH2 0x4B1 DUP3 PUSH2 0x486 JUMP JUMPDEST SWAP1 POP SWAP2 SWAP1 POP JUMP JUMPDEST PUSH2 0x4C1 DUP2 PUSH2 0x4A6 JUMP JUMPDEST DUP2 EQ PUSH2 0x4CC JUMPI PUSH1 0x0 DUP1 REVERT JUMPDEST POP JUMP JUMPDEST PUSH1 0x0 DUP2 CALLDATALOAD SWAP1 POP PUSH2 0x4DE DUP2 PUSH2 0x4B8 JUMP JUMPDEST SWAP3 SWAP2 POP POP JUMP JUMPDEST PUSH1 0x0 DUP1 PUSH1 0x40 DUP4 DUP6 SUB SLT ISZERO PUSH2 0x4FB JUMPI PUSH2 0x4FA PUSH2 0x276 JUMP JUMPDEST JUMPDEST PUSH1 0x0 PUSH2 0x509 DUP6 DUP3 DUP7 ADD PUSH2 0x471 JUMP JUMPDEST SWAP3 POP POP PUSH1 0x20 PUSH2 0x51A DUP6 DUP3 DUP7 ADD PUSH2 0x4CF JUMP JUMPDEST SWAP2 POP POP SWAP3 POP SWAP3 SWAP1 POP JUMP JUMPDEST PUSH1 0x0 PUSH1 0x20 DUP3 ADD SWAP1 POP PUSH2 0x539 PUSH1 0x0 DUP4 ADD DUP5 PUSH2 0x422 JUMP JUMPDEST SWAP3 SWAP2 POP POP JUMP JUMPDEST PUSH1 0x0 DUP3 DUP3 MSTORE PUSH1 0x20 DUP3 ADD SWAP1 POP SWAP3 SWAP2 POP POP JUMP JUMPDEST DUP3 DUP2 DUP4 CALLDATACOPY PUSH1 0x0 DUP4 DUP4 ADD MSTORE POP POP POP JUMP JUMPDEST PUSH1 0x0 PUSH2 0x56B DUP4 DUP6 PUSH2 0x53F JUMP JUMPDEST SWAP4 POP PUSH2 0x578 DUP4 DUP6 DUP5 PUSH2 0x550 JUMP JUMPDEST PUSH2 0x581 DUP4 PUSH2 0x3AC JUMP JUMPDEST DUP5 ADD SWAP1 POP SWAP4 SWAP3 POP POP POP JUMP JUMPDEST PUSH1 0x0 PUSH1 0x40 DUP3 ADD SWAP1 POP DUP2 DUP2 SUB PUSH1 0x0 DUP4 ADD MSTORE PUSH2 0x5A7 DUP2 DUP7 DUP9 PUSH2 0x55F JUMP JUMPDEST SWAP1 POP DUP2 DUP2 SUB PUSH1 0x20 DUP4 ADD MSTORE PUSH2 0x5BC DUP2 DUP5 DUP7 PUSH2 0x55F JUMP JUMPDEST SWAP1 POP SWAP6 SWAP5 POP POP POP POP POP JUMP JUMPDEST PUSH1 0x0 DUP2 SWAP1 POP SWAP3 SWAP2 POP POP JUMP JUMPDEST PUSH32 0x4141414100000000000000000000000000000000000000000000000000000000 PUSH1 0x0 DUP3 ADD MSTORE POP JUMP JUMPDEST PUSH1 0x0 PUSH2 0x608 PUSH1 0x4 DUP4 PUSH2 0x5C7 JUMP JUMPDEST SWAP2 POP PUSH2 0x613 DUP3 PUSH2 0x5D2 JUMP JUMPDEST PUSH1 0x4 DUP3 ADD SWAP1 POP SWAP2 SWAP1 POP JUMP JUMPDEST PUSH32 0x4242420000000000000000000000000000000000000000000000000000000000 PUSH1 0x0 DUP3 ADD MSTORE POP JUMP JUMPDEST PUSH1 0x0 PUSH2 0x654 PUSH1 0x3 DUP4 PUSH2 0x5C7 JUMP JUMPDEST SWAP2 POP PUSH2 0x65F DUP3 PUSH2 0x61E JUMP JUMPDEST PUSH1 0x3 DUP3 ADD SWAP1 POP SWAP2 SWAP1 POP JUMP JUMPDEST PUSH1 0x0 PUSH2 0x675 DUP3 PUSH2 0x5FB JUMP JUMPDEST SWAP2 POP PUSH2 0x680 DUP3 PUSH2 0x647 JUMP JUMPDEST SWAP2 POP DUP2 SWAP1 POP SWAP2 SWAP1 POP JUMP JUMPDEST PUSH32 0x4141410000000000000000000000000000000000000000000000000000000000 PUSH1 0x0 DUP3 ADD MSTORE POP JUMP JUMPDEST PUSH1 0x0 PUSH2 0x6C0 PUSH1 0x3 DUP4 PUSH2 0x5C7 JUMP JUMPDEST SWAP2 POP PUSH2 0x6CB DUP3 PUSH2 0x68A JUMP JUMPDEST PUSH1 0x3 DUP3 ADD SWAP1 POP SWAP2 SWAP1 POP JUMP JUMPDEST PUSH32 0x4142424200000000000000000000000000000000000000000000000000000000 PUSH1 0x0 DUP3 ADD MSTORE POP JUMP JUMPDEST PUSH1 0x0 PUSH2 0x70C PUSH1 0x4 DUP4 PUSH2 0x5C7 JUMP JUMPDEST SWAP2 POP PUSH2 0x717 DUP3 PUSH2 0x6D6 JUMP JUMPDEST PUSH1 0x4 DUP3 ADD SWAP1 POP SWAP2 SWAP1 POP JUMP JUMPDEST PUSH1 0x0 PUSH2 0x72D DUP3 PUSH2 0x6B3 JUMP JUMPDEST SWAP2 POP PUSH2 0x738 DUP3 PUSH2 0x6FF JUMP JUMPDEST SWAP2 POP DUP2 SWAP1 POP SWAP2 SWAP1 POP JUMP JUMPDEST PUSH1 0x0 DUP2 SWAP1 POP SWAP2 SWAP1 POP JUMP JUMPDEST PUSH1 0x0 DUP2 SWAP1 POP SWAP2 SWAP1 POP JUMP JUMPDEST PUSH2 0x767 PUSH2 0x762 DUP3 PUSH2 0x742 JUMP JUMPDEST PUSH2 0x74C JUMP JUMPDEST DUP3 MSTORE POP POP JUMP JUMPDEST PUSH1 0x0 PUSH2 0x778 DUP3 PUSH2 0x5FB JUMP JUMPDEST SWAP2 POP PUSH2 0x784 DUP3 DUP5 PUSH2 0x756 JUMP JUMPDEST PUSH1 0x20 DUP3 ADD SWAP2 POP PUSH2 0x793 DUP3 PUSH2 0x647 JUMP JUMPDEST SWAP2 POP DUP2 SWAP1 POP SWAP3 SWAP2 POP POP JUMP JUMPDEST PUSH1 0x0 PUSH2 0x7A9 DUP3 PUSH2 0x6B3 JUMP JUMPDEST SWAP2 POP PUSH2 0x7B5 DUP3 DUP5 PUSH2 0x756 JUMP JUMPDEST PUSH1 0x20 DUP3 ADD SWAP2 POP PUSH2 0x7C4 DUP3 PUSH2 0x6FF JUMP JUMPDEST SWAP2 POP DUP2 SWAP1 POP SWAP3 SWAP2 POP POP JUMP JUMPDEST PUSH1 0x0 DUP2 SWAP1 POP SWAP2 SWAP1 POP JUMP JUMPDEST PUSH2 0x7EA PUSH2 0x7E5 DUP3 PUSH2 0x418 JUMP JUMPDEST PUSH2 0x7CF JUMP JUMPDEST DUP3 MSTORE POP POP JUMP JUMPDEST PUSH1 0x0 DUP2 PUSH1 0x60 SHL SWAP1 POP SWAP2 SWAP1 POP JUMP JUMPDEST PUSH1 0x0 PUSH2 0x808 DUP3 PUSH2 0x7F0 JUMP JUMPDEST SWAP1 POP SWAP2 SWAP1 POP JUMP JUMPDEST PUSH1 0x0 PUSH2 0x81A DUP3 PUSH2 0x7FD JUMP JUMPDEST SWAP1 POP SWAP2 SWAP1 POP JUMP JUMPDEST PUSH2 0x832 PUSH2 0x82D DUP3 PUSH2 0x4A6 JUMP JUMPDEST PUSH2 0x80F JUMP JUMPDEST DUP3 MSTORE POP POP JUMP JUMPDEST PUSH1 0x0 PUSH2 0x844 DUP3 DUP6 PUSH2 0x7D9 JUMP JUMPDEST PUSH1 0x20 DUP3 ADD SWAP2 POP PUSH2 0x854 DUP3 DUP5 PUSH2 0x821 JUMP JUMPDEST PUSH1 0x14 DUP3 ADD SWAP2 POP DUP2 SWAP1 POP SWAP4 SWAP3 POP POP POP JUMP JUMPDEST PUSH1 0x0 PUSH2 0x870 DUP4 DUP6 PUSH2 0x5C7 JUMP JUMPDEST SWAP4 POP PUSH2 0x87D DUP4 DUP6 DUP5 PUSH2 0x550 JUMP JUMPDEST DUP3 DUP5 ADD SWAP1 POP SWAP4 SWAP3 POP POP POP JUMP JUMPDEST PUSH1 0x0 PUSH2 0x896 DUP3 DUP7 DUP9 PUSH2 0x864 JUMP JUMPDEST SWAP2 POP PUSH2 0x8A3 DUP3 DUP5 DUP7 PUSH2 0x864 JUMP JUMPDEST SWAP2 POP DUP2 SWAP1 POP SWAP6 SWAP5 POP POP POP POP POP JUMP INVALID LOG2 PUSH5 0x6970667358 0x22 SLT KECCAK256 GASPRICE STATICCALL DUP7 JUMPI PUSH20 0x35D27A40FF9F96EE38ACFAF882405EE583C4C413 PUSH8 0x2ADC2D457F116473 PUSH16 0x6C634300081200330000000000000000 "
				},
				"gasEstimates": {
					"creation": {
						"codeDepositCost": "455800",
						"executionCost": "493",
						"totalCost": "456293"
					},
					"external": {
						"collision()": "infinite",
						"encode(string,string)": "infinite",
						"encode_packed(string,string)": "infinite",
						"hash(bytes32,address)": "infinite",
						"solve_collision()": "infinite"
					}
				},
				"methodIdentifiers": {
					"collision()": "1924a5de",
					"encode(string,string)": "17fe2da2",
					"encode_packed(string,string)": "fc3251e4",
					"hash(bytes32,address)": "d72b8d71",
					"solve_collision()": "506f6f78"
				}
			},
			"storageLayout": {
				"storage": [],
				"types": null
			},
			"userdoc": {
				"kind": "user",
				"methods": {},
				"version": 1
			}
		}
	}
}