{
	"simpleApp01_counter.sol": {
		"Counter": {
			"abi": [
				{
					"inputs": [],
					"name": "balance",
					"outputs": [
						{
							"internalType": "uint256",
							"name": "",
							"type": "uint256"
						}
					],
					"stateMutability": "view",
					"type": "function"
				},
				{
					"inputs": [
						{
							"internalType": "uint256",
							"name": "num",
							"type": "uint256"
						}
					],
					"name": "deposit",
					"outputs": [],
					"stateMutability": "nonpayable",
					"type": "function"
				},
				{
					"inputs": [
						{
							"internalType": "uint256",
							"name": "num",
							"type": "uint256"
						}
					],
					"name": "withdrawal",
					"outputs": [],
					"stateMutability": "nonpayable",
					"type": "function"
				}
			],
			"devdoc": {
				"kind": "dev",
				"methods": {},
				"version": 1
			},
			"evm": {
				"assembly": "    /* \"simpleApp01_counter.sol\":61:273  contract Counter {... */\n  mstore(0x40, 0x80)\n    /* \"simpleApp01_counter.sol\":107:108  0 */\n  0x00\n    /* \"simpleApp01_counter.sol\":85:108  uint public balance = 0 */\n  dup1\n  sstore\n    /* \"simpleApp01_counter.sol\":61:273  contract Counter {... */\n  callvalue\n  dup1\n  iszero\n  tag_1\n  jumpi\n  0x00\n  dup1\n  revert\ntag_1:\n  pop\n  dataSize(sub_0)\n  dup1\n  dataOffset(sub_0)\n  0x00\n  codecopy\n  0x00\n  return\nstop\n\nsub_0: assembly {\n        /* \"simpleApp01_counter.sol\":61:273  contract Counter {... */\n      mstore(0x40, 0x80)\n      callvalue\n      dup1\n      iszero\n      tag_1\n      jumpi\n      0x00\n      dup1\n      revert\n    tag_1:\n      pop\n      jumpi(tag_2, lt(calldatasize, 0x04))\n      shr(0xe0, calldataload(0x00))\n      dup1\n      0x835fc6ca\n      eq\n      tag_3\n      jumpi\n      dup1\n      0xb69ef8a8\n      eq\n      tag_4\n      jumpi\n      dup1\n      0xb6b55f25\n      eq\n      tag_5\n      jumpi\n    tag_2:\n      0x00\n      dup1\n      revert\n        /* \"simpleApp01_counter.sol\":198:270  function withdrawal(uint num) external {... */\n    tag_3:\n      tag_6\n      0x04\n      dup1\n      calldatasize\n      sub\n      dup2\n      add\n      swap1\n      tag_7\n      swap2\n      swap1\n      tag_8\n      jump\t// in\n    tag_7:\n      tag_9\n      jump\t// in\n    tag_6:\n      stop\n        /* \"simpleApp01_counter.sol\":85:108  uint public balance = 0 */\n    tag_4:\n      tag_10\n      tag_11\n      jump\t// in\n    tag_10:\n      mload(0x40)\n      tag_12\n      swap2\n      swap1\n      tag_13\n      jump\t// in\n    tag_12:\n      mload(0x40)\n      dup1\n      swap2\n      sub\n      swap1\n      return\n        /* \"simpleApp01_counter.sol\":121:190  function deposit(uint num) external {... */\n    tag_5:\n      tag_14\n      0x04\n      dup1\n      calldatasize\n      sub\n      dup2\n      add\n      swap1\n      tag_15\n      swap2\n      swap1\n      tag_8\n      jump\t// in\n    tag_15:\n      tag_16\n      jump\t// in\n    tag_14:\n      stop\n        /* \"simpleApp01_counter.sol\":198:270  function withdrawal(uint num) external {... */\n    tag_9:\n        /* \"simpleApp01_counter.sol\":259:262  num */\n      dup1\n        /* \"simpleApp01_counter.sol\":248:255  balance */\n      0x00\n      dup1\n        /* \"simpleApp01_counter.sol\":248:262  balance -= num */\n      dup3\n      dup3\n      sload\n      tag_18\n      swap2\n      swap1\n      tag_19\n      jump\t// in\n    tag_18:\n      swap3\n      pop\n      pop\n      dup2\n      swap1\n      sstore\n      pop\n        /* \"simpleApp01_counter.sol\":198:270  function withdrawal(uint num) external {... */\n      pop\n      jump\t// out\n        /* \"simpleApp01_counter.sol\":85:108  uint public balance = 0 */\n    tag_11:\n      sload(0x00)\n      dup2\n      jump\t// out\n        /* \"simpleApp01_counter.sol\":121:190  function deposit(uint num) external {... */\n    tag_16:\n        /* \"simpleApp01_counter.sol\":179:182  num */\n      dup1\n        /* \"simpleApp01_counter.sol\":168:175  balance */\n      0x00\n      dup1\n        /* \"simpleApp01_counter.sol\":168:182  balance += num */\n      dup3\n      dup3\n      sload\n      tag_21\n      swap2\n      swap1\n      tag_22\n      jump\t// in\n    tag_21:\n      swap3\n      pop\n      pop\n      dup2\n      swap1\n      sstore\n      pop\n        /* \"simpleApp01_counter.sol\":121:190  function deposit(uint num) external {... */\n      pop\n      jump\t// out\n        /* \"#utility.yul\":88:205   */\n    tag_24:\n        /* \"#utility.yul\":197:198   */\n      0x00\n        /* \"#utility.yul\":194:195   */\n      dup1\n        /* \"#utility.yul\":187:199   */\n      revert\n        /* \"#utility.yul\":334:411   */\n    tag_26:\n        /* \"#utility.yul\":371:378   */\n      0x00\n        /* \"#utility.yul\":400:405   */\n      dup2\n        /* \"#utility.yul\":389:405   */\n      swap1\n      pop\n        /* \"#utility.yul\":334:411   */\n      swap2\n      swap1\n      pop\n      jump\t// out\n        /* \"#utility.yul\":417:539   */\n    tag_27:\n        /* \"#utility.yul\":490:514   */\n      tag_37\n        /* \"#utility.yul\":508:513   */\n      dup2\n        /* \"#utility.yul\":490:514   */\n      tag_26\n      jump\t// in\n    tag_37:\n        /* \"#utility.yul\":483:488   */\n      dup2\n        /* \"#utility.yul\":480:515   */\n      eq\n        /* \"#utility.yul\":470:533   */\n      tag_38\n      jumpi\n        /* \"#utility.yul\":529:530   */\n      0x00\n        /* \"#utility.yul\":526:527   */\n      dup1\n        /* \"#utility.yul\":519:531   */\n      revert\n        /* \"#utility.yul\":470:533   */\n    tag_38:\n        /* \"#utility.yul\":417:539   */\n      pop\n      jump\t// out\n        /* \"#utility.yul\":545:684   */\n    tag_28:\n        /* \"#utility.yul\":591:596   */\n      0x00\n        /* \"#utility.yul\":629:635   */\n      dup2\n        /* \"#utility.yul\":616:636   */\n      calldataload\n        /* \"#utility.yul\":607:636   */\n      swap1\n      pop\n        /* \"#utility.yul\":645:678   */\n      tag_40\n        /* \"#utility.yul\":672:677   */\n      dup2\n        /* \"#utility.yul\":645:678   */\n      tag_27\n      jump\t// in\n    tag_40:\n        /* \"#utility.yul\":545:684   */\n      swap3\n      swap2\n      pop\n      pop\n      jump\t// out\n        /* \"#utility.yul\":690:1019   */\n    tag_8:\n        /* \"#utility.yul\":749:755   */\n      0x00\n        /* \"#utility.yul\":798:800   */\n      0x20\n        /* \"#utility.yul\":786:795   */\n      dup3\n        /* \"#utility.yul\":777:784   */\n      dup5\n        /* \"#utility.yul\":773:796   */\n      sub\n        /* \"#utility.yul\":769:801   */\n      slt\n        /* \"#utility.yul\":766:885   */\n      iszero\n      tag_42\n      jumpi\n        /* \"#utility.yul\":804:883   */\n      tag_43\n      tag_24\n      jump\t// in\n    tag_43:\n        /* \"#utility.yul\":766:885   */\n    tag_42:\n        /* \"#utility.yul\":924:925   */\n      0x00\n        /* \"#utility.yul\":949:1002   */\n      tag_44\n        /* \"#utility.yul\":994:1001   */\n      dup5\n        /* \"#utility.yul\":985:991   */\n      dup3\n        /* \"#utility.yul\":974:983   */\n      dup6\n        /* \"#utility.yul\":970:992   */\n      add\n        /* \"#utility.yul\":949:1002   */\n      tag_28\n      jump\t// in\n    tag_44:\n        /* \"#utility.yul\":939:1002   */\n      swap2\n      pop\n        /* \"#utility.yul\":895:1012   */\n      pop\n        /* \"#utility.yul\":690:1019   */\n      swap3\n      swap2\n      pop\n      pop\n      jump\t// out\n        /* \"#utility.yul\":1025:1143   */\n    tag_29:\n        /* \"#utility.yul\":1112:1136   */\n      tag_46\n        /* \"#utility.yul\":1130:1135   */\n      dup2\n        /* \"#utility.yul\":1112:1136   */\n      tag_26\n      jump\t// in\n    tag_46:\n        /* \"#utility.yul\":1107:1110   */\n      dup3\n        /* \"#utility.yul\":1100:1137   */\n      mstore\n        /* \"#utility.yul\":1025:1143   */\n      pop\n      pop\n      jump\t// out\n        /* \"#utility.yul\":1149:1371   */\n    tag_13:\n        /* \"#utility.yul\":1242:1246   */\n      0x00\n        /* \"#utility.yul\":1280:1282   */\n      0x20\n        /* \"#utility.yul\":1269:1278   */\n      dup3\n        /* \"#utility.yul\":1265:1283   */\n      add\n        /* \"#utility.yul\":1257:1283   */\n      swap1\n      pop\n        /* \"#utility.yul\":1293:1364   */\n      tag_48\n        /* \"#utility.yul\":1361:1362   */\n      0x00\n        /* \"#utility.yul\":1350:1359   */\n      dup4\n        /* \"#utility.yul\":1346:1363   */\n      add\n        /* \"#utility.yul\":1337:1343   */\n      dup5\n        /* \"#utility.yul\":1293:1364   */\n      tag_29\n      jump\t// in\n    tag_48:\n        /* \"#utility.yul\":1149:1371   */\n      swap3\n      swap2\n      pop\n      pop\n      jump\t// out\n        /* \"#utility.yul\":1377:1557   */\n    tag_30:\n        /* \"#utility.yul\":1425:1502   */\n      0x4e487b7100000000000000000000000000000000000000000000000000000000\n        /* \"#utility.yul\":1422:1423   */\n      0x00\n        /* \"#utility.yul\":1415:1503   */\n      mstore\n        /* \"#utility.yul\":1522:1526   */\n      0x11\n        /* \"#utility.yul\":1519:1520   */\n      0x04\n        /* \"#utility.yul\":1512:1527   */\n      mstore\n        /* \"#utility.yul\":1546:1550   */\n      0x24\n        /* \"#utility.yul\":1543:1544   */\n      0x00\n        /* \"#utility.yul\":1536:1551   */\n      revert\n        /* \"#utility.yul\":1563:1757   */\n    tag_19:\n        /* \"#utility.yul\":1603:1607   */\n      0x00\n        /* \"#utility.yul\":1623:1643   */\n      tag_51\n        /* \"#utility.yul\":1641:1642   */\n      dup3\n        /* \"#utility.yul\":1623:1643   */\n      tag_26\n      jump\t// in\n    tag_51:\n        /* \"#utility.yul\":1618:1643   */\n      swap2\n      pop\n        /* \"#utility.yul\":1657:1677   */\n      tag_52\n        /* \"#utility.yul\":1675:1676   */\n      dup4\n        /* \"#utility.yul\":1657:1677   */\n      tag_26\n      jump\t// in\n    tag_52:\n        /* \"#utility.yul\":1652:1677   */\n      swap3\n      pop\n        /* \"#utility.yul\":1701:1702   */\n      dup3\n        /* \"#utility.yul\":1698:1699   */\n      dup3\n        /* \"#utility.yul\":1694:1703   */\n      sub\n        /* \"#utility.yul\":1686:1703   */\n      swap1\n      pop\n        /* \"#utility.yul\":1725:1726   */\n      dup2\n        /* \"#utility.yul\":1719:1723   */\n      dup2\n        /* \"#utility.yul\":1716:1727   */\n      gt\n        /* \"#utility.yul\":1713:1750   */\n      iszero\n      tag_53\n      jumpi\n        /* \"#utility.yul\":1730:1748   */\n      tag_54\n      tag_30\n      jump\t// in\n    tag_54:\n        /* \"#utility.yul\":1713:1750   */\n    tag_53:\n        /* \"#utility.yul\":1563:1757   */\n      swap3\n      swap2\n      pop\n      pop\n      jump\t// out\n        /* \"#utility.yul\":1763:1954   */\n    tag_22:\n        /* \"#utility.yul\":1803:1806   */\n      0x00\n        /* \"#utility.yul\":1822:1842   */\n      tag_56\n        /* \"#utility.yul\":1840:1841   */\n      dup3\n        /* \"#utility.yul\":1822:1842   */\n      tag_26\n      jump\t// in\n    tag_56:\n        /* \"#utility.yul\":1817:1842   */\n      swap2\n      pop\n        /* \"#utility.yul\":1856:1876   */\n      tag_57\n        /* \"#utility.yul\":1874:1875   */\n      dup4\n        /* \"#utility.yul\":1856:1876   */\n      tag_26\n      jump\t// in\n    tag_57:\n        /* \"#utility.yul\":1851:1876   */\n      swap3\n      pop\n        /* \"#utility.yul\":1899:1900   */\n      dup3\n        /* \"#utility.yul\":1896:1897   */\n      dup3\n        /* \"#utility.yul\":1892:1901   */\n      add\n        /* \"#utility.yul\":1885:1901   */\n      swap1\n      pop\n        /* \"#utility.yul\":1920:1923   */\n      dup1\n        /* \"#utility.yul\":1917:1918   */\n      dup3\n        /* \"#utility.yul\":1914:1924   */\n      gt\n        /* \"#utility.yul\":1911:1947   */\n      iszero\n      tag_58\n      jumpi\n        /* \"#utility.yul\":1927:1945   */\n      tag_59\n      tag_30\n      jump\t// in\n    tag_59:\n        /* \"#utility.yul\":1911:1947   */\n    tag_58:\n        /* \"#utility.yul\":1763:1954   */\n      swap3\n      swap2\n      pop\n      pop\n      jump\t// out\n\n    auxdata: 0xa26469706673582212201118c697504e0c0de80978a18482a90f421e9901787f43ca9479dad82b3b365164736f6c63430008120033\n}\n",
				"bytecode": {
					"linkReferences": {},
					"object": "60806040526000805534801561001457600080fd5b50610237806100246000396000f3fe608060405234801561001057600080fd5b50600436106100415760003560e01c8063835fc6ca14610046578063b69ef8a814610062578063b6b55f2514610080575b600080fd5b610060600480360381019061005b9190610113565b61009c565b005b61006a6100b7565b604051610077919061014f565b60405180910390f35b61009a60048036038101906100959190610113565b6100bd565b005b806000808282546100ad9190610199565b9250508190555050565b60005481565b806000808282546100ce91906101cd565b9250508190555050565b600080fd5b6000819050919050565b6100f0816100dd565b81146100fb57600080fd5b50565b60008135905061010d816100e7565b92915050565b600060208284031215610129576101286100d8565b5b6000610137848285016100fe565b91505092915050565b610149816100dd565b82525050565b60006020820190506101646000830184610140565b92915050565b7f4e487b7100000000000000000000000000000000000000000000000000000000600052601160045260246000fd5b60006101a4826100dd565b91506101af836100dd565b92508282039050818111156101c7576101c661016a565b5b92915050565b60006101d8826100dd565b91506101e3836100dd565b92508282019050808211156101fb576101fa61016a565b5b9291505056fea26469706673582212201118c697504e0c0de80978a18482a90f421e9901787f43ca9479dad82b3b365164736f6c63430008120033",
					"opcodes": "PUSH1 0x80 PUSH1 0x40 MSTORE PUSH1 0x0 DUP1 SSTORE CALLVALUE DUP1 ISZERO PUSH2 0x14 JUMPI PUSH1 0x0 DUP1 REVERT JUMPDEST POP PUSH2 0x237 DUP1 PUSH2 0x24 PUSH1 0x0 CODECOPY PUSH1 0x0 RETURN INVALID PUSH1 0x80 PUSH1 0x40 MSTORE CALLVALUE DUP1 ISZERO PUSH2 0x10 JUMPI PUSH1 0x0 DUP1 REVERT JUMPDEST POP PUSH1 0x4 CALLDATASIZE LT PUSH2 0x41 JUMPI PUSH1 0x0 CALLDATALOAD PUSH1 0xE0 SHR DUP1 PUSH4 0x835FC6CA EQ PUSH2 0x46 JUMPI DUP1 PUSH4 0xB69EF8A8 EQ PUSH2 0x62 JUMPI DUP1 PUSH4 0xB6B55F25 EQ PUSH2 0x80 JUMPI JUMPDEST PUSH1 0x0 DUP1 REVERT JUMPDEST PUSH2 0x60 PUSH1 0x4 DUP1 CALLDATASIZE SUB DUP2 ADD SWAP1 PUSH2 0x5B SWAP2 SWAP1 PUSH2 0x113 JUMP JUMPDEST PUSH2 0x9C JUMP JUMPDEST STOP JUMPDEST PUSH2 0x6A PUSH2 0xB7 JUMP JUMPDEST PUSH1 0x40 MLOAD PUSH2 0x77 SWAP2 SWAP1 PUSH2 0x14F JUMP JUMPDEST PUSH1 0x40 MLOAD DUP1 SWAP2 SUB SWAP1 RETURN JUMPDEST PUSH2 0x9A PUSH1 0x4 DUP1 CALLDATASIZE SUB DUP2 ADD SWAP1 PUSH2 0x95 SWAP2 SWAP1 PUSH2 0x113 JUMP JUMPDEST PUSH2 0xBD JUMP JUMPDEST STOP JUMPDEST DUP1 PUSH1 0x0 DUP1 DUP3 DUP3 SLOAD PUSH2 0xAD SWAP2 SWAP1 PUSH2 0x199 JUMP JUMPDEST SWAP3 POP POP DUP2 SWAP1 SSTORE POP POP JUMP JUMPDEST PUSH1 0x0 SLOAD DUP2 JUMP JUMPDEST DUP1 PUSH1 0x0 DUP1 DUP3 DUP3 SLOAD PUSH2 0xCE SWAP2 SWAP1 PUSH2 0x1CD JUMP JUMPDEST SWAP3 POP POP DUP2 SWAP1 SSTORE POP POP JUMP JUMPDEST PUSH1 0x0 DUP1 REVERT JUMPDEST PUSH1 0x0 DUP2 SWAP1 POP SWAP2 SWAP1 POP JUMP JUMPDEST PUSH2 0xF0 DUP2 PUSH2 0xDD JUMP JUMPDEST DUP2 EQ PUSH2 0xFB JUMPI PUSH1 0x0 DUP1 REVERT JUMPDEST POP JUMP JUMPDEST PUSH1 0x0 DUP2 CALLDATALOAD SWAP1 POP PUSH2 0x10D DUP2 PUSH2 0xE7 JUMP JUMPDEST SWAP3 SWAP2 POP POP JUMP JUMPDEST PUSH1 0x0 PUSH1 0x20 DUP3 DUP5 SUB SLT ISZERO PUSH2 0x129 JUMPI PUSH2 0x128 PUSH2 0xD8 JUMP JUMPDEST JUMPDEST PUSH1 0x0 PUSH2 0x137 DUP5 DUP3 DUP6 ADD PUSH2 0xFE JUMP JUMPDEST SWAP2 POP POP SWAP3 SWAP2 POP POP JUMP JUMPDEST PUSH2 0x149 DUP2 PUSH2 0xDD JUMP JUMPDEST DUP3 MSTORE POP POP JUMP JUMPDEST PUSH1 0x0 PUSH1 0x20 DUP3 ADD SWAP1 POP PUSH2 0x164 PUSH1 0x0 DUP4 ADD DUP5 PUSH2 0x140 JUMP JUMPDEST SWAP3 SWAP2 POP POP JUMP JUMPDEST PUSH32 0x4E487B7100000000000000000000000000000000000000000000000000000000 PUSH1 0x0 MSTORE PUSH1 0x11 PUSH1 0x4 MSTORE PUSH1 0x24 PUSH1 0x0 REVERT JUMPDEST PUSH1 0x0 PUSH2 0x1A4 DUP3 PUSH2 0xDD JUMP JUMPDEST SWAP2 POP PUSH2 0x1AF DUP4 PUSH2 0xDD JUMP JUMPDEST SWAP3 POP DUP3 DUP3 SUB SWAP1 POP DUP2 DUP2 GT ISZERO PUSH2 0x1C7 JUMPI PUSH2 0x1C6 PUSH2 0x16A JUMP JUMPDEST JUMPDEST SWAP3 SWAP2 POP POP JUMP JUMPDEST PUSH1 0x0 PUSH2 0x1D8 DUP3 PUSH2 0xDD JUMP JUMPDEST SWAP2 POP PUSH2 0x1E3 DUP4 PUSH2 0xDD JUMP JUMPDEST SWAP3 POP DUP3 DUP3 ADD SWAP1 POP DUP1 DUP3 GT ISZERO PUSH2 0x1FB JUMPI PUSH2 0x1FA PUSH2 0x16A JUMP JUMPDEST JUMPDEST SWAP3 SWAP2 POP POP JUMP INVALID LOG2 PUSH5 0x6970667358 0x22 SLT KECCAK256 GT XOR 0xC6 SWAP8 POP 0x4E 0xC 0xD 0xE8 MULMOD PUSH25 0xA18482A90F421E9901787F43CA9479DAD82B3B365164736F6C PUSH4 0x43000812 STOP CALLER "
				},
				"gasEstimates": {
					"creation": {
						"codeDepositCost": "113400",
						"executionCost": "5165",
						"totalCost": "118565"
					},
					"external": {
						"balance()": "2429",
						"deposit(uint256)": "infinite",
						"withdrawal(uint256)": "infinite"
					}
				},
				"methodIdentifiers": {
					"balance()": "b69ef8a8",
					"deposit(uint256)": "b6b55f25",
					"withdrawal(uint256)": "835fc6ca"
				}
			},
			"storageLayout": {
				"storage": [
					{
						"astId": 4,
						"contract": "simpleApp01_counter.sol:Counter",
						"label": "balance",
						"offset": 0,
						"slot": "0",
						"type": "t_uint256"
					}
				],
				"types": {
					"t_uint256": {
						"encoding": "inplace",
						"label": "uint256",
						"numberOfBytes": "32"
					}
				}
			},
			"userdoc": {
				"kind": "user",
				"methods": {},
				"version": 1
			}
		}
	}
}