{
	"simple_app03_todolist.sol": {
		"TodoList": {
			"abi": [
				{
					"inputs": [
						{
							"internalType": "string",
							"name": "_text",
							"type": "string"
						}
					],
					"name": "create",
					"outputs": [],
					"stateMutability": "nonpayable",
					"type": "function"
				},
				{
					"inputs": [
						{
							"internalType": "uint8",
							"name": "_index",
							"type": "uint8"
						}
					],
					"name": "get",
					"outputs": [
						{
							"internalType": "string",
							"name": "",
							"type": "string"
						},
						{
							"internalType": "bool",
							"name": "",
							"type": "bool"
						}
					],
					"stateMutability": "view",
					"type": "function"
				},
				{
					"inputs": [
						{
							"internalType": "uint256",
							"name": "",
							"type": "uint256"
						}
					],
					"name": "todos",
					"outputs": [
						{
							"internalType": "string",
							"name": "text",
							"type": "string"
						},
						{
							"internalType": "bool",
							"name": "completed",
							"type": "bool"
						}
					],
					"stateMutability": "view",
					"type": "function"
				},
				{
					"inputs": [
						{
							"internalType": "uint256",
							"name": "_index",
							"type": "uint256"
						}
					],
					"name": "toggleCompleted",
					"outputs": [],
					"stateMutability": "nonpayable",
					"type": "function"
				},
				{
					"inputs": [
						{
							"internalType": "uint8",
							"name": "_index",
							"type": "uint8"
						},
						{
							"internalType": "string",
							"name": "_text",
							"type": "string"
						}
					],
					"name": "updateText",
					"outputs": [],
					"stateMutability": "nonpayable",
					"type": "function"
				}
			],
			"devdoc": {
				"kind": "dev",
				"methods": {},
				"version": 1
			},
			"evm": {
				"assembly": "    /* \"simple_app03_todolist.sol\":58:901  contract TodoList {... */\n  mstore(0x40, 0x80)\n  callvalue\n  dup1\n  iszero\n  tag_1\n  jumpi\n  0x00\n  dup1\n  revert\ntag_1:\n  pop\n  dataSize(sub_0)\n  dup1\n  dataOffset(sub_0)\n  0x00\n  codecopy\n  0x00\n  return\nstop\n\nsub_0: assembly {\n        /* \"simple_app03_todolist.sol\":58:901  contract TodoList {... */\n      mstore(0x40, 0x80)\n      callvalue\n      dup1\n      iszero\n      tag_1\n      jumpi\n      0x00\n      dup1\n      revert\n    tag_1:\n      pop\n      jumpi(tag_2, lt(calldatasize, 0x04))\n      shr(0xe0, calldataload(0x00))\n      dup1\n      0x0ae11007\n      eq\n      tag_3\n      jumpi\n      dup1\n      0x455f5024\n      eq\n      tag_4\n      jumpi\n      dup1\n      0xb6a46b3b\n      eq\n      tag_5\n      jumpi\n      dup1\n      0xbc8bc2b4\n      eq\n      tag_6\n      jumpi\n      dup1\n      0xf72d0b3b\n      eq\n      tag_7\n      jumpi\n    tag_2:\n      0x00\n      dup1\n      revert\n        /* \"simple_app03_todolist.sol\":298:610  function updateText(uint8 _index, string calldata _text) external{... */\n    tag_3:\n      tag_8\n      0x04\n      dup1\n      calldatasize\n      sub\n      dup2\n      add\n      swap1\n      tag_9\n      swap2\n      swap1\n      tag_10\n      jump\t// in\n    tag_9:\n      tag_11\n      jump\t// in\n    tag_8:\n      stop\n        /* \"simple_app03_todolist.sol\":785:899  function toggleCompleted(uint _index) external {... */\n    tag_4:\n      tag_12\n      0x04\n      dup1\n      calldatasize\n      sub\n      dup2\n      add\n      swap1\n      tag_13\n      swap2\n      swap1\n      tag_14\n      jump\t// in\n    tag_13:\n      tag_15\n      jump\t// in\n    tag_12:\n      stop\n        /* \"simple_app03_todolist.sol\":178:292  function create(string calldata _text) external {... */\n    tag_5:\n      tag_16\n      0x04\n      dup1\n      calldatasize\n      sub\n      dup2\n      add\n      swap1\n      tag_17\n      swap2\n      swap1\n      tag_18\n      jump\t// in\n    tag_17:\n      tag_19\n      jump\t// in\n    tag_16:\n      stop\n        /* \"simple_app03_todolist.sol\":152:171  Todo[] public todos */\n    tag_6:\n      tag_20\n      0x04\n      dup1\n      calldatasize\n      sub\n      dup2\n      add\n      swap1\n      tag_21\n      swap2\n      swap1\n      tag_14\n      jump\t// in\n    tag_21:\n      tag_22\n      jump\t// in\n    tag_20:\n      mload(0x40)\n      tag_23\n      swap3\n      swap2\n      swap1\n      tag_24\n      jump\t// in\n    tag_23:\n      mload(0x40)\n      dup1\n      swap2\n      sub\n      swap1\n      return\n        /* \"simple_app03_todolist.sol\":616:779  function get(uint8 _index) external view returns (string memory, bool) {... */\n    tag_7:\n      tag_25\n      0x04\n      dup1\n      calldatasize\n      sub\n      dup2\n      add\n      swap1\n      tag_26\n      swap2\n      swap1\n      tag_27\n      jump\t// in\n    tag_26:\n      tag_28\n      jump\t// in\n    tag_25:\n      mload(0x40)\n      tag_29\n      swap3\n      swap2\n      swap1\n      tag_24\n      jump\t// in\n    tag_29:\n      mload(0x40)\n      dup1\n      swap2\n      sub\n      swap1\n      return\n        /* \"simple_app03_todolist.sol\":298:610  function updateText(uint8 _index, string calldata _text) external{... */\n    tag_11:\n        /* \"simple_app03_todolist.sol\":471:476  _text */\n      dup2\n      dup2\n        /* \"simple_app03_todolist.sol\":450:455  todos */\n      0x00\n        /* \"simple_app03_todolist.sol\":456:462  _index */\n      dup6\n        /* \"simple_app03_todolist.sol\":450:463  todos[_index] */\n      0xff\n      and\n      dup2\n      sload\n      dup2\n      lt\n      tag_31\n      jumpi\n      tag_32\n      tag_33\n      jump\t// in\n    tag_32:\n    tag_31:\n      swap1\n      0x00\n      mstore\n      keccak256(0x00, 0x20)\n      swap1\n      0x02\n      mul\n      add\n        /* \"simple_app03_todolist.sol\":450:468  todos[_index].text */\n      0x00\n      add\n        /* \"simple_app03_todolist.sol\":450:476  todos[_index].text = _text */\n      swap2\n      dup3\n      tag_35\n      swap3\n      swap2\n      swap1\n      tag_36\n      jump\t// in\n    tag_35:\n      pop\n        /* \"simple_app03_todolist.sol\":298:610  function updateText(uint8 _index, string calldata _text) external{... */\n      pop\n      pop\n      pop\n      jump\t// out\n        /* \"simple_app03_todolist.sol\":785:899  function toggleCompleted(uint _index) external {... */\n    tag_15:\n        /* \"simple_app03_todolist.sol\":869:874  todos */\n      0x00\n        /* \"simple_app03_todolist.sol\":875:881  _index */\n      dup2\n        /* \"simple_app03_todolist.sol\":869:882  todos[_index] */\n      dup2\n      sload\n      dup2\n      lt\n      tag_38\n      jumpi\n      tag_39\n      tag_33\n      jump\t// in\n    tag_39:\n    tag_38:\n      swap1\n      0x00\n      mstore\n      keccak256(0x00, 0x20)\n      swap1\n      0x02\n      mul\n      add\n        /* \"simple_app03_todolist.sol\":869:892  todos[_index].completed */\n      0x01\n      add\n      0x00\n      swap1\n      sload\n      swap1\n      0x0100\n      exp\n      swap1\n      div\n      0xff\n      and\n        /* \"simple_app03_todolist.sol\":868:892  !todos[_index].completed */\n      iszero\n        /* \"simple_app03_todolist.sol\":842:847  todos */\n      0x00\n        /* \"simple_app03_todolist.sol\":848:854  _index */\n      dup3\n        /* \"simple_app03_todolist.sol\":842:855  todos[_index] */\n      dup2\n      sload\n      dup2\n      lt\n      tag_41\n      jumpi\n      tag_42\n      tag_33\n      jump\t// in\n    tag_42:\n    tag_41:\n      swap1\n      0x00\n      mstore\n      keccak256(0x00, 0x20)\n      swap1\n      0x02\n      mul\n      add\n        /* \"simple_app03_todolist.sol\":842:865  todos[_index].completed */\n      0x01\n      add\n      0x00\n        /* \"simple_app03_todolist.sol\":842:892  todos[_index].completed = !todos[_index].completed */\n      0x0100\n      exp\n      dup2\n      sload\n      dup2\n      0xff\n      mul\n      not\n      and\n      swap1\n      dup4\n      iszero\n      iszero\n      mul\n      or\n      swap1\n      sstore\n      pop\n        /* \"simple_app03_todolist.sol\":785:899  function toggleCompleted(uint _index) external {... */\n      pop\n      jump\t// out\n        /* \"simple_app03_todolist.sol\":178:292  function create(string calldata _text) external {... */\n    tag_19:\n        /* \"simple_app03_todolist.sol\":236:241  todos */\n      0x00\n        /* \"simple_app03_todolist.sol\":247:284  Todo({text: _text, completed: false}) */\n      mload(0x40)\n      dup1\n      0x40\n      add\n      0x40\n      mstore\n      dup1\n        /* \"simple_app03_todolist.sol\":259:264  _text */\n      dup5\n      dup5\n        /* \"simple_app03_todolist.sol\":247:284  Todo({text: _text, completed: false}) */\n      dup1\n      dup1\n      0x1f\n      add\n      0x20\n      dup1\n      swap2\n      div\n      mul\n      0x20\n      add\n      mload(0x40)\n      swap1\n      dup2\n      add\n      0x40\n      mstore\n      dup1\n      swap4\n      swap3\n      swap2\n      swap1\n      dup2\n      dup2\n      mstore\n      0x20\n      add\n      dup4\n      dup4\n      dup1\n      dup3\n      dup5\n      calldatacopy\n      0x00\n      dup2\n      dup5\n      add\n      mstore\n      not(0x1f)\n      0x1f\n      dup3\n      add\n      and\n      swap1\n      pop\n      dup1\n      dup4\n      add\n      swap3\n      pop\n      pop\n      pop\n      pop\n      pop\n      pop\n      pop\n      dup2\n      mstore\n      0x20\n      add\n        /* \"simple_app03_todolist.sol\":277:282  false */\n      0x00\n        /* \"simple_app03_todolist.sol\":247:284  Todo({text: _text, completed: false}) */\n      iszero\n      iszero\n      dup2\n      mstore\n      pop\n        /* \"simple_app03_todolist.sol\":236:285  todos.push(Todo({text: _text, completed: false})) */\n      swap1\n      dup1\n      0x01\n      dup2\n      sload\n      add\n      dup1\n      dup3\n      sstore\n      dup1\n      swap2\n      pop\n      pop\n      0x01\n      swap1\n      sub\n      swap1\n      0x00\n      mstore\n      keccak256(0x00, 0x20)\n      swap1\n      0x02\n      mul\n      add\n      0x00\n      swap1\n      swap2\n      swap1\n      swap2\n      swap1\n      swap2\n      pop\n      0x00\n      dup3\n      add\n      mload\n      dup2\n      0x00\n      add\n      swap1\n      dup2\n      tag_46\n      swap2\n      swap1\n      tag_47\n      jump\t// in\n    tag_46:\n      pop\n      0x20\n      dup3\n      add\n      mload\n      dup2\n      0x01\n      add\n      exp(0x0100, 0x00)\n      dup2\n      sload\n      dup2\n      0xff\n      mul\n      not\n      and\n      swap1\n      dup4\n      iszero\n      iszero\n      mul\n      or\n      swap1\n      sstore\n      pop\n      pop\n      pop\n        /* \"simple_app03_todolist.sol\":178:292  function create(string calldata _text) external {... */\n      pop\n      pop\n      jump\t// out\n        /* \"simple_app03_todolist.sol\":152:171  Todo[] public todos */\n    tag_22:\n      0x00\n      dup2\n      dup2\n      sload\n      dup2\n      lt\n      tag_48\n      jumpi\n      0x00\n      dup1\n      revert\n    tag_48:\n      swap1\n      0x00\n      mstore\n      keccak256(0x00, 0x20)\n      swap1\n      0x02\n      mul\n      add\n      0x00\n      swap2\n      pop\n      swap1\n      pop\n      dup1\n      0x00\n      add\n      dup1\n      sload\n      tag_50\n      swap1\n      tag_51\n      jump\t// in\n    tag_50:\n      dup1\n      0x1f\n      add\n      0x20\n      dup1\n      swap2\n      div\n      mul\n      0x20\n      add\n      mload(0x40)\n      swap1\n      dup2\n      add\n      0x40\n      mstore\n      dup1\n      swap3\n      swap2\n      swap1\n      dup2\n      dup2\n      mstore\n      0x20\n      add\n      dup3\n      dup1\n      sload\n      tag_52\n      swap1\n      tag_51\n      jump\t// in\n    tag_52:\n      dup1\n      iszero\n      tag_53\n      jumpi\n      dup1\n      0x1f\n      lt\n      tag_54\n      jumpi\n      0x0100\n      dup1\n      dup4\n      sload\n      div\n      mul\n      dup4\n      mstore\n      swap2\n      0x20\n      add\n      swap2\n      jump(tag_53)\n    tag_54:\n      dup3\n      add\n      swap2\n      swap1\n      0x00\n      mstore\n      keccak256(0x00, 0x20)\n      swap1\n    tag_55:\n      dup2\n      sload\n      dup2\n      mstore\n      swap1\n      0x01\n      add\n      swap1\n      0x20\n      add\n      dup1\n      dup4\n      gt\n      tag_55\n      jumpi\n      dup3\n      swap1\n      sub\n      0x1f\n      and\n      dup3\n      add\n      swap2\n    tag_53:\n      pop\n      pop\n      pop\n      pop\n      pop\n      swap1\n      dup1\n      0x01\n      add\n      0x00\n      swap1\n      sload\n      swap1\n      0x0100\n      exp\n      swap1\n      div\n      0xff\n      and\n      swap1\n      pop\n      dup3\n      jump\t// out\n        /* \"simple_app03_todolist.sol\":616:779  function get(uint8 _index) external view returns (string memory, bool) {... */\n    tag_28:\n        /* \"simple_app03_todolist.sol\":666:679  string memory */\n      0x60\n        /* \"simple_app03_todolist.sol\":681:685  bool */\n      0x00\n        /* \"simple_app03_todolist.sol\":697:713  Todo memory todo */\n      dup1\n        /* \"simple_app03_todolist.sol\":716:721  todos */\n      0x00\n        /* \"simple_app03_todolist.sol\":722:728  _index */\n      dup5\n        /* \"simple_app03_todolist.sol\":716:729  todos[_index] */\n      0xff\n      and\n      dup2\n      sload\n      dup2\n      lt\n      tag_57\n      jumpi\n      tag_58\n      tag_33\n      jump\t// in\n    tag_58:\n    tag_57:\n      swap1\n      0x00\n      mstore\n      keccak256(0x00, 0x20)\n      swap1\n      0x02\n      mul\n      add\n        /* \"simple_app03_todolist.sol\":697:729  Todo memory todo = todos[_index] */\n      mload(0x40)\n      dup1\n      0x40\n      add\n      0x40\n      mstore\n      swap1\n      dup2\n      0x00\n      dup3\n      add\n      dup1\n      sload\n      tag_60\n      swap1\n      tag_51\n      jump\t// in\n    tag_60:\n      dup1\n      0x1f\n      add\n      0x20\n      dup1\n      swap2\n      div\n      mul\n      0x20\n      add\n      mload(0x40)\n      swap1\n      dup2\n      add\n      0x40\n      mstore\n      dup1\n      swap3\n      swap2\n      swap1\n      dup2\n      dup2\n      mstore\n      0x20\n      add\n      dup3\n      dup1\n      sload\n      tag_61\n      swap1\n      tag_51\n      jump\t// in\n    tag_61:\n      dup1\n      iszero\n      tag_62\n      jumpi\n      dup1\n      0x1f\n      lt\n      tag_63\n      jumpi\n      0x0100\n      dup1\n      dup4\n      sload\n      div\n      mul\n      dup4\n      mstore\n      swap2\n      0x20\n      add\n      swap2\n      jump(tag_62)\n    tag_63:\n      dup3\n      add\n      swap2\n      swap1\n      0x00\n      mstore\n      keccak256(0x00, 0x20)\n      swap1\n    tag_64:\n      dup2\n      sload\n      dup2\n      mstore\n      swap1\n      0x01\n      add\n      swap1\n      0x20\n      add\n      dup1\n      dup4\n      gt\n      tag_64\n      jumpi\n      dup3\n      swap1\n      sub\n      0x1f\n      and\n      dup3\n      add\n      swap2\n    tag_62:\n      pop\n      pop\n      pop\n      pop\n      pop\n      dup2\n      mstore\n      0x20\n      add\n      0x01\n      dup3\n      add\n      0x00\n      swap1\n      sload\n      swap1\n      0x0100\n      exp\n      swap1\n      div\n      0xff\n      and\n      iszero\n      iszero\n      iszero\n      iszero\n      dup2\n      mstore\n      pop\n      pop\n      swap1\n      pop\n        /* \"simple_app03_todolist.sol\":746:750  todo */\n      dup1\n        /* \"simple_app03_todolist.sol\":746:755  todo.text */\n      0x00\n      add\n      mload\n        /* \"simple_app03_todolist.sol\":757:761  todo */\n      dup2\n        /* \"simple_app03_todolist.sol\":757:771  todo.completed */\n      0x20\n      add\n      mload\n        /* \"simple_app03_todolist.sol\":739:772  return(todo.text, todo.completed) */\n      swap3\n      pop\n      swap3\n      pop\n      pop\n        /* \"simple_app03_todolist.sol\":616:779  function get(uint8 _index) external view returns (string memory, bool) {... */\n      swap2\n      pop\n      swap2\n      jump\t// out\n        /* \"#utility.yul\":88:205   */\n    tag_66:\n        /* \"#utility.yul\":197:198   */\n      0x00\n        /* \"#utility.yul\":194:195   */\n      dup1\n        /* \"#utility.yul\":187:199   */\n      revert\n        /* \"#utility.yul\":211:328   */\n    tag_67:\n        /* \"#utility.yul\":320:321   */\n      0x00\n        /* \"#utility.yul\":317:318   */\n      dup1\n        /* \"#utility.yul\":310:322   */\n      revert\n        /* \"#utility.yul\":334:420   */\n    tag_68:\n        /* \"#utility.yul\":369:376   */\n      0x00\n        /* \"#utility.yul\":409:413   */\n      0xff\n        /* \"#utility.yul\":402:407   */\n      dup3\n        /* \"#utility.yul\":398:414   */\n      and\n        /* \"#utility.yul\":387:414   */\n      swap1\n      pop\n        /* \"#utility.yul\":334:420   */\n      swap2\n      swap1\n      pop\n      jump\t// out\n        /* \"#utility.yul\":426:544   */\n    tag_69:\n        /* \"#utility.yul\":497:519   */\n      tag_109\n        /* \"#utility.yul\":513:518   */\n      dup2\n        /* \"#utility.yul\":497:519   */\n      tag_68\n      jump\t// in\n    tag_109:\n        /* \"#utility.yul\":490:495   */\n      dup2\n        /* \"#utility.yul\":487:520   */\n      eq\n        /* \"#utility.yul\":477:538   */\n      tag_110\n      jumpi\n        /* \"#utility.yul\":534:535   */\n      0x00\n        /* \"#utility.yul\":531:532   */\n      dup1\n        /* \"#utility.yul\":524:536   */\n      revert\n        /* \"#utility.yul\":477:538   */\n    tag_110:\n        /* \"#utility.yul\":426:544   */\n      pop\n      jump\t// out\n        /* \"#utility.yul\":550:685   */\n    tag_70:\n        /* \"#utility.yul\":594:599   */\n      0x00\n        /* \"#utility.yul\":632:638   */\n      dup2\n        /* \"#utility.yul\":619:639   */\n      calldataload\n        /* \"#utility.yul\":610:639   */\n      swap1\n      pop\n        /* \"#utility.yul\":648:679   */\n      tag_112\n        /* \"#utility.yul\":673:678   */\n      dup2\n        /* \"#utility.yul\":648:679   */\n      tag_69\n      jump\t// in\n    tag_112:\n        /* \"#utility.yul\":550:685   */\n      swap3\n      swap2\n      pop\n      pop\n      jump\t// out\n        /* \"#utility.yul\":691:808   */\n    tag_71:\n        /* \"#utility.yul\":800:801   */\n      0x00\n        /* \"#utility.yul\":797:798   */\n      dup1\n        /* \"#utility.yul\":790:802   */\n      revert\n        /* \"#utility.yul\":814:931   */\n    tag_72:\n        /* \"#utility.yul\":923:924   */\n      0x00\n        /* \"#utility.yul\":920:921   */\n      dup1\n        /* \"#utility.yul\":913:925   */\n      revert\n        /* \"#utility.yul\":937:1054   */\n    tag_73:\n        /* \"#utility.yul\":1046:1047   */\n      0x00\n        /* \"#utility.yul\":1043:1044   */\n      dup1\n        /* \"#utility.yul\":1036:1048   */\n      revert\n        /* \"#utility.yul\":1074:1627   */\n    tag_74:\n        /* \"#utility.yul\":1132:1140   */\n      0x00\n        /* \"#utility.yul\":1142:1148   */\n      dup1\n        /* \"#utility.yul\":1192:1195   */\n      dup4\n        /* \"#utility.yul\":1185:1189   */\n      0x1f\n        /* \"#utility.yul\":1177:1183   */\n      dup5\n        /* \"#utility.yul\":1173:1190   */\n      add\n        /* \"#utility.yul\":1169:1196   */\n      slt\n        /* \"#utility.yul\":1159:1281   */\n      tag_117\n      jumpi\n        /* \"#utility.yul\":1200:1279   */\n      tag_118\n      tag_71\n      jump\t// in\n    tag_118:\n        /* \"#utility.yul\":1159:1281   */\n    tag_117:\n        /* \"#utility.yul\":1313:1319   */\n      dup3\n        /* \"#utility.yul\":1300:1320   */\n      calldataload\n        /* \"#utility.yul\":1290:1320   */\n      swap1\n      pop\n        /* \"#utility.yul\":1343:1361   */\n      0xffffffffffffffff\n        /* \"#utility.yul\":1335:1341   */\n      dup2\n        /* \"#utility.yul\":1332:1362   */\n      gt\n        /* \"#utility.yul\":1329:1446   */\n      iszero\n      tag_119\n      jumpi\n        /* \"#utility.yul\":1365:1444   */\n      tag_120\n      tag_72\n      jump\t// in\n    tag_120:\n        /* \"#utility.yul\":1329:1446   */\n    tag_119:\n        /* \"#utility.yul\":1479:1483   */\n      0x20\n        /* \"#utility.yul\":1471:1477   */\n      dup4\n        /* \"#utility.yul\":1467:1484   */\n      add\n        /* \"#utility.yul\":1455:1484   */\n      swap2\n      pop\n        /* \"#utility.yul\":1533:1536   */\n      dup4\n        /* \"#utility.yul\":1525:1529   */\n      0x01\n        /* \"#utility.yul\":1517:1523   */\n      dup3\n        /* \"#utility.yul\":1513:1530   */\n      mul\n        /* \"#utility.yul\":1503:1511   */\n      dup4\n        /* \"#utility.yul\":1499:1531   */\n      add\n        /* \"#utility.yul\":1496:1537   */\n      gt\n        /* \"#utility.yul\":1493:1621   */\n      iszero\n      tag_121\n      jumpi\n        /* \"#utility.yul\":1540:1619   */\n      tag_122\n      tag_73\n      jump\t// in\n    tag_122:\n        /* \"#utility.yul\":1493:1621   */\n    tag_121:\n        /* \"#utility.yul\":1074:1627   */\n      swap3\n      pop\n      swap3\n      swap1\n      pop\n      jump\t// out\n        /* \"#utility.yul\":1633:2303   */\n    tag_10:\n        /* \"#utility.yul\":1711:1717   */\n      0x00\n        /* \"#utility.yul\":1719:1725   */\n      dup1\n        /* \"#utility.yul\":1727:1733   */\n      0x00\n        /* \"#utility.yul\":1776:1778   */\n      0x40\n        /* \"#utility.yul\":1764:1773   */\n      dup5\n        /* \"#utility.yul\":1755:1762   */\n      dup7\n        /* \"#utility.yul\":1751:1774   */\n      sub\n        /* \"#utility.yul\":1747:1779   */\n      slt\n        /* \"#utility.yul\":1744:1863   */\n      iszero\n      tag_124\n      jumpi\n        /* \"#utility.yul\":1782:1861   */\n      tag_125\n      tag_66\n      jump\t// in\n    tag_125:\n        /* \"#utility.yul\":1744:1863   */\n    tag_124:\n        /* \"#utility.yul\":1902:1903   */\n      0x00\n        /* \"#utility.yul\":1927:1978   */\n      tag_126\n        /* \"#utility.yul\":1970:1977   */\n      dup7\n        /* \"#utility.yul\":1961:1967   */\n      dup3\n        /* \"#utility.yul\":1950:1959   */\n      dup8\n        /* \"#utility.yul\":1946:1968   */\n      add\n        /* \"#utility.yul\":1927:1978   */\n      tag_70\n      jump\t// in\n    tag_126:\n        /* \"#utility.yul\":1917:1978   */\n      swap4\n      pop\n        /* \"#utility.yul\":1873:1988   */\n      pop\n        /* \"#utility.yul\":2055:2057   */\n      0x20\n        /* \"#utility.yul\":2044:2053   */\n      dup5\n        /* \"#utility.yul\":2040:2058   */\n      add\n        /* \"#utility.yul\":2027:2059   */\n      calldataload\n        /* \"#utility.yul\":2086:2104   */\n      0xffffffffffffffff\n        /* \"#utility.yul\":2078:2084   */\n      dup2\n        /* \"#utility.yul\":2075:2105   */\n      gt\n        /* \"#utility.yul\":2072:2189   */\n      iszero\n      tag_127\n      jumpi\n        /* \"#utility.yul\":2108:2187   */\n      tag_128\n      tag_67\n      jump\t// in\n    tag_128:\n        /* \"#utility.yul\":2072:2189   */\n    tag_127:\n        /* \"#utility.yul\":2221:2286   */\n      tag_129\n        /* \"#utility.yul\":2278:2285   */\n      dup7\n        /* \"#utility.yul\":2269:2275   */\n      dup3\n        /* \"#utility.yul\":2258:2267   */\n      dup8\n        /* \"#utility.yul\":2254:2276   */\n      add\n        /* \"#utility.yul\":2221:2286   */\n      tag_74\n      jump\t// in\n    tag_129:\n        /* \"#utility.yul\":2203:2286   */\n      swap3\n      pop\n      swap3\n      pop\n        /* \"#utility.yul\":1998:2296   */\n      pop\n        /* \"#utility.yul\":1633:2303   */\n      swap3\n      pop\n      swap3\n      pop\n      swap3\n      jump\t// out\n        /* \"#utility.yul\":2309:2386   */\n    tag_75:\n        /* \"#utility.yul\":2346:2353   */\n      0x00\n        /* \"#utility.yul\":2375:2380   */\n      dup2\n        /* \"#utility.yul\":2364:2380   */\n      swap1\n      pop\n        /* \"#utility.yul\":2309:2386   */\n      swap2\n      swap1\n      pop\n      jump\t// out\n        /* \"#utility.yul\":2392:2514   */\n    tag_76:\n        /* \"#utility.yul\":2465:2489   */\n      tag_132\n        /* \"#utility.yul\":2483:2488   */\n      dup2\n        /* \"#utility.yul\":2465:2489   */\n      tag_75\n      jump\t// in\n    tag_132:\n        /* \"#utility.yul\":2458:2463   */\n      dup2\n        /* \"#utility.yul\":2455:2490   */\n      eq\n        /* \"#utility.yul\":2445:2508   */\n      tag_133\n      jumpi\n        /* \"#utility.yul\":2504:2505   */\n      0x00\n        /* \"#utility.yul\":2501:2502   */\n      dup1\n        /* \"#utility.yul\":2494:2506   */\n      revert\n        /* \"#utility.yul\":2445:2508   */\n    tag_133:\n        /* \"#utility.yul\":2392:2514   */\n      pop\n      jump\t// out\n        /* \"#utility.yul\":2520:2659   */\n    tag_77:\n        /* \"#utility.yul\":2566:2571   */\n      0x00\n        /* \"#utility.yul\":2604:2610   */\n      dup2\n        /* \"#utility.yul\":2591:2611   */\n      calldataload\n        /* \"#utility.yul\":2582:2611   */\n      swap1\n      pop\n        /* \"#utility.yul\":2620:2653   */\n      tag_135\n        /* \"#utility.yul\":2647:2652   */\n      dup2\n        /* \"#utility.yul\":2620:2653   */\n      tag_76\n      jump\t// in\n    tag_135:\n        /* \"#utility.yul\":2520:2659   */\n      swap3\n      swap2\n      pop\n      pop\n      jump\t// out\n        /* \"#utility.yul\":2665:2994   */\n    tag_14:\n        /* \"#utility.yul\":2724:2730   */\n      0x00\n        /* \"#utility.yul\":2773:2775   */\n      0x20\n        /* \"#utility.yul\":2761:2770   */\n      dup3\n        /* \"#utility.yul\":2752:2759   */\n      dup5\n        /* \"#utility.yul\":2748:2771   */\n      sub\n        /* \"#utility.yul\":2744:2776   */\n      slt\n        /* \"#utility.yul\":2741:2860   */\n      iszero\n      tag_137\n      jumpi\n        /* \"#utility.yul\":2779:2858   */\n      tag_138\n      tag_66\n      jump\t// in\n    tag_138:\n        /* \"#utility.yul\":2741:2860   */\n    tag_137:\n        /* \"#utility.yul\":2899:2900   */\n      0x00\n        /* \"#utility.yul\":2924:2977   */\n      tag_139\n        /* \"#utility.yul\":2969:2976   */\n      dup5\n        /* \"#utility.yul\":2960:2966   */\n      dup3\n        /* \"#utility.yul\":2949:2958   */\n      dup6\n        /* \"#utility.yul\":2945:2967   */\n      add\n        /* \"#utility.yul\":2924:2977   */\n      tag_77\n      jump\t// in\n    tag_139:\n        /* \"#utility.yul\":2914:2977   */\n      swap2\n      pop\n        /* \"#utility.yul\":2870:2987   */\n      pop\n        /* \"#utility.yul\":2665:2994   */\n      swap3\n      swap2\n      pop\n      pop\n      jump\t// out\n        /* \"#utility.yul\":3000:3529   */\n    tag_18:\n        /* \"#utility.yul\":3071:3077   */\n      0x00\n        /* \"#utility.yul\":3079:3085   */\n      dup1\n        /* \"#utility.yul\":3128:3130   */\n      0x20\n        /* \"#utility.yul\":3116:3125   */\n      dup4\n        /* \"#utility.yul\":3107:3114   */\n      dup6\n        /* \"#utility.yul\":3103:3126   */\n      sub\n        /* \"#utility.yul\":3099:3131   */\n      slt\n        /* \"#utility.yul\":3096:3215   */\n      iszero\n      tag_141\n      jumpi\n        /* \"#utility.yul\":3134:3213   */\n      tag_142\n      tag_66\n      jump\t// in\n    tag_142:\n        /* \"#utility.yul\":3096:3215   */\n    tag_141:\n        /* \"#utility.yul\":3282:3283   */\n      0x00\n        /* \"#utility.yul\":3271:3280   */\n      dup4\n        /* \"#utility.yul\":3267:3284   */\n      add\n        /* \"#utility.yul\":3254:3285   */\n      calldataload\n        /* \"#utility.yul\":3312:3330   */\n      0xffffffffffffffff\n        /* \"#utility.yul\":3304:3310   */\n      dup2\n        /* \"#utility.yul\":3301:3331   */\n      gt\n        /* \"#utility.yul\":3298:3415   */\n      iszero\n      tag_143\n      jumpi\n        /* \"#utility.yul\":3334:3413   */\n      tag_144\n      tag_67\n      jump\t// in\n    tag_144:\n        /* \"#utility.yul\":3298:3415   */\n    tag_143:\n        /* \"#utility.yul\":3447:3512   */\n      tag_145\n        /* \"#utility.yul\":3504:3511   */\n      dup6\n        /* \"#utility.yul\":3495:3501   */\n      dup3\n        /* \"#utility.yul\":3484:3493   */\n      dup7\n        /* \"#utility.yul\":3480:3502   */\n      add\n        /* \"#utility.yul\":3447:3512   */\n      tag_74\n      jump\t// in\n    tag_145:\n        /* \"#utility.yul\":3429:3512   */\n      swap3\n      pop\n      swap3\n      pop\n        /* \"#utility.yul\":3225:3522   */\n      pop\n        /* \"#utility.yul\":3000:3529   */\n      swap3\n      pop\n      swap3\n      swap1\n      pop\n      jump\t// out\n        /* \"#utility.yul\":3535:3634   */\n    tag_78:\n        /* \"#utility.yul\":3587:3593   */\n      0x00\n        /* \"#utility.yul\":3621:3626   */\n      dup2\n        /* \"#utility.yul\":3615:3627   */\n      mload\n        /* \"#utility.yul\":3605:3627   */\n      swap1\n      pop\n        /* \"#utility.yul\":3535:3634   */\n      swap2\n      swap1\n      pop\n      jump\t// out\n        /* \"#utility.yul\":3640:3809   */\n    tag_79:\n        /* \"#utility.yul\":3724:3735   */\n      0x00\n        /* \"#utility.yul\":3758:3764   */\n      dup3\n        /* \"#utility.yul\":3753:3756   */\n      dup3\n        /* \"#utility.yul\":3746:3765   */\n      mstore\n        /* \"#utility.yul\":3798:3802   */\n      0x20\n        /* \"#utility.yul\":3793:3796   */\n      dup3\n        /* \"#utility.yul\":3789:3803   */\n      add\n        /* \"#utility.yul\":3774:3803   */\n      swap1\n      pop\n        /* \"#utility.yul\":3640:3809   */\n      swap3\n      swap2\n      pop\n      pop\n      jump\t// out\n        /* \"#utility.yul\":3815:4061   */\n    tag_80:\n        /* \"#utility.yul\":3896:3897   */\n      0x00\n        /* \"#utility.yul\":3906:4019   */\n    tag_149:\n        /* \"#utility.yul\":3920:3926   */\n      dup4\n        /* \"#utility.yul\":3917:3918   */\n      dup2\n        /* \"#utility.yul\":3914:3927   */\n      lt\n        /* \"#utility.yul\":3906:4019   */\n      iszero\n      tag_151\n      jumpi\n        /* \"#utility.yul\":4005:4006   */\n      dup1\n        /* \"#utility.yul\":4000:4003   */\n      dup3\n        /* \"#utility.yul\":3996:4007   */\n      add\n        /* \"#utility.yul\":3990:4008   */\n      mload\n        /* \"#utility.yul\":3986:3987   */\n      dup2\n        /* \"#utility.yul\":3981:3984   */\n      dup5\n        /* \"#utility.yul\":3977:3988   */\n      add\n        /* \"#utility.yul\":3970:4009   */\n      mstore\n        /* \"#utility.yul\":3942:3944   */\n      0x20\n        /* \"#utility.yul\":3939:3940   */\n      dup2\n        /* \"#utility.yul\":3935:3945   */\n      add\n        /* \"#utility.yul\":3930:3945   */\n      swap1\n      pop\n        /* \"#utility.yul\":3906:4019   */\n      jump(tag_149)\n    tag_151:\n        /* \"#utility.yul\":4053:4054   */\n      0x00\n        /* \"#utility.yul\":4044:4050   */\n      dup5\n        /* \"#utility.yul\":4039:4042   */\n      dup5\n        /* \"#utility.yul\":4035:4051   */\n      add\n        /* \"#utility.yul\":4028:4055   */\n      mstore\n        /* \"#utility.yul\":3877:4061   */\n      pop\n        /* \"#utility.yul\":3815:4061   */\n      pop\n      pop\n      pop\n      jump\t// out\n        /* \"#utility.yul\":4067:4169   */\n    tag_81:\n        /* \"#utility.yul\":4108:4114   */\n      0x00\n        /* \"#utility.yul\":4159:4161   */\n      0x1f\n        /* \"#utility.yul\":4155:4162   */\n      not\n        /* \"#utility.yul\":4150:4152   */\n      0x1f\n        /* \"#utility.yul\":4143:4148   */\n      dup4\n        /* \"#utility.yul\":4139:4153   */\n      add\n        /* \"#utility.yul\":4135:4163   */\n      and\n        /* \"#utility.yul\":4125:4163   */\n      swap1\n      pop\n        /* \"#utility.yul\":4067:4169   */\n      swap2\n      swap1\n      pop\n      jump\t// out\n        /* \"#utility.yul\":4175:4552   */\n    tag_82:\n        /* \"#utility.yul\":4263:4266   */\n      0x00\n        /* \"#utility.yul\":4291:4330   */\n      tag_154\n        /* \"#utility.yul\":4324:4329   */\n      dup3\n        /* \"#utility.yul\":4291:4330   */\n      tag_78\n      jump\t// in\n    tag_154:\n        /* \"#utility.yul\":4346:4417   */\n      tag_155\n        /* \"#utility.yul\":4410:4416   */\n      dup2\n        /* \"#utility.yul\":4405:4408   */\n      dup6\n        /* \"#utility.yul\":4346:4417   */\n      tag_79\n      jump\t// in\n    tag_155:\n        /* \"#utility.yul\":4339:4417   */\n      swap4\n      pop\n        /* \"#utility.yul\":4426:4491   */\n      tag_156\n        /* \"#utility.yul\":4484:4490   */\n      dup2\n        /* \"#utility.yul\":4479:4482   */\n      dup6\n        /* \"#utility.yul\":4472:4476   */\n      0x20\n        /* \"#utility.yul\":4465:4470   */\n      dup7\n        /* \"#utility.yul\":4461:4477   */\n      add\n        /* \"#utility.yul\":4426:4491   */\n      tag_80\n      jump\t// in\n    tag_156:\n        /* \"#utility.yul\":4516:4545   */\n      tag_157\n        /* \"#utility.yul\":4538:4544   */\n      dup2\n        /* \"#utility.yul\":4516:4545   */\n      tag_81\n      jump\t// in\n    tag_157:\n        /* \"#utility.yul\":4511:4514   */\n      dup5\n        /* \"#utility.yul\":4507:4546   */\n      add\n        /* \"#utility.yul\":4500:4546   */\n      swap2\n      pop\n        /* \"#utility.yul\":4267:4552   */\n      pop\n        /* \"#utility.yul\":4175:4552   */\n      swap3\n      swap2\n      pop\n      pop\n      jump\t// out\n        /* \"#utility.yul\":4558:4648   */\n    tag_83:\n        /* \"#utility.yul\":4592:4599   */\n      0x00\n        /* \"#utility.yul\":4635:4640   */\n      dup2\n        /* \"#utility.yul\":4628:4641   */\n      iszero\n        /* \"#utility.yul\":4621:4642   */\n      iszero\n        /* \"#utility.yul\":4610:4642   */\n      swap1\n      pop\n        /* \"#utility.yul\":4558:4648   */\n      swap2\n      swap1\n      pop\n      jump\t// out\n        /* \"#utility.yul\":4654:4763   */\n    tag_84:\n        /* \"#utility.yul\":4735:4756   */\n      tag_160\n        /* \"#utility.yul\":4750:4755   */\n      dup2\n        /* \"#utility.yul\":4735:4756   */\n      tag_83\n      jump\t// in\n    tag_160:\n        /* \"#utility.yul\":4730:4733   */\n      dup3\n        /* \"#utility.yul\":4723:4757   */\n      mstore\n        /* \"#utility.yul\":4654:4763   */\n      pop\n      pop\n      jump\t// out\n        /* \"#utility.yul\":4769:5180   */\n    tag_24:\n        /* \"#utility.yul\":4904:4908   */\n      0x00\n        /* \"#utility.yul\":4942:4944   */\n      0x40\n        /* \"#utility.yul\":4931:4940   */\n      dup3\n        /* \"#utility.yul\":4927:4945   */\n      add\n        /* \"#utility.yul\":4919:4945   */\n      swap1\n      pop\n        /* \"#utility.yul\":4991:5000   */\n      dup2\n        /* \"#utility.yul\":4985:4989   */\n      dup2\n        /* \"#utility.yul\":4981:5001   */\n      sub\n        /* \"#utility.yul\":4977:4978   */\n      0x00\n        /* \"#utility.yul\":4966:4975   */\n      dup4\n        /* \"#utility.yul\":4962:4979   */\n      add\n        /* \"#utility.yul\":4955:5002   */\n      mstore\n        /* \"#utility.yul\":5019:5097   */\n      tag_162\n        /* \"#utility.yul\":5092:5096   */\n      dup2\n        /* \"#utility.yul\":5083:5089   */\n      dup6\n        /* \"#utility.yul\":5019:5097   */\n      tag_82\n      jump\t// in\n    tag_162:\n        /* \"#utility.yul\":5011:5097   */\n      swap1\n      pop\n        /* \"#utility.yul\":5107:5173   */\n      tag_163\n        /* \"#utility.yul\":5169:5171   */\n      0x20\n        /* \"#utility.yul\":5158:5167   */\n      dup4\n        /* \"#utility.yul\":5154:5172   */\n      add\n        /* \"#utility.yul\":5145:5151   */\n      dup5\n        /* \"#utility.yul\":5107:5173   */\n      tag_84\n      jump\t// in\n    tag_163:\n        /* \"#utility.yul\":4769:5180   */\n      swap4\n      swap3\n      pop\n      pop\n      pop\n      jump\t// out\n        /* \"#utility.yul\":5186:5511   */\n    tag_27:\n        /* \"#utility.yul\":5243:5249   */\n      0x00\n        /* \"#utility.yul\":5292:5294   */\n      0x20\n        /* \"#utility.yul\":5280:5289   */\n      dup3\n        /* \"#utility.yul\":5271:5278   */\n      dup5\n        /* \"#utility.yul\":5267:5290   */\n      sub\n        /* \"#utility.yul\":5263:5295   */\n      slt\n        /* \"#utility.yul\":5260:5379   */\n      iszero\n      tag_165\n      jumpi\n        /* \"#utility.yul\":5298:5377   */\n      tag_166\n      tag_66\n      jump\t// in\n    tag_166:\n        /* \"#utility.yul\":5260:5379   */\n    tag_165:\n        /* \"#utility.yul\":5418:5419   */\n      0x00\n        /* \"#utility.yul\":5443:5494   */\n      tag_167\n        /* \"#utility.yul\":5486:5493   */\n      dup5\n        /* \"#utility.yul\":5477:5483   */\n      dup3\n        /* \"#utility.yul\":5466:5475   */\n      dup6\n        /* \"#utility.yul\":5462:5484   */\n      add\n        /* \"#utility.yul\":5443:5494   */\n      tag_70\n      jump\t// in\n    tag_167:\n        /* \"#utility.yul\":5433:5494   */\n      swap2\n      pop\n        /* \"#utility.yul\":5389:5504   */\n      pop\n        /* \"#utility.yul\":5186:5511   */\n      swap3\n      swap2\n      pop\n      pop\n      jump\t// out\n        /* \"#utility.yul\":5517:5697   */\n    tag_33:\n        /* \"#utility.yul\":5565:5642   */\n      0x4e487b7100000000000000000000000000000000000000000000000000000000\n        /* \"#utility.yul\":5562:5563   */\n      0x00\n        /* \"#utility.yul\":5555:5643   */\n      mstore\n        /* \"#utility.yul\":5662:5666   */\n      0x32\n        /* \"#utility.yul\":5659:5660   */\n      0x04\n        /* \"#utility.yul\":5652:5667   */\n      mstore\n        /* \"#utility.yul\":5686:5690   */\n      0x24\n        /* \"#utility.yul\":5683:5684   */\n      0x00\n        /* \"#utility.yul\":5676:5691   */\n      revert\n        /* \"#utility.yul\":5703:5800   */\n    tag_85:\n        /* \"#utility.yul\":5762:5768   */\n      0x00\n        /* \"#utility.yul\":5790:5793   */\n      dup3\n        /* \"#utility.yul\":5780:5793   */\n      swap1\n      pop\n        /* \"#utility.yul\":5703:5800   */\n      swap3\n      swap2\n      pop\n      pop\n      jump\t// out\n        /* \"#utility.yul\":5806:5986   */\n    tag_86:\n        /* \"#utility.yul\":5854:5931   */\n      0x4e487b7100000000000000000000000000000000000000000000000000000000\n        /* \"#utility.yul\":5851:5852   */\n      0x00\n        /* \"#utility.yul\":5844:5932   */\n      mstore\n        /* \"#utility.yul\":5951:5955   */\n      0x41\n        /* \"#utility.yul\":5948:5949   */\n      0x04\n        /* \"#utility.yul\":5941:5956   */\n      mstore\n        /* \"#utility.yul\":5975:5979   */\n      0x24\n        /* \"#utility.yul\":5972:5973   */\n      0x00\n        /* \"#utility.yul\":5965:5980   */\n      revert\n        /* \"#utility.yul\":5992:6172   */\n    tag_87:\n        /* \"#utility.yul\":6040:6117   */\n      0x4e487b7100000000000000000000000000000000000000000000000000000000\n        /* \"#utility.yul\":6037:6038   */\n      0x00\n        /* \"#utility.yul\":6030:6118   */\n      mstore\n        /* \"#utility.yul\":6137:6141   */\n      0x22\n        /* \"#utility.yul\":6134:6135   */\n      0x04\n        /* \"#utility.yul\":6127:6142   */\n      mstore\n        /* \"#utility.yul\":6161:6165   */\n      0x24\n        /* \"#utility.yul\":6158:6159   */\n      0x00\n        /* \"#utility.yul\":6151:6166   */\n      revert\n        /* \"#utility.yul\":6178:6498   */\n    tag_51:\n        /* \"#utility.yul\":6222:6228   */\n      0x00\n        /* \"#utility.yul\":6259:6260   */\n      0x02\n        /* \"#utility.yul\":6253:6257   */\n      dup3\n        /* \"#utility.yul\":6249:6261   */\n      div\n        /* \"#utility.yul\":6239:6261   */\n      swap1\n      pop\n        /* \"#utility.yul\":6306:6307   */\n      0x01\n        /* \"#utility.yul\":6300:6304   */\n      dup3\n        /* \"#utility.yul\":6296:6308   */\n      and\n        /* \"#utility.yul\":6327:6345   */\n      dup1\n        /* \"#utility.yul\":6317:6398   */\n      tag_173\n      jumpi\n        /* \"#utility.yul\":6383:6387   */\n      0x7f\n        /* \"#utility.yul\":6375:6381   */\n      dup3\n        /* \"#utility.yul\":6371:6388   */\n      and\n        /* \"#utility.yul\":6361:6388   */\n      swap2\n      pop\n        /* \"#utility.yul\":6317:6398   */\n    tag_173:\n        /* \"#utility.yul\":6445:6447   */\n      0x20\n        /* \"#utility.yul\":6437:6443   */\n      dup3\n        /* \"#utility.yul\":6434:6448   */\n      lt\n        /* \"#utility.yul\":6414:6432   */\n      dup2\n        /* \"#utility.yul\":6411:6449   */\n      sub\n        /* \"#utility.yul\":6408:6492   */\n      tag_174\n      jumpi\n        /* \"#utility.yul\":6464:6482   */\n      tag_175\n      tag_87\n      jump\t// in\n    tag_175:\n        /* \"#utility.yul\":6408:6492   */\n    tag_174:\n        /* \"#utility.yul\":6229:6498   */\n      pop\n        /* \"#utility.yul\":6178:6498   */\n      swap2\n      swap1\n      pop\n      jump\t// out\n        /* \"#utility.yul\":6504:6645   */\n    tag_88:\n        /* \"#utility.yul\":6553:6557   */\n      0x00\n        /* \"#utility.yul\":6576:6579   */\n      dup2\n        /* \"#utility.yul\":6568:6579   */\n      swap1\n      pop\n        /* \"#utility.yul\":6599:6602   */\n      dup2\n        /* \"#utility.yul\":6596:6597   */\n      0x00\n        /* \"#utility.yul\":6589:6603   */\n      mstore\n        /* \"#utility.yul\":6633:6637   */\n      0x20\n        /* \"#utility.yul\":6630:6631   */\n      0x00\n        /* \"#utility.yul\":6620:6638   */\n      keccak256\n        /* \"#utility.yul\":6612:6638   */\n      swap1\n      pop\n        /* \"#utility.yul\":6504:6645   */\n      swap2\n      swap1\n      pop\n      jump\t// out\n        /* \"#utility.yul\":6651:6744   */\n    tag_89:\n        /* \"#utility.yul\":6688:6694   */\n      0x00\n        /* \"#utility.yul\":6735:6737   */\n      0x20\n        /* \"#utility.yul\":6730:6732   */\n      0x1f\n        /* \"#utility.yul\":6723:6728   */\n      dup4\n        /* \"#utility.yul\":6719:6733   */\n      add\n        /* \"#utility.yul\":6715:6738   */\n      div\n        /* \"#utility.yul\":6705:6738   */\n      swap1\n      pop\n        /* \"#utility.yul\":6651:6744   */\n      swap2\n      swap1\n      pop\n      jump\t// out\n        /* \"#utility.yul\":6750:6857   */\n    tag_90:\n        /* \"#utility.yul\":6794:6802   */\n      0x00\n        /* \"#utility.yul\":6844:6849   */\n      dup3\n        /* \"#utility.yul\":6838:6842   */\n      dup3\n        /* \"#utility.yul\":6834:6850   */\n      shl\n        /* \"#utility.yul\":6813:6850   */\n      swap1\n      pop\n        /* \"#utility.yul\":6750:6857   */\n      swap3\n      swap2\n      pop\n      pop\n      jump\t// out\n        /* \"#utility.yul\":6863:7256   */\n    tag_91:\n        /* \"#utility.yul\":6932:6938   */\n      0x00\n        /* \"#utility.yul\":6982:6983   */\n      0x08\n        /* \"#utility.yul\":6970:6980   */\n      dup4\n        /* \"#utility.yul\":6966:6984   */\n      mul\n        /* \"#utility.yul\":7005:7102   */\n      tag_180\n        /* \"#utility.yul\":7035:7101   */\n      0xffffffffffffffffffffffffffffffffffffffffffffffffffffffffffffffff\n        /* \"#utility.yul\":7024:7033   */\n      dup3\n        /* \"#utility.yul\":7005:7102   */\n      tag_90\n      jump\t// in\n    tag_180:\n        /* \"#utility.yul\":7123:7162   */\n      tag_181\n        /* \"#utility.yul\":7153:7161   */\n      dup7\n        /* \"#utility.yul\":7142:7151   */\n      dup4\n        /* \"#utility.yul\":7123:7162   */\n      tag_90\n      jump\t// in\n    tag_181:\n        /* \"#utility.yul\":7111:7162   */\n      swap6\n      pop\n        /* \"#utility.yul\":7195:7199   */\n      dup1\n        /* \"#utility.yul\":7191:7200   */\n      not\n        /* \"#utility.yul\":7184:7189   */\n      dup5\n        /* \"#utility.yul\":7180:7201   */\n      and\n        /* \"#utility.yul\":7171:7201   */\n      swap4\n      pop\n        /* \"#utility.yul\":7244:7248   */\n      dup1\n        /* \"#utility.yul\":7234:7242   */\n      dup7\n        /* \"#utility.yul\":7230:7249   */\n      and\n        /* \"#utility.yul\":7223:7228   */\n      dup5\n        /* \"#utility.yul\":7220:7250   */\n      or\n        /* \"#utility.yul\":7210:7250   */\n      swap3\n      pop\n        /* \"#utility.yul\":6939:7256   */\n      pop\n      pop\n        /* \"#utility.yul\":6863:7256   */\n      swap4\n      swap3\n      pop\n      pop\n      pop\n      jump\t// out\n        /* \"#utility.yul\":7262:7322   */\n    tag_92:\n        /* \"#utility.yul\":7290:7293   */\n      0x00\n        /* \"#utility.yul\":7311:7316   */\n      dup2\n        /* \"#utility.yul\":7304:7316   */\n      swap1\n      pop\n        /* \"#utility.yul\":7262:7322   */\n      swap2\n      swap1\n      pop\n      jump\t// out\n        /* \"#utility.yul\":7328:7470   */\n    tag_93:\n        /* \"#utility.yul\":7378:7387   */\n      0x00\n        /* \"#utility.yul\":7411:7464   */\n      tag_184\n        /* \"#utility.yul\":7429:7463   */\n      tag_185\n        /* \"#utility.yul\":7438:7462   */\n      tag_186\n        /* \"#utility.yul\":7456:7461   */\n      dup5\n        /* \"#utility.yul\":7438:7462   */\n      tag_75\n      jump\t// in\n    tag_186:\n        /* \"#utility.yul\":7429:7463   */\n      tag_92\n      jump\t// in\n    tag_185:\n        /* \"#utility.yul\":7411:7464   */\n      tag_75\n      jump\t// in\n    tag_184:\n        /* \"#utility.yul\":7398:7464   */\n      swap1\n      pop\n        /* \"#utility.yul\":7328:7470   */\n      swap2\n      swap1\n      pop\n      jump\t// out\n        /* \"#utility.yul\":7476:7551   */\n    tag_94:\n        /* \"#utility.yul\":7519:7522   */\n      0x00\n        /* \"#utility.yul\":7540:7545   */\n      dup2\n        /* \"#utility.yul\":7533:7545   */\n      swap1\n      pop\n        /* \"#utility.yul\":7476:7551   */\n      swap2\n      swap1\n      pop\n      jump\t// out\n        /* \"#utility.yul\":7557:7826   */\n    tag_95:\n        /* \"#utility.yul\":7667:7706   */\n      tag_189\n        /* \"#utility.yul\":7698:7705   */\n      dup4\n        /* \"#utility.yul\":7667:7706   */\n      tag_93\n      jump\t// in\n    tag_189:\n        /* \"#utility.yul\":7728:7819   */\n      tag_190\n        /* \"#utility.yul\":7777:7818   */\n      tag_191\n        /* \"#utility.yul\":7801:7817   */\n      dup3\n        /* \"#utility.yul\":7777:7818   */\n      tag_94\n      jump\t// in\n    tag_191:\n        /* \"#utility.yul\":7769:7775   */\n      dup5\n        /* \"#utility.yul\":7762:7766   */\n      dup5\n        /* \"#utility.yul\":7756:7767   */\n      sload\n        /* \"#utility.yul\":7728:7819   */\n      tag_91\n      jump\t// in\n    tag_190:\n        /* \"#utility.yul\":7722:7726   */\n      dup3\n        /* \"#utility.yul\":7715:7820   */\n      sstore\n        /* \"#utility.yul\":7633:7826   */\n      pop\n        /* \"#utility.yul\":7557:7826   */\n      pop\n      pop\n      pop\n      jump\t// out\n        /* \"#utility.yul\":7832:7905   */\n    tag_96:\n        /* \"#utility.yul\":7877:7880   */\n      0x00\n        /* \"#utility.yul\":7832:7905   */\n      swap1\n      jump\t// out\n        /* \"#utility.yul\":7911:8100   */\n    tag_97:\n        /* \"#utility.yul\":7988:8020   */\n      tag_194\n      tag_96\n      jump\t// in\n    tag_194:\n        /* \"#utility.yul\":8029:8094   */\n      tag_195\n        /* \"#utility.yul\":8087:8093   */\n      dup2\n        /* \"#utility.yul\":8079:8085   */\n      dup5\n        /* \"#utility.yul\":8073:8077   */\n      dup5\n        /* \"#utility.yul\":8029:8094   */\n      tag_95\n      jump\t// in\n    tag_195:\n        /* \"#utility.yul\":7964:8100   */\n      pop\n        /* \"#utility.yul\":7911:8100   */\n      pop\n      pop\n      jump\t// out\n        /* \"#utility.yul\":8106:8292   */\n    tag_98:\n        /* \"#utility.yul\":8166:8286   */\n    tag_197:\n        /* \"#utility.yul\":8183:8186   */\n      dup2\n        /* \"#utility.yul\":8176:8181   */\n      dup2\n        /* \"#utility.yul\":8173:8187   */\n      lt\n        /* \"#utility.yul\":8166:8286   */\n      iszero\n      tag_199\n      jumpi\n        /* \"#utility.yul\":8237:8276   */\n      tag_200\n        /* \"#utility.yul\":8274:8275   */\n      0x00\n        /* \"#utility.yul\":8267:8272   */\n      dup3\n        /* \"#utility.yul\":8237:8276   */\n      tag_97\n      jump\t// in\n    tag_200:\n        /* \"#utility.yul\":8210:8211   */\n      0x01\n        /* \"#utility.yul\":8203:8208   */\n      dup2\n        /* \"#utility.yul\":8199:8212   */\n      add\n        /* \"#utility.yul\":8190:8212   */\n      swap1\n      pop\n        /* \"#utility.yul\":8166:8286   */\n      jump(tag_197)\n    tag_199:\n        /* \"#utility.yul\":8106:8292   */\n      pop\n      pop\n      jump\t// out\n        /* \"#utility.yul\":8298:8841   */\n    tag_99:\n        /* \"#utility.yul\":8399:8401   */\n      0x1f\n        /* \"#utility.yul\":8394:8397   */\n      dup3\n        /* \"#utility.yul\":8391:8402   */\n      gt\n        /* \"#utility.yul\":8388:8834   */\n      iszero\n      tag_202\n      jumpi\n        /* \"#utility.yul\":8433:8471   */\n      tag_203\n        /* \"#utility.yul\":8465:8470   */\n      dup2\n        /* \"#utility.yul\":8433:8471   */\n      tag_88\n      jump\t// in\n    tag_203:\n        /* \"#utility.yul\":8517:8546   */\n      tag_204\n        /* \"#utility.yul\":8535:8545   */\n      dup5\n        /* \"#utility.yul\":8517:8546   */\n      tag_89\n      jump\t// in\n    tag_204:\n        /* \"#utility.yul\":8507:8515   */\n      dup2\n        /* \"#utility.yul\":8503:8547   */\n      add\n        /* \"#utility.yul\":8700:8702   */\n      0x20\n        /* \"#utility.yul\":8688:8698   */\n      dup6\n        /* \"#utility.yul\":8685:8703   */\n      lt\n        /* \"#utility.yul\":8682:8731   */\n      iszero\n      tag_205\n      jumpi\n        /* \"#utility.yul\":8721:8729   */\n      dup2\n        /* \"#utility.yul\":8706:8729   */\n      swap1\n      pop\n        /* \"#utility.yul\":8682:8731   */\n    tag_205:\n        /* \"#utility.yul\":8744:8824   */\n      tag_206\n        /* \"#utility.yul\":8800:8822   */\n      tag_207\n        /* \"#utility.yul\":8818:8821   */\n      dup6\n        /* \"#utility.yul\":8800:8822   */\n      tag_89\n      jump\t// in\n    tag_207:\n        /* \"#utility.yul\":8790:8798   */\n      dup4\n        /* \"#utility.yul\":8786:8823   */\n      add\n        /* \"#utility.yul\":8773:8784   */\n      dup3\n        /* \"#utility.yul\":8744:8824   */\n      tag_98\n      jump\t// in\n    tag_206:\n        /* \"#utility.yul\":8403:8834   */\n      pop\n      pop\n        /* \"#utility.yul\":8388:8834   */\n    tag_202:\n        /* \"#utility.yul\":8298:8841   */\n      pop\n      pop\n      pop\n      jump\t// out\n        /* \"#utility.yul\":8847:8964   */\n    tag_100:\n        /* \"#utility.yul\":8901:8909   */\n      0x00\n        /* \"#utility.yul\":8951:8956   */\n      dup3\n        /* \"#utility.yul\":8945:8949   */\n      dup3\n        /* \"#utility.yul\":8941:8957   */\n      shr\n        /* \"#utility.yul\":8920:8957   */\n      swap1\n      pop\n        /* \"#utility.yul\":8847:8964   */\n      swap3\n      swap2\n      pop\n      pop\n      jump\t// out\n        /* \"#utility.yul\":8970:9139   */\n    tag_101:\n        /* \"#utility.yul\":9014:9020   */\n      0x00\n        /* \"#utility.yul\":9047:9098   */\n      tag_210\n        /* \"#utility.yul\":9095:9096   */\n      0x00\n        /* \"#utility.yul\":9091:9097   */\n      not\n        /* \"#utility.yul\":9083:9088   */\n      dup5\n        /* \"#utility.yul\":9080:9081   */\n      0x08\n        /* \"#utility.yul\":9076:9089   */\n      mul\n        /* \"#utility.yul\":9047:9098   */\n      tag_100\n      jump\t// in\n    tag_210:\n        /* \"#utility.yul\":9043:9099   */\n      not\n        /* \"#utility.yul\":9128:9132   */\n      dup1\n        /* \"#utility.yul\":9122:9126   */\n      dup4\n        /* \"#utility.yul\":9118:9133   */\n      and\n        /* \"#utility.yul\":9108:9133   */\n      swap2\n      pop\n        /* \"#utility.yul\":9021:9139   */\n      pop\n        /* \"#utility.yul\":8970:9139   */\n      swap3\n      swap2\n      pop\n      pop\n      jump\t// out\n        /* \"#utility.yul\":9144:9439   */\n    tag_102:\n        /* \"#utility.yul\":9220:9224   */\n      0x00\n        /* \"#utility.yul\":9366:9395   */\n      tag_212\n        /* \"#utility.yul\":9391:9394   */\n      dup4\n        /* \"#utility.yul\":9385:9389   */\n      dup4\n        /* \"#utility.yul\":9366:9395   */\n      tag_101\n      jump\t// in\n    tag_212:\n        /* \"#utility.yul\":9358:9395   */\n      swap2\n      pop\n        /* \"#utility.yul\":9428:9431   */\n      dup3\n        /* \"#utility.yul\":9425:9426   */\n      0x02\n        /* \"#utility.yul\":9421:9432   */\n      mul\n        /* \"#utility.yul\":9415:9419   */\n      dup3\n        /* \"#utility.yul\":9412:9433   */\n      or\n        /* \"#utility.yul\":9404:9433   */\n      swap1\n      pop\n        /* \"#utility.yul\":9144:9439   */\n      swap3\n      swap2\n      pop\n      pop\n      jump\t// out\n        /* \"#utility.yul\":9444:10847   */\n    tag_36:\n        /* \"#utility.yul\":9568:9612   */\n      tag_214\n        /* \"#utility.yul\":9608:9611   */\n      dup4\n        /* \"#utility.yul\":9603:9606   */\n      dup4\n        /* \"#utility.yul\":9568:9612   */\n      tag_85\n      jump\t// in\n    tag_214:\n        /* \"#utility.yul\":9677:9695   */\n      0xffffffffffffffff\n        /* \"#utility.yul\":9669:9675   */\n      dup2\n        /* \"#utility.yul\":9666:9696   */\n      gt\n        /* \"#utility.yul\":9663:9719   */\n      iszero\n      tag_215\n      jumpi\n        /* \"#utility.yul\":9699:9717   */\n      tag_216\n      tag_86\n      jump\t// in\n    tag_216:\n        /* \"#utility.yul\":9663:9719   */\n    tag_215:\n        /* \"#utility.yul\":9743:9781   */\n      tag_217\n        /* \"#utility.yul\":9775:9779   */\n      dup3\n        /* \"#utility.yul\":9769:9780   */\n      sload\n        /* \"#utility.yul\":9743:9781   */\n      tag_51\n      jump\t// in\n    tag_217:\n        /* \"#utility.yul\":9828:9895   */\n      tag_218\n        /* \"#utility.yul\":9888:9894   */\n      dup3\n        /* \"#utility.yul\":9880:9886   */\n      dup3\n        /* \"#utility.yul\":9874:9878   */\n      dup6\n        /* \"#utility.yul\":9828:9895   */\n      tag_99\n      jump\t// in\n    tag_218:\n        /* \"#utility.yul\":9922:9923   */\n      0x00\n        /* \"#utility.yul\":9951:9953   */\n      0x1f\n        /* \"#utility.yul\":9943:9949   */\n      dup4\n        /* \"#utility.yul\":9940:9954   */\n      gt\n        /* \"#utility.yul\":9968:9969   */\n      0x01\n        /* \"#utility.yul\":9963:10595   */\n      dup2\n      eq\n      tag_220\n      jumpi\n        /* \"#utility.yul\":10639:10640   */\n      0x00\n        /* \"#utility.yul\":10656:10662   */\n      dup5\n        /* \"#utility.yul\":10653:10737   */\n      iszero\n      tag_221\n      jumpi\n        /* \"#utility.yul\":10712:10721   */\n      dup3\n        /* \"#utility.yul\":10707:10710   */\n      dup8\n        /* \"#utility.yul\":10703:10722   */\n      add\n        /* \"#utility.yul\":10690:10723   */\n      calldataload\n        /* \"#utility.yul\":10681:10723   */\n      swap1\n      pop\n        /* \"#utility.yul\":10653:10737   */\n    tag_221:\n        /* \"#utility.yul\":10763:10830   */\n      tag_222\n        /* \"#utility.yul\":10823:10829   */\n      dup6\n        /* \"#utility.yul\":10816:10821   */\n      dup3\n        /* \"#utility.yul\":10763:10830   */\n      tag_102\n      jump\t// in\n    tag_222:\n        /* \"#utility.yul\":10757:10761   */\n      dup7\n        /* \"#utility.yul\":10750:10831   */\n      sstore\n        /* \"#utility.yul\":10612:10841   */\n      pop\n        /* \"#utility.yul\":9933:10841   */\n      jump(tag_219)\n        /* \"#utility.yul\":9963:10595   */\n    tag_220:\n        /* \"#utility.yul\":10015:10019   */\n      0x1f\n        /* \"#utility.yul\":10011:10020   */\n      not\n        /* \"#utility.yul\":10003:10009   */\n      dup5\n        /* \"#utility.yul\":9999:10021   */\n      and\n        /* \"#utility.yul\":10049:10086   */\n      tag_223\n        /* \"#utility.yul\":10081:10085   */\n      dup7\n        /* \"#utility.yul\":10049:10086   */\n      tag_88\n      jump\t// in\n    tag_223:\n        /* \"#utility.yul\":10108:10109   */\n      0x00\n        /* \"#utility.yul\":10122:10337   */\n    tag_224:\n        /* \"#utility.yul\":10136:10143   */\n      dup3\n        /* \"#utility.yul\":10133:10134   */\n      dup2\n        /* \"#utility.yul\":10130:10144   */\n      lt\n        /* \"#utility.yul\":10122:10337   */\n      iszero\n      tag_226\n      jumpi\n        /* \"#utility.yul\":10222:10231   */\n      dup5\n        /* \"#utility.yul\":10217:10220   */\n      dup10\n        /* \"#utility.yul\":10213:10232   */\n      add\n        /* \"#utility.yul\":10200:10233   */\n      calldataload\n        /* \"#utility.yul\":10192:10198   */\n      dup3\n        /* \"#utility.yul\":10185:10234   */\n      sstore\n        /* \"#utility.yul\":10273:10274   */\n      0x01\n        /* \"#utility.yul\":10265:10271   */\n      dup3\n        /* \"#utility.yul\":10261:10275   */\n      add\n        /* \"#utility.yul\":10251:10275   */\n      swap2\n      pop\n        /* \"#utility.yul\":10320:10322   */\n      0x20\n        /* \"#utility.yul\":10309:10318   */\n      dup6\n        /* \"#utility.yul\":10305:10323   */\n      add\n        /* \"#utility.yul\":10292:10323   */\n      swap5\n      pop\n        /* \"#utility.yul\":10159:10163   */\n      0x20\n        /* \"#utility.yul\":10156:10157   */\n      dup2\n        /* \"#utility.yul\":10152:10164   */\n      add\n        /* \"#utility.yul\":10147:10164   */\n      swap1\n      pop\n        /* \"#utility.yul\":10122:10337   */\n      jump(tag_224)\n    tag_226:\n        /* \"#utility.yul\":10365:10371   */\n      dup7\n        /* \"#utility.yul\":10356:10363   */\n      dup4\n        /* \"#utility.yul\":10353:10372   */\n      lt\n        /* \"#utility.yul\":10350:10536   */\n      iszero\n      tag_227\n      jumpi\n        /* \"#utility.yul\":10430:10439   */\n      dup5\n        /* \"#utility.yul\":10425:10428   */\n      dup10\n        /* \"#utility.yul\":10421:10440   */\n      add\n        /* \"#utility.yul\":10408:10441   */\n      calldataload\n        /* \"#utility.yul\":10473:10521   */\n      tag_228\n        /* \"#utility.yul\":10515:10519   */\n      0x1f\n        /* \"#utility.yul\":10507:10513   */\n      dup10\n        /* \"#utility.yul\":10503:10520   */\n      and\n        /* \"#utility.yul\":10492:10501   */\n      dup3\n        /* \"#utility.yul\":10473:10521   */\n      tag_101\n      jump\t// in\n    tag_228:\n        /* \"#utility.yul\":10465:10471   */\n      dup4\n        /* \"#utility.yul\":10458:10522   */\n      sstore\n        /* \"#utility.yul\":10373:10536   */\n      pop\n        /* \"#utility.yul\":10350:10536   */\n    tag_227:\n        /* \"#utility.yul\":10582:10583   */\n      0x01\n        /* \"#utility.yul\":10578:10579   */\n      0x02\n        /* \"#utility.yul\":10570:10576   */\n      dup9\n        /* \"#utility.yul\":10566:10580   */\n      mul\n        /* \"#utility.yul\":10562:10584   */\n      add\n        /* \"#utility.yul\":10556:10560   */\n      dup9\n        /* \"#utility.yul\":10549:10585   */\n      sstore\n        /* \"#utility.yul\":9970:10595   */\n      pop\n      pop\n      pop\n        /* \"#utility.yul\":9933:10841   */\n    tag_219:\n      pop\n        /* \"#utility.yul\":9543:10847   */\n      pop\n      pop\n      pop\n        /* \"#utility.yul\":9444:10847   */\n      pop\n      pop\n      pop\n      jump\t// out\n        /* \"#utility.yul\":10853:12248   */\n    tag_47:\n        /* \"#utility.yul\":10970:11007   */\n      tag_230\n        /* \"#utility.yul\":11003:11006   */\n      dup3\n        /* \"#utility.yul\":10970:11007   */\n      tag_78\n      jump\t// in\n    tag_230:\n        /* \"#utility.yul\":11072:11090   */\n      0xffffffffffffffff\n        /* \"#utility.yul\":11064:11070   */\n      dup2\n        /* \"#utility.yul\":11061:11091   */\n      gt\n        /* \"#utility.yul\":11058:11114   */\n      iszero\n      tag_231\n      jumpi\n        /* \"#utility.yul\":11094:11112   */\n      tag_232\n      tag_86\n      jump\t// in\n    tag_232:\n        /* \"#utility.yul\":11058:11114   */\n    tag_231:\n        /* \"#utility.yul\":11138:11176   */\n      tag_233\n        /* \"#utility.yul\":11170:11174   */\n      dup3\n        /* \"#utility.yul\":11164:11175   */\n      sload\n        /* \"#utility.yul\":11138:11176   */\n      tag_51\n      jump\t// in\n    tag_233:\n        /* \"#utility.yul\":11223:11290   */\n      tag_234\n        /* \"#utility.yul\":11283:11289   */\n      dup3\n        /* \"#utility.yul\":11275:11281   */\n      dup3\n        /* \"#utility.yul\":11269:11273   */\n      dup6\n        /* \"#utility.yul\":11223:11290   */\n      tag_99\n      jump\t// in\n    tag_234:\n        /* \"#utility.yul\":11317:11318   */\n      0x00\n        /* \"#utility.yul\":11341:11345   */\n      0x20\n        /* \"#utility.yul\":11328:11345   */\n      swap1\n      pop\n        /* \"#utility.yul\":11373:11375   */\n      0x1f\n        /* \"#utility.yul\":11365:11371   */\n      dup4\n        /* \"#utility.yul\":11362:11376   */\n      gt\n        /* \"#utility.yul\":11390:11391   */\n      0x01\n        /* \"#utility.yul\":11385:12003   */\n      dup2\n      eq\n      tag_236\n      jumpi\n        /* \"#utility.yul\":12047:12048   */\n      0x00\n        /* \"#utility.yul\":12064:12070   */\n      dup5\n        /* \"#utility.yul\":12061:12138   */\n      iszero\n      tag_237\n      jumpi\n        /* \"#utility.yul\":12113:12122   */\n      dup3\n        /* \"#utility.yul\":12108:12111   */\n      dup8\n        /* \"#utility.yul\":12104:12123   */\n      add\n        /* \"#utility.yul\":12098:12124   */\n      mload\n        /* \"#utility.yul\":12089:12124   */\n      swap1\n      pop\n        /* \"#utility.yul\":12061:12138   */\n    tag_237:\n        /* \"#utility.yul\":12164:12231   */\n      tag_238\n        /* \"#utility.yul\":12224:12230   */\n      dup6\n        /* \"#utility.yul\":12217:12222   */\n      dup3\n        /* \"#utility.yul\":12164:12231   */\n      tag_102\n      jump\t// in\n    tag_238:\n        /* \"#utility.yul\":12158:12162   */\n      dup7\n        /* \"#utility.yul\":12151:12232   */\n      sstore\n        /* \"#utility.yul\":12020:12242   */\n      pop\n        /* \"#utility.yul\":11355:12242   */\n      jump(tag_235)\n        /* \"#utility.yul\":11385:12003   */\n    tag_236:\n        /* \"#utility.yul\":11437:11441   */\n      0x1f\n        /* \"#utility.yul\":11433:11442   */\n      not\n        /* \"#utility.yul\":11425:11431   */\n      dup5\n        /* \"#utility.yul\":11421:11443   */\n      and\n        /* \"#utility.yul\":11471:11508   */\n      tag_239\n        /* \"#utility.yul\":11503:11507   */\n      dup7\n        /* \"#utility.yul\":11471:11508   */\n      tag_88\n      jump\t// in\n    tag_239:\n        /* \"#utility.yul\":11530:11531   */\n      0x00\n        /* \"#utility.yul\":11544:11752   */\n    tag_240:\n        /* \"#utility.yul\":11558:11565   */\n      dup3\n        /* \"#utility.yul\":11555:11556   */\n      dup2\n        /* \"#utility.yul\":11552:11566   */\n      lt\n        /* \"#utility.yul\":11544:11752   */\n      iszero\n      tag_242\n      jumpi\n        /* \"#utility.yul\":11637:11646   */\n      dup5\n        /* \"#utility.yul\":11632:11635   */\n      dup10\n        /* \"#utility.yul\":11628:11647   */\n      add\n        /* \"#utility.yul\":11622:11648   */\n      mload\n        /* \"#utility.yul\":11614:11620   */\n      dup3\n        /* \"#utility.yul\":11607:11649   */\n      sstore\n        /* \"#utility.yul\":11688:11689   */\n      0x01\n        /* \"#utility.yul\":11680:11686   */\n      dup3\n        /* \"#utility.yul\":11676:11690   */\n      add\n        /* \"#utility.yul\":11666:11690   */\n      swap2\n      pop\n        /* \"#utility.yul\":11735:11737   */\n      0x20\n        /* \"#utility.yul\":11724:11733   */\n      dup6\n        /* \"#utility.yul\":11720:11738   */\n      add\n        /* \"#utility.yul\":11707:11738   */\n      swap5\n      pop\n        /* \"#utility.yul\":11581:11585   */\n      0x20\n        /* \"#utility.yul\":11578:11579   */\n      dup2\n        /* \"#utility.yul\":11574:11586   */\n      add\n        /* \"#utility.yul\":11569:11586   */\n      swap1\n      pop\n        /* \"#utility.yul\":11544:11752   */\n      jump(tag_240)\n    tag_242:\n        /* \"#utility.yul\":11780:11786   */\n      dup7\n        /* \"#utility.yul\":11771:11778   */\n      dup4\n        /* \"#utility.yul\":11768:11787   */\n      lt\n        /* \"#utility.yul\":11765:11944   */\n      iszero\n      tag_243\n      jumpi\n        /* \"#utility.yul\":11838:11847   */\n      dup5\n        /* \"#utility.yul\":11833:11836   */\n      dup10\n        /* \"#utility.yul\":11829:11848   */\n      add\n        /* \"#utility.yul\":11823:11849   */\n      mload\n        /* \"#utility.yul\":11881:11929   */\n      tag_244\n        /* \"#utility.yul\":11923:11927   */\n      0x1f\n        /* \"#utility.yul\":11915:11921   */\n      dup10\n        /* \"#utility.yul\":11911:11928   */\n      and\n        /* \"#utility.yul\":11900:11909   */\n      dup3\n        /* \"#utility.yul\":11881:11929   */\n      tag_101\n      jump\t// in\n    tag_244:\n        /* \"#utility.yul\":11873:11879   */\n      dup4\n        /* \"#utility.yul\":11866:11930   */\n      sstore\n        /* \"#utility.yul\":11788:11944   */\n      pop\n        /* \"#utility.yul\":11765:11944   */\n    tag_243:\n        /* \"#utility.yul\":11990:11991   */\n      0x01\n        /* \"#utility.yul\":11986:11987   */\n      0x02\n        /* \"#utility.yul\":11978:11984   */\n      dup9\n        /* \"#utility.yul\":11974:11988   */\n      mul\n        /* \"#utility.yul\":11970:11992   */\n      add\n        /* \"#utility.yul\":11964:11968   */\n      dup9\n        /* \"#utility.yul\":11957:11993   */\n      sstore\n        /* \"#utility.yul\":11392:12003   */\n      pop\n      pop\n      pop\n        /* \"#utility.yul\":11355:12242   */\n    tag_235:\n      pop\n        /* \"#utility.yul\":10945:12248   */\n      pop\n      pop\n      pop\n        /* \"#utility.yul\":10853:12248   */\n      pop\n      pop\n      jump\t// out\n\n    auxdata: 0xa2646970667358221220c750a7a79b99a42eb1b78f64b939107d686daf5fffa35a9cdafa05be33f6e73864736f6c63430008120033\n}\n",
				"bytecode": {
					"linkReferences": {},
					"object": "608060405234801561001057600080fd5b50610b53806100206000396000f3fe608060405234801561001057600080fd5b50600436106100575760003560e01c80630ae110071461005c578063455f502414610078578063b6a46b3b14610094578063bc8bc2b4146100b0578063f72d0b3b146100e1575b600080fd5b610076600480360381019061007191906104ee565b610112565b005b610092600480360381019061008d9190610584565b61014f565b005b6100ae60048036038101906100a991906105b1565b6101c2565b005b6100ca60048036038101906100c59190610584565b610285565b6040516100d89291906106a9565b60405180910390f35b6100fb60048036038101906100f691906106d9565b61034e565b6040516101099291906106a9565b60405180910390f35b818160008560ff168154811061012b5761012a610706565b5b9060005260206000209060020201600001918261014992919061097b565b50505050565b6000818154811061016357610162610706565b5b906000526020600020906002020160010160009054906101000a900460ff16156000828154811061019757610196610706565b5b906000526020600020906002020160010160006101000a81548160ff02191690831515021790555050565b6000604051806040016040528084848080601f016020809104026020016040519081016040528093929190818152602001838380828437600081840152601f19601f820116905080830192505050505050508152602001600015158152509080600181540180825580915050600190039060005260206000209060020201600090919091909150600082015181600001908161025e9190610a4b565b5060208201518160010160006101000a81548160ff02191690831515021790555050505050565b6000818154811061029557600080fd5b90600052602060002090600202016000915090508060000180546102b89061079e565b80601f01602080910402602001604051908101604052809291908181526020018280546102e49061079e565b80156103315780601f1061030657610100808354040283529160200191610331565b820191906000526020600020905b81548152906001019060200180831161031457829003601f168201915b5050505050908060010160009054906101000a900460ff16905082565b606060008060008460ff168154811061036a57610369610706565b5b90600052602060002090600202016040518060400160405290816000820180546103939061079e565b80601f01602080910402602001604051908101604052809291908181526020018280546103bf9061079e565b801561040c5780601f106103e15761010080835404028352916020019161040c565b820191906000526020600020905b8154815290600101906020018083116103ef57829003601f168201915b505050505081526020016001820160009054906101000a900460ff1615151515815250509050806000015181602001519250925050915091565b600080fd5b600080fd5b600060ff82169050919050565b61046681610450565b811461047157600080fd5b50565b6000813590506104838161045d565b92915050565b600080fd5b600080fd5b600080fd5b60008083601f8401126104ae576104ad610489565b5b8235905067ffffffffffffffff8111156104cb576104ca61048e565b5b6020830191508360018202830111156104e7576104e6610493565b5b9250929050565b60008060006040848603121561050757610506610446565b5b600061051586828701610474565b935050602084013567ffffffffffffffff8111156105365761053561044b565b5b61054286828701610498565b92509250509250925092565b6000819050919050565b6105618161054e565b811461056c57600080fd5b50565b60008135905061057e81610558565b92915050565b60006020828403121561059a57610599610446565b5b60006105a88482850161056f565b91505092915050565b600080602083850312156105c8576105c7610446565b5b600083013567ffffffffffffffff8111156105e6576105e561044b565b5b6105f285828601610498565b92509250509250929050565b600081519050919050565b600082825260208201905092915050565b60005b8381101561063857808201518184015260208101905061061d565b60008484015250505050565b6000601f19601f8301169050919050565b6000610660826105fe565b61066a8185610609565b935061067a81856020860161061a565b61068381610644565b840191505092915050565b60008115159050919050565b6106a38161068e565b82525050565b600060408201905081810360008301526106c38185610655565b90506106d2602083018461069a565b9392505050565b6000602082840312156106ef576106ee610446565b5b60006106fd84828501610474565b91505092915050565b7f4e487b7100000000000000000000000000000000000000000000000000000000600052603260045260246000fd5b600082905092915050565b7f4e487b7100000000000000000000000000000000000000000000000000000000600052604160045260246000fd5b7f4e487b7100000000000000000000000000000000000000000000000000000000600052602260045260246000fd5b600060028204905060018216806107b657607f821691505b6020821081036107c9576107c861076f565b5b50919050565b60008190508160005260206000209050919050565b60006020601f8301049050919050565b600082821b905092915050565b6000600883026108317fffffffffffffffffffffffffffffffffffffffffffffffffffffffffffffffff826107f4565b61083b86836107f4565b95508019841693508086168417925050509392505050565b6000819050919050565b600061087861087361086e8461054e565b610853565b61054e565b9050919050565b6000819050919050565b6108928361085d565b6108a661089e8261087f565b848454610801565b825550505050565b600090565b6108bb6108ae565b6108c6818484610889565b505050565b5b818110156108ea576108df6000826108b3565b6001810190506108cc565b5050565b601f82111561092f57610900816107cf565b610909846107e4565b81016020851015610918578190505b61092c610924856107e4565b8301826108cb565b50505b505050565b600082821c905092915050565b600061095260001984600802610934565b1980831691505092915050565b600061096b8383610941565b9150826002028217905092915050565b6109858383610735565b67ffffffffffffffff81111561099e5761099d610740565b5b6109a8825461079e565b6109b38282856108ee565b6000601f8311600181146109e257600084156109d0578287013590505b6109da858261095f565b865550610a42565b601f1984166109f0866107cf565b60005b82811015610a18578489013582556001820191506020850194506020810190506109f3565b86831015610a355784890135610a31601f891682610941565b8355505b6001600288020188555050505b50505050505050565b610a54826105fe565b67ffffffffffffffff811115610a6d57610a6c610740565b5b610a77825461079e565b610a828282856108ee565b600060209050601f831160018114610ab55760008415610aa3578287015190505b610aad858261095f565b865550610b15565b601f198416610ac3866107cf565b60005b82811015610aeb57848901518255600182019150602085019450602081019050610ac6565b86831015610b085784890151610b04601f891682610941565b8355505b6001600288020188555050505b50505050505056fea2646970667358221220c750a7a79b99a42eb1b78f64b939107d686daf5fffa35a9cdafa05be33f6e73864736f6c63430008120033",
					"opcodes": "PUSH1 0x80 PUSH1 0x40 MSTORE CALLVALUE DUP1 ISZERO PUSH2 0x10 JUMPI PUSH1 0x0 DUP1 REVERT JUMPDEST POP PUSH2 0xB53 DUP1 PUSH2 0x20 PUSH1 0x0 CODECOPY PUSH1 0x0 RETURN INVALID PUSH1 0x80 PUSH1 0x40 MSTORE CALLVALUE DUP1 ISZERO PUSH2 0x10 JUMPI PUSH1 0x0 DUP1 REVERT JUMPDEST POP PUSH1 0x4 CALLDATASIZE LT PUSH2 0x57 JUMPI PUSH1 0x0 CALLDATALOAD PUSH1 0xE0 SHR DUP1 PUSH4 0xAE11007 EQ PUSH2 0x5C JUMPI DUP1 PUSH4 0x455F5024 EQ PUSH2 0x78 JUMPI DUP1 PUSH4 0xB6A46B3B EQ PUSH2 0x94 JUMPI DUP1 PUSH4 0xBC8BC2B4 EQ PUSH2 0xB0 JUMPI DUP1 PUSH4 0xF72D0B3B EQ PUSH2 0xE1 JUMPI JUMPDEST PUSH1 0x0 DUP1 REVERT JUMPDEST PUSH2 0x76 PUSH1 0x4 DUP1 CALLDATASIZE SUB DUP2 ADD SWAP1 PUSH2 0x71 SWAP2 SWAP1 PUSH2 0x4EE JUMP JUMPDEST PUSH2 0x112 JUMP JUMPDEST STOP JUMPDEST PUSH2 0x92 PUSH1 0x4 DUP1 CALLDATASIZE SUB DUP2 ADD SWAP1 PUSH2 0x8D SWAP2 SWAP1 PUSH2 0x584 JUMP JUMPDEST PUSH2 0x14F JUMP JUMPDEST STOP JUMPDEST PUSH2 0xAE PUSH1 0x4 DUP1 CALLDATASIZE SUB DUP2 ADD SWAP1 PUSH2 0xA9 SWAP2 SWAP1 PUSH2 0x5B1 JUMP JUMPDEST PUSH2 0x1C2 JUMP JUMPDEST STOP JUMPDEST PUSH2 0xCA PUSH1 0x4 DUP1 CALLDATASIZE SUB DUP2 ADD SWAP1 PUSH2 0xC5 SWAP2 SWAP1 PUSH2 0x584 JUMP JUMPDEST PUSH2 0x285 JUMP JUMPDEST PUSH1 0x40 MLOAD PUSH2 0xD8 SWAP3 SWAP2 SWAP1 PUSH2 0x6A9 JUMP JUMPDEST PUSH1 0x40 MLOAD DUP1 SWAP2 SUB SWAP1 RETURN JUMPDEST PUSH2 0xFB PUSH1 0x4 DUP1 CALLDATASIZE SUB DUP2 ADD SWAP1 PUSH2 0xF6 SWAP2 SWAP1 PUSH2 0x6D9 JUMP JUMPDEST PUSH2 0x34E JUMP JUMPDEST PUSH1 0x40 MLOAD PUSH2 0x109 SWAP3 SWAP2 SWAP1 PUSH2 0x6A9 JUMP JUMPDEST PUSH1 0x40 MLOAD DUP1 SWAP2 SUB SWAP1 RETURN JUMPDEST DUP2 DUP2 PUSH1 0x0 DUP6 PUSH1 0xFF AND DUP2 SLOAD DUP2 LT PUSH2 0x12B JUMPI PUSH2 0x12A PUSH2 0x706 JUMP JUMPDEST JUMPDEST SWAP1 PUSH1 0x0 MSTORE PUSH1 0x20 PUSH1 0x0 KECCAK256 SWAP1 PUSH1 0x2 MUL ADD PUSH1 0x0 ADD SWAP2 DUP3 PUSH2 0x149 SWAP3 SWAP2 SWAP1 PUSH2 0x97B JUMP JUMPDEST POP POP POP POP JUMP JUMPDEST PUSH1 0x0 DUP2 DUP2 SLOAD DUP2 LT PUSH2 0x163 JUMPI PUSH2 0x162 PUSH2 0x706 JUMP JUMPDEST JUMPDEST SWAP1 PUSH1 0x0 MSTORE PUSH1 0x20 PUSH1 0x0 KECCAK256 SWAP1 PUSH1 0x2 MUL ADD PUSH1 0x1 ADD PUSH1 0x0 SWAP1 SLOAD SWAP1 PUSH2 0x100 EXP SWAP1 DIV PUSH1 0xFF AND ISZERO PUSH1 0x0 DUP3 DUP2 SLOAD DUP2 LT PUSH2 0x197 JUMPI PUSH2 0x196 PUSH2 0x706 JUMP JUMPDEST JUMPDEST SWAP1 PUSH1 0x0 MSTORE PUSH1 0x20 PUSH1 0x0 KECCAK256 SWAP1 PUSH1 0x2 MUL ADD PUSH1 0x1 ADD PUSH1 0x0 PUSH2 0x100 EXP DUP2 SLOAD DUP2 PUSH1 0xFF MUL NOT AND SWAP1 DUP4 ISZERO ISZERO MUL OR SWAP1 SSTORE POP POP JUMP JUMPDEST PUSH1 0x0 PUSH1 0x40 MLOAD DUP1 PUSH1 0x40 ADD PUSH1 0x40 MSTORE DUP1 DUP5 DUP5 DUP1 DUP1 PUSH1 0x1F ADD PUSH1 0x20 DUP1 SWAP2 DIV MUL PUSH1 0x20 ADD PUSH1 0x40 MLOAD SWAP1 DUP2 ADD PUSH1 0x40 MSTORE DUP1 SWAP4 SWAP3 SWAP2 SWAP1 DUP2 DUP2 MSTORE PUSH1 0x20 ADD DUP4 DUP4 DUP1 DUP3 DUP5 CALLDATACOPY PUSH1 0x0 DUP2 DUP5 ADD MSTORE PUSH1 0x1F NOT PUSH1 0x1F DUP3 ADD AND SWAP1 POP DUP1 DUP4 ADD SWAP3 POP POP POP POP POP POP POP DUP2 MSTORE PUSH1 0x20 ADD PUSH1 0x0 ISZERO ISZERO DUP2 MSTORE POP SWAP1 DUP1 PUSH1 0x1 DUP2 SLOAD ADD DUP1 DUP3 SSTORE DUP1 SWAP2 POP POP PUSH1 0x1 SWAP1 SUB SWAP1 PUSH1 0x0 MSTORE PUSH1 0x20 PUSH1 0x0 KECCAK256 SWAP1 PUSH1 0x2 MUL ADD PUSH1 0x0 SWAP1 SWAP2 SWAP1 SWAP2 SWAP1 SWAP2 POP PUSH1 0x0 DUP3 ADD MLOAD DUP2 PUSH1 0x0 ADD SWAP1 DUP2 PUSH2 0x25E SWAP2 SWAP1 PUSH2 0xA4B JUMP JUMPDEST POP PUSH1 0x20 DUP3 ADD MLOAD DUP2 PUSH1 0x1 ADD PUSH1 0x0 PUSH2 0x100 EXP DUP2 SLOAD DUP2 PUSH1 0xFF MUL NOT AND SWAP1 DUP4 ISZERO ISZERO MUL OR SWAP1 SSTORE POP POP POP POP POP JUMP JUMPDEST PUSH1 0x0 DUP2 DUP2 SLOAD DUP2 LT PUSH2 0x295 JUMPI PUSH1 0x0 DUP1 REVERT JUMPDEST SWAP1 PUSH1 0x0 MSTORE PUSH1 0x20 PUSH1 0x0 KECCAK256 SWAP1 PUSH1 0x2 MUL ADD PUSH1 0x0 SWAP2 POP SWAP1 POP DUP1 PUSH1 0x0 ADD DUP1 SLOAD PUSH2 0x2B8 SWAP1 PUSH2 0x79E JUMP JUMPDEST DUP1 PUSH1 0x1F ADD PUSH1 0x20 DUP1 SWAP2 DIV MUL PUSH1 0x20 ADD PUSH1 0x40 MLOAD SWAP1 DUP2 ADD PUSH1 0x40 MSTORE DUP1 SWAP3 SWAP2 SWAP1 DUP2 DUP2 MSTORE PUSH1 0x20 ADD DUP3 DUP1 SLOAD PUSH2 0x2E4 SWAP1 PUSH2 0x79E JUMP JUMPDEST DUP1 ISZERO PUSH2 0x331 JUMPI DUP1 PUSH1 0x1F LT PUSH2 0x306 JUMPI PUSH2 0x100 DUP1 DUP4 SLOAD DIV MUL DUP4 MSTORE SWAP2 PUSH1 0x20 ADD SWAP2 PUSH2 0x331 JUMP JUMPDEST DUP3 ADD SWAP2 SWAP1 PUSH1 0x0 MSTORE PUSH1 0x20 PUSH1 0x0 KECCAK256 SWAP1 JUMPDEST DUP2 SLOAD DUP2 MSTORE SWAP1 PUSH1 0x1 ADD SWAP1 PUSH1 0x20 ADD DUP1 DUP4 GT PUSH2 0x314 JUMPI DUP3 SWAP1 SUB PUSH1 0x1F AND DUP3 ADD SWAP2 JUMPDEST POP POP POP POP POP SWAP1 DUP1 PUSH1 0x1 ADD PUSH1 0x0 SWAP1 SLOAD SWAP1 PUSH2 0x100 EXP SWAP1 DIV PUSH1 0xFF AND SWAP1 POP DUP3 JUMP JUMPDEST PUSH1 0x60 PUSH1 0x0 DUP1 PUSH1 0x0 DUP5 PUSH1 0xFF AND DUP2 SLOAD DUP2 LT PUSH2 0x36A JUMPI PUSH2 0x369 PUSH2 0x706 JUMP JUMPDEST JUMPDEST SWAP1 PUSH1 0x0 MSTORE PUSH1 0x20 PUSH1 0x0 KECCAK256 SWAP1 PUSH1 0x2 MUL ADD PUSH1 0x40 MLOAD DUP1 PUSH1 0x40 ADD PUSH1 0x40 MSTORE SWAP1 DUP2 PUSH1 0x0 DUP3 ADD DUP1 SLOAD PUSH2 0x393 SWAP1 PUSH2 0x79E JUMP JUMPDEST DUP1 PUSH1 0x1F ADD PUSH1 0x20 DUP1 SWAP2 DIV MUL PUSH1 0x20 ADD PUSH1 0x40 MLOAD SWAP1 DUP2 ADD PUSH1 0x40 MSTORE DUP1 SWAP3 SWAP2 SWAP1 DUP2 DUP2 MSTORE PUSH1 0x20 ADD DUP3 DUP1 SLOAD PUSH2 0x3BF SWAP1 PUSH2 0x79E JUMP JUMPDEST DUP1 ISZERO PUSH2 0x40C JUMPI DUP1 PUSH1 0x1F LT PUSH2 0x3E1 JUMPI PUSH2 0x100 DUP1 DUP4 SLOAD DIV MUL DUP4 MSTORE SWAP2 PUSH1 0x20 ADD SWAP2 PUSH2 0x40C JUMP JUMPDEST DUP3 ADD SWAP2 SWAP1 PUSH1 0x0 MSTORE PUSH1 0x20 PUSH1 0x0 KECCAK256 SWAP1 JUMPDEST DUP2 SLOAD DUP2 MSTORE SWAP1 PUSH1 0x1 ADD SWAP1 PUSH1 0x20 ADD DUP1 DUP4 GT PUSH2 0x3EF JUMPI DUP3 SWAP1 SUB PUSH1 0x1F AND DUP3 ADD SWAP2 JUMPDEST POP POP POP POP POP DUP2 MSTORE PUSH1 0x20 ADD PUSH1 0x1 DUP3 ADD PUSH1 0x0 SWAP1 SLOAD SWAP1 PUSH2 0x100 EXP SWAP1 DIV PUSH1 0xFF AND ISZERO ISZERO ISZERO ISZERO DUP2 MSTORE POP POP SWAP1 POP DUP1 PUSH1 0x0 ADD MLOAD DUP2 PUSH1 0x20 ADD MLOAD SWAP3 POP SWAP3 POP POP SWAP2 POP SWAP2 JUMP JUMPDEST PUSH1 0x0 DUP1 REVERT JUMPDEST PUSH1 0x0 DUP1 REVERT JUMPDEST PUSH1 0x0 PUSH1 0xFF DUP3 AND SWAP1 POP SWAP2 SWAP1 POP JUMP JUMPDEST PUSH2 0x466 DUP2 PUSH2 0x450 JUMP JUMPDEST DUP2 EQ PUSH2 0x471 JUMPI PUSH1 0x0 DUP1 REVERT JUMPDEST POP JUMP JUMPDEST PUSH1 0x0 DUP2 CALLDATALOAD SWAP1 POP PUSH2 0x483 DUP2 PUSH2 0x45D JUMP JUMPDEST SWAP3 SWAP2 POP POP JUMP JUMPDEST PUSH1 0x0 DUP1 REVERT JUMPDEST PUSH1 0x0 DUP1 REVERT JUMPDEST PUSH1 0x0 DUP1 REVERT JUMPDEST PUSH1 0x0 DUP1 DUP4 PUSH1 0x1F DUP5 ADD SLT PUSH2 0x4AE JUMPI PUSH2 0x4AD PUSH2 0x489 JUMP JUMPDEST JUMPDEST DUP3 CALLDATALOAD SWAP1 POP PUSH8 0xFFFFFFFFFFFFFFFF DUP2 GT ISZERO PUSH2 0x4CB JUMPI PUSH2 0x4CA PUSH2 0x48E JUMP JUMPDEST JUMPDEST PUSH1 0x20 DUP4 ADD SWAP2 POP DUP4 PUSH1 0x1 DUP3 MUL DUP4 ADD GT ISZERO PUSH2 0x4E7 JUMPI PUSH2 0x4E6 PUSH2 0x493 JUMP JUMPDEST JUMPDEST SWAP3 POP SWAP3 SWAP1 POP JUMP JUMPDEST PUSH1 0x0 DUP1 PUSH1 0x0 PUSH1 0x40 DUP5 DUP7 SUB SLT ISZERO PUSH2 0x507 JUMPI PUSH2 0x506 PUSH2 0x446 JUMP JUMPDEST JUMPDEST PUSH1 0x0 PUSH2 0x515 DUP7 DUP3 DUP8 ADD PUSH2 0x474 JUMP JUMPDEST SWAP4 POP POP PUSH1 0x20 DUP5 ADD CALLDATALOAD PUSH8 0xFFFFFFFFFFFFFFFF DUP2 GT ISZERO PUSH2 0x536 JUMPI PUSH2 0x535 PUSH2 0x44B JUMP JUMPDEST JUMPDEST PUSH2 0x542 DUP7 DUP3 DUP8 ADD PUSH2 0x498 JUMP JUMPDEST SWAP3 POP SWAP3 POP POP SWAP3 POP SWAP3 POP SWAP3 JUMP JUMPDEST PUSH1 0x0 DUP2 SWAP1 POP SWAP2 SWAP1 POP JUMP JUMPDEST PUSH2 0x561 DUP2 PUSH2 0x54E JUMP JUMPDEST DUP2 EQ PUSH2 0x56C JUMPI PUSH1 0x0 DUP1 REVERT JUMPDEST POP JUMP JUMPDEST PUSH1 0x0 DUP2 CALLDATALOAD SWAP1 POP PUSH2 0x57E DUP2 PUSH2 0x558 JUMP JUMPDEST SWAP3 SWAP2 POP POP JUMP JUMPDEST PUSH1 0x0 PUSH1 0x20 DUP3 DUP5 SUB SLT ISZERO PUSH2 0x59A JUMPI PUSH2 0x599 PUSH2 0x446 JUMP JUMPDEST JUMPDEST PUSH1 0x0 PUSH2 0x5A8 DUP5 DUP3 DUP6 ADD PUSH2 0x56F JUMP JUMPDEST SWAP2 POP POP SWAP3 SWAP2 POP POP JUMP JUMPDEST PUSH1 0x0 DUP1 PUSH1 0x20 DUP4 DUP6 SUB SLT ISZERO PUSH2 0x5C8 JUMPI PUSH2 0x5C7 PUSH2 0x446 JUMP JUMPDEST JUMPDEST PUSH1 0x0 DUP4 ADD CALLDATALOAD PUSH8 0xFFFFFFFFFFFFFFFF DUP2 GT ISZERO PUSH2 0x5E6 JUMPI PUSH2 0x5E5 PUSH2 0x44B JUMP JUMPDEST JUMPDEST PUSH2 0x5F2 DUP6 DUP3 DUP7 ADD PUSH2 0x498 JUMP JUMPDEST SWAP3 POP SWAP3 POP POP SWAP3 POP SWAP3 SWAP1 POP JUMP JUMPDEST PUSH1 0x0 DUP2 MLOAD SWAP1 POP SWAP2 SWAP1 POP JUMP JUMPDEST PUSH1 0x0 DUP3 DUP3 MSTORE PUSH1 0x20 DUP3 ADD SWAP1 POP SWAP3 SWAP2 POP POP JUMP JUMPDEST PUSH1 0x0 JUMPDEST DUP4 DUP2 LT ISZERO PUSH2 0x638 JUMPI DUP1 DUP3 ADD MLOAD DUP2 DUP5 ADD MSTORE PUSH1 0x20 DUP2 ADD SWAP1 POP PUSH2 0x61D JUMP JUMPDEST PUSH1 0x0 DUP5 DUP5 ADD MSTORE POP POP POP POP JUMP JUMPDEST PUSH1 0x0 PUSH1 0x1F NOT PUSH1 0x1F DUP4 ADD AND SWAP1 POP SWAP2 SWAP1 POP JUMP JUMPDEST PUSH1 0x0 PUSH2 0x660 DUP3 PUSH2 0x5FE JUMP JUMPDEST PUSH2 0x66A DUP2 DUP6 PUSH2 0x609 JUMP JUMPDEST SWAP4 POP PUSH2 0x67A DUP2 DUP6 PUSH1 0x20 DUP7 ADD PUSH2 0x61A JUMP JUMPDEST PUSH2 0x683 DUP2 PUSH2 0x644 JUMP JUMPDEST DUP5 ADD SWAP2 POP POP SWAP3 SWAP2 POP POP JUMP JUMPDEST PUSH1 0x0 DUP2 ISZERO ISZERO SWAP1 POP SWAP2 SWAP1 POP JUMP JUMPDEST PUSH2 0x6A3 DUP2 PUSH2 0x68E JUMP JUMPDEST DUP3 MSTORE POP POP JUMP JUMPDEST PUSH1 0x0 PUSH1 0x40 DUP3 ADD SWAP1 POP DUP2 DUP2 SUB PUSH1 0x0 DUP4 ADD MSTORE PUSH2 0x6C3 DUP2 DUP6 PUSH2 0x655 JUMP JUMPDEST SWAP1 POP PUSH2 0x6D2 PUSH1 0x20 DUP4 ADD DUP5 PUSH2 0x69A JUMP JUMPDEST SWAP4 SWAP3 POP POP POP JUMP JUMPDEST PUSH1 0x0 PUSH1 0x20 DUP3 DUP5 SUB SLT ISZERO PUSH2 0x6EF JUMPI PUSH2 0x6EE PUSH2 0x446 JUMP JUMPDEST JUMPDEST PUSH1 0x0 PUSH2 0x6FD DUP5 DUP3 DUP6 ADD PUSH2 0x474 JUMP JUMPDEST SWAP2 POP POP SWAP3 SWAP2 POP POP JUMP JUMPDEST PUSH32 0x4E487B7100000000000000000000000000000000000000000000000000000000 PUSH1 0x0 MSTORE PUSH1 0x32 PUSH1 0x4 MSTORE PUSH1 0x24 PUSH1 0x0 REVERT JUMPDEST PUSH1 0x0 DUP3 SWAP1 POP SWAP3 SWAP2 POP POP JUMP JUMPDEST PUSH32 0x4E487B7100000000000000000000000000000000000000000000000000000000 PUSH1 0x0 MSTORE PUSH1 0x41 PUSH1 0x4 MSTORE PUSH1 0x24 PUSH1 0x0 REVERT JUMPDEST PUSH32 0x4E487B7100000000000000000000000000000000000000000000000000000000 PUSH1 0x0 MSTORE PUSH1 0x22 PUSH1 0x4 MSTORE PUSH1 0x24 PUSH1 0x0 REVERT JUMPDEST PUSH1 0x0 PUSH1 0x2 DUP3 DIV SWAP1 POP PUSH1 0x1 DUP3 AND DUP1 PUSH2 0x7B6 JUMPI PUSH1 0x7F DUP3 AND SWAP2 POP JUMPDEST PUSH1 0x20 DUP3 LT DUP2 SUB PUSH2 0x7C9 JUMPI PUSH2 0x7C8 PUSH2 0x76F JUMP JUMPDEST JUMPDEST POP SWAP2 SWAP1 POP JUMP JUMPDEST PUSH1 0x0 DUP2 SWAP1 POP DUP2 PUSH1 0x0 MSTORE PUSH1 0x20 PUSH1 0x0 KECCAK256 SWAP1 POP SWAP2 SWAP1 POP JUMP JUMPDEST PUSH1 0x0 PUSH1 0x20 PUSH1 0x1F DUP4 ADD DIV SWAP1 POP SWAP2 SWAP1 POP JUMP JUMPDEST PUSH1 0x0 DUP3 DUP3 SHL SWAP1 POP SWAP3 SWAP2 POP POP JUMP JUMPDEST PUSH1 0x0 PUSH1 0x8 DUP4 MUL PUSH2 0x831 PUSH32 0xFFFFFFFFFFFFFFFFFFFFFFFFFFFFFFFFFFFFFFFFFFFFFFFFFFFFFFFFFFFFFFFF DUP3 PUSH2 0x7F4 JUMP JUMPDEST PUSH2 0x83B DUP7 DUP4 PUSH2 0x7F4 JUMP JUMPDEST SWAP6 POP DUP1 NOT DUP5 AND SWAP4 POP DUP1 DUP7 AND DUP5 OR SWAP3 POP POP POP SWAP4 SWAP3 POP POP POP JUMP JUMPDEST PUSH1 0x0 DUP2 SWAP1 POP SWAP2 SWAP1 POP JUMP JUMPDEST PUSH1 0x0 PUSH2 0x878 PUSH2 0x873 PUSH2 0x86E DUP5 PUSH2 0x54E JUMP JUMPDEST PUSH2 0x853 JUMP JUMPDEST PUSH2 0x54E JUMP JUMPDEST SWAP1 POP SWAP2 SWAP1 POP JUMP JUMPDEST PUSH1 0x0 DUP2 SWAP1 POP SWAP2 SWAP1 POP JUMP JUMPDEST PUSH2 0x892 DUP4 PUSH2 0x85D JUMP JUMPDEST PUSH2 0x8A6 PUSH2 0x89E DUP3 PUSH2 0x87F JUMP JUMPDEST DUP5 DUP5 SLOAD PUSH2 0x801 JUMP JUMPDEST DUP3 SSTORE POP POP POP POP JUMP JUMPDEST PUSH1 0x0 SWAP1 JUMP JUMPDEST PUSH2 0x8BB PUSH2 0x8AE JUMP JUMPDEST PUSH2 0x8C6 DUP2 DUP5 DUP5 PUSH2 0x889 JUMP JUMPDEST POP POP POP JUMP JUMPDEST JUMPDEST DUP2 DUP2 LT ISZERO PUSH2 0x8EA JUMPI PUSH2 0x8DF PUSH1 0x0 DUP3 PUSH2 0x8B3 JUMP JUMPDEST PUSH1 0x1 DUP2 ADD SWAP1 POP PUSH2 0x8CC JUMP JUMPDEST POP POP JUMP JUMPDEST PUSH1 0x1F DUP3 GT ISZERO PUSH2 0x92F JUMPI PUSH2 0x900 DUP2 PUSH2 0x7CF JUMP JUMPDEST PUSH2 0x909 DUP5 PUSH2 0x7E4 JUMP JUMPDEST DUP2 ADD PUSH1 0x20 DUP6 LT ISZERO PUSH2 0x918 JUMPI DUP2 SWAP1 POP JUMPDEST PUSH2 0x92C PUSH2 0x924 DUP6 PUSH2 0x7E4 JUMP JUMPDEST DUP4 ADD DUP3 PUSH2 0x8CB JUMP JUMPDEST POP POP JUMPDEST POP POP POP JUMP JUMPDEST PUSH1 0x0 DUP3 DUP3 SHR SWAP1 POP SWAP3 SWAP2 POP POP JUMP JUMPDEST PUSH1 0x0 PUSH2 0x952 PUSH1 0x0 NOT DUP5 PUSH1 0x8 MUL PUSH2 0x934 JUMP JUMPDEST NOT DUP1 DUP4 AND SWAP2 POP POP SWAP3 SWAP2 POP POP JUMP JUMPDEST PUSH1 0x0 PUSH2 0x96B DUP4 DUP4 PUSH2 0x941 JUMP JUMPDEST SWAP2 POP DUP3 PUSH1 0x2 MUL DUP3 OR SWAP1 POP SWAP3 SWAP2 POP POP JUMP JUMPDEST PUSH2 0x985 DUP4 DUP4 PUSH2 0x735 JUMP JUMPDEST PUSH8 0xFFFFFFFFFFFFFFFF DUP2 GT ISZERO PUSH2 0x99E JUMPI PUSH2 0x99D PUSH2 0x740 JUMP JUMPDEST JUMPDEST PUSH2 0x9A8 DUP3 SLOAD PUSH2 0x79E JUMP JUMPDEST PUSH2 0x9B3 DUP3 DUP3 DUP6 PUSH2 0x8EE JUMP JUMPDEST PUSH1 0x0 PUSH1 0x1F DUP4 GT PUSH1 0x1 DUP2 EQ PUSH2 0x9E2 JUMPI PUSH1 0x0 DUP5 ISZERO PUSH2 0x9D0 JUMPI DUP3 DUP8 ADD CALLDATALOAD SWAP1 POP JUMPDEST PUSH2 0x9DA DUP6 DUP3 PUSH2 0x95F JUMP JUMPDEST DUP7 SSTORE POP PUSH2 0xA42 JUMP JUMPDEST PUSH1 0x1F NOT DUP5 AND PUSH2 0x9F0 DUP7 PUSH2 0x7CF JUMP JUMPDEST PUSH1 0x0 JUMPDEST DUP3 DUP2 LT ISZERO PUSH2 0xA18 JUMPI DUP5 DUP10 ADD CALLDATALOAD DUP3 SSTORE PUSH1 0x1 DUP3 ADD SWAP2 POP PUSH1 0x20 DUP6 ADD SWAP5 POP PUSH1 0x20 DUP2 ADD SWAP1 POP PUSH2 0x9F3 JUMP JUMPDEST DUP7 DUP4 LT ISZERO PUSH2 0xA35 JUMPI DUP5 DUP10 ADD CALLDATALOAD PUSH2 0xA31 PUSH1 0x1F DUP10 AND DUP3 PUSH2 0x941 JUMP JUMPDEST DUP4 SSTORE POP JUMPDEST PUSH1 0x1 PUSH1 0x2 DUP9 MUL ADD DUP9 SSTORE POP POP POP JUMPDEST POP POP POP POP POP POP POP JUMP JUMPDEST PUSH2 0xA54 DUP3 PUSH2 0x5FE JUMP JUMPDEST PUSH8 0xFFFFFFFFFFFFFFFF DUP2 GT ISZERO PUSH2 0xA6D JUMPI PUSH2 0xA6C PUSH2 0x740 JUMP JUMPDEST JUMPDEST PUSH2 0xA77 DUP3 SLOAD PUSH2 0x79E JUMP JUMPDEST PUSH2 0xA82 DUP3 DUP3 DUP6 PUSH2 0x8EE JUMP JUMPDEST PUSH1 0x0 PUSH1 0x20 SWAP1 POP PUSH1 0x1F DUP4 GT PUSH1 0x1 DUP2 EQ PUSH2 0xAB5 JUMPI PUSH1 0x0 DUP5 ISZERO PUSH2 0xAA3 JUMPI DUP3 DUP8 ADD MLOAD SWAP1 POP JUMPDEST PUSH2 0xAAD DUP6 DUP3 PUSH2 0x95F JUMP JUMPDEST DUP7 SSTORE POP PUSH2 0xB15 JUMP JUMPDEST PUSH1 0x1F NOT DUP5 AND PUSH2 0xAC3 DUP7 PUSH2 0x7CF JUMP JUMPDEST PUSH1 0x0 JUMPDEST DUP3 DUP2 LT ISZERO PUSH2 0xAEB JUMPI DUP5 DUP10 ADD MLOAD DUP3 SSTORE PUSH1 0x1 DUP3 ADD SWAP2 POP PUSH1 0x20 DUP6 ADD SWAP5 POP PUSH1 0x20 DUP2 ADD SWAP1 POP PUSH2 0xAC6 JUMP JUMPDEST DUP7 DUP4 LT ISZERO PUSH2 0xB08 JUMPI DUP5 DUP10 ADD MLOAD PUSH2 0xB04 PUSH1 0x1F DUP10 AND DUP3 PUSH2 0x941 JUMP JUMPDEST DUP4 SSTORE POP JUMPDEST PUSH1 0x1 PUSH1 0x2 DUP9 MUL ADD DUP9 SSTORE POP POP POP JUMPDEST POP POP POP POP POP POP JUMP INVALID LOG2 PUSH5 0x6970667358 0x22 SLT KECCAK256 0xC7 POP 0xA7 0xA7 SWAP12 SWAP10 LOG4 0x2E 0xB1 0xB7 DUP16 PUSH5 0xB939107D68 PUSH14 0xAF5FFFA35A9CDAFA05BE33F6E738 PUSH5 0x736F6C6343 STOP ADDMOD SLT STOP CALLER "
				},
				"gasEstimates": {
					"creation": {
						"codeDepositCost": "579800",
						"executionCost": "613",
						"totalCost": "580413"
					},
					"external": {
						"create(string)": "infinite",
						"get(uint8)": "infinite",
						"todos(uint256)": "infinite",
						"toggleCompleted(uint256)": "31206",
						"updateText(uint8,string)": "infinite"
					}
				},
				"methodIdentifiers": {
					"create(string)": "b6a46b3b",
					"get(uint8)": "f72d0b3b",
					"todos(uint256)": "bc8bc2b4",
					"toggleCompleted(uint256)": "455f5024",
					"updateText(uint8,string)": "0ae11007"
				}
			},
			"storageLayout": {
				"storage": [
					{
						"astId": 10,
						"contract": "simple_app03_todolist.sol:TodoList",
						"label": "todos",
						"offset": 0,
						"slot": "0",
						"type": "t_array(t_struct(Todo)6_storage)dyn_storage"
					}
				],
				"types": {
					"t_array(t_struct(Todo)6_storage)dyn_storage": {
						"base": "t_struct(Todo)6_storage",
						"encoding": "dynamic_array",
						"label": "struct TodoList.Todo[]",
						"numberOfBytes": "32"
					},
					"t_bool": {
						"encoding": "inplace",
						"label": "bool",
						"numberOfBytes": "1"
					},
					"t_string_storage": {
						"encoding": "bytes",
						"label": "string",
						"numberOfBytes": "32"
					},
					"t_struct(Todo)6_storage": {
						"encoding": "inplace",
						"label": "struct TodoList.Todo",
						"members": [
							{
								"astId": 3,
								"contract": "simple_app03_todolist.sol:TodoList",
								"label": "text",
								"offset": 0,
								"slot": "0",
								"type": "t_string_storage"
							},
							{
								"astId": 5,
								"contract": "simple_app03_todolist.sol:TodoList",
								"label": "completed",
								"offset": 0,
								"slot": "1",
								"type": "t_bool"
							}
						],
						"numberOfBytes": "64"
					}
				}
			},
			"userdoc": {
				"kind": "user",
				"methods": {},
				"version": 1
			}
		}
	}
}