{
	"08. mapping.sol": {
		"NestedMapping": {
			"abi": [
				{
					"inputs": [
						{
							"internalType": "address",
							"name": "_addr",
							"type": "address"
						},
						{
							"internalType": "address",
							"name": "_addr2",
							"type": "address"
						}
					],
					"name": "get",
					"outputs": [
						{
							"internalType": "bool",
							"name": "",
							"type": "bool"
						}
					],
					"stateMutability": "view",
					"type": "function"
				},
				{
					"inputs": [
						{
							"internalType": "address",
							"name": "",
							"type": "address"
						},
						{
							"internalType": "address",
							"name": "",
							"type": "address"
						}
					],
					"name": "isFriend",
					"outputs": [
						{
							"internalType": "bool",
							"name": "",
							"type": "bool"
						}
					],
					"stateMutability": "view",
					"type": "function"
				},
				{
					"inputs": [
						{
							"internalType": "address",
							"name": "_addr1",
							"type": "address"
						},
						{
							"internalType": "address",
							"name": "_addr2",
							"type": "address"
						}
					],
					"name": "remove",
					"outputs": [],
					"stateMutability": "nonpayable",
					"type": "function"
				},
				{
					"inputs": [
						{
							"internalType": "address",
							"name": "_addr1",
							"type": "address"
						},
						{
							"internalType": "address",
							"name": "_addr2",
							"type": "address"
						},
						{
							"internalType": "bool",
							"name": "set",
							"type": "bool"
						}
					],
					"name": "set",
					"outputs": [],
					"stateMutability": "nonpayable",
					"type": "function"
				}
			],
			"devdoc": {
				"kind": "dev",
				"methods": {},
				"version": 1
			},
			"evm": {
				"assembly": "    /* \"08. mapping.sol\":638:1181  contract NestedMapping {... */\n  mstore(0x40, 0x80)\n  callvalue\n  dup1\n  iszero\n  tag_1\n  jumpi\n  0x00\n  dup1\n  revert\ntag_1:\n  pop\n  dataSize(sub_0)\n  dup1\n  dataOffset(sub_0)\n  0x00\n  codecopy\n  0x00\n  return\nstop\n\nsub_0: assembly {\n        /* \"08. mapping.sol\":638:1181  contract NestedMapping {... */\n      mstore(0x40, 0x80)\n      callvalue\n      dup1\n      iszero\n      tag_1\n      jumpi\n      0x00\n      dup1\n      revert\n    tag_1:\n      pop\n      jumpi(tag_2, lt(calldatasize, 0x04))\n      shr(0xe0, calldataload(0x00))\n      dup1\n      0x13df916f\n      eq\n      tag_3\n      jumpi\n      dup1\n      0x2da5d42e\n      eq\n      tag_4\n      jumpi\n      dup1\n      0x7f7c1491\n      eq\n      tag_5\n      jumpi\n      dup1\n      0xd81e8423\n      eq\n      tag_6\n      jumpi\n    tag_2:\n      0x00\n      dup1\n      revert\n        /* \"08. mapping.sol\":931:1070  function set(... */\n    tag_3:\n      tag_7\n      0x04\n      dup1\n      calldatasize\n      sub\n      dup2\n      add\n      swap1\n      tag_8\n      swap2\n      swap1\n      tag_9\n      jump\t// in\n    tag_8:\n      tag_10\n      jump\t// in\n    tag_7:\n      stop\n        /* \"08. mapping.sol\":731:791  mapping(address => mapping(address => bool)) public isFriend */\n    tag_4:\n      tag_11\n      0x04\n      dup1\n      calldatasize\n      sub\n      dup2\n      add\n      swap1\n      tag_12\n      swap2\n      swap1\n      tag_13\n      jump\t// in\n    tag_12:\n      tag_14\n      jump\t// in\n    tag_11:\n      mload(0x40)\n      tag_15\n      swap2\n      swap1\n      tag_16\n      jump\t// in\n    tag_15:\n      mload(0x40)\n      dup1\n      swap2\n      sub\n      swap1\n      return\n        /* \"08. mapping.sol\":1076:1179  function remove(address _addr1, address _addr2) public {... */\n    tag_5:\n      tag_17\n      0x04\n      dup1\n      calldatasize\n      sub\n      dup2\n      add\n      swap1\n      tag_18\n      swap2\n      swap1\n      tag_13\n      jump\t// in\n    tag_18:\n      tag_19\n      jump\t// in\n    tag_17:\n      stop\n        /* \"08. mapping.sol\":798:925  function get(address _addr, address _addr2) public view returns (bool) {... */\n    tag_6:\n      tag_20\n      0x04\n      dup1\n      calldatasize\n      sub\n      dup2\n      add\n      swap1\n      tag_21\n      swap2\n      swap1\n      tag_13\n      jump\t// in\n    tag_21:\n      tag_22\n      jump\t// in\n    tag_20:\n      mload(0x40)\n      tag_23\n      swap2\n      swap1\n      tag_16\n      jump\t// in\n    tag_23:\n      mload(0x40)\n      dup1\n      swap2\n      sub\n      swap1\n      return\n        /* \"08. mapping.sol\":931:1070  function set(... */\n    tag_10:\n        /* \"08. mapping.sol\":1060:1063  set */\n      dup1\n        /* \"08. mapping.sol\":1033:1041  isFriend */\n      0x00\n        /* \"08. mapping.sol\":1033:1049  isFriend[_addr1] */\n      dup1\n        /* \"08. mapping.sol\":1042:1048  _addr1 */\n      dup6\n        /* \"08. mapping.sol\":1033:1049  isFriend[_addr1] */\n      0xffffffffffffffffffffffffffffffffffffffff\n      and\n      0xffffffffffffffffffffffffffffffffffffffff\n      and\n      dup2\n      mstore\n      0x20\n      add\n      swap1\n      dup2\n      mstore\n      0x20\n      add\n      0x00\n      keccak256\n        /* \"08. mapping.sol\":1033:1057  isFriend[_addr1][_addr2] */\n      0x00\n        /* \"08. mapping.sol\":1050:1056  _addr2 */\n      dup5\n        /* \"08. mapping.sol\":1033:1057  isFriend[_addr1][_addr2] */\n      0xffffffffffffffffffffffffffffffffffffffff\n      and\n      0xffffffffffffffffffffffffffffffffffffffff\n      and\n      dup2\n      mstore\n      0x20\n      add\n      swap1\n      dup2\n      mstore\n      0x20\n      add\n      0x00\n      keccak256\n      0x00\n        /* \"08. mapping.sol\":1033:1063  isFriend[_addr1][_addr2] = set */\n      0x0100\n      exp\n      dup2\n      sload\n      dup2\n      0xff\n      mul\n      not\n      and\n      swap1\n      dup4\n      iszero\n      iszero\n      mul\n      or\n      swap1\n      sstore\n      pop\n        /* \"08. mapping.sol\":931:1070  function set(... */\n      pop\n      pop\n      pop\n      jump\t// out\n        /* \"08. mapping.sol\":731:791  mapping(address => mapping(address => bool)) public isFriend */\n    tag_14:\n      mstore(0x20, 0x00)\n      dup2\n      0x00\n      mstore\n      mstore(0x20, keccak256(0x00, 0x40))\n      dup1\n      0x00\n      mstore\n      keccak256(0x00, 0x40)\n      0x00\n      swap2\n      pop\n      swap2\n      pop\n      swap1\n      sload\n      swap1\n      0x0100\n      exp\n      swap1\n      div\n      0xff\n      and\n      dup2\n      jump\t// out\n        /* \"08. mapping.sol\":1076:1179  function remove(address _addr1, address _addr2) public {... */\n    tag_19:\n        /* \"08. mapping.sol\":1148:1156  isFriend */\n      0x00\n        /* \"08. mapping.sol\":1148:1164  isFriend[_addr1] */\n      dup1\n        /* \"08. mapping.sol\":1157:1163  _addr1 */\n      dup4\n        /* \"08. mapping.sol\":1148:1164  isFriend[_addr1] */\n      0xffffffffffffffffffffffffffffffffffffffff\n      and\n      0xffffffffffffffffffffffffffffffffffffffff\n      and\n      dup2\n      mstore\n      0x20\n      add\n      swap1\n      dup2\n      mstore\n      0x20\n      add\n      0x00\n      keccak256\n        /* \"08. mapping.sol\":1148:1172  isFriend[_addr1][_addr2] */\n      0x00\n        /* \"08. mapping.sol\":1165:1171  _addr2 */\n      dup3\n        /* \"08. mapping.sol\":1148:1172  isFriend[_addr1][_addr2] */\n      0xffffffffffffffffffffffffffffffffffffffff\n      and\n      0xffffffffffffffffffffffffffffffffffffffff\n      and\n      dup2\n      mstore\n      0x20\n      add\n      swap1\n      dup2\n      mstore\n      0x20\n      add\n      0x00\n      keccak256\n      0x00\n        /* \"08. mapping.sol\":1141:1172  delete isFriend[_addr1][_addr2] */\n      0x0100\n      exp\n      dup2\n      sload\n      swap1\n      0xff\n      mul\n      not\n      and\n      swap1\n      sstore\n        /* \"08. mapping.sol\":1076:1179  function remove(address _addr1, address _addr2) public {... */\n      pop\n      pop\n      jump\t// out\n        /* \"08. mapping.sol\":798:925  function get(address _addr, address _addr2) public view returns (bool) {... */\n    tag_22:\n        /* \"08. mapping.sol\":863:867  bool */\n      0x00\n        /* \"08. mapping.sol\":886:894  isFriend */\n      dup1\n        /* \"08. mapping.sol\":886:910  isFriend[address(_addr)] */\n      0x00\n        /* \"08. mapping.sol\":903:908  _addr */\n      dup5\n        /* \"08. mapping.sol\":886:910  isFriend[address(_addr)] */\n      0xffffffffffffffffffffffffffffffffffffffff\n      and\n      0xffffffffffffffffffffffffffffffffffffffff\n      and\n      dup2\n      mstore\n      0x20\n      add\n      swap1\n      dup2\n      mstore\n      0x20\n      add\n      0x00\n      keccak256\n        /* \"08. mapping.sol\":886:918  isFriend[address(_addr)][_addr2] */\n      0x00\n        /* \"08. mapping.sol\":911:917  _addr2 */\n      dup4\n        /* \"08. mapping.sol\":886:918  isFriend[address(_addr)][_addr2] */\n      0xffffffffffffffffffffffffffffffffffffffff\n      and\n      0xffffffffffffffffffffffffffffffffffffffff\n      and\n      dup2\n      mstore\n      0x20\n      add\n      swap1\n      dup2\n      mstore\n      0x20\n      add\n      0x00\n      keccak256\n      0x00\n      swap1\n      sload\n      swap1\n      0x0100\n      exp\n      swap1\n      div\n      0xff\n      and\n        /* \"08. mapping.sol\":879:918  return isFriend[address(_addr)][_addr2] */\n      swap1\n      pop\n        /* \"08. mapping.sol\":798:925  function get(address _addr, address _addr2) public view returns (bool) {... */\n      swap3\n      swap2\n      pop\n      pop\n      jump\t// out\n        /* \"#utility.yul\":88:205   */\n    tag_28:\n        /* \"#utility.yul\":197:198   */\n      0x00\n        /* \"#utility.yul\":194:195   */\n      dup1\n        /* \"#utility.yul\":187:199   */\n      revert\n        /* \"#utility.yul\":334:460   */\n    tag_30:\n        /* \"#utility.yul\":371:378   */\n      0x00\n        /* \"#utility.yul\":411:453   */\n      0xffffffffffffffffffffffffffffffffffffffff\n        /* \"#utility.yul\":404:409   */\n      dup3\n        /* \"#utility.yul\":400:454   */\n      and\n        /* \"#utility.yul\":389:454   */\n      swap1\n      pop\n        /* \"#utility.yul\":334:460   */\n      swap2\n      swap1\n      pop\n      jump\t// out\n        /* \"#utility.yul\":466:562   */\n    tag_31:\n        /* \"#utility.yul\":503:510   */\n      0x00\n        /* \"#utility.yul\":532:556   */\n      tag_44\n        /* \"#utility.yul\":550:555   */\n      dup3\n        /* \"#utility.yul\":532:556   */\n      tag_30\n      jump\t// in\n    tag_44:\n        /* \"#utility.yul\":521:556   */\n      swap1\n      pop\n        /* \"#utility.yul\":466:562   */\n      swap2\n      swap1\n      pop\n      jump\t// out\n        /* \"#utility.yul\":568:690   */\n    tag_32:\n        /* \"#utility.yul\":641:665   */\n      tag_46\n        /* \"#utility.yul\":659:664   */\n      dup2\n        /* \"#utility.yul\":641:665   */\n      tag_31\n      jump\t// in\n    tag_46:\n        /* \"#utility.yul\":634:639   */\n      dup2\n        /* \"#utility.yul\":631:666   */\n      eq\n        /* \"#utility.yul\":621:684   */\n      tag_47\n      jumpi\n        /* \"#utility.yul\":680:681   */\n      0x00\n        /* \"#utility.yul\":677:678   */\n      dup1\n        /* \"#utility.yul\":670:682   */\n      revert\n        /* \"#utility.yul\":621:684   */\n    tag_47:\n        /* \"#utility.yul\":568:690   */\n      pop\n      jump\t// out\n        /* \"#utility.yul\":696:835   */\n    tag_33:\n        /* \"#utility.yul\":742:747   */\n      0x00\n        /* \"#utility.yul\":780:786   */\n      dup2\n        /* \"#utility.yul\":767:787   */\n      calldataload\n        /* \"#utility.yul\":758:787   */\n      swap1\n      pop\n        /* \"#utility.yul\":796:829   */\n      tag_49\n        /* \"#utility.yul\":823:828   */\n      dup2\n        /* \"#utility.yul\":796:829   */\n      tag_32\n      jump\t// in\n    tag_49:\n        /* \"#utility.yul\":696:835   */\n      swap3\n      swap2\n      pop\n      pop\n      jump\t// out\n        /* \"#utility.yul\":841:931   */\n    tag_34:\n        /* \"#utility.yul\":875:882   */\n      0x00\n        /* \"#utility.yul\":918:923   */\n      dup2\n        /* \"#utility.yul\":911:924   */\n      iszero\n        /* \"#utility.yul\":904:925   */\n      iszero\n        /* \"#utility.yul\":893:925   */\n      swap1\n      pop\n        /* \"#utility.yul\":841:931   */\n      swap2\n      swap1\n      pop\n      jump\t// out\n        /* \"#utility.yul\":937:1053   */\n    tag_35:\n        /* \"#utility.yul\":1007:1028   */\n      tag_52\n        /* \"#utility.yul\":1022:1027   */\n      dup2\n        /* \"#utility.yul\":1007:1028   */\n      tag_34\n      jump\t// in\n    tag_52:\n        /* \"#utility.yul\":1000:1005   */\n      dup2\n        /* \"#utility.yul\":997:1029   */\n      eq\n        /* \"#utility.yul\":987:1047   */\n      tag_53\n      jumpi\n        /* \"#utility.yul\":1043:1044   */\n      0x00\n        /* \"#utility.yul\":1040:1041   */\n      dup1\n        /* \"#utility.yul\":1033:1045   */\n      revert\n        /* \"#utility.yul\":987:1047   */\n    tag_53:\n        /* \"#utility.yul\":937:1053   */\n      pop\n      jump\t// out\n        /* \"#utility.yul\":1059:1192   */\n    tag_36:\n        /* \"#utility.yul\":1102:1107   */\n      0x00\n        /* \"#utility.yul\":1140:1146   */\n      dup2\n        /* \"#utility.yul\":1127:1147   */\n      calldataload\n        /* \"#utility.yul\":1118:1147   */\n      swap1\n      pop\n        /* \"#utility.yul\":1156:1186   */\n      tag_55\n        /* \"#utility.yul\":1180:1185   */\n      dup2\n        /* \"#utility.yul\":1156:1186   */\n      tag_35\n      jump\t// in\n    tag_55:\n        /* \"#utility.yul\":1059:1192   */\n      swap3\n      swap2\n      pop\n      pop\n      jump\t// out\n        /* \"#utility.yul\":1198:1811   */\n    tag_9:\n        /* \"#utility.yul\":1272:1278   */\n      0x00\n        /* \"#utility.yul\":1280:1286   */\n      dup1\n        /* \"#utility.yul\":1288:1294   */\n      0x00\n        /* \"#utility.yul\":1337:1339   */\n      0x60\n        /* \"#utility.yul\":1325:1334   */\n      dup5\n        /* \"#utility.yul\":1316:1323   */\n      dup7\n        /* \"#utility.yul\":1312:1335   */\n      sub\n        /* \"#utility.yul\":1308:1340   */\n      slt\n        /* \"#utility.yul\":1305:1424   */\n      iszero\n      tag_57\n      jumpi\n        /* \"#utility.yul\":1343:1422   */\n      tag_58\n      tag_28\n      jump\t// in\n    tag_58:\n        /* \"#utility.yul\":1305:1424   */\n    tag_57:\n        /* \"#utility.yul\":1463:1464   */\n      0x00\n        /* \"#utility.yul\":1488:1541   */\n      tag_59\n        /* \"#utility.yul\":1533:1540   */\n      dup7\n        /* \"#utility.yul\":1524:1530   */\n      dup3\n        /* \"#utility.yul\":1513:1522   */\n      dup8\n        /* \"#utility.yul\":1509:1531   */\n      add\n        /* \"#utility.yul\":1488:1541   */\n      tag_33\n      jump\t// in\n    tag_59:\n        /* \"#utility.yul\":1478:1541   */\n      swap4\n      pop\n        /* \"#utility.yul\":1434:1551   */\n      pop\n        /* \"#utility.yul\":1590:1592   */\n      0x20\n        /* \"#utility.yul\":1616:1669   */\n      tag_60\n        /* \"#utility.yul\":1661:1668   */\n      dup7\n        /* \"#utility.yul\":1652:1658   */\n      dup3\n        /* \"#utility.yul\":1641:1650   */\n      dup8\n        /* \"#utility.yul\":1637:1659   */\n      add\n        /* \"#utility.yul\":1616:1669   */\n      tag_33\n      jump\t// in\n    tag_60:\n        /* \"#utility.yul\":1606:1669   */\n      swap3\n      pop\n        /* \"#utility.yul\":1561:1679   */\n      pop\n        /* \"#utility.yul\":1718:1720   */\n      0x40\n        /* \"#utility.yul\":1744:1794   */\n      tag_61\n        /* \"#utility.yul\":1786:1793   */\n      dup7\n        /* \"#utility.yul\":1777:1783   */\n      dup3\n        /* \"#utility.yul\":1766:1775   */\n      dup8\n        /* \"#utility.yul\":1762:1784   */\n      add\n        /* \"#utility.yul\":1744:1794   */\n      tag_36\n      jump\t// in\n    tag_61:\n        /* \"#utility.yul\":1734:1794   */\n      swap2\n      pop\n        /* \"#utility.yul\":1689:1804   */\n      pop\n        /* \"#utility.yul\":1198:1811   */\n      swap3\n      pop\n      swap3\n      pop\n      swap3\n      jump\t// out\n        /* \"#utility.yul\":1817:2291   */\n    tag_13:\n        /* \"#utility.yul\":1885:1891   */\n      0x00\n        /* \"#utility.yul\":1893:1899   */\n      dup1\n        /* \"#utility.yul\":1942:1944   */\n      0x40\n        /* \"#utility.yul\":1930:1939   */\n      dup4\n        /* \"#utility.yul\":1921:1928   */\n      dup6\n        /* \"#utility.yul\":1917:1940   */\n      sub\n        /* \"#utility.yul\":1913:1945   */\n      slt\n        /* \"#utility.yul\":1910:2029   */\n      iszero\n      tag_63\n      jumpi\n        /* \"#utility.yul\":1948:2027   */\n      tag_64\n      tag_28\n      jump\t// in\n    tag_64:\n        /* \"#utility.yul\":1910:2029   */\n    tag_63:\n        /* \"#utility.yul\":2068:2069   */\n      0x00\n        /* \"#utility.yul\":2093:2146   */\n      tag_65\n        /* \"#utility.yul\":2138:2145   */\n      dup6\n        /* \"#utility.yul\":2129:2135   */\n      dup3\n        /* \"#utility.yul\":2118:2127   */\n      dup7\n        /* \"#utility.yul\":2114:2136   */\n      add\n        /* \"#utility.yul\":2093:2146   */\n      tag_33\n      jump\t// in\n    tag_65:\n        /* \"#utility.yul\":2083:2146   */\n      swap3\n      pop\n        /* \"#utility.yul\":2039:2156   */\n      pop\n        /* \"#utility.yul\":2195:2197   */\n      0x20\n        /* \"#utility.yul\":2221:2274   */\n      tag_66\n        /* \"#utility.yul\":2266:2273   */\n      dup6\n        /* \"#utility.yul\":2257:2263   */\n      dup3\n        /* \"#utility.yul\":2246:2255   */\n      dup7\n        /* \"#utility.yul\":2242:2264   */\n      add\n        /* \"#utility.yul\":2221:2274   */\n      tag_33\n      jump\t// in\n    tag_66:\n        /* \"#utility.yul\":2211:2274   */\n      swap2\n      pop\n        /* \"#utility.yul\":2166:2284   */\n      pop\n        /* \"#utility.yul\":1817:2291   */\n      swap3\n      pop\n      swap3\n      swap1\n      pop\n      jump\t// out\n        /* \"#utility.yul\":2297:2406   */\n    tag_37:\n        /* \"#utility.yul\":2378:2399   */\n      tag_68\n        /* \"#utility.yul\":2393:2398   */\n      dup2\n        /* \"#utility.yul\":2378:2399   */\n      tag_34\n      jump\t// in\n    tag_68:\n        /* \"#utility.yul\":2373:2376   */\n      dup3\n        /* \"#utility.yul\":2366:2400   */\n      mstore\n        /* \"#utility.yul\":2297:2406   */\n      pop\n      pop\n      jump\t// out\n        /* \"#utility.yul\":2412:2622   */\n    tag_16:\n        /* \"#utility.yul\":2499:2503   */\n      0x00\n        /* \"#utility.yul\":2537:2539   */\n      0x20\n        /* \"#utility.yul\":2526:2535   */\n      dup3\n        /* \"#utility.yul\":2522:2540   */\n      add\n        /* \"#utility.yul\":2514:2540   */\n      swap1\n      pop\n        /* \"#utility.yul\":2550:2615   */\n      tag_70\n        /* \"#utility.yul\":2612:2613   */\n      0x00\n        /* \"#utility.yul\":2601:2610   */\n      dup4\n        /* \"#utility.yul\":2597:2614   */\n      add\n        /* \"#utility.yul\":2588:2594   */\n      dup5\n        /* \"#utility.yul\":2550:2615   */\n      tag_37\n      jump\t// in\n    tag_70:\n        /* \"#utility.yul\":2412:2622   */\n      swap3\n      swap2\n      pop\n      pop\n      jump\t// out\n\n    auxdata: 0xa2646970667358221220743e8c4879925b8dfd017486b2b12dee4c4a3c92db1722b95f45bcfb4811748064736f6c63430008120033\n}\n",
				"bytecode": {
					"linkReferences": {},
					"object": "608060405234801561001057600080fd5b50610460806100206000396000f3fe608060405234801561001057600080fd5b506004361061004c5760003560e01c806313df916f146100515780632da5d42e1461006d5780637f7c14911461009d578063d81e8423146100b9575b600080fd5b61006b6004803603810190610066919061036d565b6100e9565b005b610087600480360381019061008291906103c0565b610181565b604051610094919061040f565b60405180910390f35b6100b760048036038101906100b291906103c0565b6101b0565b005b6100d360048036038101906100ce91906103c0565b61023f565b6040516100e0919061040f565b60405180910390f35b806000808573ffffffffffffffffffffffffffffffffffffffff1673ffffffffffffffffffffffffffffffffffffffff16815260200190815260200160002060008473ffffffffffffffffffffffffffffffffffffffff1673ffffffffffffffffffffffffffffffffffffffff16815260200190815260200160002060006101000a81548160ff021916908315150217905550505050565b60006020528160005260406000206020528060005260406000206000915091509054906101000a900460ff1681565b6000808373ffffffffffffffffffffffffffffffffffffffff1673ffffffffffffffffffffffffffffffffffffffff16815260200190815260200160002060008273ffffffffffffffffffffffffffffffffffffffff1673ffffffffffffffffffffffffffffffffffffffff16815260200190815260200160002060006101000a81549060ff02191690555050565b60008060008473ffffffffffffffffffffffffffffffffffffffff1673ffffffffffffffffffffffffffffffffffffffff16815260200190815260200160002060008373ffffffffffffffffffffffffffffffffffffffff1673ffffffffffffffffffffffffffffffffffffffff16815260200190815260200160002060009054906101000a900460ff16905092915050565b600080fd5b600073ffffffffffffffffffffffffffffffffffffffff82169050919050565b6000610302826102d7565b9050919050565b610312816102f7565b811461031d57600080fd5b50565b60008135905061032f81610309565b92915050565b60008115159050919050565b61034a81610335565b811461035557600080fd5b50565b60008135905061036781610341565b92915050565b600080600060608486031215610386576103856102d2565b5b600061039486828701610320565b93505060206103a586828701610320565b92505060406103b686828701610358565b9150509250925092565b600080604083850312156103d7576103d66102d2565b5b60006103e585828601610320565b92505060206103f685828601610320565b9150509250929050565b61040981610335565b82525050565b60006020820190506104246000830184610400565b9291505056fea2646970667358221220743e8c4879925b8dfd017486b2b12dee4c4a3c92db1722b95f45bcfb4811748064736f6c63430008120033",
					"opcodes": "PUSH1 0x80 PUSH1 0x40 MSTORE CALLVALUE DUP1 ISZERO PUSH2 0x10 JUMPI PUSH1 0x0 DUP1 REVERT JUMPDEST POP PUSH2 0x460 DUP1 PUSH2 0x20 PUSH1 0x0 CODECOPY PUSH1 0x0 RETURN INVALID PUSH1 0x80 PUSH1 0x40 MSTORE CALLVALUE DUP1 ISZERO PUSH2 0x10 JUMPI PUSH1 0x0 DUP1 REVERT JUMPDEST POP PUSH1 0x4 CALLDATASIZE LT PUSH2 0x4C JUMPI PUSH1 0x0 CALLDATALOAD PUSH1 0xE0 SHR DUP1 PUSH4 0x13DF916F EQ PUSH2 0x51 JUMPI DUP1 PUSH4 0x2DA5D42E EQ PUSH2 0x6D JUMPI DUP1 PUSH4 0x7F7C1491 EQ PUSH2 0x9D JUMPI DUP1 PUSH4 0xD81E8423 EQ PUSH2 0xB9 JUMPI JUMPDEST PUSH1 0x0 DUP1 REVERT JUMPDEST PUSH2 0x6B PUSH1 0x4 DUP1 CALLDATASIZE SUB DUP2 ADD SWAP1 PUSH2 0x66 SWAP2 SWAP1 PUSH2 0x36D JUMP JUMPDEST PUSH2 0xE9 JUMP JUMPDEST STOP JUMPDEST PUSH2 0x87 PUSH1 0x4 DUP1 CALLDATASIZE SUB DUP2 ADD SWAP1 PUSH2 0x82 SWAP2 SWAP1 PUSH2 0x3C0 JUMP JUMPDEST PUSH2 0x181 JUMP JUMPDEST PUSH1 0x40 MLOAD PUSH2 0x94 SWAP2 SWAP1 PUSH2 0x40F JUMP JUMPDEST PUSH1 0x40 MLOAD DUP1 SWAP2 SUB SWAP1 RETURN JUMPDEST PUSH2 0xB7 PUSH1 0x4 DUP1 CALLDATASIZE SUB DUP2 ADD SWAP1 PUSH2 0xB2 SWAP2 SWAP1 PUSH2 0x3C0 JUMP JUMPDEST PUSH2 0x1B0 JUMP JUMPDEST STOP JUMPDEST PUSH2 0xD3 PUSH1 0x4 DUP1 CALLDATASIZE SUB DUP2 ADD SWAP1 PUSH2 0xCE SWAP2 SWAP1 PUSH2 0x3C0 JUMP JUMPDEST PUSH2 0x23F JUMP JUMPDEST PUSH1 0x40 MLOAD PUSH2 0xE0 SWAP2 SWAP1 PUSH2 0x40F JUMP JUMPDEST PUSH1 0x40 MLOAD DUP1 SWAP2 SUB SWAP1 RETURN JUMPDEST DUP1 PUSH1 0x0 DUP1 DUP6 PUSH20 0xFFFFFFFFFFFFFFFFFFFFFFFFFFFFFFFFFFFFFFFF AND PUSH20 0xFFFFFFFFFFFFFFFFFFFFFFFFFFFFFFFFFFFFFFFF AND DUP2 MSTORE PUSH1 0x20 ADD SWAP1 DUP2 MSTORE PUSH1 0x20 ADD PUSH1 0x0 KECCAK256 PUSH1 0x0 DUP5 PUSH20 0xFFFFFFFFFFFFFFFFFFFFFFFFFFFFFFFFFFFFFFFF AND PUSH20 0xFFFFFFFFFFFFFFFFFFFFFFFFFFFFFFFFFFFFFFFF AND DUP2 MSTORE PUSH1 0x20 ADD SWAP1 DUP2 MSTORE PUSH1 0x20 ADD PUSH1 0x0 KECCAK256 PUSH1 0x0 PUSH2 0x100 EXP DUP2 SLOAD DUP2 PUSH1 0xFF MUL NOT AND SWAP1 DUP4 ISZERO ISZERO MUL OR SWAP1 SSTORE POP POP POP POP JUMP JUMPDEST PUSH1 0x0 PUSH1 0x20 MSTORE DUP2 PUSH1 0x0 MSTORE PUSH1 0x40 PUSH1 0x0 KECCAK256 PUSH1 0x20 MSTORE DUP1 PUSH1 0x0 MSTORE PUSH1 0x40 PUSH1 0x0 KECCAK256 PUSH1 0x0 SWAP2 POP SWAP2 POP SWAP1 SLOAD SWAP1 PUSH2 0x100 EXP SWAP1 DIV PUSH1 0xFF AND DUP2 JUMP JUMPDEST PUSH1 0x0 DUP1 DUP4 PUSH20 0xFFFFFFFFFFFFFFFFFFFFFFFFFFFFFFFFFFFFFFFF AND PUSH20 0xFFFFFFFFFFFFFFFFFFFFFFFFFFFFFFFFFFFFFFFF AND DUP2 MSTORE PUSH1 0x20 ADD SWAP1 DUP2 MSTORE PUSH1 0x20 ADD PUSH1 0x0 KECCAK256 PUSH1 0x0 DUP3 PUSH20 0xFFFFFFFFFFFFFFFFFFFFFFFFFFFFFFFFFFFFFFFF AND PUSH20 0xFFFFFFFFFFFFFFFFFFFFFFFFFFFFFFFFFFFFFFFF AND DUP2 MSTORE PUSH1 0x20 ADD SWAP1 DUP2 MSTORE PUSH1 0x20 ADD PUSH1 0x0 KECCAK256 PUSH1 0x0 PUSH2 0x100 EXP DUP2 SLOAD SWAP1 PUSH1 0xFF MUL NOT AND SWAP1 SSTORE POP POP JUMP JUMPDEST PUSH1 0x0 DUP1 PUSH1 0x0 DUP5 PUSH20 0xFFFFFFFFFFFFFFFFFFFFFFFFFFFFFFFFFFFFFFFF AND PUSH20 0xFFFFFFFFFFFFFFFFFFFFFFFFFFFFFFFFFFFFFFFF AND DUP2 MSTORE PUSH1 0x20 ADD SWAP1 DUP2 MSTORE PUSH1 0x20 ADD PUSH1 0x0 KECCAK256 PUSH1 0x0 DUP4 PUSH20 0xFFFFFFFFFFFFFFFFFFFFFFFFFFFFFFFFFFFFFFFF AND PUSH20 0xFFFFFFFFFFFFFFFFFFFFFFFFFFFFFFFFFFFFFFFF AND DUP2 MSTORE PUSH1 0x20 ADD SWAP1 DUP2 MSTORE PUSH1 0x20 ADD PUSH1 0x0 KECCAK256 PUSH1 0x0 SWAP1 SLOAD SWAP1 PUSH2 0x100 EXP SWAP1 DIV PUSH1 0xFF AND SWAP1 POP SWAP3 SWAP2 POP POP JUMP JUMPDEST PUSH1 0x0 DUP1 REVERT JUMPDEST PUSH1 0x0 PUSH20 0xFFFFFFFFFFFFFFFFFFFFFFFFFFFFFFFFFFFFFFFF DUP3 AND SWAP1 POP SWAP2 SWAP1 POP JUMP JUMPDEST PUSH1 0x0 PUSH2 0x302 DUP3 PUSH2 0x2D7 JUMP JUMPDEST SWAP1 POP SWAP2 SWAP1 POP JUMP JUMPDEST PUSH2 0x312 DUP2 PUSH2 0x2F7 JUMP JUMPDEST DUP2 EQ PUSH2 0x31D JUMPI PUSH1 0x0 DUP1 REVERT JUMPDEST POP JUMP JUMPDEST PUSH1 0x0 DUP2 CALLDATALOAD SWAP1 POP PUSH2 0x32F DUP2 PUSH2 0x309 JUMP JUMPDEST SWAP3 SWAP2 POP POP JUMP JUMPDEST PUSH1 0x0 DUP2 ISZERO ISZERO SWAP1 POP SWAP2 SWAP1 POP JUMP JUMPDEST PUSH2 0x34A DUP2 PUSH2 0x335 JUMP JUMPDEST DUP2 EQ PUSH2 0x355 JUMPI PUSH1 0x0 DUP1 REVERT JUMPDEST POP JUMP JUMPDEST PUSH1 0x0 DUP2 CALLDATALOAD SWAP1 POP PUSH2 0x367 DUP2 PUSH2 0x341 JUMP JUMPDEST SWAP3 SWAP2 POP POP JUMP JUMPDEST PUSH1 0x0 DUP1 PUSH1 0x0 PUSH1 0x60 DUP5 DUP7 SUB SLT ISZERO PUSH2 0x386 JUMPI PUSH2 0x385 PUSH2 0x2D2 JUMP JUMPDEST JUMPDEST PUSH1 0x0 PUSH2 0x394 DUP7 DUP3 DUP8 ADD PUSH2 0x320 JUMP JUMPDEST SWAP4 POP POP PUSH1 0x20 PUSH2 0x3A5 DUP7 DUP3 DUP8 ADD PUSH2 0x320 JUMP JUMPDEST SWAP3 POP POP PUSH1 0x40 PUSH2 0x3B6 DUP7 DUP3 DUP8 ADD PUSH2 0x358 JUMP JUMPDEST SWAP2 POP POP SWAP3 POP SWAP3 POP SWAP3 JUMP JUMPDEST PUSH1 0x0 DUP1 PUSH1 0x40 DUP4 DUP6 SUB SLT ISZERO PUSH2 0x3D7 JUMPI PUSH2 0x3D6 PUSH2 0x2D2 JUMP JUMPDEST JUMPDEST PUSH1 0x0 PUSH2 0x3E5 DUP6 DUP3 DUP7 ADD PUSH2 0x320 JUMP JUMPDEST SWAP3 POP POP PUSH1 0x20 PUSH2 0x3F6 DUP6 DUP3 DUP7 ADD PUSH2 0x320 JUMP JUMPDEST SWAP2 POP POP SWAP3 POP SWAP3 SWAP1 POP JUMP JUMPDEST PUSH2 0x409 DUP2 PUSH2 0x335 JUMP JUMPDEST DUP3 MSTORE POP POP JUMP JUMPDEST PUSH1 0x0 PUSH1 0x20 DUP3 ADD SWAP1 POP PUSH2 0x424 PUSH1 0x0 DUP4 ADD DUP5 PUSH2 0x400 JUMP JUMPDEST SWAP3 SWAP2 POP POP JUMP INVALID LOG2 PUSH5 0x6970667358 0x22 SLT KECCAK256 PUSH21 0x3E8C4879925B8DFD017486B2B12DEE4C4A3C92DB17 0x22 0xB9 0x5F GASLIMIT 0xBC 0xFB BASEFEE GT PUSH21 0x8064736F6C63430008120033000000000000000000 "
				},
				"gasEstimates": {
					"creation": {
						"codeDepositCost": "224000",
						"executionCost": "263",
						"totalCost": "224263"
					},
					"external": {
						"get(address,address)": "infinite",
						"isFriend(address,address)": "infinite",
						"remove(address,address)": "infinite",
						"set(address,address,bool)": "infinite"
					}
				},
				"methodIdentifiers": {
					"get(address,address)": "d81e8423",
					"isFriend(address,address)": "2da5d42e",
					"remove(address,address)": "7f7c1491",
					"set(address,address,bool)": "13df916f"
				}
			},
			"storageLayout": {
				"storage": [
					{
						"astId": 49,
						"contract": "08. mapping.sol:NestedMapping",
						"label": "isFriend",
						"offset": 0,
						"slot": "0",
						"type": "t_mapping(t_address,t_mapping(t_address,t_bool))"
					}
				],
				"types": {
					"t_address": {
						"encoding": "inplace",
						"label": "address",
						"numberOfBytes": "20"
					},
					"t_bool": {
						"encoding": "inplace",
						"label": "bool",
						"numberOfBytes": "1"
					},
					"t_mapping(t_address,t_bool)": {
						"encoding": "mapping",
						"key": "t_address",
						"label": "mapping(address => bool)",
						"numberOfBytes": "32",
						"value": "t_bool"
					},
					"t_mapping(t_address,t_mapping(t_address,t_bool))": {
						"encoding": "mapping",
						"key": "t_address",
						"label": "mapping(address => mapping(address => bool))",
						"numberOfBytes": "32",
						"value": "t_mapping(t_address,t_bool)"
					}
				}
			},
			"userdoc": {
				"kind": "user",
				"methods": {},
				"version": 1
			}
		}
	}
}