{
	"20. call.sol": {
		"Caller": {
			"abi": [
				{
					"anonymous": false,
					"inputs": [
						{
							"indexed": false,
							"internalType": "bool",
							"name": "success",
							"type": "bool"
						},
						{
							"indexed": false,
							"internalType": "bytes",
							"name": "data",
							"type": "bytes"
						}
					],
					"name": "Response",
					"type": "event"
				},
				{
					"inputs": [
						{
							"internalType": "address payable",
							"name": "_addr",
							"type": "address"
						}
					],
					"name": "testCallDoesNotExist",
					"outputs": [],
					"stateMutability": "payable",
					"type": "function"
				},
				{
					"inputs": [
						{
							"internalType": "address payable",
							"name": "_addr",
							"type": "address"
						}
					],
					"name": "testCallFoo",
					"outputs": [],
					"stateMutability": "payable",
					"type": "function"
				}
			],
			"devdoc": {
				"kind": "dev",
				"methods": {},
				"version": 1
			},
			"evm": {
				"assembly": "    /* \"20. call.sol\":644:2528  contract Caller {... */\n  mstore(0x40, 0x80)\n  callvalue\n  dup1\n  iszero\n  tag_1\n  jumpi\n  0x00\n  dup1\n  revert\ntag_1:\n  pop\n  dataSize(sub_0)\n  dup1\n  dataOffset(sub_0)\n  0x00\n  codecopy\n  0x00\n  return\nstop\n\nsub_0: assembly {\n        /* \"20. call.sol\":644:2528  contract Caller {... */\n      mstore(0x40, 0x80)\n      jumpi(tag_1, lt(calldatasize, 0x04))\n      shr(0xe0, calldataload(0x00))\n      dup1\n      0x87ba6179\n      eq\n      tag_2\n      jumpi\n      dup1\n      0xff00726c\n      eq\n      tag_3\n      jumpi\n    tag_1:\n      0x00\n      dup1\n      revert\n        /* \"20. call.sol\":1774:2189  function testCallFoo(address payable _addr) public payable {... */\n    tag_2:\n      tag_4\n      0x04\n      dup1\n      calldatasize\n      sub\n      dup2\n      add\n      swap1\n      tag_5\n      swap2\n      swap1\n      tag_6\n      jump\t// in\n    tag_5:\n      tag_7\n      jump\t// in\n    tag_4:\n      stop\n        /* \"20. call.sol\":2273:2526  function testCallDoesNotExist(address payable _addr) public payable {... */\n    tag_3:\n      tag_8\n      0x04\n      dup1\n      calldatasize\n      sub\n      dup2\n      add\n      swap1\n      tag_9\n      swap2\n      swap1\n      tag_6\n      jump\t// in\n    tag_9:\n      tag_10\n      jump\t// in\n    tag_8:\n      stop\n        /* \"20. call.sol\":1774:2189  function testCallFoo(address payable _addr) public payable {... */\n    tag_7:\n        /* \"20. call.sol\":1986:1998  bool success */\n      0x00\n        /* \"20. call.sol\":2000:2017  bytes memory data */\n      dup1\n        /* \"20. call.sol\":2021:2026  _addr */\n      dup3\n        /* \"20. call.sol\":2021:2031  _addr.call */\n      0xffffffffffffffffffffffffffffffffffffffff\n      and\n        /* \"20. call.sol\":2039:2043  1000 */\n      0x03e8\n        /* \"20. call.sol\":2050:2055  50000 */\n      0xc350\n        /* \"20. call.sol\":2021:2143  _addr.call{value: 1000, gas: 50000}(... */\n      swap1\n        /* \"20. call.sol\":2129:2132  123 */\n      0x7b\n        /* \"20. call.sol\":2070:2133  abi.encodeWithSignature(\"foo(string,uint256)\", \"call foo\", 123) */\n      add(0x24, mload(0x40))\n      tag_12\n      swap2\n      swap1\n      tag_13\n      jump\t// in\n    tag_12:\n      mload(0x40)\n      0x20\n      dup2\n      dup4\n      sub\n      sub\n      dup2\n      mstore\n      swap1\n      0x40\n      mstore\n      and(not(0xffffffffffffffffffffffffffffffffffffffffffffffffffffffff), 0x24ccab8f00000000000000000000000000000000000000000000000000000000)\n      0x20\n      dup3\n      add\n      dup1\n      mload\n      0xffffffffffffffffffffffffffffffffffffffffffffffffffffffff\n      dup4\n      dup2\n      dup4\n      and\n      or\n      dup4\n      mstore\n      pop\n      pop\n      pop\n      pop\n        /* \"20. call.sol\":2021:2143  _addr.call{value: 1000, gas: 50000}(... */\n      mload(0x40)\n      tag_14\n      swap2\n      swap1\n      tag_15\n      jump\t// in\n    tag_14:\n      0x00\n      mload(0x40)\n      dup1\n      dup4\n      sub\n      dup2\n      dup6\n      dup9\n      dup9\n      call\n      swap4\n      pop\n      pop\n      pop\n      pop\n      returndatasize\n      dup1\n      0x00\n      dup2\n      eq\n      tag_18\n      jumpi\n      mload(0x40)\n      swap2\n      pop\n      and(add(returndatasize, 0x3f), not(0x1f))\n      dup3\n      add\n      0x40\n      mstore\n      returndatasize\n      dup3\n      mstore\n      returndatasize\n      0x00\n      0x20\n      dup5\n      add\n      returndatacopy\n      jump(tag_17)\n    tag_18:\n      0x60\n      swap2\n      pop\n    tag_17:\n      pop\n        /* \"20. call.sol\":1985:2143  (bool success, bytes memory data) = _addr.call{value: 1000, gas: 50000}(... */\n      swap2\n      pop\n      swap2\n      pop\n        /* \"20. call.sol\":2159:2182  Response(success, data) */\n      0x13848c3e38f8886f3f5d2ad9dff80d8092c2bbb8efd5b887a99c2c6cfc09ac2a\n        /* \"20. call.sol\":2168:2175  success */\n      dup3\n        /* \"20. call.sol\":2177:2181  data */\n      dup3\n        /* \"20. call.sol\":2159:2182  Response(success, data) */\n      mload(0x40)\n      tag_19\n      swap3\n      swap2\n      swap1\n      tag_20\n      jump\t// in\n    tag_19:\n      mload(0x40)\n      dup1\n      swap2\n      sub\n      swap1\n      log1\n        /* \"20. call.sol\":1833:2189  {... */\n      pop\n      pop\n        /* \"20. call.sol\":1774:2189  function testCallFoo(address payable _addr) public payable {... */\n      pop\n      jump\t// out\n        /* \"20. call.sol\":2273:2526  function testCallDoesNotExist(address payable _addr) public payable {... */\n    tag_10:\n        /* \"20. call.sol\":2352:2364  bool success */\n      0x00\n        /* \"20. call.sol\":2366:2383  bytes memory data */\n      dup1\n        /* \"20. call.sol\":2387:2392  _addr */\n      dup3\n        /* \"20. call.sol\":2387:2397  _addr.call */\n      0xffffffffffffffffffffffffffffffffffffffff\n      and\n        /* \"20. call.sol\":2405:2414  msg.value */\n      callvalue\n        /* \"20. call.sol\":2429:2470  abi.encodeWithSignature(\"doesNotExist()\") */\n      add(0x24, mload(0x40))\n      mload(0x40)\n      0x20\n      dup2\n      dup4\n      sub\n      sub\n      dup2\n      mstore\n      swap1\n      0x40\n      mstore\n      and(not(0xffffffffffffffffffffffffffffffffffffffffffffffffffffffff), 0x1dcc85ae00000000000000000000000000000000000000000000000000000000)\n      0x20\n      dup3\n      add\n      dup1\n      mload\n      0xffffffffffffffffffffffffffffffffffffffffffffffffffffffff\n      dup4\n      dup2\n      dup4\n      and\n      or\n      dup4\n      mstore\n      pop\n      pop\n      pop\n      pop\n        /* \"20. call.sol\":2387:2480  _addr.call{value: msg.value}(... */\n      mload(0x40)\n      tag_22\n      swap2\n      swap1\n      tag_15\n      jump\t// in\n    tag_22:\n      0x00\n      mload(0x40)\n      dup1\n      dup4\n      sub\n      dup2\n      dup6\n      dup8\n      gas\n      call\n      swap3\n      pop\n      pop\n      pop\n      returndatasize\n      dup1\n      0x00\n      dup2\n      eq\n      tag_25\n      jumpi\n      mload(0x40)\n      swap2\n      pop\n      and(add(returndatasize, 0x3f), not(0x1f))\n      dup3\n      add\n      0x40\n      mstore\n      returndatasize\n      dup3\n      mstore\n      returndatasize\n      0x00\n      0x20\n      dup5\n      add\n      returndatacopy\n      jump(tag_24)\n    tag_25:\n      0x60\n      swap2\n      pop\n    tag_24:\n      pop\n        /* \"20. call.sol\":2351:2480  (bool success, bytes memory data) = _addr.call{value: msg.value}(... */\n      swap2\n      pop\n      swap2\n      pop\n        /* \"20. call.sol\":2496:2519  Response(success, data) */\n      0x13848c3e38f8886f3f5d2ad9dff80d8092c2bbb8efd5b887a99c2c6cfc09ac2a\n        /* \"20. call.sol\":2505:2512  success */\n      dup3\n        /* \"20. call.sol\":2514:2518  data */\n      dup3\n        /* \"20. call.sol\":2496:2519  Response(success, data) */\n      mload(0x40)\n      tag_26\n      swap3\n      swap2\n      swap1\n      tag_20\n      jump\t// in\n    tag_26:\n      mload(0x40)\n      dup1\n      swap2\n      sub\n      swap1\n      log1\n        /* \"20. call.sol\":2341:2526  {... */\n      pop\n      pop\n        /* \"20. call.sol\":2273:2526  function testCallDoesNotExist(address payable _addr) public payable {... */\n      pop\n      jump\t// out\n        /* \"#utility.yul\":88:205   */\n    tag_28:\n        /* \"#utility.yul\":197:198   */\n      0x00\n        /* \"#utility.yul\":194:195   */\n      dup1\n        /* \"#utility.yul\":187:199   */\n      revert\n        /* \"#utility.yul\":334:460   */\n    tag_30:\n        /* \"#utility.yul\":371:378   */\n      0x00\n        /* \"#utility.yul\":411:453   */\n      0xffffffffffffffffffffffffffffffffffffffff\n        /* \"#utility.yul\":404:409   */\n      dup3\n        /* \"#utility.yul\":400:454   */\n      and\n        /* \"#utility.yul\":389:454   */\n      swap1\n      pop\n        /* \"#utility.yul\":334:460   */\n      swap2\n      swap1\n      pop\n      jump\t// out\n        /* \"#utility.yul\":466:570   */\n    tag_31:\n        /* \"#utility.yul\":511:518   */\n      0x00\n        /* \"#utility.yul\":540:564   */\n      tag_57\n        /* \"#utility.yul\":558:563   */\n      dup3\n        /* \"#utility.yul\":540:564   */\n      tag_30\n      jump\t// in\n    tag_57:\n        /* \"#utility.yul\":529:564   */\n      swap1\n      pop\n        /* \"#utility.yul\":466:570   */\n      swap2\n      swap1\n      pop\n      jump\t// out\n        /* \"#utility.yul\":576:714   */\n    tag_32:\n        /* \"#utility.yul\":657:689   */\n      tag_59\n        /* \"#utility.yul\":683:688   */\n      dup2\n        /* \"#utility.yul\":657:689   */\n      tag_31\n      jump\t// in\n    tag_59:\n        /* \"#utility.yul\":650:655   */\n      dup2\n        /* \"#utility.yul\":647:690   */\n      eq\n        /* \"#utility.yul\":637:708   */\n      tag_60\n      jumpi\n        /* \"#utility.yul\":704:705   */\n      0x00\n        /* \"#utility.yul\":701:702   */\n      dup1\n        /* \"#utility.yul\":694:706   */\n      revert\n        /* \"#utility.yul\":637:708   */\n    tag_60:\n        /* \"#utility.yul\":576:714   */\n      pop\n      jump\t// out\n        /* \"#utility.yul\":720:875   */\n    tag_33:\n        /* \"#utility.yul\":774:779   */\n      0x00\n        /* \"#utility.yul\":812:818   */\n      dup2\n        /* \"#utility.yul\":799:819   */\n      calldataload\n        /* \"#utility.yul\":790:819   */\n      swap1\n      pop\n        /* \"#utility.yul\":828:869   */\n      tag_62\n        /* \"#utility.yul\":863:868   */\n      dup2\n        /* \"#utility.yul\":828:869   */\n      tag_32\n      jump\t// in\n    tag_62:\n        /* \"#utility.yul\":720:875   */\n      swap3\n      swap2\n      pop\n      pop\n      jump\t// out\n        /* \"#utility.yul\":881:1226   */\n    tag_6:\n        /* \"#utility.yul\":948:954   */\n      0x00\n        /* \"#utility.yul\":997:999   */\n      0x20\n        /* \"#utility.yul\":985:994   */\n      dup3\n        /* \"#utility.yul\":976:983   */\n      dup5\n        /* \"#utility.yul\":972:995   */\n      sub\n        /* \"#utility.yul\":968:1000   */\n      slt\n        /* \"#utility.yul\":965:1084   */\n      iszero\n      tag_64\n      jumpi\n        /* \"#utility.yul\":1003:1082   */\n      tag_65\n      tag_28\n      jump\t// in\n    tag_65:\n        /* \"#utility.yul\":965:1084   */\n    tag_64:\n        /* \"#utility.yul\":1123:1124   */\n      0x00\n        /* \"#utility.yul\":1148:1209   */\n      tag_66\n        /* \"#utility.yul\":1201:1208   */\n      dup5\n        /* \"#utility.yul\":1192:1198   */\n      dup3\n        /* \"#utility.yul\":1181:1190   */\n      dup6\n        /* \"#utility.yul\":1177:1199   */\n      add\n        /* \"#utility.yul\":1148:1209   */\n      tag_33\n      jump\t// in\n    tag_66:\n        /* \"#utility.yul\":1138:1209   */\n      swap2\n      pop\n        /* \"#utility.yul\":1094:1219   */\n      pop\n        /* \"#utility.yul\":881:1226   */\n      swap3\n      swap2\n      pop\n      pop\n      jump\t// out\n        /* \"#utility.yul\":1232:1401   */\n    tag_34:\n        /* \"#utility.yul\":1316:1327   */\n      0x00\n        /* \"#utility.yul\":1350:1356   */\n      dup3\n        /* \"#utility.yul\":1345:1348   */\n      dup3\n        /* \"#utility.yul\":1338:1357   */\n      mstore\n        /* \"#utility.yul\":1390:1394   */\n      0x20\n        /* \"#utility.yul\":1385:1388   */\n      dup3\n        /* \"#utility.yul\":1381:1395   */\n      add\n        /* \"#utility.yul\":1366:1395   */\n      swap1\n      pop\n        /* \"#utility.yul\":1232:1401   */\n      swap3\n      swap2\n      pop\n      pop\n      jump\t// out\n        /* \"#utility.yul\":1407:1565   */\n    tag_35:\n        /* \"#utility.yul\":1547:1557   */\n      0x63616c6c20666f6f000000000000000000000000000000000000000000000000\n        /* \"#utility.yul\":1543:1544   */\n      0x00\n        /* \"#utility.yul\":1535:1541   */\n      dup3\n        /* \"#utility.yul\":1531:1545   */\n      add\n        /* \"#utility.yul\":1524:1558   */\n      mstore\n        /* \"#utility.yul\":1407:1565   */\n      pop\n      jump\t// out\n        /* \"#utility.yul\":1571:1936   */\n    tag_36:\n        /* \"#utility.yul\":1713:1716   */\n      0x00\n        /* \"#utility.yul\":1734:1800   */\n      tag_70\n        /* \"#utility.yul\":1798:1799   */\n      0x08\n        /* \"#utility.yul\":1793:1796   */\n      dup4\n        /* \"#utility.yul\":1734:1800   */\n      tag_34\n      jump\t// in\n    tag_70:\n        /* \"#utility.yul\":1727:1800   */\n      swap2\n      pop\n        /* \"#utility.yul\":1809:1902   */\n      tag_71\n        /* \"#utility.yul\":1898:1901   */\n      dup3\n        /* \"#utility.yul\":1809:1902   */\n      tag_35\n      jump\t// in\n    tag_71:\n        /* \"#utility.yul\":1927:1929   */\n      0x20\n        /* \"#utility.yul\":1922:1925   */\n      dup3\n        /* \"#utility.yul\":1918:1930   */\n      add\n        /* \"#utility.yul\":1911:1930   */\n      swap1\n      pop\n        /* \"#utility.yul\":1571:1936   */\n      swap2\n      swap1\n      pop\n      jump\t// out\n        /* \"#utility.yul\":1942:2029   */\n    tag_37:\n        /* \"#utility.yul\":1989:1996   */\n      0x00\n        /* \"#utility.yul\":2018:2023   */\n      dup2\n        /* \"#utility.yul\":2007:2023   */\n      swap1\n      pop\n        /* \"#utility.yul\":1942:2029   */\n      swap2\n      swap1\n      pop\n      jump\t// out\n        /* \"#utility.yul\":2035:2121   */\n    tag_38:\n        /* \"#utility.yul\":2070:2077   */\n      0x00\n        /* \"#utility.yul\":2110:2114   */\n      0xff\n        /* \"#utility.yul\":2103:2108   */\n      dup3\n        /* \"#utility.yul\":2099:2115   */\n      and\n        /* \"#utility.yul\":2088:2115   */\n      swap1\n      pop\n        /* \"#utility.yul\":2035:2121   */\n      swap2\n      swap1\n      pop\n      jump\t// out\n        /* \"#utility.yul\":2127:2187   */\n    tag_39:\n        /* \"#utility.yul\":2155:2158   */\n      0x00\n        /* \"#utility.yul\":2176:2181   */\n      dup2\n        /* \"#utility.yul\":2169:2181   */\n      swap1\n      pop\n        /* \"#utility.yul\":2127:2187   */\n      swap2\n      swap1\n      pop\n      jump\t// out\n        /* \"#utility.yul\":2193:2351   */\n    tag_40:\n        /* \"#utility.yul\":2251:2260   */\n      0x00\n        /* \"#utility.yul\":2284:2345   */\n      tag_76\n        /* \"#utility.yul\":2300:2344   */\n      tag_77\n        /* \"#utility.yul\":2309:2343   */\n      tag_78\n        /* \"#utility.yul\":2337:2342   */\n      dup5\n        /* \"#utility.yul\":2309:2343   */\n      tag_37\n      jump\t// in\n    tag_78:\n        /* \"#utility.yul\":2300:2344   */\n      tag_39\n      jump\t// in\n    tag_77:\n        /* \"#utility.yul\":2284:2345   */\n      tag_38\n      jump\t// in\n    tag_76:\n        /* \"#utility.yul\":2271:2345   */\n      swap1\n      pop\n        /* \"#utility.yul\":2193:2351   */\n      swap2\n      swap1\n      pop\n      jump\t// out\n        /* \"#utility.yul\":2357:2504   */\n    tag_41:\n        /* \"#utility.yul\":2452:2497   */\n      tag_80\n        /* \"#utility.yul\":2491:2496   */\n      dup2\n        /* \"#utility.yul\":2452:2497   */\n      tag_40\n      jump\t// in\n    tag_80:\n        /* \"#utility.yul\":2447:2450   */\n      dup3\n        /* \"#utility.yul\":2440:2498   */\n      mstore\n        /* \"#utility.yul\":2357:2504   */\n      pop\n      pop\n      jump\t// out\n        /* \"#utility.yul\":2510:3055   */\n    tag_13:\n        /* \"#utility.yul\":2712:2716   */\n      0x00\n        /* \"#utility.yul\":2750:2752   */\n      0x40\n        /* \"#utility.yul\":2739:2748   */\n      dup3\n        /* \"#utility.yul\":2735:2753   */\n      add\n        /* \"#utility.yul\":2727:2753   */\n      swap1\n      pop\n        /* \"#utility.yul\":2799:2808   */\n      dup2\n        /* \"#utility.yul\":2793:2797   */\n      dup2\n        /* \"#utility.yul\":2789:2809   */\n      sub\n        /* \"#utility.yul\":2785:2786   */\n      0x00\n        /* \"#utility.yul\":2774:2783   */\n      dup4\n        /* \"#utility.yul\":2770:2787   */\n      add\n        /* \"#utility.yul\":2763:2810   */\n      mstore\n        /* \"#utility.yul\":2827:2958   */\n      tag_82\n        /* \"#utility.yul\":2953:2957   */\n      dup2\n        /* \"#utility.yul\":2827:2958   */\n      tag_36\n      jump\t// in\n    tag_82:\n        /* \"#utility.yul\":2819:2958   */\n      swap1\n      pop\n        /* \"#utility.yul\":2968:3048   */\n      tag_83\n        /* \"#utility.yul\":3044:3046   */\n      0x20\n        /* \"#utility.yul\":3033:3042   */\n      dup4\n        /* \"#utility.yul\":3029:3047   */\n      add\n        /* \"#utility.yul\":3020:3026   */\n      dup5\n        /* \"#utility.yul\":2968:3048   */\n      tag_41\n      jump\t// in\n    tag_83:\n        /* \"#utility.yul\":2510:3055   */\n      swap3\n      swap2\n      pop\n      pop\n      jump\t// out\n        /* \"#utility.yul\":3061:3159   */\n    tag_42:\n        /* \"#utility.yul\":3112:3118   */\n      0x00\n        /* \"#utility.yul\":3146:3151   */\n      dup2\n        /* \"#utility.yul\":3140:3152   */\n      mload\n        /* \"#utility.yul\":3130:3152   */\n      swap1\n      pop\n        /* \"#utility.yul\":3061:3159   */\n      swap2\n      swap1\n      pop\n      jump\t// out\n        /* \"#utility.yul\":3165:3312   */\n    tag_43:\n        /* \"#utility.yul\":3266:3277   */\n      0x00\n        /* \"#utility.yul\":3303:3306   */\n      dup2\n        /* \"#utility.yul\":3288:3306   */\n      swap1\n      pop\n        /* \"#utility.yul\":3165:3312   */\n      swap3\n      swap2\n      pop\n      pop\n      jump\t// out\n        /* \"#utility.yul\":3318:3564   */\n    tag_44:\n        /* \"#utility.yul\":3399:3400   */\n      0x00\n        /* \"#utility.yul\":3409:3522   */\n    tag_87:\n        /* \"#utility.yul\":3423:3429   */\n      dup4\n        /* \"#utility.yul\":3420:3421   */\n      dup2\n        /* \"#utility.yul\":3417:3430   */\n      lt\n        /* \"#utility.yul\":3409:3522   */\n      iszero\n      tag_89\n      jumpi\n        /* \"#utility.yul\":3508:3509   */\n      dup1\n        /* \"#utility.yul\":3503:3506   */\n      dup3\n        /* \"#utility.yul\":3499:3510   */\n      add\n        /* \"#utility.yul\":3493:3511   */\n      mload\n        /* \"#utility.yul\":3489:3490   */\n      dup2\n        /* \"#utility.yul\":3484:3487   */\n      dup5\n        /* \"#utility.yul\":3480:3491   */\n      add\n        /* \"#utility.yul\":3473:3512   */\n      mstore\n        /* \"#utility.yul\":3445:3447   */\n      0x20\n        /* \"#utility.yul\":3442:3443   */\n      dup2\n        /* \"#utility.yul\":3438:3448   */\n      add\n        /* \"#utility.yul\":3433:3448   */\n      swap1\n      pop\n        /* \"#utility.yul\":3409:3522   */\n      jump(tag_87)\n    tag_89:\n        /* \"#utility.yul\":3556:3557   */\n      0x00\n        /* \"#utility.yul\":3547:3553   */\n      dup5\n        /* \"#utility.yul\":3542:3545   */\n      dup5\n        /* \"#utility.yul\":3538:3554   */\n      add\n        /* \"#utility.yul\":3531:3558   */\n      mstore\n        /* \"#utility.yul\":3380:3564   */\n      pop\n        /* \"#utility.yul\":3318:3564   */\n      pop\n      pop\n      pop\n      jump\t// out\n        /* \"#utility.yul\":3570:3956   */\n    tag_45:\n        /* \"#utility.yul\":3674:3677   */\n      0x00\n        /* \"#utility.yul\":3702:3740   */\n      tag_91\n        /* \"#utility.yul\":3734:3739   */\n      dup3\n        /* \"#utility.yul\":3702:3740   */\n      tag_42\n      jump\t// in\n    tag_91:\n        /* \"#utility.yul\":3756:3844   */\n      tag_92\n        /* \"#utility.yul\":3837:3843   */\n      dup2\n        /* \"#utility.yul\":3832:3835   */\n      dup6\n        /* \"#utility.yul\":3756:3844   */\n      tag_43\n      jump\t// in\n    tag_92:\n        /* \"#utility.yul\":3749:3844   */\n      swap4\n      pop\n        /* \"#utility.yul\":3853:3918   */\n      tag_93\n        /* \"#utility.yul\":3911:3917   */\n      dup2\n        /* \"#utility.yul\":3906:3909   */\n      dup6\n        /* \"#utility.yul\":3899:3903   */\n      0x20\n        /* \"#utility.yul\":3892:3897   */\n      dup7\n        /* \"#utility.yul\":3888:3904   */\n      add\n        /* \"#utility.yul\":3853:3918   */\n      tag_44\n      jump\t// in\n    tag_93:\n        /* \"#utility.yul\":3943:3949   */\n      dup1\n        /* \"#utility.yul\":3938:3941   */\n      dup5\n        /* \"#utility.yul\":3934:3950   */\n      add\n        /* \"#utility.yul\":3927:3950   */\n      swap2\n      pop\n        /* \"#utility.yul\":3678:3956   */\n      pop\n        /* \"#utility.yul\":3570:3956   */\n      swap3\n      swap2\n      pop\n      pop\n      jump\t// out\n        /* \"#utility.yul\":3962:4233   */\n    tag_15:\n        /* \"#utility.yul\":4092:4095   */\n      0x00\n        /* \"#utility.yul\":4114:4207   */\n      tag_95\n        /* \"#utility.yul\":4203:4206   */\n      dup3\n        /* \"#utility.yul\":4194:4200   */\n      dup5\n        /* \"#utility.yul\":4114:4207   */\n      tag_45\n      jump\t// in\n    tag_95:\n        /* \"#utility.yul\":4107:4207   */\n      swap2\n      pop\n        /* \"#utility.yul\":4224:4227   */\n      dup2\n        /* \"#utility.yul\":4217:4227   */\n      swap1\n      pop\n        /* \"#utility.yul\":3962:4233   */\n      swap3\n      swap2\n      pop\n      pop\n      jump\t// out\n        /* \"#utility.yul\":4239:4329   */\n    tag_46:\n        /* \"#utility.yul\":4273:4280   */\n      0x00\n        /* \"#utility.yul\":4316:4321   */\n      dup2\n        /* \"#utility.yul\":4309:4322   */\n      iszero\n        /* \"#utility.yul\":4302:4323   */\n      iszero\n        /* \"#utility.yul\":4291:4323   */\n      swap1\n      pop\n        /* \"#utility.yul\":4239:4329   */\n      swap2\n      swap1\n      pop\n      jump\t// out\n        /* \"#utility.yul\":4335:4444   */\n    tag_47:\n        /* \"#utility.yul\":4416:4437   */\n      tag_98\n        /* \"#utility.yul\":4431:4436   */\n      dup2\n        /* \"#utility.yul\":4416:4437   */\n      tag_46\n      jump\t// in\n    tag_98:\n        /* \"#utility.yul\":4411:4414   */\n      dup3\n        /* \"#utility.yul\":4404:4438   */\n      mstore\n        /* \"#utility.yul\":4335:4444   */\n      pop\n      pop\n      jump\t// out\n        /* \"#utility.yul\":4450:4618   */\n    tag_48:\n        /* \"#utility.yul\":4533:4544   */\n      0x00\n        /* \"#utility.yul\":4567:4573   */\n      dup3\n        /* \"#utility.yul\":4562:4565   */\n      dup3\n        /* \"#utility.yul\":4555:4574   */\n      mstore\n        /* \"#utility.yul\":4607:4611   */\n      0x20\n        /* \"#utility.yul\":4602:4605   */\n      dup3\n        /* \"#utility.yul\":4598:4612   */\n      add\n        /* \"#utility.yul\":4583:4612   */\n      swap1\n      pop\n        /* \"#utility.yul\":4450:4618   */\n      swap3\n      swap2\n      pop\n      pop\n      jump\t// out\n        /* \"#utility.yul\":4624:4726   */\n    tag_49:\n        /* \"#utility.yul\":4665:4671   */\n      0x00\n        /* \"#utility.yul\":4716:4718   */\n      0x1f\n        /* \"#utility.yul\":4712:4719   */\n      not\n        /* \"#utility.yul\":4707:4709   */\n      0x1f\n        /* \"#utility.yul\":4700:4705   */\n      dup4\n        /* \"#utility.yul\":4696:4710   */\n      add\n        /* \"#utility.yul\":4692:4720   */\n      and\n        /* \"#utility.yul\":4682:4720   */\n      swap1\n      pop\n        /* \"#utility.yul\":4624:4726   */\n      swap2\n      swap1\n      pop\n      jump\t// out\n        /* \"#utility.yul\":4732:5105   */\n    tag_50:\n        /* \"#utility.yul\":4818:4821   */\n      0x00\n        /* \"#utility.yul\":4846:4884   */\n      tag_102\n        /* \"#utility.yul\":4878:4883   */\n      dup3\n        /* \"#utility.yul\":4846:4884   */\n      tag_42\n      jump\t// in\n    tag_102:\n        /* \"#utility.yul\":4900:4970   */\n      tag_103\n        /* \"#utility.yul\":4963:4969   */\n      dup2\n        /* \"#utility.yul\":4958:4961   */\n      dup6\n        /* \"#utility.yul\":4900:4970   */\n      tag_48\n      jump\t// in\n    tag_103:\n        /* \"#utility.yul\":4893:4970   */\n      swap4\n      pop\n        /* \"#utility.yul\":4979:5044   */\n      tag_104\n        /* \"#utility.yul\":5037:5043   */\n      dup2\n        /* \"#utility.yul\":5032:5035   */\n      dup6\n        /* \"#utility.yul\":5025:5029   */\n      0x20\n        /* \"#utility.yul\":5018:5023   */\n      dup7\n        /* \"#utility.yul\":5014:5030   */\n      add\n        /* \"#utility.yul\":4979:5044   */\n      tag_44\n      jump\t// in\n    tag_104:\n        /* \"#utility.yul\":5069:5098   */\n      tag_105\n        /* \"#utility.yul\":5091:5097   */\n      dup2\n        /* \"#utility.yul\":5069:5098   */\n      tag_49\n      jump\t// in\n    tag_105:\n        /* \"#utility.yul\":5064:5067   */\n      dup5\n        /* \"#utility.yul\":5060:5099   */\n      add\n        /* \"#utility.yul\":5053:5099   */\n      swap2\n      pop\n        /* \"#utility.yul\":4822:5105   */\n      pop\n        /* \"#utility.yul\":4732:5105   */\n      swap3\n      swap2\n      pop\n      pop\n      jump\t// out\n        /* \"#utility.yul\":5111:5518   */\n    tag_20:\n        /* \"#utility.yul\":5244:5248   */\n      0x00\n        /* \"#utility.yul\":5282:5284   */\n      0x40\n        /* \"#utility.yul\":5271:5280   */\n      dup3\n        /* \"#utility.yul\":5267:5285   */\n      add\n        /* \"#utility.yul\":5259:5285   */\n      swap1\n      pop\n        /* \"#utility.yul\":5295:5360   */\n      tag_107\n        /* \"#utility.yul\":5357:5358   */\n      0x00\n        /* \"#utility.yul\":5346:5355   */\n      dup4\n        /* \"#utility.yul\":5342:5359   */\n      add\n        /* \"#utility.yul\":5333:5339   */\n      dup6\n        /* \"#utility.yul\":5295:5360   */\n      tag_47\n      jump\t// in\n    tag_107:\n        /* \"#utility.yul\":5407:5416   */\n      dup2\n        /* \"#utility.yul\":5401:5405   */\n      dup2\n        /* \"#utility.yul\":5397:5417   */\n      sub\n        /* \"#utility.yul\":5392:5394   */\n      0x20\n        /* \"#utility.yul\":5381:5390   */\n      dup4\n        /* \"#utility.yul\":5377:5395   */\n      add\n        /* \"#utility.yul\":5370:5418   */\n      mstore\n        /* \"#utility.yul\":5435:5511   */\n      tag_108\n        /* \"#utility.yul\":5506:5510   */\n      dup2\n        /* \"#utility.yul\":5497:5503   */\n      dup5\n        /* \"#utility.yul\":5435:5511   */\n      tag_50\n      jump\t// in\n    tag_108:\n        /* \"#utility.yul\":5427:5511   */\n      swap1\n      pop\n        /* \"#utility.yul\":5111:5518   */\n      swap4\n      swap3\n      pop\n      pop\n      pop\n      jump\t// out\n\n    auxdata: 0xa2646970667358221220feda7a5f0e9505b09f283dd291da3ca58faaafc0282be3c9ca3c8e3b34b8d0ca64736f6c63430008120033\n}\n",
				"bytecode": {
					"linkReferences": {},
					"object": "608060405234801561001057600080fd5b506105aa806100206000396000f3fe6080604052600436106100295760003560e01c806387ba61791461002e578063ff00726c1461004a575b600080fd5b6100486004803603810190610043919061033c565b610066565b005b610064600480360381019061005f919061033c565b6101a9565b005b6000808273ffffffffffffffffffffffffffffffffffffffff166103e861c35090607b6040516024016100999190610418565b6040516020818303038152906040527f24ccab8f000000000000000000000000000000000000000000000000000000007bffffffffffffffffffffffffffffffffffffffffffffffffffffffff19166020820180517bffffffffffffffffffffffffffffffffffffffffffffffffffffffff838183161783525050505060405161012391906104b7565b600060405180830381858888f193505050503d8060008114610161576040519150601f19603f3d011682016040523d82523d6000602084013e610166565b606091505b50915091507f13848c3e38f8886f3f5d2ad9dff80d8092c2bbb8efd5b887a99c2c6cfc09ac2a828260405161019c929190610544565b60405180910390a1505050565b6000808273ffffffffffffffffffffffffffffffffffffffff16346040516024016040516020818303038152906040527f1dcc85ae000000000000000000000000000000000000000000000000000000007bffffffffffffffffffffffffffffffffffffffffffffffffffffffff19166020820180517bffffffffffffffffffffffffffffffffffffffffffffffffffffffff838183161783525050505060405161025491906104b7565b60006040518083038185875af1925050503d8060008114610291576040519150601f19603f3d011682016040523d82523d6000602084013e610296565b606091505b50915091507f13848c3e38f8886f3f5d2ad9dff80d8092c2bbb8efd5b887a99c2c6cfc09ac2a82826040516102cc929190610544565b60405180910390a1505050565b600080fd5b600073ffffffffffffffffffffffffffffffffffffffff82169050919050565b6000610309826102de565b9050919050565b610319816102fe565b811461032457600080fd5b50565b60008135905061033681610310565b92915050565b600060208284031215610352576103516102d9565b5b600061036084828501610327565b91505092915050565b600082825260208201905092915050565b7f63616c6c20666f6f000000000000000000000000000000000000000000000000600082015250565b60006103b0600883610369565b91506103bb8261037a565b602082019050919050565b6000819050919050565b600060ff82169050919050565b6000819050919050565b60006104026103fd6103f8846103c6565b6103dd565b6103d0565b9050919050565b610412816103e7565b82525050565b60006040820190508181036000830152610431816103a3565b90506104406020830184610409565b92915050565b600081519050919050565b600081905092915050565b60005b8381101561047a57808201518184015260208101905061045f565b60008484015250505050565b600061049182610446565b61049b8185610451565b93506104ab81856020860161045c565b80840191505092915050565b60006104c38284610486565b915081905092915050565b60008115159050919050565b6104e3816104ce565b82525050565b600082825260208201905092915050565b6000601f19601f8301169050919050565b600061051682610446565b61052081856104e9565b935061053081856020860161045c565b610539816104fa565b840191505092915050565b600060408201905061055960008301856104da565b818103602083015261056b818461050b565b9050939250505056fea2646970667358221220feda7a5f0e9505b09f283dd291da3ca58faaafc0282be3c9ca3c8e3b34b8d0ca64736f6c63430008120033",
					"opcodes": "PUSH1 0x80 PUSH1 0x40 MSTORE CALLVALUE DUP1 ISZERO PUSH2 0x10 JUMPI PUSH1 0x0 DUP1 REVERT JUMPDEST POP PUSH2 0x5AA DUP1 PUSH2 0x20 PUSH1 0x0 CODECOPY PUSH1 0x0 RETURN INVALID PUSH1 0x80 PUSH1 0x40 MSTORE PUSH1 0x4 CALLDATASIZE LT PUSH2 0x29 JUMPI PUSH1 0x0 CALLDATALOAD PUSH1 0xE0 SHR DUP1 PUSH4 0x87BA6179 EQ PUSH2 0x2E JUMPI DUP1 PUSH4 0xFF00726C EQ PUSH2 0x4A JUMPI JUMPDEST PUSH1 0x0 DUP1 REVERT JUMPDEST PUSH2 0x48 PUSH1 0x4 DUP1 CALLDATASIZE SUB DUP2 ADD SWAP1 PUSH2 0x43 SWAP2 SWAP1 PUSH2 0x33C JUMP JUMPDEST PUSH2 0x66 JUMP JUMPDEST STOP JUMPDEST PUSH2 0x64 PUSH1 0x4 DUP1 CALLDATASIZE SUB DUP2 ADD SWAP1 PUSH2 0x5F SWAP2 SWAP1 PUSH2 0x33C JUMP JUMPDEST PUSH2 0x1A9 JUMP JUMPDEST STOP JUMPDEST PUSH1 0x0 DUP1 DUP3 PUSH20 0xFFFFFFFFFFFFFFFFFFFFFFFFFFFFFFFFFFFFFFFF AND PUSH2 0x3E8 PUSH2 0xC350 SWAP1 PUSH1 0x7B PUSH1 0x40 MLOAD PUSH1 0x24 ADD PUSH2 0x99 SWAP2 SWAP1 PUSH2 0x418 JUMP JUMPDEST PUSH1 0x40 MLOAD PUSH1 0x20 DUP2 DUP4 SUB SUB DUP2 MSTORE SWAP1 PUSH1 0x40 MSTORE PUSH32 0x24CCAB8F00000000000000000000000000000000000000000000000000000000 PUSH28 0xFFFFFFFFFFFFFFFFFFFFFFFFFFFFFFFFFFFFFFFFFFFFFFFFFFFFFFFF NOT AND PUSH1 0x20 DUP3 ADD DUP1 MLOAD PUSH28 0xFFFFFFFFFFFFFFFFFFFFFFFFFFFFFFFFFFFFFFFFFFFFFFFFFFFFFFFF DUP4 DUP2 DUP4 AND OR DUP4 MSTORE POP POP POP POP PUSH1 0x40 MLOAD PUSH2 0x123 SWAP2 SWAP1 PUSH2 0x4B7 JUMP JUMPDEST PUSH1 0x0 PUSH1 0x40 MLOAD DUP1 DUP4 SUB DUP2 DUP6 DUP9 DUP9 CALL SWAP4 POP POP POP POP RETURNDATASIZE DUP1 PUSH1 0x0 DUP2 EQ PUSH2 0x161 JUMPI PUSH1 0x40 MLOAD SWAP2 POP PUSH1 0x1F NOT PUSH1 0x3F RETURNDATASIZE ADD AND DUP3 ADD PUSH1 0x40 MSTORE RETURNDATASIZE DUP3 MSTORE RETURNDATASIZE PUSH1 0x0 PUSH1 0x20 DUP5 ADD RETURNDATACOPY PUSH2 0x166 JUMP JUMPDEST PUSH1 0x60 SWAP2 POP JUMPDEST POP SWAP2 POP SWAP2 POP PUSH32 0x13848C3E38F8886F3F5D2AD9DFF80D8092C2BBB8EFD5B887A99C2C6CFC09AC2A DUP3 DUP3 PUSH1 0x40 MLOAD PUSH2 0x19C SWAP3 SWAP2 SWAP1 PUSH2 0x544 JUMP JUMPDEST PUSH1 0x40 MLOAD DUP1 SWAP2 SUB SWAP1 LOG1 POP POP POP JUMP JUMPDEST PUSH1 0x0 DUP1 DUP3 PUSH20 0xFFFFFFFFFFFFFFFFFFFFFFFFFFFFFFFFFFFFFFFF AND CALLVALUE PUSH1 0x40 MLOAD PUSH1 0x24 ADD PUSH1 0x40 MLOAD PUSH1 0x20 DUP2 DUP4 SUB SUB DUP2 MSTORE SWAP1 PUSH1 0x40 MSTORE PUSH32 0x1DCC85AE00000000000000000000000000000000000000000000000000000000 PUSH28 0xFFFFFFFFFFFFFFFFFFFFFFFFFFFFFFFFFFFFFFFFFFFFFFFFFFFFFFFF NOT AND PUSH1 0x20 DUP3 ADD DUP1 MLOAD PUSH28 0xFFFFFFFFFFFFFFFFFFFFFFFFFFFFFFFFFFFFFFFFFFFFFFFFFFFFFFFF DUP4 DUP2 DUP4 AND OR DUP4 MSTORE POP POP POP POP PUSH1 0x40 MLOAD PUSH2 0x254 SWAP2 SWAP1 PUSH2 0x4B7 JUMP JUMPDEST PUSH1 0x0 PUSH1 0x40 MLOAD DUP1 DUP4 SUB DUP2 DUP6 DUP8 GAS CALL SWAP3 POP POP POP RETURNDATASIZE DUP1 PUSH1 0x0 DUP2 EQ PUSH2 0x291 JUMPI PUSH1 0x40 MLOAD SWAP2 POP PUSH1 0x1F NOT PUSH1 0x3F RETURNDATASIZE ADD AND DUP3 ADD PUSH1 0x40 MSTORE RETURNDATASIZE DUP3 MSTORE RETURNDATASIZE PUSH1 0x0 PUSH1 0x20 DUP5 ADD RETURNDATACOPY PUSH2 0x296 JUMP JUMPDEST PUSH1 0x60 SWAP2 POP JUMPDEST POP SWAP2 POP SWAP2 POP PUSH32 0x13848C3E38F8886F3F5D2AD9DFF80D8092C2BBB8EFD5B887A99C2C6CFC09AC2A DUP3 DUP3 PUSH1 0x40 MLOAD PUSH2 0x2CC SWAP3 SWAP2 SWAP1 PUSH2 0x544 JUMP JUMPDEST PUSH1 0x40 MLOAD DUP1 SWAP2 SUB SWAP1 LOG1 POP POP POP JUMP JUMPDEST PUSH1 0x0 DUP1 REVERT JUMPDEST PUSH1 0x0 PUSH20 0xFFFFFFFFFFFFFFFFFFFFFFFFFFFFFFFFFFFFFFFF DUP3 AND SWAP1 POP SWAP2 SWAP1 POP JUMP JUMPDEST PUSH1 0x0 PUSH2 0x309 DUP3 PUSH2 0x2DE JUMP JUMPDEST SWAP1 POP SWAP2 SWAP1 POP JUMP JUMPDEST PUSH2 0x319 DUP2 PUSH2 0x2FE JUMP JUMPDEST DUP2 EQ PUSH2 0x324 JUMPI PUSH1 0x0 DUP1 REVERT JUMPDEST POP JUMP JUMPDEST PUSH1 0x0 DUP2 CALLDATALOAD SWAP1 POP PUSH2 0x336 DUP2 PUSH2 0x310 JUMP JUMPDEST SWAP3 SWAP2 POP POP JUMP JUMPDEST PUSH1 0x0 PUSH1 0x20 DUP3 DUP5 SUB SLT ISZERO PUSH2 0x352 JUMPI PUSH2 0x351 PUSH2 0x2D9 JUMP JUMPDEST JUMPDEST PUSH1 0x0 PUSH2 0x360 DUP5 DUP3 DUP6 ADD PUSH2 0x327 JUMP JUMPDEST SWAP2 POP POP SWAP3 SWAP2 POP POP JUMP JUMPDEST PUSH1 0x0 DUP3 DUP3 MSTORE PUSH1 0x20 DUP3 ADD SWAP1 POP SWAP3 SWAP2 POP POP JUMP JUMPDEST PUSH32 0x63616C6C20666F6F000000000000000000000000000000000000000000000000 PUSH1 0x0 DUP3 ADD MSTORE POP JUMP JUMPDEST PUSH1 0x0 PUSH2 0x3B0 PUSH1 0x8 DUP4 PUSH2 0x369 JUMP JUMPDEST SWAP2 POP PUSH2 0x3BB DUP3 PUSH2 0x37A JUMP JUMPDEST PUSH1 0x20 DUP3 ADD SWAP1 POP SWAP2 SWAP1 POP JUMP JUMPDEST PUSH1 0x0 DUP2 SWAP1 POP SWAP2 SWAP1 POP JUMP JUMPDEST PUSH1 0x0 PUSH1 0xFF DUP3 AND SWAP1 POP SWAP2 SWAP1 POP JUMP JUMPDEST PUSH1 0x0 DUP2 SWAP1 POP SWAP2 SWAP1 POP JUMP JUMPDEST PUSH1 0x0 PUSH2 0x402 PUSH2 0x3FD PUSH2 0x3F8 DUP5 PUSH2 0x3C6 JUMP JUMPDEST PUSH2 0x3DD JUMP JUMPDEST PUSH2 0x3D0 JUMP JUMPDEST SWAP1 POP SWAP2 SWAP1 POP JUMP JUMPDEST PUSH2 0x412 DUP2 PUSH2 0x3E7 JUMP JUMPDEST DUP3 MSTORE POP POP JUMP JUMPDEST PUSH1 0x0 PUSH1 0x40 DUP3 ADD SWAP1 POP DUP2 DUP2 SUB PUSH1 0x0 DUP4 ADD MSTORE PUSH2 0x431 DUP2 PUSH2 0x3A3 JUMP JUMPDEST SWAP1 POP PUSH2 0x440 PUSH1 0x20 DUP4 ADD DUP5 PUSH2 0x409 JUMP JUMPDEST SWAP3 SWAP2 POP POP JUMP JUMPDEST PUSH1 0x0 DUP2 MLOAD SWAP1 POP SWAP2 SWAP1 POP JUMP JUMPDEST PUSH1 0x0 DUP2 SWAP1 POP SWAP3 SWAP2 POP POP JUMP JUMPDEST PUSH1 0x0 JUMPDEST DUP4 DUP2 LT ISZERO PUSH2 0x47A JUMPI DUP1 DUP3 ADD MLOAD DUP2 DUP5 ADD MSTORE PUSH1 0x20 DUP2 ADD SWAP1 POP PUSH2 0x45F JUMP JUMPDEST PUSH1 0x0 DUP5 DUP5 ADD MSTORE POP POP POP POP JUMP JUMPDEST PUSH1 0x0 PUSH2 0x491 DUP3 PUSH2 0x446 JUMP JUMPDEST PUSH2 0x49B DUP2 DUP6 PUSH2 0x451 JUMP JUMPDEST SWAP4 POP PUSH2 0x4AB DUP2 DUP6 PUSH1 0x20 DUP7 ADD PUSH2 0x45C JUMP JUMPDEST DUP1 DUP5 ADD SWAP2 POP POP SWAP3 SWAP2 POP POP JUMP JUMPDEST PUSH1 0x0 PUSH2 0x4C3 DUP3 DUP5 PUSH2 0x486 JUMP JUMPDEST SWAP2 POP DUP2 SWAP1 POP SWAP3 SWAP2 POP POP JUMP JUMPDEST PUSH1 0x0 DUP2 ISZERO ISZERO SWAP1 POP SWAP2 SWAP1 POP JUMP JUMPDEST PUSH2 0x4E3 DUP2 PUSH2 0x4CE JUMP JUMPDEST DUP3 MSTORE POP POP JUMP JUMPDEST PUSH1 0x0 DUP3 DUP3 MSTORE PUSH1 0x20 DUP3 ADD SWAP1 POP SWAP3 SWAP2 POP POP JUMP JUMPDEST PUSH1 0x0 PUSH1 0x1F NOT PUSH1 0x1F DUP4 ADD AND SWAP1 POP SWAP2 SWAP1 POP JUMP JUMPDEST PUSH1 0x0 PUSH2 0x516 DUP3 PUSH2 0x446 JUMP JUMPDEST PUSH2 0x520 DUP2 DUP6 PUSH2 0x4E9 JUMP JUMPDEST SWAP4 POP PUSH2 0x530 DUP2 DUP6 PUSH1 0x20 DUP7 ADD PUSH2 0x45C JUMP JUMPDEST PUSH2 0x539 DUP2 PUSH2 0x4FA JUMP JUMPDEST DUP5 ADD SWAP2 POP POP SWAP3 SWAP2 POP POP JUMP JUMPDEST PUSH1 0x0 PUSH1 0x40 DUP3 ADD SWAP1 POP PUSH2 0x559 PUSH1 0x0 DUP4 ADD DUP6 PUSH2 0x4DA JUMP JUMPDEST DUP2 DUP2 SUB PUSH1 0x20 DUP4 ADD MSTORE PUSH2 0x56B DUP2 DUP5 PUSH2 0x50B JUMP JUMPDEST SWAP1 POP SWAP4 SWAP3 POP POP POP JUMP INVALID LOG2 PUSH5 0x6970667358 0x22 SLT KECCAK256 INVALID 0xDA PUSH27 0x5F0E9505B09F283DD291DA3CA58FAAAFC0282BE3C9CA3C8E3B34B8 0xD0 0xCA PUSH5 0x736F6C6343 STOP ADDMOD SLT STOP CALLER "
				},
				"gasEstimates": {
					"creation": {
						"codeDepositCost": "290000",
						"executionCost": "331",
						"totalCost": "290331"
					},
					"external": {
						"testCallDoesNotExist(address)": "infinite",
						"testCallFoo(address)": "infinite"
					}
				},
				"methodIdentifiers": {
					"testCallDoesNotExist(address)": "ff00726c",
					"testCallFoo(address)": "87ba6179"
				}
			},
			"storageLayout": {
				"storage": [],
				"types": null
			},
			"userdoc": {
				"kind": "user",
				"methods": {},
				"version": 1
			}
		}
	}
}