{
	"13. inheritance.sol": {
		"Google": {
			"abi": [
				{
					"anonymous": false,
					"inputs": [
						{
							"indexed": false,
							"internalType": "string",
							"name": "message",
							"type": "string"
						}
					],
					"name": "Log",
					"type": "event"
				},
				{
					"inputs": [],
					"name": "Owner",
					"outputs": [
						{
							"internalType": "string",
							"name": "",
							"type": "string"
						}
					],
					"stateMutability": "pure",
					"type": "function"
				},
				{
					"inputs": [],
					"name": "get_location",
					"outputs": [
						{
							"internalType": "string",
							"name": "",
							"type": "string"
						}
					],
					"stateMutability": "nonpayable",
					"type": "function"
				},
				{
					"inputs": [],
					"name": "get_name",
					"outputs": [
						{
							"internalType": "string",
							"name": "",
							"type": "string"
						}
					],
					"stateMutability": "view",
					"type": "function"
				},
				{
					"inputs": [],
					"name": "location",
					"outputs": [
						{
							"internalType": "string",
							"name": "",
							"type": "string"
						}
					],
					"stateMutability": "view",
					"type": "function"
				},
				{
					"inputs": [],
					"name": "name",
					"outputs": [
						{
							"internalType": "string",
							"name": "",
							"type": "string"
						}
					],
					"stateMutability": "view",
					"type": "function"
				},
				{
					"inputs": [
						{
							"internalType": "string",
							"name": "_area",
							"type": "string"
						}
					],
					"name": "set_area",
					"outputs": [],
					"stateMutability": "nonpayable",
					"type": "function"
				},
				{
					"inputs": [
						{
							"internalType": "string",
							"name": "_location",
							"type": "string"
						}
					],
					"name": "set_location",
					"outputs": [],
					"stateMutability": "nonpayable",
					"type": "function"
				}
			],
			"devdoc": {
				"kind": "dev",
				"methods": {},
				"version": 1
			},
			"evm": {
				"assembly": "    /* \"13. inheritance.sol\":683:1226  contract Google is building('Taipei 1st headquarter') {... */\n  mstore(0x40, 0x80)\n    /* \"13. inheritance.sol\":145:181  string public location = 'undefined' */\n  mload(0x40)\n  dup1\n  0x40\n  add\n  0x40\n  mstore\n  dup1\n  0x09\n  dup2\n  mstore\n  0x20\n  add\n  0x756e646566696e65640000000000000000000000000000000000000000000000\n  dup2\n  mstore\n  pop\n  0x01\n  swap1\n  dup2\n  tag_1\n  swap2\n  swap1\n  tag_2\n  jump\t// in\ntag_1:\n  pop\n    /* \"13. inheritance.sol\":683:1226  contract Google is building('Taipei 1st headquarter') {... */\n  callvalue\n  dup1\n  iszero\n  tag_3\n  jumpi\n  0x00\n  dup1\n  revert\ntag_3:\n  pop\n    /* \"13. inheritance.sol\":190:254  constructor(string memory _name) {... */\n  mload(0x40)\n  dup1\n  0x40\n  add\n  0x40\n  mstore\n  dup1\n  0x16\n  dup2\n  mstore\n  0x20\n  add\n  0x5461697065692031737420686561647175617274657200000000000000000000\n  dup2\n  mstore\n  pop\n    /* \"13. inheritance.sol\":241:246  _name */\n  dup1\n    /* \"13. inheritance.sol\":234:238  name */\n  0x00\n    /* \"13. inheritance.sol\":234:246  name = _name */\n  swap1\n  dup2\n  tag_6\n  swap2\n  swap1\n  tag_2\n  jump\t// in\ntag_6:\n  pop\n    /* \"13. inheritance.sol\":190:254  constructor(string memory _name) {... */\n  pop\n    /* \"13. inheritance.sol\":683:1226  contract Google is building('Taipei 1st headquarter') {... */\n  jump(tag_7)\n    /* \"#utility.yul\":7:106   */\ntag_8:\n    /* \"#utility.yul\":59:65   */\n  0x00\n    /* \"#utility.yul\":93:98   */\n  dup2\n    /* \"#utility.yul\":87:99   */\n  mload\n    /* \"#utility.yul\":77:99   */\n  swap1\n  pop\n    /* \"#utility.yul\":7:106   */\n  swap2\n  swap1\n  pop\n  jump\t// out\n    /* \"#utility.yul\":112:292   */\ntag_9:\n    /* \"#utility.yul\":160:237   */\n  0x4e487b7100000000000000000000000000000000000000000000000000000000\n    /* \"#utility.yul\":157:158   */\n  0x00\n    /* \"#utility.yul\":150:238   */\n  mstore\n    /* \"#utility.yul\":257:261   */\n  0x41\n    /* \"#utility.yul\":254:255   */\n  0x04\n    /* \"#utility.yul\":247:262   */\n  mstore\n    /* \"#utility.yul\":281:285   */\n  0x24\n    /* \"#utility.yul\":278:279   */\n  0x00\n    /* \"#utility.yul\":271:286   */\n  revert\n    /* \"#utility.yul\":298:478   */\ntag_10:\n    /* \"#utility.yul\":346:423   */\n  0x4e487b7100000000000000000000000000000000000000000000000000000000\n    /* \"#utility.yul\":343:344   */\n  0x00\n    /* \"#utility.yul\":336:424   */\n  mstore\n    /* \"#utility.yul\":443:447   */\n  0x22\n    /* \"#utility.yul\":440:441   */\n  0x04\n    /* \"#utility.yul\":433:448   */\n  mstore\n    /* \"#utility.yul\":467:471   */\n  0x24\n    /* \"#utility.yul\":464:465   */\n  0x00\n    /* \"#utility.yul\":457:472   */\n  revert\n    /* \"#utility.yul\":484:804   */\ntag_11:\n    /* \"#utility.yul\":528:534   */\n  0x00\n    /* \"#utility.yul\":565:566   */\n  0x02\n    /* \"#utility.yul\":559:563   */\n  dup3\n    /* \"#utility.yul\":555:567   */\n  div\n    /* \"#utility.yul\":545:567   */\n  swap1\n  pop\n    /* \"#utility.yul\":612:613   */\n  0x01\n    /* \"#utility.yul\":606:610   */\n  dup3\n    /* \"#utility.yul\":602:614   */\n  and\n    /* \"#utility.yul\":633:651   */\n  dup1\n    /* \"#utility.yul\":623:704   */\n  tag_33\n  jumpi\n    /* \"#utility.yul\":689:693   */\n  0x7f\n    /* \"#utility.yul\":681:687   */\n  dup3\n    /* \"#utility.yul\":677:694   */\n  and\n    /* \"#utility.yul\":667:694   */\n  swap2\n  pop\n    /* \"#utility.yul\":623:704   */\ntag_33:\n    /* \"#utility.yul\":751:753   */\n  0x20\n    /* \"#utility.yul\":743:749   */\n  dup3\n    /* \"#utility.yul\":740:754   */\n  lt\n    /* \"#utility.yul\":720:738   */\n  dup2\n    /* \"#utility.yul\":717:755   */\n  sub\n    /* \"#utility.yul\":714:798   */\n  tag_34\n  jumpi\n    /* \"#utility.yul\":770:788   */\n  tag_35\n  tag_10\n  jump\t// in\ntag_35:\n    /* \"#utility.yul\":714:798   */\ntag_34:\n    /* \"#utility.yul\":535:804   */\n  pop\n    /* \"#utility.yul\":484:804   */\n  swap2\n  swap1\n  pop\n  jump\t// out\n    /* \"#utility.yul\":810:951   */\ntag_12:\n    /* \"#utility.yul\":859:863   */\n  0x00\n    /* \"#utility.yul\":882:885   */\n  dup2\n    /* \"#utility.yul\":874:885   */\n  swap1\n  pop\n    /* \"#utility.yul\":905:908   */\n  dup2\n    /* \"#utility.yul\":902:903   */\n  0x00\n    /* \"#utility.yul\":895:909   */\n  mstore\n    /* \"#utility.yul\":939:943   */\n  0x20\n    /* \"#utility.yul\":936:937   */\n  0x00\n    /* \"#utility.yul\":926:944   */\n  keccak256\n    /* \"#utility.yul\":918:944   */\n  swap1\n  pop\n    /* \"#utility.yul\":810:951   */\n  swap2\n  swap1\n  pop\n  jump\t// out\n    /* \"#utility.yul\":957:1050   */\ntag_13:\n    /* \"#utility.yul\":994:1000   */\n  0x00\n    /* \"#utility.yul\":1041:1043   */\n  0x20\n    /* \"#utility.yul\":1036:1038   */\n  0x1f\n    /* \"#utility.yul\":1029:1034   */\n  dup4\n    /* \"#utility.yul\":1025:1039   */\n  add\n    /* \"#utility.yul\":1021:1044   */\n  div\n    /* \"#utility.yul\":1011:1044   */\n  swap1\n  pop\n    /* \"#utility.yul\":957:1050   */\n  swap2\n  swap1\n  pop\n  jump\t// out\n    /* \"#utility.yul\":1056:1163   */\ntag_14:\n    /* \"#utility.yul\":1100:1108   */\n  0x00\n    /* \"#utility.yul\":1150:1155   */\n  dup3\n    /* \"#utility.yul\":1144:1148   */\n  dup3\n    /* \"#utility.yul\":1140:1156   */\n  shl\n    /* \"#utility.yul\":1119:1156   */\n  swap1\n  pop\n    /* \"#utility.yul\":1056:1163   */\n  swap3\n  swap2\n  pop\n  pop\n  jump\t// out\n    /* \"#utility.yul\":1169:1562   */\ntag_15:\n    /* \"#utility.yul\":1238:1244   */\n  0x00\n    /* \"#utility.yul\":1288:1289   */\n  0x08\n    /* \"#utility.yul\":1276:1286   */\n  dup4\n    /* \"#utility.yul\":1272:1290   */\n  mul\n    /* \"#utility.yul\":1311:1408   */\n  tag_40\n    /* \"#utility.yul\":1341:1407   */\n  0xffffffffffffffffffffffffffffffffffffffffffffffffffffffffffffffff\n    /* \"#utility.yul\":1330:1339   */\n  dup3\n    /* \"#utility.yul\":1311:1408   */\n  tag_14\n  jump\t// in\ntag_40:\n    /* \"#utility.yul\":1429:1468   */\n  tag_41\n    /* \"#utility.yul\":1459:1467   */\n  dup7\n    /* \"#utility.yul\":1448:1457   */\n  dup4\n    /* \"#utility.yul\":1429:1468   */\n  tag_14\n  jump\t// in\ntag_41:\n    /* \"#utility.yul\":1417:1468   */\n  swap6\n  pop\n    /* \"#utility.yul\":1501:1505   */\n  dup1\n    /* \"#utility.yul\":1497:1506   */\n  not\n    /* \"#utility.yul\":1490:1495   */\n  dup5\n    /* \"#utility.yul\":1486:1507   */\n  and\n    /* \"#utility.yul\":1477:1507   */\n  swap4\n  pop\n    /* \"#utility.yul\":1550:1554   */\n  dup1\n    /* \"#utility.yul\":1540:1548   */\n  dup7\n    /* \"#utility.yul\":1536:1555   */\n  and\n    /* \"#utility.yul\":1529:1534   */\n  dup5\n    /* \"#utility.yul\":1526:1556   */\n  or\n    /* \"#utility.yul\":1516:1556   */\n  swap3\n  pop\n    /* \"#utility.yul\":1245:1562   */\n  pop\n  pop\n    /* \"#utility.yul\":1169:1562   */\n  swap4\n  swap3\n  pop\n  pop\n  pop\n  jump\t// out\n    /* \"#utility.yul\":1568:1645   */\ntag_16:\n    /* \"#utility.yul\":1605:1612   */\n  0x00\n    /* \"#utility.yul\":1634:1639   */\n  dup2\n    /* \"#utility.yul\":1623:1639   */\n  swap1\n  pop\n    /* \"#utility.yul\":1568:1645   */\n  swap2\n  swap1\n  pop\n  jump\t// out\n    /* \"#utility.yul\":1651:1711   */\ntag_17:\n    /* \"#utility.yul\":1679:1682   */\n  0x00\n    /* \"#utility.yul\":1700:1705   */\n  dup2\n    /* \"#utility.yul\":1693:1705   */\n  swap1\n  pop\n    /* \"#utility.yul\":1651:1711   */\n  swap2\n  swap1\n  pop\n  jump\t// out\n    /* \"#utility.yul\":1717:1859   */\ntag_18:\n    /* \"#utility.yul\":1767:1776   */\n  0x00\n    /* \"#utility.yul\":1800:1853   */\n  tag_45\n    /* \"#utility.yul\":1818:1852   */\n  tag_46\n    /* \"#utility.yul\":1827:1851   */\n  tag_47\n    /* \"#utility.yul\":1845:1850   */\n  dup5\n    /* \"#utility.yul\":1827:1851   */\n  tag_16\n  jump\t// in\ntag_47:\n    /* \"#utility.yul\":1818:1852   */\n  tag_17\n  jump\t// in\ntag_46:\n    /* \"#utility.yul\":1800:1853   */\n  tag_16\n  jump\t// in\ntag_45:\n    /* \"#utility.yul\":1787:1853   */\n  swap1\n  pop\n    /* \"#utility.yul\":1717:1859   */\n  swap2\n  swap1\n  pop\n  jump\t// out\n    /* \"#utility.yul\":1865:1940   */\ntag_19:\n    /* \"#utility.yul\":1908:1911   */\n  0x00\n    /* \"#utility.yul\":1929:1934   */\n  dup2\n    /* \"#utility.yul\":1922:1934   */\n  swap1\n  pop\n    /* \"#utility.yul\":1865:1940   */\n  swap2\n  swap1\n  pop\n  jump\t// out\n    /* \"#utility.yul\":1946:2215   */\ntag_20:\n    /* \"#utility.yul\":2056:2095   */\n  tag_50\n    /* \"#utility.yul\":2087:2094   */\n  dup4\n    /* \"#utility.yul\":2056:2095   */\n  tag_18\n  jump\t// in\ntag_50:\n    /* \"#utility.yul\":2117:2208   */\n  tag_51\n    /* \"#utility.yul\":2166:2207   */\n  tag_52\n    /* \"#utility.yul\":2190:2206   */\n  dup3\n    /* \"#utility.yul\":2166:2207   */\n  tag_19\n  jump\t// in\ntag_52:\n    /* \"#utility.yul\":2158:2164   */\n  dup5\n    /* \"#utility.yul\":2151:2155   */\n  dup5\n    /* \"#utility.yul\":2145:2156   */\n  sload\n    /* \"#utility.yul\":2117:2208   */\n  tag_15\n  jump\t// in\ntag_51:\n    /* \"#utility.yul\":2111:2115   */\n  dup3\n    /* \"#utility.yul\":2104:2209   */\n  sstore\n    /* \"#utility.yul\":2022:2215   */\n  pop\n    /* \"#utility.yul\":1946:2215   */\n  pop\n  pop\n  pop\n  jump\t// out\n    /* \"#utility.yul\":2221:2294   */\ntag_21:\n    /* \"#utility.yul\":2266:2269   */\n  0x00\n    /* \"#utility.yul\":2221:2294   */\n  swap1\n  jump\t// out\n    /* \"#utility.yul\":2300:2489   */\ntag_22:\n    /* \"#utility.yul\":2377:2409   */\n  tag_55\n  tag_21\n  jump\t// in\ntag_55:\n    /* \"#utility.yul\":2418:2483   */\n  tag_56\n    /* \"#utility.yul\":2476:2482   */\n  dup2\n    /* \"#utility.yul\":2468:2474   */\n  dup5\n    /* \"#utility.yul\":2462:2466   */\n  dup5\n    /* \"#utility.yul\":2418:2483   */\n  tag_20\n  jump\t// in\ntag_56:\n    /* \"#utility.yul\":2353:2489   */\n  pop\n    /* \"#utility.yul\":2300:2489   */\n  pop\n  pop\n  jump\t// out\n    /* \"#utility.yul\":2495:2681   */\ntag_23:\n    /* \"#utility.yul\":2555:2675   */\ntag_58:\n    /* \"#utility.yul\":2572:2575   */\n  dup2\n    /* \"#utility.yul\":2565:2570   */\n  dup2\n    /* \"#utility.yul\":2562:2576   */\n  lt\n    /* \"#utility.yul\":2555:2675   */\n  iszero\n  tag_60\n  jumpi\n    /* \"#utility.yul\":2626:2665   */\n  tag_61\n    /* \"#utility.yul\":2663:2664   */\n  0x00\n    /* \"#utility.yul\":2656:2661   */\n  dup3\n    /* \"#utility.yul\":2626:2665   */\n  tag_22\n  jump\t// in\ntag_61:\n    /* \"#utility.yul\":2599:2600   */\n  0x01\n    /* \"#utility.yul\":2592:2597   */\n  dup2\n    /* \"#utility.yul\":2588:2601   */\n  add\n    /* \"#utility.yul\":2579:2601   */\n  swap1\n  pop\n    /* \"#utility.yul\":2555:2675   */\n  jump(tag_58)\ntag_60:\n    /* \"#utility.yul\":2495:2681   */\n  pop\n  pop\n  jump\t// out\n    /* \"#utility.yul\":2687:3230   */\ntag_24:\n    /* \"#utility.yul\":2788:2790   */\n  0x1f\n    /* \"#utility.yul\":2783:2786   */\n  dup3\n    /* \"#utility.yul\":2780:2791   */\n  gt\n    /* \"#utility.yul\":2777:3223   */\n  iszero\n  tag_63\n  jumpi\n    /* \"#utility.yul\":2822:2860   */\n  tag_64\n    /* \"#utility.yul\":2854:2859   */\n  dup2\n    /* \"#utility.yul\":2822:2860   */\n  tag_12\n  jump\t// in\ntag_64:\n    /* \"#utility.yul\":2906:2935   */\n  tag_65\n    /* \"#utility.yul\":2924:2934   */\n  dup5\n    /* \"#utility.yul\":2906:2935   */\n  tag_13\n  jump\t// in\ntag_65:\n    /* \"#utility.yul\":2896:2904   */\n  dup2\n    /* \"#utility.yul\":2892:2936   */\n  add\n    /* \"#utility.yul\":3089:3091   */\n  0x20\n    /* \"#utility.yul\":3077:3087   */\n  dup6\n    /* \"#utility.yul\":3074:3092   */\n  lt\n    /* \"#utility.yul\":3071:3120   */\n  iszero\n  tag_66\n  jumpi\n    /* \"#utility.yul\":3110:3118   */\n  dup2\n    /* \"#utility.yul\":3095:3118   */\n  swap1\n  pop\n    /* \"#utility.yul\":3071:3120   */\ntag_66:\n    /* \"#utility.yul\":3133:3213   */\n  tag_67\n    /* \"#utility.yul\":3189:3211   */\n  tag_68\n    /* \"#utility.yul\":3207:3210   */\n  dup6\n    /* \"#utility.yul\":3189:3211   */\n  tag_13\n  jump\t// in\ntag_68:\n    /* \"#utility.yul\":3179:3187   */\n  dup4\n    /* \"#utility.yul\":3175:3212   */\n  add\n    /* \"#utility.yul\":3162:3173   */\n  dup3\n    /* \"#utility.yul\":3133:3213   */\n  tag_23\n  jump\t// in\ntag_67:\n    /* \"#utility.yul\":2792:3223   */\n  pop\n  pop\n    /* \"#utility.yul\":2777:3223   */\ntag_63:\n    /* \"#utility.yul\":2687:3230   */\n  pop\n  pop\n  pop\n  jump\t// out\n    /* \"#utility.yul\":3236:3353   */\ntag_25:\n    /* \"#utility.yul\":3290:3298   */\n  0x00\n    /* \"#utility.yul\":3340:3345   */\n  dup3\n    /* \"#utility.yul\":3334:3338   */\n  dup3\n    /* \"#utility.yul\":3330:3346   */\n  shr\n    /* \"#utility.yul\":3309:3346   */\n  swap1\n  pop\n    /* \"#utility.yul\":3236:3353   */\n  swap3\n  swap2\n  pop\n  pop\n  jump\t// out\n    /* \"#utility.yul\":3359:3528   */\ntag_26:\n    /* \"#utility.yul\":3403:3409   */\n  0x00\n    /* \"#utility.yul\":3436:3487   */\n  tag_71\n    /* \"#utility.yul\":3484:3485   */\n  0x00\n    /* \"#utility.yul\":3480:3486   */\n  not\n    /* \"#utility.yul\":3472:3477   */\n  dup5\n    /* \"#utility.yul\":3469:3470   */\n  0x08\n    /* \"#utility.yul\":3465:3478   */\n  mul\n    /* \"#utility.yul\":3436:3487   */\n  tag_25\n  jump\t// in\ntag_71:\n    /* \"#utility.yul\":3432:3488   */\n  not\n    /* \"#utility.yul\":3517:3521   */\n  dup1\n    /* \"#utility.yul\":3511:3515   */\n  dup4\n    /* \"#utility.yul\":3507:3522   */\n  and\n    /* \"#utility.yul\":3497:3522   */\n  swap2\n  pop\n    /* \"#utility.yul\":3410:3528   */\n  pop\n    /* \"#utility.yul\":3359:3528   */\n  swap3\n  swap2\n  pop\n  pop\n  jump\t// out\n    /* \"#utility.yul\":3533:3828   */\ntag_27:\n    /* \"#utility.yul\":3609:3613   */\n  0x00\n    /* \"#utility.yul\":3755:3784   */\n  tag_73\n    /* \"#utility.yul\":3780:3783   */\n  dup4\n    /* \"#utility.yul\":3774:3778   */\n  dup4\n    /* \"#utility.yul\":3755:3784   */\n  tag_26\n  jump\t// in\ntag_73:\n    /* \"#utility.yul\":3747:3784   */\n  swap2\n  pop\n    /* \"#utility.yul\":3817:3820   */\n  dup3\n    /* \"#utility.yul\":3814:3815   */\n  0x02\n    /* \"#utility.yul\":3810:3821   */\n  mul\n    /* \"#utility.yul\":3804:3808   */\n  dup3\n    /* \"#utility.yul\":3801:3822   */\n  or\n    /* \"#utility.yul\":3793:3822   */\n  swap1\n  pop\n    /* \"#utility.yul\":3533:3828   */\n  swap3\n  swap2\n  pop\n  pop\n  jump\t// out\n    /* \"#utility.yul\":3833:5228   */\ntag_2:\n    /* \"#utility.yul\":3950:3987   */\n  tag_75\n    /* \"#utility.yul\":3983:3986   */\n  dup3\n    /* \"#utility.yul\":3950:3987   */\n  tag_8\n  jump\t// in\ntag_75:\n    /* \"#utility.yul\":4052:4070   */\n  0xffffffffffffffff\n    /* \"#utility.yul\":4044:4050   */\n  dup2\n    /* \"#utility.yul\":4041:4071   */\n  gt\n    /* \"#utility.yul\":4038:4094   */\n  iszero\n  tag_76\n  jumpi\n    /* \"#utility.yul\":4074:4092   */\n  tag_77\n  tag_9\n  jump\t// in\ntag_77:\n    /* \"#utility.yul\":4038:4094   */\ntag_76:\n    /* \"#utility.yul\":4118:4156   */\n  tag_78\n    /* \"#utility.yul\":4150:4154   */\n  dup3\n    /* \"#utility.yul\":4144:4155   */\n  sload\n    /* \"#utility.yul\":4118:4156   */\n  tag_11\n  jump\t// in\ntag_78:\n    /* \"#utility.yul\":4203:4270   */\n  tag_79\n    /* \"#utility.yul\":4263:4269   */\n  dup3\n    /* \"#utility.yul\":4255:4261   */\n  dup3\n    /* \"#utility.yul\":4249:4253   */\n  dup6\n    /* \"#utility.yul\":4203:4270   */\n  tag_24\n  jump\t// in\ntag_79:\n    /* \"#utility.yul\":4297:4298   */\n  0x00\n    /* \"#utility.yul\":4321:4325   */\n  0x20\n    /* \"#utility.yul\":4308:4325   */\n  swap1\n  pop\n    /* \"#utility.yul\":4353:4355   */\n  0x1f\n    /* \"#utility.yul\":4345:4351   */\n  dup4\n    /* \"#utility.yul\":4342:4356   */\n  gt\n    /* \"#utility.yul\":4370:4371   */\n  0x01\n    /* \"#utility.yul\":4365:4983   */\n  dup2\n  eq\n  tag_81\n  jumpi\n    /* \"#utility.yul\":5027:5028   */\n  0x00\n    /* \"#utility.yul\":5044:5050   */\n  dup5\n    /* \"#utility.yul\":5041:5118   */\n  iszero\n  tag_82\n  jumpi\n    /* \"#utility.yul\":5093:5102   */\n  dup3\n    /* \"#utility.yul\":5088:5091   */\n  dup8\n    /* \"#utility.yul\":5084:5103   */\n  add\n    /* \"#utility.yul\":5078:5104   */\n  mload\n    /* \"#utility.yul\":5069:5104   */\n  swap1\n  pop\n    /* \"#utility.yul\":5041:5118   */\ntag_82:\n    /* \"#utility.yul\":5144:5211   */\n  tag_83\n    /* \"#utility.yul\":5204:5210   */\n  dup6\n    /* \"#utility.yul\":5197:5202   */\n  dup3\n    /* \"#utility.yul\":5144:5211   */\n  tag_27\n  jump\t// in\ntag_83:\n    /* \"#utility.yul\":5138:5142   */\n  dup7\n    /* \"#utility.yul\":5131:5212   */\n  sstore\n    /* \"#utility.yul\":5000:5222   */\n  pop\n    /* \"#utility.yul\":4335:5222   */\n  jump(tag_80)\n    /* \"#utility.yul\":4365:4983   */\ntag_81:\n    /* \"#utility.yul\":4417:4421   */\n  0x1f\n    /* \"#utility.yul\":4413:4422   */\n  not\n    /* \"#utility.yul\":4405:4411   */\n  dup5\n    /* \"#utility.yul\":4401:4423   */\n  and\n    /* \"#utility.yul\":4451:4488   */\n  tag_84\n    /* \"#utility.yul\":4483:4487   */\n  dup7\n    /* \"#utility.yul\":4451:4488   */\n  tag_12\n  jump\t// in\ntag_84:\n    /* \"#utility.yul\":4510:4511   */\n  0x00\n    /* \"#utility.yul\":4524:4732   */\ntag_85:\n    /* \"#utility.yul\":4538:4545   */\n  dup3\n    /* \"#utility.yul\":4535:4536   */\n  dup2\n    /* \"#utility.yul\":4532:4546   */\n  lt\n    /* \"#utility.yul\":4524:4732   */\n  iszero\n  tag_87\n  jumpi\n    /* \"#utility.yul\":4617:4626   */\n  dup5\n    /* \"#utility.yul\":4612:4615   */\n  dup10\n    /* \"#utility.yul\":4608:4627   */\n  add\n    /* \"#utility.yul\":4602:4628   */\n  mload\n    /* \"#utility.yul\":4594:4600   */\n  dup3\n    /* \"#utility.yul\":4587:4629   */\n  sstore\n    /* \"#utility.yul\":4668:4669   */\n  0x01\n    /* \"#utility.yul\":4660:4666   */\n  dup3\n    /* \"#utility.yul\":4656:4670   */\n  add\n    /* \"#utility.yul\":4646:4670   */\n  swap2\n  pop\n    /* \"#utility.yul\":4715:4717   */\n  0x20\n    /* \"#utility.yul\":4704:4713   */\n  dup6\n    /* \"#utility.yul\":4700:4718   */\n  add\n    /* \"#utility.yul\":4687:4718   */\n  swap5\n  pop\n    /* \"#utility.yul\":4561:4565   */\n  0x20\n    /* \"#utility.yul\":4558:4559   */\n  dup2\n    /* \"#utility.yul\":4554:4566   */\n  add\n    /* \"#utility.yul\":4549:4566   */\n  swap1\n  pop\n    /* \"#utility.yul\":4524:4732   */\n  jump(tag_85)\ntag_87:\n    /* \"#utility.yul\":4760:4766   */\n  dup7\n    /* \"#utility.yul\":4751:4758   */\n  dup4\n    /* \"#utility.yul\":4748:4767   */\n  lt\n    /* \"#utility.yul\":4745:4924   */\n  iszero\n  tag_88\n  jumpi\n    /* \"#utility.yul\":4818:4827   */\n  dup5\n    /* \"#utility.yul\":4813:4816   */\n  dup10\n    /* \"#utility.yul\":4809:4828   */\n  add\n    /* \"#utility.yul\":4803:4829   */\n  mload\n    /* \"#utility.yul\":4861:4909   */\n  tag_89\n    /* \"#utility.yul\":4903:4907   */\n  0x1f\n    /* \"#utility.yul\":4895:4901   */\n  dup10\n    /* \"#utility.yul\":4891:4908   */\n  and\n    /* \"#utility.yul\":4880:4889   */\n  dup3\n    /* \"#utility.yul\":4861:4909   */\n  tag_26\n  jump\t// in\ntag_89:\n    /* \"#utility.yul\":4853:4859   */\n  dup4\n    /* \"#utility.yul\":4846:4910   */\n  sstore\n    /* \"#utility.yul\":4768:4924   */\n  pop\n    /* \"#utility.yul\":4745:4924   */\ntag_88:\n    /* \"#utility.yul\":4970:4971   */\n  0x01\n    /* \"#utility.yul\":4966:4967   */\n  0x02\n    /* \"#utility.yul\":4958:4964   */\n  dup9\n    /* \"#utility.yul\":4954:4968   */\n  mul\n    /* \"#utility.yul\":4950:4972   */\n  add\n    /* \"#utility.yul\":4944:4948   */\n  dup9\n    /* \"#utility.yul\":4937:4973   */\n  sstore\n    /* \"#utility.yul\":4372:4983   */\n  pop\n  pop\n  pop\n    /* \"#utility.yul\":4335:5222   */\ntag_80:\n  pop\n    /* \"#utility.yul\":3925:5228   */\n  pop\n  pop\n  pop\n    /* \"#utility.yul\":3833:5228   */\n  pop\n  pop\n  jump\t// out\n    /* \"13. inheritance.sol\":683:1226  contract Google is building('Taipei 1st headquarter') {... */\ntag_7:\n  dataSize(sub_0)\n  dup1\n  dataOffset(sub_0)\n  0x00\n  codecopy\n  0x00\n  return\nstop\n\nsub_0: assembly {\n        /* \"13. inheritance.sol\":683:1226  contract Google is building('Taipei 1st headquarter') {... */\n      mstore(0x40, 0x80)\n      callvalue\n      dup1\n      iszero\n      tag_1\n      jumpi\n      0x00\n      dup1\n      revert\n    tag_1:\n      pop\n      jumpi(tag_2, lt(calldatasize, 0x04))\n      shr(0xe0, calldataload(0x00))\n      dup1\n      0x86d1617a\n      gt\n      tag_10\n      jumpi\n      dup1\n      0x86d1617a\n      eq\n      tag_6\n      jumpi\n      dup1\n      0xb4a99a4e\n      eq\n      tag_7\n      jumpi\n      dup1\n      0xbaa48808\n      eq\n      tag_8\n      jumpi\n      dup1\n      0xe62c2f9c\n      eq\n      tag_9\n      jumpi\n      jump(tag_2)\n    tag_10:\n      dup1\n      0x06fdde03\n      eq\n      tag_3\n      jumpi\n      dup1\n      0x3a525c29\n      eq\n      tag_4\n      jumpi\n      dup1\n      0x516f279e\n      eq\n      tag_5\n      jumpi\n    tag_2:\n      0x00\n      dup1\n      revert\n        /* \"13. inheritance.sol\":120:138  string public name */\n    tag_3:\n      tag_11\n      tag_12\n      jump\t// in\n    tag_11:\n      mload(0x40)\n      tag_13\n      swap2\n      swap1\n      tag_14\n      jump\t// in\n    tag_13:\n      mload(0x40)\n      dup1\n      swap2\n      sub\n      swap1\n      return\n        /* \"13. inheritance.sol\":770:855  function get_name() public view returns(string memory) {... */\n    tag_4:\n      tag_15\n      tag_16\n      jump\t// in\n    tag_15:\n      mload(0x40)\n      tag_17\n      swap2\n      swap1\n      tag_14\n      jump\t// in\n    tag_17:\n      mload(0x40)\n      dup1\n      swap2\n      sub\n      swap1\n      return\n        /* \"13. inheritance.sol\":145:181  string public location = 'undefined' */\n    tag_5:\n      tag_18\n      tag_19\n      jump\t// in\n    tag_18:\n      mload(0x40)\n      tag_20\n      swap2\n      swap1\n      tag_14\n      jump\t// in\n    tag_20:\n      mload(0x40)\n      dup1\n      swap2\n      sub\n      swap1\n      return\n        /* \"13. inheritance.sol\":867:944  function set_area(string memory _area) public {... */\n    tag_6:\n      tag_21\n      0x04\n      dup1\n      calldatasize\n      sub\n      dup2\n      add\n      swap1\n      tag_22\n      swap2\n      swap1\n      tag_23\n      jump\t// in\n    tag_22:\n      tag_24\n      jump\t// in\n    tag_21:\n      stop\n        /* \"13. inheritance.sol\":595:676  function Owner() public pure returns(string memory){... */\n    tag_7:\n      tag_25\n      tag_26\n      jump\t// in\n    tag_25:\n      mload(0x40)\n      tag_27\n      swap2\n      swap1\n      tag_14\n      jump\t// in\n    tag_27:\n      mload(0x40)\n      dup1\n      swap2\n      sub\n      swap1\n      return\n        /* \"13. inheritance.sol\":367:460  function set_location(string memory _location) public {... */\n    tag_8:\n      tag_28\n      0x04\n      dup1\n      calldatasize\n      sub\n      dup2\n      add\n      swap1\n      tag_29\n      swap2\n      swap1\n      tag_23\n      jump\t// in\n    tag_29:\n      tag_30\n      jump\t// in\n    tag_28:\n      stop\n        /* \"13. inheritance.sol\":1011:1197  function get_location() public virtual override returns(string memory){... */\n    tag_9:\n      tag_31\n      tag_32\n      jump\t// in\n    tag_31:\n      mload(0x40)\n      tag_33\n      swap2\n      swap1\n      tag_14\n      jump\t// in\n    tag_33:\n      mload(0x40)\n      dup1\n      swap2\n      sub\n      swap1\n      return\n        /* \"13. inheritance.sol\":120:138  string public name */\n    tag_12:\n      0x00\n      dup1\n      sload\n      tag_34\n      swap1\n      tag_35\n      jump\t// in\n    tag_34:\n      dup1\n      0x1f\n      add\n      0x20\n      dup1\n      swap2\n      div\n      mul\n      0x20\n      add\n      mload(0x40)\n      swap1\n      dup2\n      add\n      0x40\n      mstore\n      dup1\n      swap3\n      swap2\n      swap1\n      dup2\n      dup2\n      mstore\n      0x20\n      add\n      dup3\n      dup1\n      sload\n      tag_36\n      swap1\n      tag_35\n      jump\t// in\n    tag_36:\n      dup1\n      iszero\n      tag_37\n      jumpi\n      dup1\n      0x1f\n      lt\n      tag_38\n      jumpi\n      0x0100\n      dup1\n      dup4\n      sload\n      div\n      mul\n      dup4\n      mstore\n      swap2\n      0x20\n      add\n      swap2\n      jump(tag_37)\n    tag_38:\n      dup3\n      add\n      swap2\n      swap1\n      0x00\n      mstore\n      keccak256(0x00, 0x20)\n      swap1\n    tag_39:\n      dup2\n      sload\n      dup2\n      mstore\n      swap1\n      0x01\n      add\n      swap1\n      0x20\n      add\n      dup1\n      dup4\n      gt\n      tag_39\n      jumpi\n      dup3\n      swap1\n      sub\n      0x1f\n      and\n      dup3\n      add\n      swap2\n    tag_37:\n      pop\n      pop\n      pop\n      pop\n      pop\n      dup2\n      jump\t// out\n        /* \"13. inheritance.sol\":770:855  function get_name() public view returns(string memory) {... */\n    tag_16:\n        /* \"13. inheritance.sol\":810:823  string memory */\n      0x60\n        /* \"13. inheritance.sol\":843:847  name */\n      0x00\n        /* \"13. inheritance.sol\":836:847  return name */\n      dup1\n      sload\n      tag_41\n      swap1\n      tag_35\n      jump\t// in\n    tag_41:\n      dup1\n      0x1f\n      add\n      0x20\n      dup1\n      swap2\n      div\n      mul\n      0x20\n      add\n      mload(0x40)\n      swap1\n      dup2\n      add\n      0x40\n      mstore\n      dup1\n      swap3\n      swap2\n      swap1\n      dup2\n      dup2\n      mstore\n      0x20\n      add\n      dup3\n      dup1\n      sload\n      tag_42\n      swap1\n      tag_35\n      jump\t// in\n    tag_42:\n      dup1\n      iszero\n      tag_43\n      jumpi\n      dup1\n      0x1f\n      lt\n      tag_44\n      jumpi\n      0x0100\n      dup1\n      dup4\n      sload\n      div\n      mul\n      dup4\n      mstore\n      swap2\n      0x20\n      add\n      swap2\n      jump(tag_43)\n    tag_44:\n      dup3\n      add\n      swap2\n      swap1\n      0x00\n      mstore\n      keccak256(0x00, 0x20)\n      swap1\n    tag_45:\n      dup2\n      sload\n      dup2\n      mstore\n      swap1\n      0x01\n      add\n      swap1\n      0x20\n      add\n      dup1\n      dup4\n      gt\n      tag_45\n      jumpi\n      dup3\n      swap1\n      sub\n      0x1f\n      and\n      dup3\n      add\n      swap2\n    tag_43:\n      pop\n      pop\n      pop\n      pop\n      pop\n      swap1\n      pop\n        /* \"13. inheritance.sol\":770:855  function get_name() public view returns(string memory) {... */\n      swap1\n      jump\t// out\n        /* \"13. inheritance.sol\":145:181  string public location = 'undefined' */\n    tag_19:\n      0x01\n      dup1\n      sload\n      tag_46\n      swap1\n      tag_35\n      jump\t// in\n    tag_46:\n      dup1\n      0x1f\n      add\n      0x20\n      dup1\n      swap2\n      div\n      mul\n      0x20\n      add\n      mload(0x40)\n      swap1\n      dup2\n      add\n      0x40\n      mstore\n      dup1\n      swap3\n      swap2\n      swap1\n      dup2\n      dup2\n      mstore\n      0x20\n      add\n      dup3\n      dup1\n      sload\n      tag_47\n      swap1\n      tag_35\n      jump\t// in\n    tag_47:\n      dup1\n      iszero\n      tag_48\n      jumpi\n      dup1\n      0x1f\n      lt\n      tag_49\n      jumpi\n      0x0100\n      dup1\n      dup4\n      sload\n      div\n      mul\n      dup4\n      mstore\n      swap2\n      0x20\n      add\n      swap2\n      jump(tag_48)\n    tag_49:\n      dup3\n      add\n      swap2\n      swap1\n      0x00\n      mstore\n      keccak256(0x00, 0x20)\n      swap1\n    tag_50:\n      dup2\n      sload\n      dup2\n      mstore\n      swap1\n      0x01\n      add\n      swap1\n      0x20\n      add\n      dup1\n      dup4\n      gt\n      tag_50\n      jumpi\n      dup3\n      swap1\n      sub\n      0x1f\n      and\n      dup3\n      add\n      swap2\n    tag_48:\n      pop\n      pop\n      pop\n      pop\n      pop\n      dup2\n      jump\t// out\n        /* \"13. inheritance.sol\":867:944  function set_area(string memory _area) public {... */\n    tag_24:\n        /* \"13. inheritance.sol\":931:936  _area */\n      dup1\n        /* \"13. inheritance.sol\":924:928  area */\n      0x02\n        /* \"13. inheritance.sol\":924:936  area = _area */\n      swap1\n      dup2\n      tag_52\n      swap2\n      swap1\n      tag_53\n      jump\t// in\n    tag_52:\n      pop\n        /* \"13. inheritance.sol\":867:944  function set_area(string memory _area) public {... */\n      pop\n      jump\t// out\n        /* \"13. inheritance.sol\":595:676  function Owner() public pure returns(string memory){... */\n    tag_26:\n        /* \"13. inheritance.sol\":632:645  string memory */\n      0x60\n        /* \"13. inheritance.sol\":657:668  return 'AI' */\n      mload(0x40)\n      dup1\n      0x40\n      add\n      0x40\n      mstore\n      dup1\n      0x02\n      dup2\n      mstore\n      0x20\n      add\n      0x4149000000000000000000000000000000000000000000000000000000000000\n      dup2\n      mstore\n      pop\n      swap1\n      pop\n        /* \"13. inheritance.sol\":595:676  function Owner() public pure returns(string memory){... */\n      swap1\n      jump\t// out\n        /* \"13. inheritance.sol\":367:460  function set_location(string memory _location) public {... */\n    tag_30:\n        /* \"13. inheritance.sol\":443:452  _location */\n      dup1\n        /* \"13. inheritance.sol\":432:440  location */\n      0x01\n        /* \"13. inheritance.sol\":432:452  location = _location */\n      swap1\n      dup2\n      tag_56\n      swap2\n      swap1\n      tag_53\n      jump\t// in\n    tag_56:\n      pop\n        /* \"13. inheritance.sol\":367:460  function set_location(string memory _location) public {... */\n      pop\n      jump\t// out\n        /* \"13. inheritance.sol\":1011:1197  function get_location() public virtual override returns(string memory){... */\n    tag_32:\n        /* \"13. inheritance.sol\":1067:1080  string memory */\n      0x60\n        /* \"13. inheritance.sol\":1097:1141  Log('Func. \\'Google.get_location\\' called.') */\n      0xcf34ef537ac33ee1ac626ca1587a0a7e8e51561e5514f8cb36afa1c5102b3bab\n      mload(0x40)\n      tag_58\n      swap1\n      tag_59\n      jump\t// in\n    tag_58:\n      mload(0x40)\n      dup1\n      swap2\n      sub\n      swap1\n      log1\n        /* \"13. inheritance.sol\":1173:1181  location */\n      0x01\n        /* \"13. inheritance.sol\":1183:1187  area */\n      0x02\n        /* \"13. inheritance.sol\":1159:1188  string.concat(location, area) */\n      add(0x20, mload(0x40))\n      tag_60\n      swap3\n      swap2\n      swap1\n      tag_61\n      jump\t// in\n    tag_60:\n      mload(0x40)\n      0x20\n      dup2\n      dup4\n      sub\n      sub\n      dup2\n      mstore\n      swap1\n      0x40\n      mstore\n        /* \"13. inheritance.sol\":1152:1189  return(string.concat(location, area)) */\n      swap1\n      pop\n        /* \"13. inheritance.sol\":1011:1197  function get_location() public virtual override returns(string memory){... */\n      swap1\n      jump\t// out\n        /* \"#utility.yul\":7:106   */\n    tag_62:\n        /* \"#utility.yul\":59:65   */\n      0x00\n        /* \"#utility.yul\":93:98   */\n      dup2\n        /* \"#utility.yul\":87:99   */\n      mload\n        /* \"#utility.yul\":77:99   */\n      swap1\n      pop\n        /* \"#utility.yul\":7:106   */\n      swap2\n      swap1\n      pop\n      jump\t// out\n        /* \"#utility.yul\":112:281   */\n    tag_63:\n        /* \"#utility.yul\":196:207   */\n      0x00\n        /* \"#utility.yul\":230:236   */\n      dup3\n        /* \"#utility.yul\":225:228   */\n      dup3\n        /* \"#utility.yul\":218:237   */\n      mstore\n        /* \"#utility.yul\":270:274   */\n      0x20\n        /* \"#utility.yul\":265:268   */\n      dup3\n        /* \"#utility.yul\":261:275   */\n      add\n        /* \"#utility.yul\":246:275   */\n      swap1\n      pop\n        /* \"#utility.yul\":112:281   */\n      swap3\n      swap2\n      pop\n      pop\n      jump\t// out\n        /* \"#utility.yul\":287:533   */\n    tag_64:\n        /* \"#utility.yul\":368:369   */\n      0x00\n        /* \"#utility.yul\":378:491   */\n    tag_104:\n        /* \"#utility.yul\":392:398   */\n      dup4\n        /* \"#utility.yul\":389:390   */\n      dup2\n        /* \"#utility.yul\":386:399   */\n      lt\n        /* \"#utility.yul\":378:491   */\n      iszero\n      tag_106\n      jumpi\n        /* \"#utility.yul\":477:478   */\n      dup1\n        /* \"#utility.yul\":472:475   */\n      dup3\n        /* \"#utility.yul\":468:479   */\n      add\n        /* \"#utility.yul\":462:480   */\n      mload\n        /* \"#utility.yul\":458:459   */\n      dup2\n        /* \"#utility.yul\":453:456   */\n      dup5\n        /* \"#utility.yul\":449:460   */\n      add\n        /* \"#utility.yul\":442:481   */\n      mstore\n        /* \"#utility.yul\":414:416   */\n      0x20\n        /* \"#utility.yul\":411:412   */\n      dup2\n        /* \"#utility.yul\":407:417   */\n      add\n        /* \"#utility.yul\":402:417   */\n      swap1\n      pop\n        /* \"#utility.yul\":378:491   */\n      jump(tag_104)\n    tag_106:\n        /* \"#utility.yul\":525:526   */\n      0x00\n        /* \"#utility.yul\":516:522   */\n      dup5\n        /* \"#utility.yul\":511:514   */\n      dup5\n        /* \"#utility.yul\":507:523   */\n      add\n        /* \"#utility.yul\":500:527   */\n      mstore\n        /* \"#utility.yul\":349:533   */\n      pop\n        /* \"#utility.yul\":287:533   */\n      pop\n      pop\n      pop\n      jump\t// out\n        /* \"#utility.yul\":539:641   */\n    tag_65:\n        /* \"#utility.yul\":580:586   */\n      0x00\n        /* \"#utility.yul\":631:633   */\n      0x1f\n        /* \"#utility.yul\":627:634   */\n      not\n        /* \"#utility.yul\":622:624   */\n      0x1f\n        /* \"#utility.yul\":615:620   */\n      dup4\n        /* \"#utility.yul\":611:625   */\n      add\n        /* \"#utility.yul\":607:635   */\n      and\n        /* \"#utility.yul\":597:635   */\n      swap1\n      pop\n        /* \"#utility.yul\":539:641   */\n      swap2\n      swap1\n      pop\n      jump\t// out\n        /* \"#utility.yul\":647:1024   */\n    tag_66:\n        /* \"#utility.yul\":735:738   */\n      0x00\n        /* \"#utility.yul\":763:802   */\n      tag_109\n        /* \"#utility.yul\":796:801   */\n      dup3\n        /* \"#utility.yul\":763:802   */\n      tag_62\n      jump\t// in\n    tag_109:\n        /* \"#utility.yul\":818:889   */\n      tag_110\n        /* \"#utility.yul\":882:888   */\n      dup2\n        /* \"#utility.yul\":877:880   */\n      dup6\n        /* \"#utility.yul\":818:889   */\n      tag_63\n      jump\t// in\n    tag_110:\n        /* \"#utility.yul\":811:889   */\n      swap4\n      pop\n        /* \"#utility.yul\":898:963   */\n      tag_111\n        /* \"#utility.yul\":956:962   */\n      dup2\n        /* \"#utility.yul\":951:954   */\n      dup6\n        /* \"#utility.yul\":944:948   */\n      0x20\n        /* \"#utility.yul\":937:942   */\n      dup7\n        /* \"#utility.yul\":933:949   */\n      add\n        /* \"#utility.yul\":898:963   */\n      tag_64\n      jump\t// in\n    tag_111:\n        /* \"#utility.yul\":988:1017   */\n      tag_112\n        /* \"#utility.yul\":1010:1016   */\n      dup2\n        /* \"#utility.yul\":988:1017   */\n      tag_65\n      jump\t// in\n    tag_112:\n        /* \"#utility.yul\":983:986   */\n      dup5\n        /* \"#utility.yul\":979:1018   */\n      add\n        /* \"#utility.yul\":972:1018   */\n      swap2\n      pop\n        /* \"#utility.yul\":739:1024   */\n      pop\n        /* \"#utility.yul\":647:1024   */\n      swap3\n      swap2\n      pop\n      pop\n      jump\t// out\n        /* \"#utility.yul\":1030:1343   */\n    tag_14:\n        /* \"#utility.yul\":1143:1147   */\n      0x00\n        /* \"#utility.yul\":1181:1183   */\n      0x20\n        /* \"#utility.yul\":1170:1179   */\n      dup3\n        /* \"#utility.yul\":1166:1184   */\n      add\n        /* \"#utility.yul\":1158:1184   */\n      swap1\n      pop\n        /* \"#utility.yul\":1230:1239   */\n      dup2\n        /* \"#utility.yul\":1224:1228   */\n      dup2\n        /* \"#utility.yul\":1220:1240   */\n      sub\n        /* \"#utility.yul\":1216:1217   */\n      0x00\n        /* \"#utility.yul\":1205:1214   */\n      dup4\n        /* \"#utility.yul\":1201:1218   */\n      add\n        /* \"#utility.yul\":1194:1241   */\n      mstore\n        /* \"#utility.yul\":1258:1336   */\n      tag_114\n        /* \"#utility.yul\":1331:1335   */\n      dup2\n        /* \"#utility.yul\":1322:1328   */\n      dup5\n        /* \"#utility.yul\":1258:1336   */\n      tag_66\n      jump\t// in\n    tag_114:\n        /* \"#utility.yul\":1250:1336   */\n      swap1\n      pop\n        /* \"#utility.yul\":1030:1343   */\n      swap3\n      swap2\n      pop\n      pop\n      jump\t// out\n        /* \"#utility.yul\":1349:1424   */\n    tag_67:\n        /* \"#utility.yul\":1382:1388   */\n      0x00\n        /* \"#utility.yul\":1415:1417   */\n      0x40\n        /* \"#utility.yul\":1409:1418   */\n      mload\n        /* \"#utility.yul\":1399:1418   */\n      swap1\n      pop\n        /* \"#utility.yul\":1349:1424   */\n      swap1\n      jump\t// out\n        /* \"#utility.yul\":1430:1547   */\n    tag_68:\n        /* \"#utility.yul\":1539:1540   */\n      0x00\n        /* \"#utility.yul\":1536:1537   */\n      dup1\n        /* \"#utility.yul\":1529:1541   */\n      revert\n        /* \"#utility.yul\":1553:1670   */\n    tag_69:\n        /* \"#utility.yul\":1662:1663   */\n      0x00\n        /* \"#utility.yul\":1659:1660   */\n      dup1\n        /* \"#utility.yul\":1652:1664   */\n      revert\n        /* \"#utility.yul\":1676:1793   */\n    tag_70:\n        /* \"#utility.yul\":1785:1786   */\n      0x00\n        /* \"#utility.yul\":1782:1783   */\n      dup1\n        /* \"#utility.yul\":1775:1787   */\n      revert\n        /* \"#utility.yul\":1799:1916   */\n    tag_71:\n        /* \"#utility.yul\":1908:1909   */\n      0x00\n        /* \"#utility.yul\":1905:1906   */\n      dup1\n        /* \"#utility.yul\":1898:1910   */\n      revert\n        /* \"#utility.yul\":1922:2102   */\n    tag_72:\n        /* \"#utility.yul\":1970:2047   */\n      0x4e487b7100000000000000000000000000000000000000000000000000000000\n        /* \"#utility.yul\":1967:1968   */\n      0x00\n        /* \"#utility.yul\":1960:2048   */\n      mstore\n        /* \"#utility.yul\":2067:2071   */\n      0x41\n        /* \"#utility.yul\":2064:2065   */\n      0x04\n        /* \"#utility.yul\":2057:2072   */\n      mstore\n        /* \"#utility.yul\":2091:2095   */\n      0x24\n        /* \"#utility.yul\":2088:2089   */\n      0x00\n        /* \"#utility.yul\":2081:2096   */\n      revert\n        /* \"#utility.yul\":2108:2389   */\n    tag_73:\n        /* \"#utility.yul\":2191:2218   */\n      tag_122\n        /* \"#utility.yul\":2213:2217   */\n      dup3\n        /* \"#utility.yul\":2191:2218   */\n      tag_65\n      jump\t// in\n    tag_122:\n        /* \"#utility.yul\":2183:2189   */\n      dup2\n        /* \"#utility.yul\":2179:2219   */\n      add\n        /* \"#utility.yul\":2321:2327   */\n      dup2\n        /* \"#utility.yul\":2309:2319   */\n      dup2\n        /* \"#utility.yul\":2306:2328   */\n      lt\n        /* \"#utility.yul\":2285:2303   */\n      0xffffffffffffffff\n        /* \"#utility.yul\":2273:2283   */\n      dup3\n        /* \"#utility.yul\":2270:2304   */\n      gt\n        /* \"#utility.yul\":2267:2329   */\n      or\n        /* \"#utility.yul\":2264:2352   */\n      iszero\n      tag_123\n      jumpi\n        /* \"#utility.yul\":2332:2350   */\n      tag_124\n      tag_72\n      jump\t// in\n    tag_124:\n        /* \"#utility.yul\":2264:2352   */\n    tag_123:\n        /* \"#utility.yul\":2372:2382   */\n      dup1\n        /* \"#utility.yul\":2368:2370   */\n      0x40\n        /* \"#utility.yul\":2361:2383   */\n      mstore\n        /* \"#utility.yul\":2151:2389   */\n      pop\n        /* \"#utility.yul\":2108:2389   */\n      pop\n      pop\n      jump\t// out\n        /* \"#utility.yul\":2395:2524   */\n    tag_74:\n        /* \"#utility.yul\":2429:2435   */\n      0x00\n        /* \"#utility.yul\":2456:2476   */\n      tag_126\n      tag_67\n      jump\t// in\n    tag_126:\n        /* \"#utility.yul\":2446:2476   */\n      swap1\n      pop\n        /* \"#utility.yul\":2485:2518   */\n      tag_127\n        /* \"#utility.yul\":2513:2517   */\n      dup3\n        /* \"#utility.yul\":2505:2511   */\n      dup3\n        /* \"#utility.yul\":2485:2518   */\n      tag_73\n      jump\t// in\n    tag_127:\n        /* \"#utility.yul\":2395:2524   */\n      swap2\n      swap1\n      pop\n      jump\t// out\n        /* \"#utility.yul\":2530:2838   */\n    tag_75:\n        /* \"#utility.yul\":2592:2596   */\n      0x00\n        /* \"#utility.yul\":2682:2700   */\n      0xffffffffffffffff\n        /* \"#utility.yul\":2674:2680   */\n      dup3\n        /* \"#utility.yul\":2671:2701   */\n      gt\n        /* \"#utility.yul\":2668:2724   */\n      iszero\n      tag_129\n      jumpi\n        /* \"#utility.yul\":2704:2722   */\n      tag_130\n      tag_72\n      jump\t// in\n    tag_130:\n        /* \"#utility.yul\":2668:2724   */\n    tag_129:\n        /* \"#utility.yul\":2742:2771   */\n      tag_131\n        /* \"#utility.yul\":2764:2770   */\n      dup3\n        /* \"#utility.yul\":2742:2771   */\n      tag_65\n      jump\t// in\n    tag_131:\n        /* \"#utility.yul\":2734:2771   */\n      swap1\n      pop\n        /* \"#utility.yul\":2826:2830   */\n      0x20\n        /* \"#utility.yul\":2820:2824   */\n      dup2\n        /* \"#utility.yul\":2816:2831   */\n      add\n        /* \"#utility.yul\":2808:2831   */\n      swap1\n      pop\n        /* \"#utility.yul\":2530:2838   */\n      swap2\n      swap1\n      pop\n      jump\t// out\n        /* \"#utility.yul\":2844:2990   */\n    tag_76:\n        /* \"#utility.yul\":2941:2947   */\n      dup3\n        /* \"#utility.yul\":2936:2939   */\n      dup2\n        /* \"#utility.yul\":2931:2934   */\n      dup4\n        /* \"#utility.yul\":2918:2948   */\n      calldatacopy\n        /* \"#utility.yul\":2982:2983   */\n      0x00\n        /* \"#utility.yul\":2973:2979   */\n      dup4\n        /* \"#utility.yul\":2968:2971   */\n      dup4\n        /* \"#utility.yul\":2964:2980   */\n      add\n        /* \"#utility.yul\":2957:2984   */\n      mstore\n        /* \"#utility.yul\":2844:2990   */\n      pop\n      pop\n      pop\n      jump\t// out\n        /* \"#utility.yul\":2996:3421   */\n    tag_77:\n        /* \"#utility.yul\":3074:3079   */\n      0x00\n        /* \"#utility.yul\":3099:3165   */\n      tag_134\n        /* \"#utility.yul\":3115:3164   */\n      tag_135\n        /* \"#utility.yul\":3157:3163   */\n      dup5\n        /* \"#utility.yul\":3115:3164   */\n      tag_75\n      jump\t// in\n    tag_135:\n        /* \"#utility.yul\":3099:3165   */\n      tag_74\n      jump\t// in\n    tag_134:\n        /* \"#utility.yul\":3090:3165   */\n      swap1\n      pop\n        /* \"#utility.yul\":3188:3194   */\n      dup3\n        /* \"#utility.yul\":3181:3186   */\n      dup2\n        /* \"#utility.yul\":3174:3195   */\n      mstore\n        /* \"#utility.yul\":3226:3230   */\n      0x20\n        /* \"#utility.yul\":3219:3224   */\n      dup2\n        /* \"#utility.yul\":3215:3231   */\n      add\n        /* \"#utility.yul\":3264:3267   */\n      dup5\n        /* \"#utility.yul\":3255:3261   */\n      dup5\n        /* \"#utility.yul\":3250:3253   */\n      dup5\n        /* \"#utility.yul\":3246:3262   */\n      add\n        /* \"#utility.yul\":3243:3268   */\n      gt\n        /* \"#utility.yul\":3240:3352   */\n      iszero\n      tag_136\n      jumpi\n        /* \"#utility.yul\":3271:3350   */\n      tag_137\n      tag_71\n      jump\t// in\n    tag_137:\n        /* \"#utility.yul\":3240:3352   */\n    tag_136:\n        /* \"#utility.yul\":3361:3415   */\n      tag_138\n        /* \"#utility.yul\":3408:3414   */\n      dup5\n        /* \"#utility.yul\":3403:3406   */\n      dup3\n        /* \"#utility.yul\":3398:3401   */\n      dup6\n        /* \"#utility.yul\":3361:3415   */\n      tag_76\n      jump\t// in\n    tag_138:\n        /* \"#utility.yul\":3080:3421   */\n      pop\n        /* \"#utility.yul\":2996:3421   */\n      swap4\n      swap3\n      pop\n      pop\n      pop\n      jump\t// out\n        /* \"#utility.yul\":3441:3781   */\n    tag_78:\n        /* \"#utility.yul\":3497:3502   */\n      0x00\n        /* \"#utility.yul\":3546:3549   */\n      dup3\n        /* \"#utility.yul\":3539:3543   */\n      0x1f\n        /* \"#utility.yul\":3531:3537   */\n      dup4\n        /* \"#utility.yul\":3527:3544   */\n      add\n        /* \"#utility.yul\":3523:3550   */\n      slt\n        /* \"#utility.yul\":3513:3635   */\n      tag_140\n      jumpi\n        /* \"#utility.yul\":3554:3633   */\n      tag_141\n      tag_70\n      jump\t// in\n    tag_141:\n        /* \"#utility.yul\":3513:3635   */\n    tag_140:\n        /* \"#utility.yul\":3671:3677   */\n      dup2\n        /* \"#utility.yul\":3658:3678   */\n      calldataload\n        /* \"#utility.yul\":3696:3775   */\n      tag_142\n        /* \"#utility.yul\":3771:3774   */\n      dup5\n        /* \"#utility.yul\":3763:3769   */\n      dup3\n        /* \"#utility.yul\":3756:3760   */\n      0x20\n        /* \"#utility.yul\":3748:3754   */\n      dup7\n        /* \"#utility.yul\":3744:3761   */\n      add\n        /* \"#utility.yul\":3696:3775   */\n      tag_77\n      jump\t// in\n    tag_142:\n        /* \"#utility.yul\":3687:3775   */\n      swap2\n      pop\n        /* \"#utility.yul\":3503:3781   */\n      pop\n        /* \"#utility.yul\":3441:3781   */\n      swap3\n      swap2\n      pop\n      pop\n      jump\t// out\n        /* \"#utility.yul\":3787:4296   */\n    tag_23:\n        /* \"#utility.yul\":3856:3862   */\n      0x00\n        /* \"#utility.yul\":3905:3907   */\n      0x20\n        /* \"#utility.yul\":3893:3902   */\n      dup3\n        /* \"#utility.yul\":3884:3891   */\n      dup5\n        /* \"#utility.yul\":3880:3903   */\n      sub\n        /* \"#utility.yul\":3876:3908   */\n      slt\n        /* \"#utility.yul\":3873:3992   */\n      iszero\n      tag_144\n      jumpi\n        /* \"#utility.yul\":3911:3990   */\n      tag_145\n      tag_68\n      jump\t// in\n    tag_145:\n        /* \"#utility.yul\":3873:3992   */\n    tag_144:\n        /* \"#utility.yul\":4059:4060   */\n      0x00\n        /* \"#utility.yul\":4048:4057   */\n      dup3\n        /* \"#utility.yul\":4044:4061   */\n      add\n        /* \"#utility.yul\":4031:4062   */\n      calldataload\n        /* \"#utility.yul\":4089:4107   */\n      0xffffffffffffffff\n        /* \"#utility.yul\":4081:4087   */\n      dup2\n        /* \"#utility.yul\":4078:4108   */\n      gt\n        /* \"#utility.yul\":4075:4192   */\n      iszero\n      tag_146\n      jumpi\n        /* \"#utility.yul\":4111:4190   */\n      tag_147\n      tag_69\n      jump\t// in\n    tag_147:\n        /* \"#utility.yul\":4075:4192   */\n    tag_146:\n        /* \"#utility.yul\":4216:4279   */\n      tag_148\n        /* \"#utility.yul\":4271:4278   */\n      dup5\n        /* \"#utility.yul\":4262:4268   */\n      dup3\n        /* \"#utility.yul\":4251:4260   */\n      dup6\n        /* \"#utility.yul\":4247:4269   */\n      add\n        /* \"#utility.yul\":4216:4279   */\n      tag_78\n      jump\t// in\n    tag_148:\n        /* \"#utility.yul\":4206:4279   */\n      swap2\n      pop\n        /* \"#utility.yul\":4002:4289   */\n      pop\n        /* \"#utility.yul\":3787:4296   */\n      swap3\n      swap2\n      pop\n      pop\n      jump\t// out\n        /* \"#utility.yul\":4302:4482   */\n    tag_79:\n        /* \"#utility.yul\":4350:4427   */\n      0x4e487b7100000000000000000000000000000000000000000000000000000000\n        /* \"#utility.yul\":4347:4348   */\n      0x00\n        /* \"#utility.yul\":4340:4428   */\n      mstore\n        /* \"#utility.yul\":4447:4451   */\n      0x22\n        /* \"#utility.yul\":4444:4445   */\n      0x04\n        /* \"#utility.yul\":4437:4452   */\n      mstore\n        /* \"#utility.yul\":4471:4475   */\n      0x24\n        /* \"#utility.yul\":4468:4469   */\n      0x00\n        /* \"#utility.yul\":4461:4476   */\n      revert\n        /* \"#utility.yul\":4488:4808   */\n    tag_35:\n        /* \"#utility.yul\":4532:4538   */\n      0x00\n        /* \"#utility.yul\":4569:4570   */\n      0x02\n        /* \"#utility.yul\":4563:4567   */\n      dup3\n        /* \"#utility.yul\":4559:4571   */\n      div\n        /* \"#utility.yul\":4549:4571   */\n      swap1\n      pop\n        /* \"#utility.yul\":4616:4617   */\n      0x01\n        /* \"#utility.yul\":4610:4614   */\n      dup3\n        /* \"#utility.yul\":4606:4618   */\n      and\n        /* \"#utility.yul\":4637:4655   */\n      dup1\n        /* \"#utility.yul\":4627:4708   */\n      tag_151\n      jumpi\n        /* \"#utility.yul\":4693:4697   */\n      0x7f\n        /* \"#utility.yul\":4685:4691   */\n      dup3\n        /* \"#utility.yul\":4681:4698   */\n      and\n        /* \"#utility.yul\":4671:4698   */\n      swap2\n      pop\n        /* \"#utility.yul\":4627:4708   */\n    tag_151:\n        /* \"#utility.yul\":4755:4757   */\n      0x20\n        /* \"#utility.yul\":4747:4753   */\n      dup3\n        /* \"#utility.yul\":4744:4758   */\n      lt\n        /* \"#utility.yul\":4724:4742   */\n      dup2\n        /* \"#utility.yul\":4721:4759   */\n      sub\n        /* \"#utility.yul\":4718:4802   */\n      tag_152\n      jumpi\n        /* \"#utility.yul\":4774:4792   */\n      tag_153\n      tag_79\n      jump\t// in\n    tag_153:\n        /* \"#utility.yul\":4718:4802   */\n    tag_152:\n        /* \"#utility.yul\":4539:4808   */\n      pop\n        /* \"#utility.yul\":4488:4808   */\n      swap2\n      swap1\n      pop\n      jump\t// out\n        /* \"#utility.yul\":4814:4955   */\n    tag_80:\n        /* \"#utility.yul\":4863:4867   */\n      0x00\n        /* \"#utility.yul\":4886:4889   */\n      dup2\n        /* \"#utility.yul\":4878:4889   */\n      swap1\n      pop\n        /* \"#utility.yul\":4909:4912   */\n      dup2\n        /* \"#utility.yul\":4906:4907   */\n      0x00\n        /* \"#utility.yul\":4899:4913   */\n      mstore\n        /* \"#utility.yul\":4943:4947   */\n      0x20\n        /* \"#utility.yul\":4940:4941   */\n      0x00\n        /* \"#utility.yul\":4930:4948   */\n      keccak256\n        /* \"#utility.yul\":4922:4948   */\n      swap1\n      pop\n        /* \"#utility.yul\":4814:4955   */\n      swap2\n      swap1\n      pop\n      jump\t// out\n        /* \"#utility.yul\":4961:5054   */\n    tag_81:\n        /* \"#utility.yul\":4998:5004   */\n      0x00\n        /* \"#utility.yul\":5045:5047   */\n      0x20\n        /* \"#utility.yul\":5040:5042   */\n      0x1f\n        /* \"#utility.yul\":5033:5038   */\n      dup4\n        /* \"#utility.yul\":5029:5043   */\n      add\n        /* \"#utility.yul\":5025:5048   */\n      div\n        /* \"#utility.yul\":5015:5048   */\n      swap1\n      pop\n        /* \"#utility.yul\":4961:5054   */\n      swap2\n      swap1\n      pop\n      jump\t// out\n        /* \"#utility.yul\":5060:5167   */\n    tag_82:\n        /* \"#utility.yul\":5104:5112   */\n      0x00\n        /* \"#utility.yul\":5154:5159   */\n      dup3\n        /* \"#utility.yul\":5148:5152   */\n      dup3\n        /* \"#utility.yul\":5144:5160   */\n      shl\n        /* \"#utility.yul\":5123:5160   */\n      swap1\n      pop\n        /* \"#utility.yul\":5060:5167   */\n      swap3\n      swap2\n      pop\n      pop\n      jump\t// out\n        /* \"#utility.yul\":5173:5566   */\n    tag_83:\n        /* \"#utility.yul\":5242:5248   */\n      0x00\n        /* \"#utility.yul\":5292:5293   */\n      0x08\n        /* \"#utility.yul\":5280:5290   */\n      dup4\n        /* \"#utility.yul\":5276:5294   */\n      mul\n        /* \"#utility.yul\":5315:5412   */\n      tag_158\n        /* \"#utility.yul\":5345:5411   */\n      0xffffffffffffffffffffffffffffffffffffffffffffffffffffffffffffffff\n        /* \"#utility.yul\":5334:5343   */\n      dup3\n        /* \"#utility.yul\":5315:5412   */\n      tag_82\n      jump\t// in\n    tag_158:\n        /* \"#utility.yul\":5433:5472   */\n      tag_159\n        /* \"#utility.yul\":5463:5471   */\n      dup7\n        /* \"#utility.yul\":5452:5461   */\n      dup4\n        /* \"#utility.yul\":5433:5472   */\n      tag_82\n      jump\t// in\n    tag_159:\n        /* \"#utility.yul\":5421:5472   */\n      swap6\n      pop\n        /* \"#utility.yul\":5505:5509   */\n      dup1\n        /* \"#utility.yul\":5501:5510   */\n      not\n        /* \"#utility.yul\":5494:5499   */\n      dup5\n        /* \"#utility.yul\":5490:5511   */\n      and\n        /* \"#utility.yul\":5481:5511   */\n      swap4\n      pop\n        /* \"#utility.yul\":5554:5558   */\n      dup1\n        /* \"#utility.yul\":5544:5552   */\n      dup7\n        /* \"#utility.yul\":5540:5559   */\n      and\n        /* \"#utility.yul\":5533:5538   */\n      dup5\n        /* \"#utility.yul\":5530:5560   */\n      or\n        /* \"#utility.yul\":5520:5560   */\n      swap3\n      pop\n        /* \"#utility.yul\":5249:5566   */\n      pop\n      pop\n        /* \"#utility.yul\":5173:5566   */\n      swap4\n      swap3\n      pop\n      pop\n      pop\n      jump\t// out\n        /* \"#utility.yul\":5572:5649   */\n    tag_84:\n        /* \"#utility.yul\":5609:5616   */\n      0x00\n        /* \"#utility.yul\":5638:5643   */\n      dup2\n        /* \"#utility.yul\":5627:5643   */\n      swap1\n      pop\n        /* \"#utility.yul\":5572:5649   */\n      swap2\n      swap1\n      pop\n      jump\t// out\n        /* \"#utility.yul\":5655:5715   */\n    tag_85:\n        /* \"#utility.yul\":5683:5686   */\n      0x00\n        /* \"#utility.yul\":5704:5709   */\n      dup2\n        /* \"#utility.yul\":5697:5709   */\n      swap1\n      pop\n        /* \"#utility.yul\":5655:5715   */\n      swap2\n      swap1\n      pop\n      jump\t// out\n        /* \"#utility.yul\":5721:5863   */\n    tag_86:\n        /* \"#utility.yul\":5771:5780   */\n      0x00\n        /* \"#utility.yul\":5804:5857   */\n      tag_163\n        /* \"#utility.yul\":5822:5856   */\n      tag_164\n        /* \"#utility.yul\":5831:5855   */\n      tag_165\n        /* \"#utility.yul\":5849:5854   */\n      dup5\n        /* \"#utility.yul\":5831:5855   */\n      tag_84\n      jump\t// in\n    tag_165:\n        /* \"#utility.yul\":5822:5856   */\n      tag_85\n      jump\t// in\n    tag_164:\n        /* \"#utility.yul\":5804:5857   */\n      tag_84\n      jump\t// in\n    tag_163:\n        /* \"#utility.yul\":5791:5857   */\n      swap1\n      pop\n        /* \"#utility.yul\":5721:5863   */\n      swap2\n      swap1\n      pop\n      jump\t// out\n        /* \"#utility.yul\":5869:5944   */\n    tag_87:\n        /* \"#utility.yul\":5912:5915   */\n      0x00\n        /* \"#utility.yul\":5933:5938   */\n      dup2\n        /* \"#utility.yul\":5926:5938   */\n      swap1\n      pop\n        /* \"#utility.yul\":5869:5944   */\n      swap2\n      swap1\n      pop\n      jump\t// out\n        /* \"#utility.yul\":5950:6219   */\n    tag_88:\n        /* \"#utility.yul\":6060:6099   */\n      tag_168\n        /* \"#utility.yul\":6091:6098   */\n      dup4\n        /* \"#utility.yul\":6060:6099   */\n      tag_86\n      jump\t// in\n    tag_168:\n        /* \"#utility.yul\":6121:6212   */\n      tag_169\n        /* \"#utility.yul\":6170:6211   */\n      tag_170\n        /* \"#utility.yul\":6194:6210   */\n      dup3\n        /* \"#utility.yul\":6170:6211   */\n      tag_87\n      jump\t// in\n    tag_170:\n        /* \"#utility.yul\":6162:6168   */\n      dup5\n        /* \"#utility.yul\":6155:6159   */\n      dup5\n        /* \"#utility.yul\":6149:6160   */\n      sload\n        /* \"#utility.yul\":6121:6212   */\n      tag_83\n      jump\t// in\n    tag_169:\n        /* \"#utility.yul\":6115:6119   */\n      dup3\n        /* \"#utility.yul\":6108:6213   */\n      sstore\n        /* \"#utility.yul\":6026:6219   */\n      pop\n        /* \"#utility.yul\":5950:6219   */\n      pop\n      pop\n      pop\n      jump\t// out\n        /* \"#utility.yul\":6225:6298   */\n    tag_89:\n        /* \"#utility.yul\":6270:6273   */\n      0x00\n        /* \"#utility.yul\":6225:6298   */\n      swap1\n      jump\t// out\n        /* \"#utility.yul\":6304:6493   */\n    tag_90:\n        /* \"#utility.yul\":6381:6413   */\n      tag_173\n      tag_89\n      jump\t// in\n    tag_173:\n        /* \"#utility.yul\":6422:6487   */\n      tag_174\n        /* \"#utility.yul\":6480:6486   */\n      dup2\n        /* \"#utility.yul\":6472:6478   */\n      dup5\n        /* \"#utility.yul\":6466:6470   */\n      dup5\n        /* \"#utility.yul\":6422:6487   */\n      tag_88\n      jump\t// in\n    tag_174:\n        /* \"#utility.yul\":6357:6493   */\n      pop\n        /* \"#utility.yul\":6304:6493   */\n      pop\n      pop\n      jump\t// out\n        /* \"#utility.yul\":6499:6685   */\n    tag_91:\n        /* \"#utility.yul\":6559:6679   */\n    tag_176:\n        /* \"#utility.yul\":6576:6579   */\n      dup2\n        /* \"#utility.yul\":6569:6574   */\n      dup2\n        /* \"#utility.yul\":6566:6580   */\n      lt\n        /* \"#utility.yul\":6559:6679   */\n      iszero\n      tag_178\n      jumpi\n        /* \"#utility.yul\":6630:6669   */\n      tag_179\n        /* \"#utility.yul\":6667:6668   */\n      0x00\n        /* \"#utility.yul\":6660:6665   */\n      dup3\n        /* \"#utility.yul\":6630:6669   */\n      tag_90\n      jump\t// in\n    tag_179:\n        /* \"#utility.yul\":6603:6604   */\n      0x01\n        /* \"#utility.yul\":6596:6601   */\n      dup2\n        /* \"#utility.yul\":6592:6605   */\n      add\n        /* \"#utility.yul\":6583:6605   */\n      swap1\n      pop\n        /* \"#utility.yul\":6559:6679   */\n      jump(tag_176)\n    tag_178:\n        /* \"#utility.yul\":6499:6685   */\n      pop\n      pop\n      jump\t// out\n        /* \"#utility.yul\":6691:7234   */\n    tag_92:\n        /* \"#utility.yul\":6792:6794   */\n      0x1f\n        /* \"#utility.yul\":6787:6790   */\n      dup3\n        /* \"#utility.yul\":6784:6795   */\n      gt\n        /* \"#utility.yul\":6781:7227   */\n      iszero\n      tag_181\n      jumpi\n        /* \"#utility.yul\":6826:6864   */\n      tag_182\n        /* \"#utility.yul\":6858:6863   */\n      dup2\n        /* \"#utility.yul\":6826:6864   */\n      tag_80\n      jump\t// in\n    tag_182:\n        /* \"#utility.yul\":6910:6939   */\n      tag_183\n        /* \"#utility.yul\":6928:6938   */\n      dup5\n        /* \"#utility.yul\":6910:6939   */\n      tag_81\n      jump\t// in\n    tag_183:\n        /* \"#utility.yul\":6900:6908   */\n      dup2\n        /* \"#utility.yul\":6896:6940   */\n      add\n        /* \"#utility.yul\":7093:7095   */\n      0x20\n        /* \"#utility.yul\":7081:7091   */\n      dup6\n        /* \"#utility.yul\":7078:7096   */\n      lt\n        /* \"#utility.yul\":7075:7124   */\n      iszero\n      tag_184\n      jumpi\n        /* \"#utility.yul\":7114:7122   */\n      dup2\n        /* \"#utility.yul\":7099:7122   */\n      swap1\n      pop\n        /* \"#utility.yul\":7075:7124   */\n    tag_184:\n        /* \"#utility.yul\":7137:7217   */\n      tag_185\n        /* \"#utility.yul\":7193:7215   */\n      tag_186\n        /* \"#utility.yul\":7211:7214   */\n      dup6\n        /* \"#utility.yul\":7193:7215   */\n      tag_81\n      jump\t// in\n    tag_186:\n        /* \"#utility.yul\":7183:7191   */\n      dup4\n        /* \"#utility.yul\":7179:7216   */\n      add\n        /* \"#utility.yul\":7166:7177   */\n      dup3\n        /* \"#utility.yul\":7137:7217   */\n      tag_91\n      jump\t// in\n    tag_185:\n        /* \"#utility.yul\":6796:7227   */\n      pop\n      pop\n        /* \"#utility.yul\":6781:7227   */\n    tag_181:\n        /* \"#utility.yul\":6691:7234   */\n      pop\n      pop\n      pop\n      jump\t// out\n        /* \"#utility.yul\":7240:7357   */\n    tag_93:\n        /* \"#utility.yul\":7294:7302   */\n      0x00\n        /* \"#utility.yul\":7344:7349   */\n      dup3\n        /* \"#utility.yul\":7338:7342   */\n      dup3\n        /* \"#utility.yul\":7334:7350   */\n      shr\n        /* \"#utility.yul\":7313:7350   */\n      swap1\n      pop\n        /* \"#utility.yul\":7240:7357   */\n      swap3\n      swap2\n      pop\n      pop\n      jump\t// out\n        /* \"#utility.yul\":7363:7532   */\n    tag_94:\n        /* \"#utility.yul\":7407:7413   */\n      0x00\n        /* \"#utility.yul\":7440:7491   */\n      tag_189\n        /* \"#utility.yul\":7488:7489   */\n      0x00\n        /* \"#utility.yul\":7484:7490   */\n      not\n        /* \"#utility.yul\":7476:7481   */\n      dup5\n        /* \"#utility.yul\":7473:7474   */\n      0x08\n        /* \"#utility.yul\":7469:7482   */\n      mul\n        /* \"#utility.yul\":7440:7491   */\n      tag_93\n      jump\t// in\n    tag_189:\n        /* \"#utility.yul\":7436:7492   */\n      not\n        /* \"#utility.yul\":7521:7525   */\n      dup1\n        /* \"#utility.yul\":7515:7519   */\n      dup4\n        /* \"#utility.yul\":7511:7526   */\n      and\n        /* \"#utility.yul\":7501:7526   */\n      swap2\n      pop\n        /* \"#utility.yul\":7414:7532   */\n      pop\n        /* \"#utility.yul\":7363:7532   */\n      swap3\n      swap2\n      pop\n      pop\n      jump\t// out\n        /* \"#utility.yul\":7537:7832   */\n    tag_95:\n        /* \"#utility.yul\":7613:7617   */\n      0x00\n        /* \"#utility.yul\":7759:7788   */\n      tag_191\n        /* \"#utility.yul\":7784:7787   */\n      dup4\n        /* \"#utility.yul\":7778:7782   */\n      dup4\n        /* \"#utility.yul\":7759:7788   */\n      tag_94\n      jump\t// in\n    tag_191:\n        /* \"#utility.yul\":7751:7788   */\n      swap2\n      pop\n        /* \"#utility.yul\":7821:7824   */\n      dup3\n        /* \"#utility.yul\":7818:7819   */\n      0x02\n        /* \"#utility.yul\":7814:7825   */\n      mul\n        /* \"#utility.yul\":7808:7812   */\n      dup3\n        /* \"#utility.yul\":7805:7826   */\n      or\n        /* \"#utility.yul\":7797:7826   */\n      swap1\n      pop\n        /* \"#utility.yul\":7537:7832   */\n      swap3\n      swap2\n      pop\n      pop\n      jump\t// out\n        /* \"#utility.yul\":7837:9232   */\n    tag_53:\n        /* \"#utility.yul\":7954:7991   */\n      tag_193\n        /* \"#utility.yul\":7987:7990   */\n      dup3\n        /* \"#utility.yul\":7954:7991   */\n      tag_62\n      jump\t// in\n    tag_193:\n        /* \"#utility.yul\":8056:8074   */\n      0xffffffffffffffff\n        /* \"#utility.yul\":8048:8054   */\n      dup2\n        /* \"#utility.yul\":8045:8075   */\n      gt\n        /* \"#utility.yul\":8042:8098   */\n      iszero\n      tag_194\n      jumpi\n        /* \"#utility.yul\":8078:8096   */\n      tag_195\n      tag_72\n      jump\t// in\n    tag_195:\n        /* \"#utility.yul\":8042:8098   */\n    tag_194:\n        /* \"#utility.yul\":8122:8160   */\n      tag_196\n        /* \"#utility.yul\":8154:8158   */\n      dup3\n        /* \"#utility.yul\":8148:8159   */\n      sload\n        /* \"#utility.yul\":8122:8160   */\n      tag_35\n      jump\t// in\n    tag_196:\n        /* \"#utility.yul\":8207:8274   */\n      tag_197\n        /* \"#utility.yul\":8267:8273   */\n      dup3\n        /* \"#utility.yul\":8259:8265   */\n      dup3\n        /* \"#utility.yul\":8253:8257   */\n      dup6\n        /* \"#utility.yul\":8207:8274   */\n      tag_92\n      jump\t// in\n    tag_197:\n        /* \"#utility.yul\":8301:8302   */\n      0x00\n        /* \"#utility.yul\":8325:8329   */\n      0x20\n        /* \"#utility.yul\":8312:8329   */\n      swap1\n      pop\n        /* \"#utility.yul\":8357:8359   */\n      0x1f\n        /* \"#utility.yul\":8349:8355   */\n      dup4\n        /* \"#utility.yul\":8346:8360   */\n      gt\n        /* \"#utility.yul\":8374:8375   */\n      0x01\n        /* \"#utility.yul\":8369:8987   */\n      dup2\n      eq\n      tag_199\n      jumpi\n        /* \"#utility.yul\":9031:9032   */\n      0x00\n        /* \"#utility.yul\":9048:9054   */\n      dup5\n        /* \"#utility.yul\":9045:9122   */\n      iszero\n      tag_200\n      jumpi\n        /* \"#utility.yul\":9097:9106   */\n      dup3\n        /* \"#utility.yul\":9092:9095   */\n      dup8\n        /* \"#utility.yul\":9088:9107   */\n      add\n        /* \"#utility.yul\":9082:9108   */\n      mload\n        /* \"#utility.yul\":9073:9108   */\n      swap1\n      pop\n        /* \"#utility.yul\":9045:9122   */\n    tag_200:\n        /* \"#utility.yul\":9148:9215   */\n      tag_201\n        /* \"#utility.yul\":9208:9214   */\n      dup6\n        /* \"#utility.yul\":9201:9206   */\n      dup3\n        /* \"#utility.yul\":9148:9215   */\n      tag_95\n      jump\t// in\n    tag_201:\n        /* \"#utility.yul\":9142:9146   */\n      dup7\n        /* \"#utility.yul\":9135:9216   */\n      sstore\n        /* \"#utility.yul\":9004:9226   */\n      pop\n        /* \"#utility.yul\":8339:9226   */\n      jump(tag_198)\n        /* \"#utility.yul\":8369:8987   */\n    tag_199:\n        /* \"#utility.yul\":8421:8425   */\n      0x1f\n        /* \"#utility.yul\":8417:8426   */\n      not\n        /* \"#utility.yul\":8409:8415   */\n      dup5\n        /* \"#utility.yul\":8405:8427   */\n      and\n        /* \"#utility.yul\":8455:8492   */\n      tag_202\n        /* \"#utility.yul\":8487:8491   */\n      dup7\n        /* \"#utility.yul\":8455:8492   */\n      tag_80\n      jump\t// in\n    tag_202:\n        /* \"#utility.yul\":8514:8515   */\n      0x00\n        /* \"#utility.yul\":8528:8736   */\n    tag_203:\n        /* \"#utility.yul\":8542:8549   */\n      dup3\n        /* \"#utility.yul\":8539:8540   */\n      dup2\n        /* \"#utility.yul\":8536:8550   */\n      lt\n        /* \"#utility.yul\":8528:8736   */\n      iszero\n      tag_205\n      jumpi\n        /* \"#utility.yul\":8621:8630   */\n      dup5\n        /* \"#utility.yul\":8616:8619   */\n      dup10\n        /* \"#utility.yul\":8612:8631   */\n      add\n        /* \"#utility.yul\":8606:8632   */\n      mload\n        /* \"#utility.yul\":8598:8604   */\n      dup3\n        /* \"#utility.yul\":8591:8633   */\n      sstore\n        /* \"#utility.yul\":8672:8673   */\n      0x01\n        /* \"#utility.yul\":8664:8670   */\n      dup3\n        /* \"#utility.yul\":8660:8674   */\n      add\n        /* \"#utility.yul\":8650:8674   */\n      swap2\n      pop\n        /* \"#utility.yul\":8719:8721   */\n      0x20\n        /* \"#utility.yul\":8708:8717   */\n      dup6\n        /* \"#utility.yul\":8704:8722   */\n      add\n        /* \"#utility.yul\":8691:8722   */\n      swap5\n      pop\n        /* \"#utility.yul\":8565:8569   */\n      0x20\n        /* \"#utility.yul\":8562:8563   */\n      dup2\n        /* \"#utility.yul\":8558:8570   */\n      add\n        /* \"#utility.yul\":8553:8570   */\n      swap1\n      pop\n        /* \"#utility.yul\":8528:8736   */\n      jump(tag_203)\n    tag_205:\n        /* \"#utility.yul\":8764:8770   */\n      dup7\n        /* \"#utility.yul\":8755:8762   */\n      dup4\n        /* \"#utility.yul\":8752:8771   */\n      lt\n        /* \"#utility.yul\":8749:8928   */\n      iszero\n      tag_206\n      jumpi\n        /* \"#utility.yul\":8822:8831   */\n      dup5\n        /* \"#utility.yul\":8817:8820   */\n      dup10\n        /* \"#utility.yul\":8813:8832   */\n      add\n        /* \"#utility.yul\":8807:8833   */\n      mload\n        /* \"#utility.yul\":8865:8913   */\n      tag_207\n        /* \"#utility.yul\":8907:8911   */\n      0x1f\n        /* \"#utility.yul\":8899:8905   */\n      dup10\n        /* \"#utility.yul\":8895:8912   */\n      and\n        /* \"#utility.yul\":8884:8893   */\n      dup3\n        /* \"#utility.yul\":8865:8913   */\n      tag_94\n      jump\t// in\n    tag_207:\n        /* \"#utility.yul\":8857:8863   */\n      dup4\n        /* \"#utility.yul\":8850:8914   */\n      sstore\n        /* \"#utility.yul\":8772:8928   */\n      pop\n        /* \"#utility.yul\":8749:8928   */\n    tag_206:\n        /* \"#utility.yul\":8974:8975   */\n      0x01\n        /* \"#utility.yul\":8970:8971   */\n      0x02\n        /* \"#utility.yul\":8962:8968   */\n      dup9\n        /* \"#utility.yul\":8958:8972   */\n      mul\n        /* \"#utility.yul\":8954:8976   */\n      add\n        /* \"#utility.yul\":8948:8952   */\n      dup9\n        /* \"#utility.yul\":8941:8977   */\n      sstore\n        /* \"#utility.yul\":8376:8987   */\n      pop\n      pop\n      pop\n        /* \"#utility.yul\":8339:9226   */\n    tag_198:\n      pop\n        /* \"#utility.yul\":7929:9232   */\n      pop\n      pop\n      pop\n        /* \"#utility.yul\":7837:9232   */\n      pop\n      pop\n      jump\t// out\n        /* \"#utility.yul\":9238:9460   */\n    tag_96:\n        /* \"#utility.yul\":9378:9412   */\n      0x46756e632e2027476f6f676c652e6765745f6c6f636174696f6e272063616c6c\n        /* \"#utility.yul\":9374:9375   */\n      0x00\n        /* \"#utility.yul\":9366:9372   */\n      dup3\n        /* \"#utility.yul\":9362:9376   */\n      add\n        /* \"#utility.yul\":9355:9413   */\n      mstore\n        /* \"#utility.yul\":9447:9452   */\n      0x65642e0000000000000000000000000000000000000000000000000000000000\n        /* \"#utility.yul\":9442:9444   */\n      0x20\n        /* \"#utility.yul\":9434:9440   */\n      dup3\n        /* \"#utility.yul\":9430:9445   */\n      add\n        /* \"#utility.yul\":9423:9453   */\n      mstore\n        /* \"#utility.yul\":9238:9460   */\n      pop\n      jump\t// out\n        /* \"#utility.yul\":9466:9832   */\n    tag_97:\n        /* \"#utility.yul\":9608:9611   */\n      0x00\n        /* \"#utility.yul\":9629:9696   */\n      tag_210\n        /* \"#utility.yul\":9693:9695   */\n      0x23\n        /* \"#utility.yul\":9688:9691   */\n      dup4\n        /* \"#utility.yul\":9629:9696   */\n      tag_63\n      jump\t// in\n    tag_210:\n        /* \"#utility.yul\":9622:9696   */\n      swap2\n      pop\n        /* \"#utility.yul\":9705:9798   */\n      tag_211\n        /* \"#utility.yul\":9794:9797   */\n      dup3\n        /* \"#utility.yul\":9705:9798   */\n      tag_96\n      jump\t// in\n    tag_211:\n        /* \"#utility.yul\":9823:9825   */\n      0x40\n        /* \"#utility.yul\":9818:9821   */\n      dup3\n        /* \"#utility.yul\":9814:9826   */\n      add\n        /* \"#utility.yul\":9807:9826   */\n      swap1\n      pop\n        /* \"#utility.yul\":9466:9832   */\n      swap2\n      swap1\n      pop\n      jump\t// out\n        /* \"#utility.yul\":9838:10257   */\n    tag_59:\n        /* \"#utility.yul\":10004:10008   */\n      0x00\n        /* \"#utility.yul\":10042:10044   */\n      0x20\n        /* \"#utility.yul\":10031:10040   */\n      dup3\n        /* \"#utility.yul\":10027:10045   */\n      add\n        /* \"#utility.yul\":10019:10045   */\n      swap1\n      pop\n        /* \"#utility.yul\":10091:10100   */\n      dup2\n        /* \"#utility.yul\":10085:10089   */\n      dup2\n        /* \"#utility.yul\":10081:10101   */\n      sub\n        /* \"#utility.yul\":10077:10078   */\n      0x00\n        /* \"#utility.yul\":10066:10075   */\n      dup4\n        /* \"#utility.yul\":10062:10079   */\n      add\n        /* \"#utility.yul\":10055:10102   */\n      mstore\n        /* \"#utility.yul\":10119:10250   */\n      tag_213\n        /* \"#utility.yul\":10245:10249   */\n      dup2\n        /* \"#utility.yul\":10119:10250   */\n      tag_97\n      jump\t// in\n    tag_213:\n        /* \"#utility.yul\":10111:10250   */\n      swap1\n      pop\n        /* \"#utility.yul\":9838:10257   */\n      swap2\n      swap1\n      pop\n      jump\t// out\n        /* \"#utility.yul\":10263:10411   */\n    tag_98:\n        /* \"#utility.yul\":10365:10376   */\n      0x00\n        /* \"#utility.yul\":10402:10405   */\n      dup2\n        /* \"#utility.yul\":10387:10405   */\n      swap1\n      pop\n        /* \"#utility.yul\":10263:10411   */\n      swap3\n      swap2\n      pop\n      pop\n      jump\t// out\n        /* \"#utility.yul\":10441:11315   */\n    tag_99:\n        /* \"#utility.yul\":10544:10547   */\n      0x00\n        /* \"#utility.yul\":10581:10586   */\n      dup2\n        /* \"#utility.yul\":10575:10587   */\n      sload\n        /* \"#utility.yul\":10610:10646   */\n      tag_216\n        /* \"#utility.yul\":10636:10645   */\n      dup2\n        /* \"#utility.yul\":10610:10646   */\n      tag_35\n      jump\t// in\n    tag_216:\n        /* \"#utility.yul\":10662:10751   */\n      tag_217\n        /* \"#utility.yul\":10744:10750   */\n      dup2\n        /* \"#utility.yul\":10739:10742   */\n      dup7\n        /* \"#utility.yul\":10662:10751   */\n      tag_98\n      jump\t// in\n    tag_217:\n        /* \"#utility.yul\":10655:10751   */\n      swap5\n      pop\n        /* \"#utility.yul\":10782:10783   */\n      0x01\n        /* \"#utility.yul\":10771:10780   */\n      dup3\n        /* \"#utility.yul\":10767:10784   */\n      and\n        /* \"#utility.yul\":10798:10799   */\n      0x00\n        /* \"#utility.yul\":10793:10959   */\n      dup2\n      eq\n      tag_219\n      jumpi\n        /* \"#utility.yul\":10973:10974   */\n      0x01\n        /* \"#utility.yul\":10968:11309   */\n      dup2\n      eq\n      tag_220\n      jumpi\n        /* \"#utility.yul\":10760:11309   */\n      jump(tag_218)\n        /* \"#utility.yul\":10793:10959   */\n    tag_219:\n        /* \"#utility.yul\":10877:10881   */\n      0xff\n        /* \"#utility.yul\":10873:10882   */\n      not\n        /* \"#utility.yul\":10862:10871   */\n      dup4\n        /* \"#utility.yul\":10858:10883   */\n      and\n        /* \"#utility.yul\":10853:10856   */\n      dup7\n        /* \"#utility.yul\":10846:10884   */\n      mstore\n        /* \"#utility.yul\":10939:10945   */\n      dup2\n        /* \"#utility.yul\":10932:10946   */\n      iszero\n        /* \"#utility.yul\":10925:10947   */\n      iszero\n        /* \"#utility.yul\":10917:10923   */\n      dup3\n        /* \"#utility.yul\":10913:10948   */\n      mul\n        /* \"#utility.yul\":10908:10911   */\n      dup7\n        /* \"#utility.yul\":10904:10949   */\n      add\n        /* \"#utility.yul\":10897:10949   */\n      swap4\n      pop\n        /* \"#utility.yul\":10793:10959   */\n      jump(tag_218)\n        /* \"#utility.yul\":10968:11309   */\n    tag_220:\n        /* \"#utility.yul\":11035:11073   */\n      tag_221\n        /* \"#utility.yul\":11067:11072   */\n      dup6\n        /* \"#utility.yul\":11035:11073   */\n      tag_80\n      jump\t// in\n    tag_221:\n        /* \"#utility.yul\":11095:11096   */\n      0x00\n        /* \"#utility.yul\":11109:11263   */\n    tag_222:\n        /* \"#utility.yul\":11123:11129   */\n      dup4\n        /* \"#utility.yul\":11120:11121   */\n      dup2\n        /* \"#utility.yul\":11117:11130   */\n      lt\n        /* \"#utility.yul\":11109:11263   */\n      iszero\n      tag_224\n      jumpi\n        /* \"#utility.yul\":11197:11204   */\n      dup2\n        /* \"#utility.yul\":11191:11205   */\n      sload\n        /* \"#utility.yul\":11187:11188   */\n      dup2\n        /* \"#utility.yul\":11182:11185   */\n      dup10\n        /* \"#utility.yul\":11178:11189   */\n      add\n        /* \"#utility.yul\":11171:11206   */\n      mstore\n        /* \"#utility.yul\":11247:11248   */\n      0x01\n        /* \"#utility.yul\":11238:11245   */\n      dup3\n        /* \"#utility.yul\":11234:11249   */\n      add\n        /* \"#utility.yul\":11223:11249   */\n      swap2\n      pop\n        /* \"#utility.yul\":11145:11149   */\n      0x20\n        /* \"#utility.yul\":11142:11143   */\n      dup2\n        /* \"#utility.yul\":11138:11150   */\n      add\n        /* \"#utility.yul\":11133:11150   */\n      swap1\n      pop\n        /* \"#utility.yul\":11109:11263   */\n      jump(tag_222)\n    tag_224:\n        /* \"#utility.yul\":11292:11298   */\n      dup4\n        /* \"#utility.yul\":11287:11290   */\n      dup9\n        /* \"#utility.yul\":11283:11299   */\n      add\n        /* \"#utility.yul\":11276:11299   */\n      swap6\n      pop\n        /* \"#utility.yul\":10975:11309   */\n      pop\n      pop\n        /* \"#utility.yul\":10760:11309   */\n    tag_218:\n      pop\n        /* \"#utility.yul\":10548:11315   */\n      pop\n      pop\n        /* \"#utility.yul\":10441:11315   */\n      swap3\n      swap2\n      pop\n      pop\n      jump\t// out\n        /* \"#utility.yul\":11321:11744   */\n    tag_61:\n        /* \"#utility.yul\":11495:11498   */\n      0x00\n        /* \"#utility.yul\":11517:11609   */\n      tag_226\n        /* \"#utility.yul\":11605:11608   */\n      dup3\n        /* \"#utility.yul\":11596:11602   */\n      dup6\n        /* \"#utility.yul\":11517:11609   */\n      tag_99\n      jump\t// in\n    tag_226:\n        /* \"#utility.yul\":11510:11609   */\n      swap2\n      pop\n        /* \"#utility.yul\":11626:11718   */\n      tag_227\n        /* \"#utility.yul\":11714:11717   */\n      dup3\n        /* \"#utility.yul\":11705:11711   */\n      dup5\n        /* \"#utility.yul\":11626:11718   */\n      tag_99\n      jump\t// in\n    tag_227:\n        /* \"#utility.yul\":11619:11718   */\n      swap2\n      pop\n        /* \"#utility.yul\":11735:11738   */\n      dup2\n        /* \"#utility.yul\":11728:11738   */\n      swap1\n      pop\n        /* \"#utility.yul\":11321:11744   */\n      swap4\n      swap3\n      pop\n      pop\n      pop\n      jump\t// out\n\n    auxdata: 0xa26469706673582212209dfbd14bdd13b9bd7be380032c2f54ba27eb355af5c6270d0fcd24ee81c2134a64736f6c63430008120033\n}\n",
				"bytecode": {
					"linkReferences": {},
					"object": "60806040526040518060400160405280600981526020017f756e646566696e65640000000000000000000000000000000000000000000000815250600190816200004a919062000322565b503480156200005857600080fd5b506040518060400160405280601681526020017f54616970656920317374206865616471756172746572000000000000000000008152508060009081620000a0919062000322565b505062000409565b600081519050919050565b7f4e487b7100000000000000000000000000000000000000000000000000000000600052604160045260246000fd5b7f4e487b7100000000000000000000000000000000000000000000000000000000600052602260045260246000fd5b600060028204905060018216806200012a57607f821691505b60208210810362000140576200013f620000e2565b5b50919050565b60008190508160005260206000209050919050565b60006020601f8301049050919050565b600082821b905092915050565b600060088302620001aa7fffffffffffffffffffffffffffffffffffffffffffffffffffffffffffffffff826200016b565b620001b686836200016b565b95508019841693508086168417925050509392505050565b6000819050919050565b6000819050919050565b600062000203620001fd620001f784620001ce565b620001d8565b620001ce565b9050919050565b6000819050919050565b6200021f83620001e2565b620002376200022e826200020a565b84845462000178565b825550505050565b600090565b6200024e6200023f565b6200025b81848462000214565b505050565b5b8181101562000283576200027760008262000244565b60018101905062000261565b5050565b601f821115620002d2576200029c8162000146565b620002a7846200015b565b81016020851015620002b7578190505b620002cf620002c6856200015b565b83018262000260565b50505b505050565b600082821c905092915050565b6000620002f760001984600802620002d7565b1980831691505092915050565b6000620003128383620002e4565b9150826002028217905092915050565b6200032d82620000a8565b67ffffffffffffffff811115620003495762000348620000b3565b5b62000355825462000111565b6200036282828562000287565b600060209050601f8311600181146200039a576000841562000385578287015190505b62000391858262000304565b86555062000401565b601f198416620003aa8662000146565b60005b82811015620003d457848901518255600182019150602085019450602081019050620003ad565b86831015620003f45784890151620003f0601f891682620002e4565b8355505b6001600288020188555050505b505050505050565b610a6780620004196000396000f3fe608060405234801561001057600080fd5b506004361061007d5760003560e01c806386d1617a1161005b57806386d1617a146100dc578063b4a99a4e146100f8578063baa4880814610116578063e62c2f9c146101325761007d565b806306fdde03146100825780633a525c29146100a0578063516f279e146100be575b600080fd5b61008a610150565b6040516100979190610451565b60405180910390f35b6100a86101de565b6040516100b59190610451565b60405180910390f35b6100c6610270565b6040516100d39190610451565b60405180910390f35b6100f660048036038101906100f191906105bc565b6102fe565b005b610100610311565b60405161010d9190610451565b60405180910390f35b610130600480360381019061012b91906105bc565b61034e565b005b61013a610361565b6040516101479190610451565b60405180910390f35b6000805461015d90610634565b80601f016020809104026020016040519081016040528092919081815260200182805461018990610634565b80156101d65780601f106101ab576101008083540402835291602001916101d6565b820191906000526020600020905b8154815290600101906020018083116101b957829003601f168201915b505050505081565b6060600080546101ed90610634565b80601f016020809104026020016040519081016040528092919081815260200182805461021990610634565b80156102665780601f1061023b57610100808354040283529160200191610266565b820191906000526020600020905b81548152906001019060200180831161024957829003601f168201915b5050505050905090565b6001805461027d90610634565b80601f01602080910402602001604051908101604052809291908181526020018280546102a990610634565b80156102f65780601f106102cb576101008083540402835291602001916102f6565b820191906000526020600020905b8154815290600101906020018083116102d957829003601f168201915b505050505081565b806002908161030d919061081b565b5050565b60606040518060400160405280600281526020017f4149000000000000000000000000000000000000000000000000000000000000815250905090565b806001908161035d919061081b565b5050565b60607fcf34ef537ac33ee1ac626ca1587a0a7e8e51561e5514f8cb36afa1c5102b3bab6040516103909061095f565b60405180910390a1600160026040516020016103ad929190610a0d565b604051602081830303815290604052905090565b600081519050919050565b600082825260208201905092915050565b60005b838110156103fb5780820151818401526020810190506103e0565b60008484015250505050565b6000601f19601f8301169050919050565b6000610423826103c1565b61042d81856103cc565b935061043d8185602086016103dd565b61044681610407565b840191505092915050565b6000602082019050818103600083015261046b8184610418565b905092915050565b6000604051905090565b600080fd5b600080fd5b600080fd5b600080fd5b7f4e487b7100000000000000000000000000000000000000000000000000000000600052604160045260246000fd5b6104c982610407565b810181811067ffffffffffffffff821117156104e8576104e7610491565b5b80604052505050565b60006104fb610473565b905061050782826104c0565b919050565b600067ffffffffffffffff82111561052757610526610491565b5b61053082610407565b9050602081019050919050565b82818337600083830152505050565b600061055f61055a8461050c565b6104f1565b90508281526020810184848401111561057b5761057a61048c565b5b61058684828561053d565b509392505050565b600082601f8301126105a3576105a2610487565b5b81356105b384826020860161054c565b91505092915050565b6000602082840312156105d2576105d161047d565b5b600082013567ffffffffffffffff8111156105f0576105ef610482565b5b6105fc8482850161058e565b91505092915050565b7f4e487b7100000000000000000000000000000000000000000000000000000000600052602260045260246000fd5b6000600282049050600182168061064c57607f821691505b60208210810361065f5761065e610605565b5b50919050565b60008190508160005260206000209050919050565b60006020601f8301049050919050565b600082821b905092915050565b6000600883026106c77fffffffffffffffffffffffffffffffffffffffffffffffffffffffffffffffff8261068a565b6106d1868361068a565b95508019841693508086168417925050509392505050565b6000819050919050565b6000819050919050565b600061071861071361070e846106e9565b6106f3565b6106e9565b9050919050565b6000819050919050565b610732836106fd565b61074661073e8261071f565b848454610697565b825550505050565b600090565b61075b61074e565b610766818484610729565b505050565b5b8181101561078a5761077f600082610753565b60018101905061076c565b5050565b601f8211156107cf576107a081610665565b6107a98461067a565b810160208510156107b8578190505b6107cc6107c48561067a565b83018261076b565b50505b505050565b600082821c905092915050565b60006107f2600019846008026107d4565b1980831691505092915050565b600061080b83836107e1565b9150826002028217905092915050565b610824826103c1565b67ffffffffffffffff81111561083d5761083c610491565b5b6108478254610634565b61085282828561078e565b600060209050601f8311600181146108855760008415610873578287015190505b61087d85826107ff565b8655506108e5565b601f19841661089386610665565b60005b828110156108bb57848901518255600182019150602085019450602081019050610896565b868310156108d857848901516108d4601f8916826107e1565b8355505b6001600288020188555050505b505050505050565b7f46756e632e2027476f6f676c652e6765745f6c6f636174696f6e272063616c6c60008201527f65642e0000000000000000000000000000000000000000000000000000000000602082015250565b60006109496023836103cc565b9150610954826108ed565b604082019050919050565b600060208201905081810360008301526109788161093c565b9050919050565b600081905092915050565b6000815461099781610634565b6109a1818661097f565b945060018216600081146109bc57600181146109d157610a04565b60ff1983168652811515820286019350610a04565b6109da85610665565b60005b838110156109fc578154818901526001820191506020810190506109dd565b838801955050505b50505092915050565b6000610a19828561098a565b9150610a25828461098a565b9150819050939250505056fea26469706673582212209dfbd14bdd13b9bd7be380032c2f54ba27eb355af5c6270d0fcd24ee81c2134a64736f6c63430008120033",
					"opcodes": "PUSH1 0x80 PUSH1 0x40 MSTORE PUSH1 0x40 MLOAD DUP1 PUSH1 0x40 ADD PUSH1 0x40 MSTORE DUP1 PUSH1 0x9 DUP2 MSTORE PUSH1 0x20 ADD PUSH32 0x756E646566696E65640000000000000000000000000000000000000000000000 DUP2 MSTORE POP PUSH1 0x1 SWAP1 DUP2 PUSH3 0x4A SWAP2 SWAP1 PUSH3 0x322 JUMP JUMPDEST POP CALLVALUE DUP1 ISZERO PUSH3 0x58 JUMPI PUSH1 0x0 DUP1 REVERT JUMPDEST POP PUSH1 0x40 MLOAD DUP1 PUSH1 0x40 ADD PUSH1 0x40 MSTORE DUP1 PUSH1 0x16 DUP2 MSTORE PUSH1 0x20 ADD PUSH32 0x5461697065692031737420686561647175617274657200000000000000000000 DUP2 MSTORE POP DUP1 PUSH1 0x0 SWAP1 DUP2 PUSH3 0xA0 SWAP2 SWAP1 PUSH3 0x322 JUMP JUMPDEST POP POP PUSH3 0x409 JUMP JUMPDEST PUSH1 0x0 DUP2 MLOAD SWAP1 POP SWAP2 SWAP1 POP JUMP JUMPDEST PUSH32 0x4E487B7100000000000000000000000000000000000000000000000000000000 PUSH1 0x0 MSTORE PUSH1 0x41 PUSH1 0x4 MSTORE PUSH1 0x24 PUSH1 0x0 REVERT JUMPDEST PUSH32 0x4E487B7100000000000000000000000000000000000000000000000000000000 PUSH1 0x0 MSTORE PUSH1 0x22 PUSH1 0x4 MSTORE PUSH1 0x24 PUSH1 0x0 REVERT JUMPDEST PUSH1 0x0 PUSH1 0x2 DUP3 DIV SWAP1 POP PUSH1 0x1 DUP3 AND DUP1 PUSH3 0x12A JUMPI PUSH1 0x7F DUP3 AND SWAP2 POP JUMPDEST PUSH1 0x20 DUP3 LT DUP2 SUB PUSH3 0x140 JUMPI PUSH3 0x13F PUSH3 0xE2 JUMP JUMPDEST JUMPDEST POP SWAP2 SWAP1 POP JUMP JUMPDEST PUSH1 0x0 DUP2 SWAP1 POP DUP2 PUSH1 0x0 MSTORE PUSH1 0x20 PUSH1 0x0 KECCAK256 SWAP1 POP SWAP2 SWAP1 POP JUMP JUMPDEST PUSH1 0x0 PUSH1 0x20 PUSH1 0x1F DUP4 ADD DIV SWAP1 POP SWAP2 SWAP1 POP JUMP JUMPDEST PUSH1 0x0 DUP3 DUP3 SHL SWAP1 POP SWAP3 SWAP2 POP POP JUMP JUMPDEST PUSH1 0x0 PUSH1 0x8 DUP4 MUL PUSH3 0x1AA PUSH32 0xFFFFFFFFFFFFFFFFFFFFFFFFFFFFFFFFFFFFFFFFFFFFFFFFFFFFFFFFFFFFFFFF DUP3 PUSH3 0x16B JUMP JUMPDEST PUSH3 0x1B6 DUP7 DUP4 PUSH3 0x16B JUMP JUMPDEST SWAP6 POP DUP1 NOT DUP5 AND SWAP4 POP DUP1 DUP7 AND DUP5 OR SWAP3 POP POP POP SWAP4 SWAP3 POP POP POP JUMP JUMPDEST PUSH1 0x0 DUP2 SWAP1 POP SWAP2 SWAP1 POP JUMP JUMPDEST PUSH1 0x0 DUP2 SWAP1 POP SWAP2 SWAP1 POP JUMP JUMPDEST PUSH1 0x0 PUSH3 0x203 PUSH3 0x1FD PUSH3 0x1F7 DUP5 PUSH3 0x1CE JUMP JUMPDEST PUSH3 0x1D8 JUMP JUMPDEST PUSH3 0x1CE JUMP JUMPDEST SWAP1 POP SWAP2 SWAP1 POP JUMP JUMPDEST PUSH1 0x0 DUP2 SWAP1 POP SWAP2 SWAP1 POP JUMP JUMPDEST PUSH3 0x21F DUP4 PUSH3 0x1E2 JUMP JUMPDEST PUSH3 0x237 PUSH3 0x22E DUP3 PUSH3 0x20A JUMP JUMPDEST DUP5 DUP5 SLOAD PUSH3 0x178 JUMP JUMPDEST DUP3 SSTORE POP POP POP POP JUMP JUMPDEST PUSH1 0x0 SWAP1 JUMP JUMPDEST PUSH3 0x24E PUSH3 0x23F JUMP JUMPDEST PUSH3 0x25B DUP2 DUP5 DUP5 PUSH3 0x214 JUMP JUMPDEST POP POP POP JUMP JUMPDEST JUMPDEST DUP2 DUP2 LT ISZERO PUSH3 0x283 JUMPI PUSH3 0x277 PUSH1 0x0 DUP3 PUSH3 0x244 JUMP JUMPDEST PUSH1 0x1 DUP2 ADD SWAP1 POP PUSH3 0x261 JUMP JUMPDEST POP POP JUMP JUMPDEST PUSH1 0x1F DUP3 GT ISZERO PUSH3 0x2D2 JUMPI PUSH3 0x29C DUP2 PUSH3 0x146 JUMP JUMPDEST PUSH3 0x2A7 DUP5 PUSH3 0x15B JUMP JUMPDEST DUP2 ADD PUSH1 0x20 DUP6 LT ISZERO PUSH3 0x2B7 JUMPI DUP2 SWAP1 POP JUMPDEST PUSH3 0x2CF PUSH3 0x2C6 DUP6 PUSH3 0x15B JUMP JUMPDEST DUP4 ADD DUP3 PUSH3 0x260 JUMP JUMPDEST POP POP JUMPDEST POP POP POP JUMP JUMPDEST PUSH1 0x0 DUP3 DUP3 SHR SWAP1 POP SWAP3 SWAP2 POP POP JUMP JUMPDEST PUSH1 0x0 PUSH3 0x2F7 PUSH1 0x0 NOT DUP5 PUSH1 0x8 MUL PUSH3 0x2D7 JUMP JUMPDEST NOT DUP1 DUP4 AND SWAP2 POP POP SWAP3 SWAP2 POP POP JUMP JUMPDEST PUSH1 0x0 PUSH3 0x312 DUP4 DUP4 PUSH3 0x2E4 JUMP JUMPDEST SWAP2 POP DUP3 PUSH1 0x2 MUL DUP3 OR SWAP1 POP SWAP3 SWAP2 POP POP JUMP JUMPDEST PUSH3 0x32D DUP3 PUSH3 0xA8 JUMP JUMPDEST PUSH8 0xFFFFFFFFFFFFFFFF DUP2 GT ISZERO PUSH3 0x349 JUMPI PUSH3 0x348 PUSH3 0xB3 JUMP JUMPDEST JUMPDEST PUSH3 0x355 DUP3 SLOAD PUSH3 0x111 JUMP JUMPDEST PUSH3 0x362 DUP3 DUP3 DUP6 PUSH3 0x287 JUMP JUMPDEST PUSH1 0x0 PUSH1 0x20 SWAP1 POP PUSH1 0x1F DUP4 GT PUSH1 0x1 DUP2 EQ PUSH3 0x39A JUMPI PUSH1 0x0 DUP5 ISZERO PUSH3 0x385 JUMPI DUP3 DUP8 ADD MLOAD SWAP1 POP JUMPDEST PUSH3 0x391 DUP6 DUP3 PUSH3 0x304 JUMP JUMPDEST DUP7 SSTORE POP PUSH3 0x401 JUMP JUMPDEST PUSH1 0x1F NOT DUP5 AND PUSH3 0x3AA DUP7 PUSH3 0x146 JUMP JUMPDEST PUSH1 0x0 JUMPDEST DUP3 DUP2 LT ISZERO PUSH3 0x3D4 JUMPI DUP5 DUP10 ADD MLOAD DUP3 SSTORE PUSH1 0x1 DUP3 ADD SWAP2 POP PUSH1 0x20 DUP6 ADD SWAP5 POP PUSH1 0x20 DUP2 ADD SWAP1 POP PUSH3 0x3AD JUMP JUMPDEST DUP7 DUP4 LT ISZERO PUSH3 0x3F4 JUMPI DUP5 DUP10 ADD MLOAD PUSH3 0x3F0 PUSH1 0x1F DUP10 AND DUP3 PUSH3 0x2E4 JUMP JUMPDEST DUP4 SSTORE POP JUMPDEST PUSH1 0x1 PUSH1 0x2 DUP9 MUL ADD DUP9 SSTORE POP POP POP JUMPDEST POP POP POP POP POP POP JUMP JUMPDEST PUSH2 0xA67 DUP1 PUSH3 0x419 PUSH1 0x0 CODECOPY PUSH1 0x0 RETURN INVALID PUSH1 0x80 PUSH1 0x40 MSTORE CALLVALUE DUP1 ISZERO PUSH2 0x10 JUMPI PUSH1 0x0 DUP1 REVERT JUMPDEST POP PUSH1 0x4 CALLDATASIZE LT PUSH2 0x7D JUMPI PUSH1 0x0 CALLDATALOAD PUSH1 0xE0 SHR DUP1 PUSH4 0x86D1617A GT PUSH2 0x5B JUMPI DUP1 PUSH4 0x86D1617A EQ PUSH2 0xDC JUMPI DUP1 PUSH4 0xB4A99A4E EQ PUSH2 0xF8 JUMPI DUP1 PUSH4 0xBAA48808 EQ PUSH2 0x116 JUMPI DUP1 PUSH4 0xE62C2F9C EQ PUSH2 0x132 JUMPI PUSH2 0x7D JUMP JUMPDEST DUP1 PUSH4 0x6FDDE03 EQ PUSH2 0x82 JUMPI DUP1 PUSH4 0x3A525C29 EQ PUSH2 0xA0 JUMPI DUP1 PUSH4 0x516F279E EQ PUSH2 0xBE JUMPI JUMPDEST PUSH1 0x0 DUP1 REVERT JUMPDEST PUSH2 0x8A PUSH2 0x150 JUMP JUMPDEST PUSH1 0x40 MLOAD PUSH2 0x97 SWAP2 SWAP1 PUSH2 0x451 JUMP JUMPDEST PUSH1 0x40 MLOAD DUP1 SWAP2 SUB SWAP1 RETURN JUMPDEST PUSH2 0xA8 PUSH2 0x1DE JUMP JUMPDEST PUSH1 0x40 MLOAD PUSH2 0xB5 SWAP2 SWAP1 PUSH2 0x451 JUMP JUMPDEST PUSH1 0x40 MLOAD DUP1 SWAP2 SUB SWAP1 RETURN JUMPDEST PUSH2 0xC6 PUSH2 0x270 JUMP JUMPDEST PUSH1 0x40 MLOAD PUSH2 0xD3 SWAP2 SWAP1 PUSH2 0x451 JUMP JUMPDEST PUSH1 0x40 MLOAD DUP1 SWAP2 SUB SWAP1 RETURN JUMPDEST PUSH2 0xF6 PUSH1 0x4 DUP1 CALLDATASIZE SUB DUP2 ADD SWAP1 PUSH2 0xF1 SWAP2 SWAP1 PUSH2 0x5BC JUMP JUMPDEST PUSH2 0x2FE JUMP JUMPDEST STOP JUMPDEST PUSH2 0x100 PUSH2 0x311 JUMP JUMPDEST PUSH1 0x40 MLOAD PUSH2 0x10D SWAP2 SWAP1 PUSH2 0x451 JUMP JUMPDEST PUSH1 0x40 MLOAD DUP1 SWAP2 SUB SWAP1 RETURN JUMPDEST PUSH2 0x130 PUSH1 0x4 DUP1 CALLDATASIZE SUB DUP2 ADD SWAP1 PUSH2 0x12B SWAP2 SWAP1 PUSH2 0x5BC JUMP JUMPDEST PUSH2 0x34E JUMP JUMPDEST STOP JUMPDEST PUSH2 0x13A PUSH2 0x361 JUMP JUMPDEST PUSH1 0x40 MLOAD PUSH2 0x147 SWAP2 SWAP1 PUSH2 0x451 JUMP JUMPDEST PUSH1 0x40 MLOAD DUP1 SWAP2 SUB SWAP1 RETURN JUMPDEST PUSH1 0x0 DUP1 SLOAD PUSH2 0x15D SWAP1 PUSH2 0x634 JUMP JUMPDEST DUP1 PUSH1 0x1F ADD PUSH1 0x20 DUP1 SWAP2 DIV MUL PUSH1 0x20 ADD PUSH1 0x40 MLOAD SWAP1 DUP2 ADD PUSH1 0x40 MSTORE DUP1 SWAP3 SWAP2 SWAP1 DUP2 DUP2 MSTORE PUSH1 0x20 ADD DUP3 DUP1 SLOAD PUSH2 0x189 SWAP1 PUSH2 0x634 JUMP JUMPDEST DUP1 ISZERO PUSH2 0x1D6 JUMPI DUP1 PUSH1 0x1F LT PUSH2 0x1AB JUMPI PUSH2 0x100 DUP1 DUP4 SLOAD DIV MUL DUP4 MSTORE SWAP2 PUSH1 0x20 ADD SWAP2 PUSH2 0x1D6 JUMP JUMPDEST DUP3 ADD SWAP2 SWAP1 PUSH1 0x0 MSTORE PUSH1 0x20 PUSH1 0x0 KECCAK256 SWAP1 JUMPDEST DUP2 SLOAD DUP2 MSTORE SWAP1 PUSH1 0x1 ADD SWAP1 PUSH1 0x20 ADD DUP1 DUP4 GT PUSH2 0x1B9 JUMPI DUP3 SWAP1 SUB PUSH1 0x1F AND DUP3 ADD SWAP2 JUMPDEST POP POP POP POP POP DUP2 JUMP JUMPDEST PUSH1 0x60 PUSH1 0x0 DUP1 SLOAD PUSH2 0x1ED SWAP1 PUSH2 0x634 JUMP JUMPDEST DUP1 PUSH1 0x1F ADD PUSH1 0x20 DUP1 SWAP2 DIV MUL PUSH1 0x20 ADD PUSH1 0x40 MLOAD SWAP1 DUP2 ADD PUSH1 0x40 MSTORE DUP1 SWAP3 SWAP2 SWAP1 DUP2 DUP2 MSTORE PUSH1 0x20 ADD DUP3 DUP1 SLOAD PUSH2 0x219 SWAP1 PUSH2 0x634 JUMP JUMPDEST DUP1 ISZERO PUSH2 0x266 JUMPI DUP1 PUSH1 0x1F LT PUSH2 0x23B JUMPI PUSH2 0x100 DUP1 DUP4 SLOAD DIV MUL DUP4 MSTORE SWAP2 PUSH1 0x20 ADD SWAP2 PUSH2 0x266 JUMP JUMPDEST DUP3 ADD SWAP2 SWAP1 PUSH1 0x0 MSTORE PUSH1 0x20 PUSH1 0x0 KECCAK256 SWAP1 JUMPDEST DUP2 SLOAD DUP2 MSTORE SWAP1 PUSH1 0x1 ADD SWAP1 PUSH1 0x20 ADD DUP1 DUP4 GT PUSH2 0x249 JUMPI DUP3 SWAP1 SUB PUSH1 0x1F AND DUP3 ADD SWAP2 JUMPDEST POP POP POP POP POP SWAP1 POP SWAP1 JUMP JUMPDEST PUSH1 0x1 DUP1 SLOAD PUSH2 0x27D SWAP1 PUSH2 0x634 JUMP JUMPDEST DUP1 PUSH1 0x1F ADD PUSH1 0x20 DUP1 SWAP2 DIV MUL PUSH1 0x20 ADD PUSH1 0x40 MLOAD SWAP1 DUP2 ADD PUSH1 0x40 MSTORE DUP1 SWAP3 SWAP2 SWAP1 DUP2 DUP2 MSTORE PUSH1 0x20 ADD DUP3 DUP1 SLOAD PUSH2 0x2A9 SWAP1 PUSH2 0x634 JUMP JUMPDEST DUP1 ISZERO PUSH2 0x2F6 JUMPI DUP1 PUSH1 0x1F LT PUSH2 0x2CB JUMPI PUSH2 0x100 DUP1 DUP4 SLOAD DIV MUL DUP4 MSTORE SWAP2 PUSH1 0x20 ADD SWAP2 PUSH2 0x2F6 JUMP JUMPDEST DUP3 ADD SWAP2 SWAP1 PUSH1 0x0 MSTORE PUSH1 0x20 PUSH1 0x0 KECCAK256 SWAP1 JUMPDEST DUP2 SLOAD DUP2 MSTORE SWAP1 PUSH1 0x1 ADD SWAP1 PUSH1 0x20 ADD DUP1 DUP4 GT PUSH2 0x2D9 JUMPI DUP3 SWAP1 SUB PUSH1 0x1F AND DUP3 ADD SWAP2 JUMPDEST POP POP POP POP POP DUP2 JUMP JUMPDEST DUP1 PUSH1 0x2 SWAP1 DUP2 PUSH2 0x30D SWAP2 SWAP1 PUSH2 0x81B JUMP JUMPDEST POP POP JUMP JUMPDEST PUSH1 0x60 PUSH1 0x40 MLOAD DUP1 PUSH1 0x40 ADD PUSH1 0x40 MSTORE DUP1 PUSH1 0x2 DUP2 MSTORE PUSH1 0x20 ADD PUSH32 0x4149000000000000000000000000000000000000000000000000000000000000 DUP2 MSTORE POP SWAP1 POP SWAP1 JUMP JUMPDEST DUP1 PUSH1 0x1 SWAP1 DUP2 PUSH2 0x35D SWAP2 SWAP1 PUSH2 0x81B JUMP JUMPDEST POP POP JUMP JUMPDEST PUSH1 0x60 PUSH32 0xCF34EF537AC33EE1AC626CA1587A0A7E8E51561E5514F8CB36AFA1C5102B3BAB PUSH1 0x40 MLOAD PUSH2 0x390 SWAP1 PUSH2 0x95F JUMP JUMPDEST PUSH1 0x40 MLOAD DUP1 SWAP2 SUB SWAP1 LOG1 PUSH1 0x1 PUSH1 0x2 PUSH1 0x40 MLOAD PUSH1 0x20 ADD PUSH2 0x3AD SWAP3 SWAP2 SWAP1 PUSH2 0xA0D JUMP JUMPDEST PUSH1 0x40 MLOAD PUSH1 0x20 DUP2 DUP4 SUB SUB DUP2 MSTORE SWAP1 PUSH1 0x40 MSTORE SWAP1 POP SWAP1 JUMP JUMPDEST PUSH1 0x0 DUP2 MLOAD SWAP1 POP SWAP2 SWAP1 POP JUMP JUMPDEST PUSH1 0x0 DUP3 DUP3 MSTORE PUSH1 0x20 DUP3 ADD SWAP1 POP SWAP3 SWAP2 POP POP JUMP JUMPDEST PUSH1 0x0 JUMPDEST DUP4 DUP2 LT ISZERO PUSH2 0x3FB JUMPI DUP1 DUP3 ADD MLOAD DUP2 DUP5 ADD MSTORE PUSH1 0x20 DUP2 ADD SWAP1 POP PUSH2 0x3E0 JUMP JUMPDEST PUSH1 0x0 DUP5 DUP5 ADD MSTORE POP POP POP POP JUMP JUMPDEST PUSH1 0x0 PUSH1 0x1F NOT PUSH1 0x1F DUP4 ADD AND SWAP1 POP SWAP2 SWAP1 POP JUMP JUMPDEST PUSH1 0x0 PUSH2 0x423 DUP3 PUSH2 0x3C1 JUMP JUMPDEST PUSH2 0x42D DUP2 DUP6 PUSH2 0x3CC JUMP JUMPDEST SWAP4 POP PUSH2 0x43D DUP2 DUP6 PUSH1 0x20 DUP7 ADD PUSH2 0x3DD JUMP JUMPDEST PUSH2 0x446 DUP2 PUSH2 0x407 JUMP JUMPDEST DUP5 ADD SWAP2 POP POP SWAP3 SWAP2 POP POP JUMP JUMPDEST PUSH1 0x0 PUSH1 0x20 DUP3 ADD SWAP1 POP DUP2 DUP2 SUB PUSH1 0x0 DUP4 ADD MSTORE PUSH2 0x46B DUP2 DUP5 PUSH2 0x418 JUMP JUMPDEST SWAP1 POP SWAP3 SWAP2 POP POP JUMP JUMPDEST PUSH1 0x0 PUSH1 0x40 MLOAD SWAP1 POP SWAP1 JUMP JUMPDEST PUSH1 0x0 DUP1 REVERT JUMPDEST PUSH1 0x0 DUP1 REVERT JUMPDEST PUSH1 0x0 DUP1 REVERT JUMPDEST PUSH1 0x0 DUP1 REVERT JUMPDEST PUSH32 0x4E487B7100000000000000000000000000000000000000000000000000000000 PUSH1 0x0 MSTORE PUSH1 0x41 PUSH1 0x4 MSTORE PUSH1 0x24 PUSH1 0x0 REVERT JUMPDEST PUSH2 0x4C9 DUP3 PUSH2 0x407 JUMP JUMPDEST DUP2 ADD DUP2 DUP2 LT PUSH8 0xFFFFFFFFFFFFFFFF DUP3 GT OR ISZERO PUSH2 0x4E8 JUMPI PUSH2 0x4E7 PUSH2 0x491 JUMP JUMPDEST JUMPDEST DUP1 PUSH1 0x40 MSTORE POP POP POP JUMP JUMPDEST PUSH1 0x0 PUSH2 0x4FB PUSH2 0x473 JUMP JUMPDEST SWAP1 POP PUSH2 0x507 DUP3 DUP3 PUSH2 0x4C0 JUMP JUMPDEST SWAP2 SWAP1 POP JUMP JUMPDEST PUSH1 0x0 PUSH8 0xFFFFFFFFFFFFFFFF DUP3 GT ISZERO PUSH2 0x527 JUMPI PUSH2 0x526 PUSH2 0x491 JUMP JUMPDEST JUMPDEST PUSH2 0x530 DUP3 PUSH2 0x407 JUMP JUMPDEST SWAP1 POP PUSH1 0x20 DUP2 ADD SWAP1 POP SWAP2 SWAP1 POP JUMP JUMPDEST DUP3 DUP2 DUP4 CALLDATACOPY PUSH1 0x0 DUP4 DUP4 ADD MSTORE POP POP POP JUMP JUMPDEST PUSH1 0x0 PUSH2 0x55F PUSH2 0x55A DUP5 PUSH2 0x50C JUMP JUMPDEST PUSH2 0x4F1 JUMP JUMPDEST SWAP1 POP DUP3 DUP2 MSTORE PUSH1 0x20 DUP2 ADD DUP5 DUP5 DUP5 ADD GT ISZERO PUSH2 0x57B JUMPI PUSH2 0x57A PUSH2 0x48C JUMP JUMPDEST JUMPDEST PUSH2 0x586 DUP5 DUP3 DUP6 PUSH2 0x53D JUMP JUMPDEST POP SWAP4 SWAP3 POP POP POP JUMP JUMPDEST PUSH1 0x0 DUP3 PUSH1 0x1F DUP4 ADD SLT PUSH2 0x5A3 JUMPI PUSH2 0x5A2 PUSH2 0x487 JUMP JUMPDEST JUMPDEST DUP2 CALLDATALOAD PUSH2 0x5B3 DUP5 DUP3 PUSH1 0x20 DUP7 ADD PUSH2 0x54C JUMP JUMPDEST SWAP2 POP POP SWAP3 SWAP2 POP POP JUMP JUMPDEST PUSH1 0x0 PUSH1 0x20 DUP3 DUP5 SUB SLT ISZERO PUSH2 0x5D2 JUMPI PUSH2 0x5D1 PUSH2 0x47D JUMP JUMPDEST JUMPDEST PUSH1 0x0 DUP3 ADD CALLDATALOAD PUSH8 0xFFFFFFFFFFFFFFFF DUP2 GT ISZERO PUSH2 0x5F0 JUMPI PUSH2 0x5EF PUSH2 0x482 JUMP JUMPDEST JUMPDEST PUSH2 0x5FC DUP5 DUP3 DUP6 ADD PUSH2 0x58E JUMP JUMPDEST SWAP2 POP POP SWAP3 SWAP2 POP POP JUMP JUMPDEST PUSH32 0x4E487B7100000000000000000000000000000000000000000000000000000000 PUSH1 0x0 MSTORE PUSH1 0x22 PUSH1 0x4 MSTORE PUSH1 0x24 PUSH1 0x0 REVERT JUMPDEST PUSH1 0x0 PUSH1 0x2 DUP3 DIV SWAP1 POP PUSH1 0x1 DUP3 AND DUP1 PUSH2 0x64C JUMPI PUSH1 0x7F DUP3 AND SWAP2 POP JUMPDEST PUSH1 0x20 DUP3 LT DUP2 SUB PUSH2 0x65F JUMPI PUSH2 0x65E PUSH2 0x605 JUMP JUMPDEST JUMPDEST POP SWAP2 SWAP1 POP JUMP JUMPDEST PUSH1 0x0 DUP2 SWAP1 POP DUP2 PUSH1 0x0 MSTORE PUSH1 0x20 PUSH1 0x0 KECCAK256 SWAP1 POP SWAP2 SWAP1 POP JUMP JUMPDEST PUSH1 0x0 PUSH1 0x20 PUSH1 0x1F DUP4 ADD DIV SWAP1 POP SWAP2 SWAP1 POP JUMP JUMPDEST PUSH1 0x0 DUP3 DUP3 SHL SWAP1 POP SWAP3 SWAP2 POP POP JUMP JUMPDEST PUSH1 0x0 PUSH1 0x8 DUP4 MUL PUSH2 0x6C7 PUSH32 0xFFFFFFFFFFFFFFFFFFFFFFFFFFFFFFFFFFFFFFFFFFFFFFFFFFFFFFFFFFFFFFFF DUP3 PUSH2 0x68A JUMP JUMPDEST PUSH2 0x6D1 DUP7 DUP4 PUSH2 0x68A JUMP JUMPDEST SWAP6 POP DUP1 NOT DUP5 AND SWAP4 POP DUP1 DUP7 AND DUP5 OR SWAP3 POP POP POP SWAP4 SWAP3 POP POP POP JUMP JUMPDEST PUSH1 0x0 DUP2 SWAP1 POP SWAP2 SWAP1 POP JUMP JUMPDEST PUSH1 0x0 DUP2 SWAP1 POP SWAP2 SWAP1 POP JUMP JUMPDEST PUSH1 0x0 PUSH2 0x718 PUSH2 0x713 PUSH2 0x70E DUP5 PUSH2 0x6E9 JUMP JUMPDEST PUSH2 0x6F3 JUMP JUMPDEST PUSH2 0x6E9 JUMP JUMPDEST SWAP1 POP SWAP2 SWAP1 POP JUMP JUMPDEST PUSH1 0x0 DUP2 SWAP1 POP SWAP2 SWAP1 POP JUMP JUMPDEST PUSH2 0x732 DUP4 PUSH2 0x6FD JUMP JUMPDEST PUSH2 0x746 PUSH2 0x73E DUP3 PUSH2 0x71F JUMP JUMPDEST DUP5 DUP5 SLOAD PUSH2 0x697 JUMP JUMPDEST DUP3 SSTORE POP POP POP POP JUMP JUMPDEST PUSH1 0x0 SWAP1 JUMP JUMPDEST PUSH2 0x75B PUSH2 0x74E JUMP JUMPDEST PUSH2 0x766 DUP2 DUP5 DUP5 PUSH2 0x729 JUMP JUMPDEST POP POP POP JUMP JUMPDEST JUMPDEST DUP2 DUP2 LT ISZERO PUSH2 0x78A JUMPI PUSH2 0x77F PUSH1 0x0 DUP3 PUSH2 0x753 JUMP JUMPDEST PUSH1 0x1 DUP2 ADD SWAP1 POP PUSH2 0x76C JUMP JUMPDEST POP POP JUMP JUMPDEST PUSH1 0x1F DUP3 GT ISZERO PUSH2 0x7CF JUMPI PUSH2 0x7A0 DUP2 PUSH2 0x665 JUMP JUMPDEST PUSH2 0x7A9 DUP5 PUSH2 0x67A JUMP JUMPDEST DUP2 ADD PUSH1 0x20 DUP6 LT ISZERO PUSH2 0x7B8 JUMPI DUP2 SWAP1 POP JUMPDEST PUSH2 0x7CC PUSH2 0x7C4 DUP6 PUSH2 0x67A JUMP JUMPDEST DUP4 ADD DUP3 PUSH2 0x76B JUMP JUMPDEST POP POP JUMPDEST POP POP POP JUMP JUMPDEST PUSH1 0x0 DUP3 DUP3 SHR SWAP1 POP SWAP3 SWAP2 POP POP JUMP JUMPDEST PUSH1 0x0 PUSH2 0x7F2 PUSH1 0x0 NOT DUP5 PUSH1 0x8 MUL PUSH2 0x7D4 JUMP JUMPDEST NOT DUP1 DUP4 AND SWAP2 POP POP SWAP3 SWAP2 POP POP JUMP JUMPDEST PUSH1 0x0 PUSH2 0x80B DUP4 DUP4 PUSH2 0x7E1 JUMP JUMPDEST SWAP2 POP DUP3 PUSH1 0x2 MUL DUP3 OR SWAP1 POP SWAP3 SWAP2 POP POP JUMP JUMPDEST PUSH2 0x824 DUP3 PUSH2 0x3C1 JUMP JUMPDEST PUSH8 0xFFFFFFFFFFFFFFFF DUP2 GT ISZERO PUSH2 0x83D JUMPI PUSH2 0x83C PUSH2 0x491 JUMP JUMPDEST JUMPDEST PUSH2 0x847 DUP3 SLOAD PUSH2 0x634 JUMP JUMPDEST PUSH2 0x852 DUP3 DUP3 DUP6 PUSH2 0x78E JUMP JUMPDEST PUSH1 0x0 PUSH1 0x20 SWAP1 POP PUSH1 0x1F DUP4 GT PUSH1 0x1 DUP2 EQ PUSH2 0x885 JUMPI PUSH1 0x0 DUP5 ISZERO PUSH2 0x873 JUMPI DUP3 DUP8 ADD MLOAD SWAP1 POP JUMPDEST PUSH2 0x87D DUP6 DUP3 PUSH2 0x7FF JUMP JUMPDEST DUP7 SSTORE POP PUSH2 0x8E5 JUMP JUMPDEST PUSH1 0x1F NOT DUP5 AND PUSH2 0x893 DUP7 PUSH2 0x665 JUMP JUMPDEST PUSH1 0x0 JUMPDEST DUP3 DUP2 LT ISZERO PUSH2 0x8BB JUMPI DUP5 DUP10 ADD MLOAD DUP3 SSTORE PUSH1 0x1 DUP3 ADD SWAP2 POP PUSH1 0x20 DUP6 ADD SWAP5 POP PUSH1 0x20 DUP2 ADD SWAP1 POP PUSH2 0x896 JUMP JUMPDEST DUP7 DUP4 LT ISZERO PUSH2 0x8D8 JUMPI DUP5 DUP10 ADD MLOAD PUSH2 0x8D4 PUSH1 0x1F DUP10 AND DUP3 PUSH2 0x7E1 JUMP JUMPDEST DUP4 SSTORE POP JUMPDEST PUSH1 0x1 PUSH1 0x2 DUP9 MUL ADD DUP9 SSTORE POP POP POP JUMPDEST POP POP POP POP POP POP JUMP JUMPDEST PUSH32 0x46756E632E2027476F6F676C652E6765745F6C6F636174696F6E272063616C6C PUSH1 0x0 DUP3 ADD MSTORE PUSH32 0x65642E0000000000000000000000000000000000000000000000000000000000 PUSH1 0x20 DUP3 ADD MSTORE POP JUMP JUMPDEST PUSH1 0x0 PUSH2 0x949 PUSH1 0x23 DUP4 PUSH2 0x3CC JUMP JUMPDEST SWAP2 POP PUSH2 0x954 DUP3 PUSH2 0x8ED JUMP JUMPDEST PUSH1 0x40 DUP3 ADD SWAP1 POP SWAP2 SWAP1 POP JUMP JUMPDEST PUSH1 0x0 PUSH1 0x20 DUP3 ADD SWAP1 POP DUP2 DUP2 SUB PUSH1 0x0 DUP4 ADD MSTORE PUSH2 0x978 DUP2 PUSH2 0x93C JUMP JUMPDEST SWAP1 POP SWAP2 SWAP1 POP JUMP JUMPDEST PUSH1 0x0 DUP2 SWAP1 POP SWAP3 SWAP2 POP POP JUMP JUMPDEST PUSH1 0x0 DUP2 SLOAD PUSH2 0x997 DUP2 PUSH2 0x634 JUMP JUMPDEST PUSH2 0x9A1 DUP2 DUP7 PUSH2 0x97F JUMP JUMPDEST SWAP5 POP PUSH1 0x1 DUP3 AND PUSH1 0x0 DUP2 EQ PUSH2 0x9BC JUMPI PUSH1 0x1 DUP2 EQ PUSH2 0x9D1 JUMPI PUSH2 0xA04 JUMP JUMPDEST PUSH1 0xFF NOT DUP4 AND DUP7 MSTORE DUP2 ISZERO ISZERO DUP3 MUL DUP7 ADD SWAP4 POP PUSH2 0xA04 JUMP JUMPDEST PUSH2 0x9DA DUP6 PUSH2 0x665 JUMP JUMPDEST PUSH1 0x0 JUMPDEST DUP4 DUP2 LT ISZERO PUSH2 0x9FC JUMPI DUP2 SLOAD DUP2 DUP10 ADD MSTORE PUSH1 0x1 DUP3 ADD SWAP2 POP PUSH1 0x20 DUP2 ADD SWAP1 POP PUSH2 0x9DD JUMP JUMPDEST DUP4 DUP9 ADD SWAP6 POP POP POP JUMPDEST POP POP POP SWAP3 SWAP2 POP POP JUMP JUMPDEST PUSH1 0x0 PUSH2 0xA19 DUP3 DUP6 PUSH2 0x98A JUMP JUMPDEST SWAP2 POP PUSH2 0xA25 DUP3 DUP5 PUSH2 0x98A JUMP JUMPDEST SWAP2 POP DUP2 SWAP1 POP SWAP4 SWAP3 POP POP POP JUMP INVALID LOG2 PUSH5 0x6970667358 0x22 SLT KECCAK256 SWAP14 0xFB 0xD1 0x4B 0xDD SGT 0xB9 0xBD PUSH28 0xE380032C2F54BA27EB355AF5C6270D0FCD24EE81C2134A64736F6C63 NUMBER STOP ADDMOD SLT STOP CALLER "
				},
				"gasEstimates": {
					"creation": {
						"codeDepositCost": "532600",
						"executionCost": "infinite",
						"totalCost": "infinite"
					},
					"external": {
						"Owner()": "infinite",
						"get_location()": "infinite",
						"get_name()": "infinite",
						"location()": "infinite",
						"name()": "infinite",
						"set_area(string)": "infinite",
						"set_location(string)": "infinite"
					}
				},
				"methodIdentifiers": {
					"Owner()": "b4a99a4e",
					"get_location()": "e62c2f9c",
					"get_name()": "3a525c29",
					"location()": "516f279e",
					"name()": "06fdde03",
					"set_area(string)": "86d1617a",
					"set_location(string)": "baa48808"
				}
			},
			"storageLayout": {
				"storage": [
					{
						"astId": 7,
						"contract": "13. inheritance.sol:Google",
						"label": "name",
						"offset": 0,
						"slot": "0",
						"type": "t_string_storage"
					},
					{
						"astId": 10,
						"contract": "13. inheritance.sol:Google",
						"label": "location",
						"offset": 0,
						"slot": "1",
						"type": "t_string_storage"
					},
					{
						"astId": 52,
						"contract": "13. inheritance.sol:Google",
						"label": "area",
						"offset": 0,
						"slot": "2",
						"type": "t_string_storage"
					}
				],
				"types": {
					"t_string_storage": {
						"encoding": "bytes",
						"label": "string",
						"numberOfBytes": "32"
					}
				}
			},
			"userdoc": {
				"kind": "user",
				"methods": {},
				"version": 1
			}
		}
	}
}