{
	"08. array_operation.sol": {
		"ArrayRemoveByshifting": {
			"abi": [
				{
					"inputs": [
						{
							"internalType": "uint256",
							"name": "",
							"type": "uint256"
						}
					],
					"name": "arr",
					"outputs": [
						{
							"internalType": "uint256",
							"name": "",
							"type": "uint256"
						}
					],
					"stateMutability": "view",
					"type": "function"
				},
				{
					"inputs": [],
					"name": "it",
					"outputs": [
						{
							"internalType": "uint8",
							"name": "",
							"type": "uint8"
						}
					],
					"stateMutability": "view",
					"type": "function"
				},
				{
					"inputs": [],
					"name": "iter",
					"outputs": [],
					"stateMutability": "nonpayable",
					"type": "function"
				},
				{
					"inputs": [
						{
							"internalType": "uint256",
							"name": "_index",
							"type": "uint256"
						}
					],
					"name": "remove",
					"outputs": [],
					"stateMutability": "nonpayable",
					"type": "function"
				},
				{
					"inputs": [],
					"name": "t",
					"outputs": [
						{
							"internalType": "uint8",
							"name": "",
							"type": "uint8"
						}
					],
					"stateMutability": "view",
					"type": "function"
				}
			],
			"devdoc": {
				"kind": "dev",
				"methods": {},
				"version": 1
			},
			"evm": {
				"assembly": "    /* \"08. array_operation.sol\":61:505  contract ArrayRemoveByshifting {... */\n  mstore(0x40, 0x80)\n    /* \"08. array_operation.sol\":141:142  0 */\n  0x00\n    /* \"08. array_operation.sol\":123:142  uint8 public  t = 0 */\n  0x01\n  exp(0x0100, 0x00)\n  dup2\n  sload\n  dup2\n  0xff\n  mul\n  not\n  and\n  swap1\n  dup4\n  0xff\n  and\n  mul\n  or\n  swap1\n  sstore\n  pop\n    /* \"08. array_operation.sol\":61:505  contract ArrayRemoveByshifting {... */\n  callvalue\n  dup1\n  iszero\n  tag_1\n  jumpi\n  0x00\n  dup1\n  revert\ntag_1:\n  pop\n  dataSize(sub_0)\n  dup1\n  dataOffset(sub_0)\n  0x00\n  codecopy\n  0x00\n  return\nstop\n\nsub_0: assembly {\n        /* \"08. array_operation.sol\":61:505  contract ArrayRemoveByshifting {... */\n      mstore(0x40, 0x80)\n      callvalue\n      dup1\n      iszero\n      tag_1\n      jumpi\n      0x00\n      dup1\n      revert\n    tag_1:\n      pop\n      jumpi(tag_2, lt(calldatasize, 0x04))\n      shr(0xe0, calldataload(0x00))\n      dup1\n      0x4cc82215\n      eq\n      tag_3\n      jumpi\n      dup1\n      0x5ce692f2\n      eq\n      tag_4\n      jumpi\n      dup1\n      0x71e5ee5f\n      eq\n      tag_5\n      jumpi\n      dup1\n      0x92d0d153\n      eq\n      tag_6\n      jumpi\n      dup1\n      0xfc32d737\n      eq\n      tag_7\n      jumpi\n    tag_2:\n      0x00\n      dup1\n      revert\n        /* \"08. array_operation.sol\":279:502  function remove(uint _index) public {... */\n    tag_3:\n      tag_8\n      0x04\n      dup1\n      calldatasize\n      sub\n      dup2\n      add\n      swap1\n      tag_9\n      swap2\n      swap1\n      tag_10\n      jump\t// in\n    tag_9:\n      tag_11\n      jump\t// in\n    tag_8:\n      stop\n        /* \"08. array_operation.sol\":149:165  uint8 public  it */\n    tag_4:\n      tag_12\n      tag_13\n      jump\t// in\n    tag_12:\n      mload(0x40)\n      tag_14\n      swap2\n      swap1\n      tag_15\n      jump\t// in\n    tag_14:\n      mload(0x40)\n      dup1\n      swap2\n      sub\n      swap1\n      return\n        /* \"08. array_operation.sol\":99:116  uint[] public arr */\n    tag_5:\n      tag_16\n      0x04\n      dup1\n      calldatasize\n      sub\n      dup2\n      add\n      swap1\n      tag_17\n      swap2\n      swap1\n      tag_10\n      jump\t// in\n    tag_17:\n      tag_18\n      jump\t// in\n    tag_16:\n      mload(0x40)\n      tag_19\n      swap2\n      swap1\n      tag_20\n      jump\t// in\n    tag_19:\n      mload(0x40)\n      dup1\n      swap2\n      sub\n      swap1\n      return\n        /* \"08. array_operation.sol\":123:142  uint8 public  t = 0 */\n    tag_6:\n      tag_21\n      tag_22\n      jump\t// in\n    tag_21:\n      mload(0x40)\n      tag_23\n      swap2\n      swap1\n      tag_15\n      jump\t// in\n    tag_23:\n      mload(0x40)\n      dup1\n      swap2\n      sub\n      swap1\n      return\n        /* \"08. array_operation.sol\":174:271  function iter() public {... */\n    tag_7:\n      tag_24\n      tag_25\n      jump\t// in\n    tag_24:\n      stop\n        /* \"08. array_operation.sol\":279:502  function remove(uint _index) public {... */\n    tag_11:\n        /* \"08. array_operation.sol\":343:346  arr */\n      0x00\n        /* \"08. array_operation.sol\":343:353  arr.length */\n      dup1\n      sload\n      swap1\n      pop\n        /* \"08. array_operation.sol\":334:340  _index */\n      dup2\n        /* \"08. array_operation.sol\":334:353  _index < arr.length */\n      lt\n        /* \"08. array_operation.sol\":326:376  require(_index < arr.length, 'index out of bound') */\n      tag_27\n      jumpi\n      mload(0x40)\n      0x08c379a000000000000000000000000000000000000000000000000000000000\n      dup2\n      mstore\n      0x04\n      add\n      tag_28\n      swap1\n      tag_29\n      jump\t// in\n    tag_28:\n      mload(0x40)\n      dup1\n      swap2\n      sub\n      swap1\n      revert\n    tag_27:\n        /* \"08. array_operation.sol\":394:400  uint i */\n      0x00\n        /* \"08. array_operation.sol\":389:475  for (uint i = 0; i < arr.length - 1; i++) {... */\n    tag_30:\n        /* \"08. array_operation.sol\":423:424  1 */\n      0x01\n        /* \"08. array_operation.sol\":410:413  arr */\n      0x00\n        /* \"08. array_operation.sol\":410:420  arr.length */\n      dup1\n      sload\n      swap1\n      pop\n        /* \"08. array_operation.sol\":410:424  arr.length - 1 */\n      tag_33\n      swap2\n      swap1\n      tag_34\n      jump\t// in\n    tag_33:\n        /* \"08. array_operation.sol\":406:407  i */\n      dup2\n        /* \"08. array_operation.sol\":406:424  i < arr.length - 1 */\n      lt\n        /* \"08. array_operation.sol\":389:475  for (uint i = 0; i < arr.length - 1; i++) {... */\n      iszero\n      tag_31\n      jumpi\n        /* \"08. array_operation.sol\":455:458  arr */\n      0x00\n        /* \"08. array_operation.sol\":461:462  1 */\n      0x01\n        /* \"08. array_operation.sol\":459:460  i */\n      dup3\n        /* \"08. array_operation.sol\":459:462  i+1 */\n      tag_35\n      swap2\n      swap1\n      tag_36\n      jump\t// in\n    tag_35:\n        /* \"08. array_operation.sol\":455:463  arr[i+1] */\n      dup2\n      sload\n      dup2\n      lt\n      tag_37\n      jumpi\n      tag_38\n      tag_39\n      jump\t// in\n    tag_38:\n    tag_37:\n      swap1\n      0x00\n      mstore\n      keccak256(0x00, 0x20)\n      add\n      sload\n        /* \"08. array_operation.sol\":446:449  arr */\n      0x00\n        /* \"08. array_operation.sol\":450:451  i */\n      dup3\n        /* \"08. array_operation.sol\":446:452  arr[i] */\n      dup2\n      sload\n      dup2\n      lt\n      tag_41\n      jumpi\n      tag_42\n      tag_39\n      jump\t// in\n    tag_42:\n    tag_41:\n      swap1\n      0x00\n      mstore\n      keccak256(0x00, 0x20)\n      add\n        /* \"08. array_operation.sol\":446:463  arr[i] = arr[i+1] */\n      dup2\n      swap1\n      sstore\n      pop\n        /* \"08. array_operation.sol\":426:429  i++ */\n      dup1\n      dup1\n      tag_44\n      swap1\n      tag_45\n      jump\t// in\n    tag_44:\n      swap2\n      pop\n      pop\n        /* \"08. array_operation.sol\":389:475  for (uint i = 0; i < arr.length - 1; i++) {... */\n      jump(tag_30)\n    tag_31:\n      pop\n        /* \"08. array_operation.sol\":485:488  arr */\n      0x00\n        /* \"08. array_operation.sol\":485:494  arr.pop() */\n      dup1\n      sload\n      dup1\n      tag_46\n      jumpi\n      tag_47\n      tag_48\n      jump\t// in\n    tag_47:\n    tag_46:\n      0x01\n      swap1\n      sub\n      dup2\n      dup2\n      swap1\n      0x00\n      mstore\n      keccak256(0x00, 0x20)\n      add\n      0x00\n      swap1\n      sstore\n      swap1\n      sstore\n        /* \"08. array_operation.sol\":279:502  function remove(uint _index) public {... */\n      pop\n      jump\t// out\n        /* \"08. array_operation.sol\":149:165  uint8 public  it */\n    tag_13:\n      0x01\n      dup1\n      sload\n      swap1\n      0x0100\n      exp\n      swap1\n      div\n      0xff\n      and\n      dup2\n      jump\t// out\n        /* \"08. array_operation.sol\":99:116  uint[] public arr */\n    tag_18:\n      0x00\n      dup2\n      dup2\n      sload\n      dup2\n      lt\n      tag_50\n      jumpi\n      0x00\n      dup1\n      revert\n    tag_50:\n      swap1\n      0x00\n      mstore\n      keccak256(0x00, 0x20)\n      add\n      0x00\n      swap2\n      pop\n      swap1\n      pop\n      sload\n      dup2\n      jump\t// out\n        /* \"08. array_operation.sol\":123:142  uint8 public  t = 0 */\n    tag_22:\n      0x01\n      0x00\n      swap1\n      sload\n      swap1\n      0x0100\n      exp\n      swap1\n      div\n      0xff\n      and\n      dup2\n      jump\t// out\n        /* \"08. array_operation.sol\":174:271  function iter() public {... */\n    tag_25:\n        /* \"08. array_operation.sol\":218:219  0 */\n      0x00\n        /* \"08. array_operation.sol\":213:215  it */\n      0x01\n      dup1\n        /* \"08. array_operation.sol\":213:219  it = 0 */\n      0x0100\n      exp\n      dup2\n      sload\n      dup2\n      0xff\n      mul\n      not\n      and\n      swap1\n      dup4\n      0xff\n      and\n      mul\n      or\n      swap1\n      sstore\n      pop\n        /* \"08. array_operation.sol\":208:264  for (it = 0; it<5; it++){... */\n    tag_53:\n        /* \"08. array_operation.sol\":224:225  5 */\n      0x05\n        /* \"08. array_operation.sol\":221:223  it */\n      0x01\n      dup1\n      sload\n      swap1\n      0x0100\n      exp\n      swap1\n      div\n      0xff\n      and\n        /* \"08. array_operation.sol\":221:225  it<5 */\n      0xff\n      and\n      lt\n        /* \"08. array_operation.sol\":208:264  for (it = 0; it<5; it++){... */\n      iszero\n      tag_54\n      jumpi\n        /* \"08. array_operation.sol\":250:252  it */\n      0x01\n      dup1\n      sload\n      swap1\n      0x0100\n      exp\n      swap1\n      div\n      0xff\n      and\n        /* \"08. array_operation.sol\":247:248  t */\n      0x01\n      0x00\n        /* \"08. array_operation.sol\":247:252  t+=it */\n      dup3\n      dup3\n      dup3\n      swap1\n      sload\n      swap1\n      0x0100\n      exp\n      swap1\n      div\n      0xff\n      and\n      tag_56\n      swap2\n      swap1\n      tag_57\n      jump\t// in\n    tag_56:\n      swap3\n      pop\n      0x0100\n      exp\n      dup2\n      sload\n      dup2\n      0xff\n      mul\n      not\n      and\n      swap1\n      dup4\n      0xff\n      and\n      mul\n      or\n      swap1\n      sstore\n      pop\n        /* \"08. array_operation.sol\":227:229  it */\n      0x01\n      dup1\n        /* \"08. array_operation.sol\":227:231  it++ */\n      dup2\n      dup2\n      swap1\n      sload\n      swap1\n      0x0100\n      exp\n      swap1\n      div\n      0xff\n      and\n      dup1\n      swap3\n      swap2\n      swap1\n      tag_58\n      swap1\n      tag_59\n      jump\t// in\n    tag_58:\n      swap2\n      swap1\n      0x0100\n      exp\n      dup2\n      sload\n      dup2\n      0xff\n      mul\n      not\n      and\n      swap1\n      dup4\n      0xff\n      and\n      mul\n      or\n      swap1\n      sstore\n      pop\n      pop\n        /* \"08. array_operation.sol\":208:264  for (it = 0; it<5; it++){... */\n      jump(tag_53)\n    tag_54:\n        /* \"08. array_operation.sol\":174:271  function iter() public {... */\n      jump\t// out\n        /* \"#utility.yul\":88:205   */\n    tag_61:\n        /* \"#utility.yul\":197:198   */\n      0x00\n        /* \"#utility.yul\":194:195   */\n      dup1\n        /* \"#utility.yul\":187:199   */\n      revert\n        /* \"#utility.yul\":334:411   */\n    tag_63:\n        /* \"#utility.yul\":371:378   */\n      0x00\n        /* \"#utility.yul\":400:405   */\n      dup2\n        /* \"#utility.yul\":389:405   */\n      swap1\n      pop\n        /* \"#utility.yul\":334:411   */\n      swap2\n      swap1\n      pop\n      jump\t// out\n        /* \"#utility.yul\":417:539   */\n    tag_64:\n        /* \"#utility.yul\":490:514   */\n      tag_79\n        /* \"#utility.yul\":508:513   */\n      dup2\n        /* \"#utility.yul\":490:514   */\n      tag_63\n      jump\t// in\n    tag_79:\n        /* \"#utility.yul\":483:488   */\n      dup2\n        /* \"#utility.yul\":480:515   */\n      eq\n        /* \"#utility.yul\":470:533   */\n      tag_80\n      jumpi\n        /* \"#utility.yul\":529:530   */\n      0x00\n        /* \"#utility.yul\":526:527   */\n      dup1\n        /* \"#utility.yul\":519:531   */\n      revert\n        /* \"#utility.yul\":470:533   */\n    tag_80:\n        /* \"#utility.yul\":417:539   */\n      pop\n      jump\t// out\n        /* \"#utility.yul\":545:684   */\n    tag_65:\n        /* \"#utility.yul\":591:596   */\n      0x00\n        /* \"#utility.yul\":629:635   */\n      dup2\n        /* \"#utility.yul\":616:636   */\n      calldataload\n        /* \"#utility.yul\":607:636   */\n      swap1\n      pop\n        /* \"#utility.yul\":645:678   */\n      tag_82\n        /* \"#utility.yul\":672:677   */\n      dup2\n        /* \"#utility.yul\":645:678   */\n      tag_64\n      jump\t// in\n    tag_82:\n        /* \"#utility.yul\":545:684   */\n      swap3\n      swap2\n      pop\n      pop\n      jump\t// out\n        /* \"#utility.yul\":690:1019   */\n    tag_10:\n        /* \"#utility.yul\":749:755   */\n      0x00\n        /* \"#utility.yul\":798:800   */\n      0x20\n        /* \"#utility.yul\":786:795   */\n      dup3\n        /* \"#utility.yul\":777:784   */\n      dup5\n        /* \"#utility.yul\":773:796   */\n      sub\n        /* \"#utility.yul\":769:801   */\n      slt\n        /* \"#utility.yul\":766:885   */\n      iszero\n      tag_84\n      jumpi\n        /* \"#utility.yul\":804:883   */\n      tag_85\n      tag_61\n      jump\t// in\n    tag_85:\n        /* \"#utility.yul\":766:885   */\n    tag_84:\n        /* \"#utility.yul\":924:925   */\n      0x00\n        /* \"#utility.yul\":949:1002   */\n      tag_86\n        /* \"#utility.yul\":994:1001   */\n      dup5\n        /* \"#utility.yul\":985:991   */\n      dup3\n        /* \"#utility.yul\":974:983   */\n      dup6\n        /* \"#utility.yul\":970:992   */\n      add\n        /* \"#utility.yul\":949:1002   */\n      tag_65\n      jump\t// in\n    tag_86:\n        /* \"#utility.yul\":939:1002   */\n      swap2\n      pop\n        /* \"#utility.yul\":895:1012   */\n      pop\n        /* \"#utility.yul\":690:1019   */\n      swap3\n      swap2\n      pop\n      pop\n      jump\t// out\n        /* \"#utility.yul\":1025:1111   */\n    tag_66:\n        /* \"#utility.yul\":1060:1067   */\n      0x00\n        /* \"#utility.yul\":1100:1104   */\n      0xff\n        /* \"#utility.yul\":1093:1098   */\n      dup3\n        /* \"#utility.yul\":1089:1105   */\n      and\n        /* \"#utility.yul\":1078:1105   */\n      swap1\n      pop\n        /* \"#utility.yul\":1025:1111   */\n      swap2\n      swap1\n      pop\n      jump\t// out\n        /* \"#utility.yul\":1117:1229   */\n    tag_67:\n        /* \"#utility.yul\":1200:1222   */\n      tag_89\n        /* \"#utility.yul\":1216:1221   */\n      dup2\n        /* \"#utility.yul\":1200:1222   */\n      tag_66\n      jump\t// in\n    tag_89:\n        /* \"#utility.yul\":1195:1198   */\n      dup3\n        /* \"#utility.yul\":1188:1223   */\n      mstore\n        /* \"#utility.yul\":1117:1229   */\n      pop\n      pop\n      jump\t// out\n        /* \"#utility.yul\":1235:1449   */\n    tag_15:\n        /* \"#utility.yul\":1324:1328   */\n      0x00\n        /* \"#utility.yul\":1362:1364   */\n      0x20\n        /* \"#utility.yul\":1351:1360   */\n      dup3\n        /* \"#utility.yul\":1347:1365   */\n      add\n        /* \"#utility.yul\":1339:1365   */\n      swap1\n      pop\n        /* \"#utility.yul\":1375:1442   */\n      tag_91\n        /* \"#utility.yul\":1439:1440   */\n      0x00\n        /* \"#utility.yul\":1428:1437   */\n      dup4\n        /* \"#utility.yul\":1424:1441   */\n      add\n        /* \"#utility.yul\":1415:1421   */\n      dup5\n        /* \"#utility.yul\":1375:1442   */\n      tag_67\n      jump\t// in\n    tag_91:\n        /* \"#utility.yul\":1235:1449   */\n      swap3\n      swap2\n      pop\n      pop\n      jump\t// out\n        /* \"#utility.yul\":1455:1573   */\n    tag_68:\n        /* \"#utility.yul\":1542:1566   */\n      tag_93\n        /* \"#utility.yul\":1560:1565   */\n      dup2\n        /* \"#utility.yul\":1542:1566   */\n      tag_63\n      jump\t// in\n    tag_93:\n        /* \"#utility.yul\":1537:1540   */\n      dup3\n        /* \"#utility.yul\":1530:1567   */\n      mstore\n        /* \"#utility.yul\":1455:1573   */\n      pop\n      pop\n      jump\t// out\n        /* \"#utility.yul\":1579:1801   */\n    tag_20:\n        /* \"#utility.yul\":1672:1676   */\n      0x00\n        /* \"#utility.yul\":1710:1712   */\n      0x20\n        /* \"#utility.yul\":1699:1708   */\n      dup3\n        /* \"#utility.yul\":1695:1713   */\n      add\n        /* \"#utility.yul\":1687:1713   */\n      swap1\n      pop\n        /* \"#utility.yul\":1723:1794   */\n      tag_95\n        /* \"#utility.yul\":1791:1792   */\n      0x00\n        /* \"#utility.yul\":1780:1789   */\n      dup4\n        /* \"#utility.yul\":1776:1793   */\n      add\n        /* \"#utility.yul\":1767:1773   */\n      dup5\n        /* \"#utility.yul\":1723:1794   */\n      tag_68\n      jump\t// in\n    tag_95:\n        /* \"#utility.yul\":1579:1801   */\n      swap3\n      swap2\n      pop\n      pop\n      jump\t// out\n        /* \"#utility.yul\":1807:1976   */\n    tag_69:\n        /* \"#utility.yul\":1891:1902   */\n      0x00\n        /* \"#utility.yul\":1925:1931   */\n      dup3\n        /* \"#utility.yul\":1920:1923   */\n      dup3\n        /* \"#utility.yul\":1913:1932   */\n      mstore\n        /* \"#utility.yul\":1965:1969   */\n      0x20\n        /* \"#utility.yul\":1960:1963   */\n      dup3\n        /* \"#utility.yul\":1956:1970   */\n      add\n        /* \"#utility.yul\":1941:1970   */\n      swap1\n      pop\n        /* \"#utility.yul\":1807:1976   */\n      swap3\n      swap2\n      pop\n      pop\n      jump\t// out\n        /* \"#utility.yul\":1982:2150   */\n    tag_70:\n        /* \"#utility.yul\":2122:2142   */\n      0x696e646578206f7574206f6620626f756e640000000000000000000000000000\n        /* \"#utility.yul\":2118:2119   */\n      0x00\n        /* \"#utility.yul\":2110:2116   */\n      dup3\n        /* \"#utility.yul\":2106:2120   */\n      add\n        /* \"#utility.yul\":2099:2143   */\n      mstore\n        /* \"#utility.yul\":1982:2150   */\n      pop\n      jump\t// out\n        /* \"#utility.yul\":2156:2522   */\n    tag_71:\n        /* \"#utility.yul\":2298:2301   */\n      0x00\n        /* \"#utility.yul\":2319:2386   */\n      tag_99\n        /* \"#utility.yul\":2383:2385   */\n      0x12\n        /* \"#utility.yul\":2378:2381   */\n      dup4\n        /* \"#utility.yul\":2319:2386   */\n      tag_69\n      jump\t// in\n    tag_99:\n        /* \"#utility.yul\":2312:2386   */\n      swap2\n      pop\n        /* \"#utility.yul\":2395:2488   */\n      tag_100\n        /* \"#utility.yul\":2484:2487   */\n      dup3\n        /* \"#utility.yul\":2395:2488   */\n      tag_70\n      jump\t// in\n    tag_100:\n        /* \"#utility.yul\":2513:2515   */\n      0x20\n        /* \"#utility.yul\":2508:2511   */\n      dup3\n        /* \"#utility.yul\":2504:2516   */\n      add\n        /* \"#utility.yul\":2497:2516   */\n      swap1\n      pop\n        /* \"#utility.yul\":2156:2522   */\n      swap2\n      swap1\n      pop\n      jump\t// out\n        /* \"#utility.yul\":2528:2947   */\n    tag_29:\n        /* \"#utility.yul\":2694:2698   */\n      0x00\n        /* \"#utility.yul\":2732:2734   */\n      0x20\n        /* \"#utility.yul\":2721:2730   */\n      dup3\n        /* \"#utility.yul\":2717:2735   */\n      add\n        /* \"#utility.yul\":2709:2735   */\n      swap1\n      pop\n        /* \"#utility.yul\":2781:2790   */\n      dup2\n        /* \"#utility.yul\":2775:2779   */\n      dup2\n        /* \"#utility.yul\":2771:2791   */\n      sub\n        /* \"#utility.yul\":2767:2768   */\n      0x00\n        /* \"#utility.yul\":2756:2765   */\n      dup4\n        /* \"#utility.yul\":2752:2769   */\n      add\n        /* \"#utility.yul\":2745:2792   */\n      mstore\n        /* \"#utility.yul\":2809:2940   */\n      tag_102\n        /* \"#utility.yul\":2935:2939   */\n      dup2\n        /* \"#utility.yul\":2809:2940   */\n      tag_71\n      jump\t// in\n    tag_102:\n        /* \"#utility.yul\":2801:2940   */\n      swap1\n      pop\n        /* \"#utility.yul\":2528:2947   */\n      swap2\n      swap1\n      pop\n      jump\t// out\n        /* \"#utility.yul\":2953:3133   */\n    tag_72:\n        /* \"#utility.yul\":3001:3078   */\n      0x4e487b7100000000000000000000000000000000000000000000000000000000\n        /* \"#utility.yul\":2998:2999   */\n      0x00\n        /* \"#utility.yul\":2991:3079   */\n      mstore\n        /* \"#utility.yul\":3098:3102   */\n      0x11\n        /* \"#utility.yul\":3095:3096   */\n      0x04\n        /* \"#utility.yul\":3088:3103   */\n      mstore\n        /* \"#utility.yul\":3122:3126   */\n      0x24\n        /* \"#utility.yul\":3119:3120   */\n      0x00\n        /* \"#utility.yul\":3112:3127   */\n      revert\n        /* \"#utility.yul\":3139:3333   */\n    tag_34:\n        /* \"#utility.yul\":3179:3183   */\n      0x00\n        /* \"#utility.yul\":3199:3219   */\n      tag_105\n        /* \"#utility.yul\":3217:3218   */\n      dup3\n        /* \"#utility.yul\":3199:3219   */\n      tag_63\n      jump\t// in\n    tag_105:\n        /* \"#utility.yul\":3194:3219   */\n      swap2\n      pop\n        /* \"#utility.yul\":3233:3253   */\n      tag_106\n        /* \"#utility.yul\":3251:3252   */\n      dup4\n        /* \"#utility.yul\":3233:3253   */\n      tag_63\n      jump\t// in\n    tag_106:\n        /* \"#utility.yul\":3228:3253   */\n      swap3\n      pop\n        /* \"#utility.yul\":3277:3278   */\n      dup3\n        /* \"#utility.yul\":3274:3275   */\n      dup3\n        /* \"#utility.yul\":3270:3279   */\n      sub\n        /* \"#utility.yul\":3262:3279   */\n      swap1\n      pop\n        /* \"#utility.yul\":3301:3302   */\n      dup2\n        /* \"#utility.yul\":3295:3299   */\n      dup2\n        /* \"#utility.yul\":3292:3303   */\n      gt\n        /* \"#utility.yul\":3289:3326   */\n      iszero\n      tag_107\n      jumpi\n        /* \"#utility.yul\":3306:3324   */\n      tag_108\n      tag_72\n      jump\t// in\n    tag_108:\n        /* \"#utility.yul\":3289:3326   */\n    tag_107:\n        /* \"#utility.yul\":3139:3333   */\n      swap3\n      swap2\n      pop\n      pop\n      jump\t// out\n        /* \"#utility.yul\":3339:3530   */\n    tag_36:\n        /* \"#utility.yul\":3379:3382   */\n      0x00\n        /* \"#utility.yul\":3398:3418   */\n      tag_110\n        /* \"#utility.yul\":3416:3417   */\n      dup3\n        /* \"#utility.yul\":3398:3418   */\n      tag_63\n      jump\t// in\n    tag_110:\n        /* \"#utility.yul\":3393:3418   */\n      swap2\n      pop\n        /* \"#utility.yul\":3432:3452   */\n      tag_111\n        /* \"#utility.yul\":3450:3451   */\n      dup4\n        /* \"#utility.yul\":3432:3452   */\n      tag_63\n      jump\t// in\n    tag_111:\n        /* \"#utility.yul\":3427:3452   */\n      swap3\n      pop\n        /* \"#utility.yul\":3475:3476   */\n      dup3\n        /* \"#utility.yul\":3472:3473   */\n      dup3\n        /* \"#utility.yul\":3468:3477   */\n      add\n        /* \"#utility.yul\":3461:3477   */\n      swap1\n      pop\n        /* \"#utility.yul\":3496:3499   */\n      dup1\n        /* \"#utility.yul\":3493:3494   */\n      dup3\n        /* \"#utility.yul\":3490:3500   */\n      gt\n        /* \"#utility.yul\":3487:3523   */\n      iszero\n      tag_112\n      jumpi\n        /* \"#utility.yul\":3503:3521   */\n      tag_113\n      tag_72\n      jump\t// in\n    tag_113:\n        /* \"#utility.yul\":3487:3523   */\n    tag_112:\n        /* \"#utility.yul\":3339:3530   */\n      swap3\n      swap2\n      pop\n      pop\n      jump\t// out\n        /* \"#utility.yul\":3536:3716   */\n    tag_39:\n        /* \"#utility.yul\":3584:3661   */\n      0x4e487b7100000000000000000000000000000000000000000000000000000000\n        /* \"#utility.yul\":3581:3582   */\n      0x00\n        /* \"#utility.yul\":3574:3662   */\n      mstore\n        /* \"#utility.yul\":3681:3685   */\n      0x32\n        /* \"#utility.yul\":3678:3679   */\n      0x04\n        /* \"#utility.yul\":3671:3686   */\n      mstore\n        /* \"#utility.yul\":3705:3709   */\n      0x24\n        /* \"#utility.yul\":3702:3703   */\n      0x00\n        /* \"#utility.yul\":3695:3710   */\n      revert\n        /* \"#utility.yul\":3722:3955   */\n    tag_45:\n        /* \"#utility.yul\":3761:3764   */\n      0x00\n        /* \"#utility.yul\":3784:3808   */\n      tag_116\n        /* \"#utility.yul\":3802:3807   */\n      dup3\n        /* \"#utility.yul\":3784:3808   */\n      tag_63\n      jump\t// in\n    tag_116:\n        /* \"#utility.yul\":3775:3808   */\n      swap2\n      pop\n        /* \"#utility.yul\":3830:3896   */\n      0xffffffffffffffffffffffffffffffffffffffffffffffffffffffffffffffff\n        /* \"#utility.yul\":3823:3828   */\n      dup3\n        /* \"#utility.yul\":3820:3897   */\n      sub\n        /* \"#utility.yul\":3817:3920   */\n      tag_117\n      jumpi\n        /* \"#utility.yul\":3900:3918   */\n      tag_118\n      tag_72\n      jump\t// in\n    tag_118:\n        /* \"#utility.yul\":3817:3920   */\n    tag_117:\n        /* \"#utility.yul\":3947:3948   */\n      0x01\n        /* \"#utility.yul\":3940:3945   */\n      dup3\n        /* \"#utility.yul\":3936:3949   */\n      add\n        /* \"#utility.yul\":3929:3949   */\n      swap1\n      pop\n        /* \"#utility.yul\":3722:3955   */\n      swap2\n      swap1\n      pop\n      jump\t// out\n        /* \"#utility.yul\":3961:4141   */\n    tag_48:\n        /* \"#utility.yul\":4009:4086   */\n      0x4e487b7100000000000000000000000000000000000000000000000000000000\n        /* \"#utility.yul\":4006:4007   */\n      0x00\n        /* \"#utility.yul\":3999:4087   */\n      mstore\n        /* \"#utility.yul\":4106:4110   */\n      0x31\n        /* \"#utility.yul\":4103:4104   */\n      0x04\n        /* \"#utility.yul\":4096:4111   */\n      mstore\n        /* \"#utility.yul\":4130:4134   */\n      0x24\n        /* \"#utility.yul\":4127:4128   */\n      0x00\n        /* \"#utility.yul\":4120:4135   */\n      revert\n        /* \"#utility.yul\":4147:4335   */\n    tag_57:\n        /* \"#utility.yul\":4185:4188   */\n      0x00\n        /* \"#utility.yul\":4204:4222   */\n      tag_121\n        /* \"#utility.yul\":4220:4221   */\n      dup3\n        /* \"#utility.yul\":4204:4222   */\n      tag_66\n      jump\t// in\n    tag_121:\n        /* \"#utility.yul\":4199:4222   */\n      swap2\n      pop\n        /* \"#utility.yul\":4236:4254   */\n      tag_122\n        /* \"#utility.yul\":4252:4253   */\n      dup4\n        /* \"#utility.yul\":4236:4254   */\n      tag_66\n      jump\t// in\n    tag_122:\n        /* \"#utility.yul\":4231:4254   */\n      swap3\n      pop\n        /* \"#utility.yul\":4277:4278   */\n      dup3\n        /* \"#utility.yul\":4274:4275   */\n      dup3\n        /* \"#utility.yul\":4270:4279   */\n      add\n        /* \"#utility.yul\":4263:4279   */\n      swap1\n      pop\n        /* \"#utility.yul\":4300:4304   */\n      0xff\n        /* \"#utility.yul\":4295:4298   */\n      dup2\n        /* \"#utility.yul\":4292:4305   */\n      gt\n        /* \"#utility.yul\":4289:4328   */\n      iszero\n      tag_123\n      jumpi\n        /* \"#utility.yul\":4308:4326   */\n      tag_124\n      tag_72\n      jump\t// in\n    tag_124:\n        /* \"#utility.yul\":4289:4328   */\n    tag_123:\n        /* \"#utility.yul\":4147:4335   */\n      swap3\n      swap2\n      pop\n      pop\n      jump\t// out\n        /* \"#utility.yul\":4341:4508   */\n    tag_59:\n        /* \"#utility.yul\":4378:4381   */\n      0x00\n        /* \"#utility.yul\":4401:4423   */\n      tag_126\n        /* \"#utility.yul\":4417:4422   */\n      dup3\n        /* \"#utility.yul\":4401:4423   */\n      tag_66\n      jump\t// in\n    tag_126:\n        /* \"#utility.yul\":4392:4423   */\n      swap2\n      pop\n        /* \"#utility.yul\":4445:4449   */\n      0xff\n        /* \"#utility.yul\":4438:4443   */\n      dup3\n        /* \"#utility.yul\":4435:4450   */\n      sub\n        /* \"#utility.yul\":4432:4473   */\n      tag_127\n      jumpi\n        /* \"#utility.yul\":4453:4471   */\n      tag_128\n      tag_72\n      jump\t// in\n    tag_128:\n        /* \"#utility.yul\":4432:4473   */\n    tag_127:\n        /* \"#utility.yul\":4500:4501   */\n      0x01\n        /* \"#utility.yul\":4493:4498   */\n      dup3\n        /* \"#utility.yul\":4489:4502   */\n      add\n        /* \"#utility.yul\":4482:4502   */\n      swap1\n      pop\n        /* \"#utility.yul\":4341:4508   */\n      swap2\n      swap1\n      pop\n      jump\t// out\n\n    auxdata: 0xa2646970667358221220061a2d28c2d60ace5a43031cb83c402b0c580d71c9be4fd4de66c934bb4ad95b64736f6c63430008120033\n}\n",
				"bytecode": {
					"linkReferences": {},
					"object": "60806040526000600160006101000a81548160ff021916908360ff16021790555034801561002c57600080fd5b506105f28061003c6000396000f3fe608060405234801561001057600080fd5b50600436106100575760003560e01c80634cc822151461005c5780635ce692f21461007857806371e5ee5f1461009657806392d0d153146100c6578063fc32d737146100e4575b600080fd5b61007660048036038101906100719190610316565b6100ee565b005b6100806101dd565b60405161008d919061035f565b60405180910390f35b6100b060048036038101906100ab9190610316565b6101ee565b6040516100bd9190610389565b60405180910390f35b6100ce610212565b6040516100db919061035f565b60405180910390f35b6100ec610225565b005b6000805490508110610135576040517f08c379a000000000000000000000000000000000000000000000000000000000815260040161012c90610401565b60405180910390fd5b60005b600160008054905061014a9190610450565b8110156101b15760006001826101609190610484565b81548110610171576101706104b8565b5b9060005260206000200154600082815481106101905761018f6104b8565b5b906000526020600020018190555080806101a9906104e7565b915050610138565b5060008054806101c4576101c361052f565b5b6001900381819060005260206000200160009055905550565b60018054906101000a900460ff1681565b600081815481106101fe57600080fd5b906000526020600020016000915090505481565b600160009054906101000a900460ff1681565b60006001806101000a81548160ff021916908360ff1602179055505b600560018054906101000a900460ff1660ff1610156102d95760018054906101000a900460ff16600160008282829054906101000a900460ff16610285919061055e565b92506101000a81548160ff021916908360ff16021790555060018081819054906101000a900460ff16809291906102bb90610593565b91906101000a81548160ff021916908360ff16021790555050610241565b565b600080fd5b6000819050919050565b6102f3816102e0565b81146102fe57600080fd5b50565b600081359050610310816102ea565b92915050565b60006020828403121561032c5761032b6102db565b5b600061033a84828501610301565b91505092915050565b600060ff82169050919050565b61035981610343565b82525050565b60006020820190506103746000830184610350565b92915050565b610383816102e0565b82525050565b600060208201905061039e600083018461037a565b92915050565b600082825260208201905092915050565b7f696e646578206f7574206f6620626f756e640000000000000000000000000000600082015250565b60006103eb6012836103a4565b91506103f6826103b5565b602082019050919050565b6000602082019050818103600083015261041a816103de565b9050919050565b7f4e487b7100000000000000000000000000000000000000000000000000000000600052601160045260246000fd5b600061045b826102e0565b9150610466836102e0565b925082820390508181111561047e5761047d610421565b5b92915050565b600061048f826102e0565b915061049a836102e0565b92508282019050808211156104b2576104b1610421565b5b92915050565b7f4e487b7100000000000000000000000000000000000000000000000000000000600052603260045260246000fd5b60006104f2826102e0565b91507fffffffffffffffffffffffffffffffffffffffffffffffffffffffffffffffff820361052457610523610421565b5b600182019050919050565b7f4e487b7100000000000000000000000000000000000000000000000000000000600052603160045260246000fd5b600061056982610343565b915061057483610343565b9250828201905060ff81111561058d5761058c610421565b5b92915050565b600061059e82610343565b915060ff82036105b1576105b0610421565b5b60018201905091905056fea2646970667358221220061a2d28c2d60ace5a43031cb83c402b0c580d71c9be4fd4de66c934bb4ad95b64736f6c63430008120033",
					"opcodes": "PUSH1 0x80 PUSH1 0x40 MSTORE PUSH1 0x0 PUSH1 0x1 PUSH1 0x0 PUSH2 0x100 EXP DUP2 SLOAD DUP2 PUSH1 0xFF MUL NOT AND SWAP1 DUP4 PUSH1 0xFF AND MUL OR SWAP1 SSTORE POP CALLVALUE DUP1 ISZERO PUSH2 0x2C JUMPI PUSH1 0x0 DUP1 REVERT JUMPDEST POP PUSH2 0x5F2 DUP1 PUSH2 0x3C PUSH1 0x0 CODECOPY PUSH1 0x0 RETURN INVALID PUSH1 0x80 PUSH1 0x40 MSTORE CALLVALUE DUP1 ISZERO PUSH2 0x10 JUMPI PUSH1 0x0 DUP1 REVERT JUMPDEST POP PUSH1 0x4 CALLDATASIZE LT PUSH2 0x57 JUMPI PUSH1 0x0 CALLDATALOAD PUSH1 0xE0 SHR DUP1 PUSH4 0x4CC82215 EQ PUSH2 0x5C JUMPI DUP1 PUSH4 0x5CE692F2 EQ PUSH2 0x78 JUMPI DUP1 PUSH4 0x71E5EE5F EQ PUSH2 0x96 JUMPI DUP1 PUSH4 0x92D0D153 EQ PUSH2 0xC6 JUMPI DUP1 PUSH4 0xFC32D737 EQ PUSH2 0xE4 JUMPI JUMPDEST PUSH1 0x0 DUP1 REVERT JUMPDEST PUSH2 0x76 PUSH1 0x4 DUP1 CALLDATASIZE SUB DUP2 ADD SWAP1 PUSH2 0x71 SWAP2 SWAP1 PUSH2 0x316 JUMP JUMPDEST PUSH2 0xEE JUMP JUMPDEST STOP JUMPDEST PUSH2 0x80 PUSH2 0x1DD JUMP JUMPDEST PUSH1 0x40 MLOAD PUSH2 0x8D SWAP2 SWAP1 PUSH2 0x35F JUMP JUMPDEST PUSH1 0x40 MLOAD DUP1 SWAP2 SUB SWAP1 RETURN JUMPDEST PUSH2 0xB0 PUSH1 0x4 DUP1 CALLDATASIZE SUB DUP2 ADD SWAP1 PUSH2 0xAB SWAP2 SWAP1 PUSH2 0x316 JUMP JUMPDEST PUSH2 0x1EE JUMP JUMPDEST PUSH1 0x40 MLOAD PUSH2 0xBD SWAP2 SWAP1 PUSH2 0x389 JUMP JUMPDEST PUSH1 0x40 MLOAD DUP1 SWAP2 SUB SWAP1 RETURN JUMPDEST PUSH2 0xCE PUSH2 0x212 JUMP JUMPDEST PUSH1 0x40 MLOAD PUSH2 0xDB SWAP2 SWAP1 PUSH2 0x35F JUMP JUMPDEST PUSH1 0x40 MLOAD DUP1 SWAP2 SUB SWAP1 RETURN JUMPDEST PUSH2 0xEC PUSH2 0x225 JUMP JUMPDEST STOP JUMPDEST PUSH1 0x0 DUP1 SLOAD SWAP1 POP DUP2 LT PUSH2 0x135 JUMPI PUSH1 0x40 MLOAD PUSH32 0x8C379A000000000000000000000000000000000000000000000000000000000 DUP2 MSTORE PUSH1 0x4 ADD PUSH2 0x12C SWAP1 PUSH2 0x401 JUMP JUMPDEST PUSH1 0x40 MLOAD DUP1 SWAP2 SUB SWAP1 REVERT JUMPDEST PUSH1 0x0 JUMPDEST PUSH1 0x1 PUSH1 0x0 DUP1 SLOAD SWAP1 POP PUSH2 0x14A SWAP2 SWAP1 PUSH2 0x450 JUMP JUMPDEST DUP2 LT ISZERO PUSH2 0x1B1 JUMPI PUSH1 0x0 PUSH1 0x1 DUP3 PUSH2 0x160 SWAP2 SWAP1 PUSH2 0x484 JUMP JUMPDEST DUP2 SLOAD DUP2 LT PUSH2 0x171 JUMPI PUSH2 0x170 PUSH2 0x4B8 JUMP JUMPDEST JUMPDEST SWAP1 PUSH1 0x0 MSTORE PUSH1 0x20 PUSH1 0x0 KECCAK256 ADD SLOAD PUSH1 0x0 DUP3 DUP2 SLOAD DUP2 LT PUSH2 0x190 JUMPI PUSH2 0x18F PUSH2 0x4B8 JUMP JUMPDEST JUMPDEST SWAP1 PUSH1 0x0 MSTORE PUSH1 0x20 PUSH1 0x0 KECCAK256 ADD DUP2 SWAP1 SSTORE POP DUP1 DUP1 PUSH2 0x1A9 SWAP1 PUSH2 0x4E7 JUMP JUMPDEST SWAP2 POP POP PUSH2 0x138 JUMP JUMPDEST POP PUSH1 0x0 DUP1 SLOAD DUP1 PUSH2 0x1C4 JUMPI PUSH2 0x1C3 PUSH2 0x52F JUMP JUMPDEST JUMPDEST PUSH1 0x1 SWAP1 SUB DUP2 DUP2 SWAP1 PUSH1 0x0 MSTORE PUSH1 0x20 PUSH1 0x0 KECCAK256 ADD PUSH1 0x0 SWAP1 SSTORE SWAP1 SSTORE POP JUMP JUMPDEST PUSH1 0x1 DUP1 SLOAD SWAP1 PUSH2 0x100 EXP SWAP1 DIV PUSH1 0xFF AND DUP2 JUMP JUMPDEST PUSH1 0x0 DUP2 DUP2 SLOAD DUP2 LT PUSH2 0x1FE JUMPI PUSH1 0x0 DUP1 REVERT JUMPDEST SWAP1 PUSH1 0x0 MSTORE PUSH1 0x20 PUSH1 0x0 KECCAK256 ADD PUSH1 0x0 SWAP2 POP SWAP1 POP SLOAD DUP2 JUMP JUMPDEST PUSH1 0x1 PUSH1 0x0 SWAP1 SLOAD SWAP1 PUSH2 0x100 EXP SWAP1 DIV PUSH1 0xFF AND DUP2 JUMP JUMPDEST PUSH1 0x0 PUSH1 0x1 DUP1 PUSH2 0x100 EXP DUP2 SLOAD DUP2 PUSH1 0xFF MUL NOT AND SWAP1 DUP4 PUSH1 0xFF AND MUL OR SWAP1 SSTORE POP JUMPDEST PUSH1 0x5 PUSH1 0x1 DUP1 SLOAD SWAP1 PUSH2 0x100 EXP SWAP1 DIV PUSH1 0xFF AND PUSH1 0xFF AND LT ISZERO PUSH2 0x2D9 JUMPI PUSH1 0x1 DUP1 SLOAD SWAP1 PUSH2 0x100 EXP SWAP1 DIV PUSH1 0xFF AND PUSH1 0x1 PUSH1 0x0 DUP3 DUP3 DUP3 SWAP1 SLOAD SWAP1 PUSH2 0x100 EXP SWAP1 DIV PUSH1 0xFF AND PUSH2 0x285 SWAP2 SWAP1 PUSH2 0x55E JUMP JUMPDEST SWAP3 POP PUSH2 0x100 EXP DUP2 SLOAD DUP2 PUSH1 0xFF MUL NOT AND SWAP1 DUP4 PUSH1 0xFF AND MUL OR SWAP1 SSTORE POP PUSH1 0x1 DUP1 DUP2 DUP2 SWAP1 SLOAD SWAP1 PUSH2 0x100 EXP SWAP1 DIV PUSH1 0xFF AND DUP1 SWAP3 SWAP2 SWAP1 PUSH2 0x2BB SWAP1 PUSH2 0x593 JUMP JUMPDEST SWAP2 SWAP1 PUSH2 0x100 EXP DUP2 SLOAD DUP2 PUSH1 0xFF MUL NOT AND SWAP1 DUP4 PUSH1 0xFF AND MUL OR SWAP1 SSTORE POP POP PUSH2 0x241 JUMP JUMPDEST JUMP JUMPDEST PUSH1 0x0 DUP1 REVERT JUMPDEST PUSH1 0x0 DUP2 SWAP1 POP SWAP2 SWAP1 POP JUMP JUMPDEST PUSH2 0x2F3 DUP2 PUSH2 0x2E0 JUMP JUMPDEST DUP2 EQ PUSH2 0x2FE JUMPI PUSH1 0x0 DUP1 REVERT JUMPDEST POP JUMP JUMPDEST PUSH1 0x0 DUP2 CALLDATALOAD SWAP1 POP PUSH2 0x310 DUP2 PUSH2 0x2EA JUMP JUMPDEST SWAP3 SWAP2 POP POP JUMP JUMPDEST PUSH1 0x0 PUSH1 0x20 DUP3 DUP5 SUB SLT ISZERO PUSH2 0x32C JUMPI PUSH2 0x32B PUSH2 0x2DB JUMP JUMPDEST JUMPDEST PUSH1 0x0 PUSH2 0x33A DUP5 DUP3 DUP6 ADD PUSH2 0x301 JUMP JUMPDEST SWAP2 POP POP SWAP3 SWAP2 POP POP JUMP JUMPDEST PUSH1 0x0 PUSH1 0xFF DUP3 AND SWAP1 POP SWAP2 SWAP1 POP JUMP JUMPDEST PUSH2 0x359 DUP2 PUSH2 0x343 JUMP JUMPDEST DUP3 MSTORE POP POP JUMP JUMPDEST PUSH1 0x0 PUSH1 0x20 DUP3 ADD SWAP1 POP PUSH2 0x374 PUSH1 0x0 DUP4 ADD DUP5 PUSH2 0x350 JUMP JUMPDEST SWAP3 SWAP2 POP POP JUMP JUMPDEST PUSH2 0x383 DUP2 PUSH2 0x2E0 JUMP JUMPDEST DUP3 MSTORE POP POP JUMP JUMPDEST PUSH1 0x0 PUSH1 0x20 DUP3 ADD SWAP1 POP PUSH2 0x39E PUSH1 0x0 DUP4 ADD DUP5 PUSH2 0x37A JUMP JUMPDEST SWAP3 SWAP2 POP POP JUMP JUMPDEST PUSH1 0x0 DUP3 DUP3 MSTORE PUSH1 0x20 DUP3 ADD SWAP1 POP SWAP3 SWAP2 POP POP JUMP JUMPDEST PUSH32 0x696E646578206F7574206F6620626F756E640000000000000000000000000000 PUSH1 0x0 DUP3 ADD MSTORE POP JUMP JUMPDEST PUSH1 0x0 PUSH2 0x3EB PUSH1 0x12 DUP4 PUSH2 0x3A4 JUMP JUMPDEST SWAP2 POP PUSH2 0x3F6 DUP3 PUSH2 0x3B5 JUMP JUMPDEST PUSH1 0x20 DUP3 ADD SWAP1 POP SWAP2 SWAP1 POP JUMP JUMPDEST PUSH1 0x0 PUSH1 0x20 DUP3 ADD SWAP1 POP DUP2 DUP2 SUB PUSH1 0x0 DUP4 ADD MSTORE PUSH2 0x41A DUP2 PUSH2 0x3DE JUMP JUMPDEST SWAP1 POP SWAP2 SWAP1 POP JUMP JUMPDEST PUSH32 0x4E487B7100000000000000000000000000000000000000000000000000000000 PUSH1 0x0 MSTORE PUSH1 0x11 PUSH1 0x4 MSTORE PUSH1 0x24 PUSH1 0x0 REVERT JUMPDEST PUSH1 0x0 PUSH2 0x45B DUP3 PUSH2 0x2E0 JUMP JUMPDEST SWAP2 POP PUSH2 0x466 DUP4 PUSH2 0x2E0 JUMP JUMPDEST SWAP3 POP DUP3 DUP3 SUB SWAP1 POP DUP2 DUP2 GT ISZERO PUSH2 0x47E JUMPI PUSH2 0x47D PUSH2 0x421 JUMP JUMPDEST JUMPDEST SWAP3 SWAP2 POP POP JUMP JUMPDEST PUSH1 0x0 PUSH2 0x48F DUP3 PUSH2 0x2E0 JUMP JUMPDEST SWAP2 POP PUSH2 0x49A DUP4 PUSH2 0x2E0 JUMP JUMPDEST SWAP3 POP DUP3 DUP3 ADD SWAP1 POP DUP1 DUP3 GT ISZERO PUSH2 0x4B2 JUMPI PUSH2 0x4B1 PUSH2 0x421 JUMP JUMPDEST JUMPDEST SWAP3 SWAP2 POP POP JUMP JUMPDEST PUSH32 0x4E487B7100000000000000000000000000000000000000000000000000000000 PUSH1 0x0 MSTORE PUSH1 0x32 PUSH1 0x4 MSTORE PUSH1 0x24 PUSH1 0x0 REVERT JUMPDEST PUSH1 0x0 PUSH2 0x4F2 DUP3 PUSH2 0x2E0 JUMP JUMPDEST SWAP2 POP PUSH32 0xFFFFFFFFFFFFFFFFFFFFFFFFFFFFFFFFFFFFFFFFFFFFFFFFFFFFFFFFFFFFFFFF DUP3 SUB PUSH2 0x524 JUMPI PUSH2 0x523 PUSH2 0x421 JUMP JUMPDEST JUMPDEST PUSH1 0x1 DUP3 ADD SWAP1 POP SWAP2 SWAP1 POP JUMP JUMPDEST PUSH32 0x4E487B7100000000000000000000000000000000000000000000000000000000 PUSH1 0x0 MSTORE PUSH1 0x31 PUSH1 0x4 MSTORE PUSH1 0x24 PUSH1 0x0 REVERT JUMPDEST PUSH1 0x0 PUSH2 0x569 DUP3 PUSH2 0x343 JUMP JUMPDEST SWAP2 POP PUSH2 0x574 DUP4 PUSH2 0x343 JUMP JUMPDEST SWAP3 POP DUP3 DUP3 ADD SWAP1 POP PUSH1 0xFF DUP2 GT ISZERO PUSH2 0x58D JUMPI PUSH2 0x58C PUSH2 0x421 JUMP JUMPDEST JUMPDEST SWAP3 SWAP2 POP POP JUMP JUMPDEST PUSH1 0x0 PUSH2 0x59E DUP3 PUSH2 0x343 JUMP JUMPDEST SWAP2 POP PUSH1 0xFF DUP3 SUB PUSH2 0x5B1 JUMPI PUSH2 0x5B0 PUSH2 0x421 JUMP JUMPDEST JUMPDEST PUSH1 0x1 DUP3 ADD SWAP1 POP SWAP2 SWAP1 POP JUMP INVALID LOG2 PUSH5 0x6970667358 0x22 SLT KECCAK256 MOD BYTE 0x2D 0x28 0xC2 0xD6 EXP 0xCE GAS NUMBER SUB SHR 0xB8 EXTCODECOPY BLOCKHASH 0x2B 0xC PC 0xD PUSH18 0xC9BE4FD4DE66C934BB4AD95B64736F6C6343 STOP ADDMOD SLT STOP CALLER "
				},
				"gasEstimates": {
					"creation": {
						"codeDepositCost": "304400",
						"executionCost": "24610",
						"totalCost": "329010"
					},
					"external": {
						"arr(uint256)": "infinite",
						"it()": "2518",
						"iter()": "infinite",
						"remove(uint256)": "infinite",
						"t()": "2515"
					}
				},
				"methodIdentifiers": {
					"arr(uint256)": "71e5ee5f",
					"it()": "5ce692f2",
					"iter()": "fc32d737",
					"remove(uint256)": "4cc82215",
					"t()": "92d0d153"
				}
			},
			"storageLayout": {
				"storage": [
					{
						"astId": 4,
						"contract": "08. array_operation.sol:ArrayRemoveByshifting",
						"label": "arr",
						"offset": 0,
						"slot": "0",
						"type": "t_array(t_uint256)dyn_storage"
					},
					{
						"astId": 7,
						"contract": "08. array_operation.sol:ArrayRemoveByshifting",
						"label": "t",
						"offset": 0,
						"slot": "1",
						"type": "t_uint8"
					},
					{
						"astId": 9,
						"contract": "08. array_operation.sol:ArrayRemoveByshifting",
						"label": "it",
						"offset": 1,
						"slot": "1",
						"type": "t_uint8"
					}
				],
				"types": {
					"t_array(t_uint256)dyn_storage": {
						"base": "t_uint256",
						"encoding": "dynamic_array",
						"label": "uint256[]",
						"numberOfBytes": "32"
					},
					"t_uint256": {
						"encoding": "inplace",
						"label": "uint256",
						"numberOfBytes": "32"
					},
					"t_uint8": {
						"encoding": "inplace",
						"label": "uint8",
						"numberOfBytes": "1"
					}
				}
			},
			"userdoc": {
				"kind": "user",
				"methods": {},
				"version": 1
			}
		}
	}
}