{
	"00. solidity_whatnew.sol": {
		"Safemath": {
			"abi": [
				{
					"inputs": [],
					"name": "testUncheckedUnderflow",
					"outputs": [
						{
							"internalType": "uint256",
							"name": "",
							"type": "uint256"
						}
					],
					"stateMutability": "pure",
					"type": "function"
				},
				{
					"inputs": [],
					"name": "testUnderflow",
					"outputs": [
						{
							"internalType": "uint256",
							"name": "",
							"type": "uint256"
						}
					],
					"stateMutability": "pure",
					"type": "function"
				}
			],
			"devdoc": {
				"kind": "dev",
				"methods": {},
				"version": 1
			},
			"evm": {
				"assembly": "    /* \"00. solidity_whatnew.sol\":78:363  contract Safemath {... */\n  mstore(0x40, 0x80)\n  callvalue\n  dup1\n  iszero\n  tag_1\n  jumpi\n  0x00\n  dup1\n  revert\ntag_1:\n  pop\n  dataSize(sub_0)\n  dup1\n  dataOffset(sub_0)\n  0x00\n  codecopy\n  0x00\n  return\nstop\n\nsub_0: assembly {\n        /* \"00. solidity_whatnew.sol\":78:363  contract Safemath {... */\n      mstore(0x40, 0x80)\n      callvalue\n      dup1\n      iszero\n      tag_1\n      jumpi\n      0x00\n      dup1\n      revert\n    tag_1:\n      pop\n      jumpi(tag_2, lt(calldatasize, 0x04))\n      shr(0xe0, calldataload(0x00))\n      dup1\n      0x7f3f6a73\n      eq\n      tag_3\n      jumpi\n      dup1\n      0xa9a3e611\n      eq\n      tag_4\n      jumpi\n    tag_2:\n      0x00\n      dup1\n      revert\n        /* \"00. solidity_whatnew.sol\":103:216  function testUnderflow() public pure returns (uint){... */\n    tag_3:\n      tag_5\n      tag_6\n      jump\t// in\n    tag_5:\n      mload(0x40)\n      tag_7\n      swap2\n      swap1\n      tag_8\n      jump\t// in\n    tag_7:\n      mload(0x40)\n      dup1\n      swap2\n      sub\n      swap1\n      return\n        /* \"00. solidity_whatnew.sol\":224:360  function testUncheckedUnderflow() public pure returns (uint){... */\n    tag_4:\n      tag_9\n      tag_10\n      jump\t// in\n    tag_9:\n      mload(0x40)\n      tag_11\n      swap2\n      swap1\n      tag_8\n      jump\t// in\n    tag_11:\n      mload(0x40)\n      dup1\n      swap2\n      sub\n      swap1\n      return\n        /* \"00. solidity_whatnew.sol\":103:216  function testUnderflow() public pure returns (uint){... */\n    tag_6:\n        /* \"00. solidity_whatnew.sol\":149:153  uint */\n      0x00\n        /* \"00. solidity_whatnew.sol\":165:171  uint x */\n      dup1\n        /* \"00. solidity_whatnew.sol\":174:175  0 */\n      0x00\n        /* \"00. solidity_whatnew.sol\":165:175  uint x = 0 */\n      swap1\n      pop\n        /* \"00. solidity_whatnew.sol\":186:189  x-- */\n      dup1\n      dup1\n      tag_13\n      swap1\n      tag_14\n      jump\t// in\n    tag_13:\n      swap2\n      pop\n      pop\n        /* \"00. solidity_whatnew.sol\":207:208  x */\n      dup1\n        /* \"00. solidity_whatnew.sol\":200:208  return x */\n      swap2\n      pop\n      pop\n        /* \"00. solidity_whatnew.sol\":103:216  function testUnderflow() public pure returns (uint){... */\n      swap1\n      jump\t// out\n        /* \"00. solidity_whatnew.sol\":224:360  function testUncheckedUnderflow() public pure returns (uint){... */\n    tag_10:\n        /* \"00. solidity_whatnew.sol\":279:283  uint */\n      0x00\n        /* \"00. solidity_whatnew.sol\":295:301  uint x */\n      dup1\n        /* \"00. solidity_whatnew.sol\":304:305  0 */\n      0x00\n        /* \"00. solidity_whatnew.sol\":295:305  uint x = 0 */\n      swap1\n      pop\n        /* \"00. solidity_whatnew.sol\":328:331  x-- */\n      dup1\n      dup1\n      0x01\n      swap1\n      sub\n      swap2\n      pop\n      pop\n        /* \"00. solidity_whatnew.sol\":351:352  x */\n      dup1\n        /* \"00. solidity_whatnew.sol\":344:352  return x */\n      swap2\n      pop\n      pop\n        /* \"00. solidity_whatnew.sol\":224:360  function testUncheckedUnderflow() public pure returns (uint){... */\n      swap1\n      jump\t// out\n        /* \"#utility.yul\":7:84   */\n    tag_16:\n        /* \"#utility.yul\":44:51   */\n      0x00\n        /* \"#utility.yul\":73:78   */\n      dup2\n        /* \"#utility.yul\":62:78   */\n      swap1\n      pop\n        /* \"#utility.yul\":7:84   */\n      swap2\n      swap1\n      pop\n      jump\t// out\n        /* \"#utility.yul\":90:208   */\n    tag_17:\n        /* \"#utility.yul\":177:201   */\n      tag_22\n        /* \"#utility.yul\":195:200   */\n      dup2\n        /* \"#utility.yul\":177:201   */\n      tag_16\n      jump\t// in\n    tag_22:\n        /* \"#utility.yul\":172:175   */\n      dup3\n        /* \"#utility.yul\":165:202   */\n      mstore\n        /* \"#utility.yul\":90:208   */\n      pop\n      pop\n      jump\t// out\n        /* \"#utility.yul\":214:436   */\n    tag_8:\n        /* \"#utility.yul\":307:311   */\n      0x00\n        /* \"#utility.yul\":345:347   */\n      0x20\n        /* \"#utility.yul\":334:343   */\n      dup3\n        /* \"#utility.yul\":330:348   */\n      add\n        /* \"#utility.yul\":322:348   */\n      swap1\n      pop\n        /* \"#utility.yul\":358:429   */\n      tag_24\n        /* \"#utility.yul\":426:427   */\n      0x00\n        /* \"#utility.yul\":415:424   */\n      dup4\n        /* \"#utility.yul\":411:428   */\n      add\n        /* \"#utility.yul\":402:408   */\n      dup5\n        /* \"#utility.yul\":358:429   */\n      tag_17\n      jump\t// in\n    tag_24:\n        /* \"#utility.yul\":214:436   */\n      swap3\n      swap2\n      pop\n      pop\n      jump\t// out\n        /* \"#utility.yul\":442:622   */\n    tag_18:\n        /* \"#utility.yul\":490:567   */\n      0x4e487b7100000000000000000000000000000000000000000000000000000000\n        /* \"#utility.yul\":487:488   */\n      0x00\n        /* \"#utility.yul\":480:568   */\n      mstore\n        /* \"#utility.yul\":587:591   */\n      0x11\n        /* \"#utility.yul\":584:585   */\n      0x04\n        /* \"#utility.yul\":577:592   */\n      mstore\n        /* \"#utility.yul\":611:615   */\n      0x24\n        /* \"#utility.yul\":608:609   */\n      0x00\n        /* \"#utility.yul\":601:616   */\n      revert\n        /* \"#utility.yul\":628:799   */\n    tag_14:\n        /* \"#utility.yul\":667:670   */\n      0x00\n        /* \"#utility.yul\":690:714   */\n      tag_27\n        /* \"#utility.yul\":708:713   */\n      dup3\n        /* \"#utility.yul\":690:714   */\n      tag_16\n      jump\t// in\n    tag_27:\n        /* \"#utility.yul\":681:714   */\n      swap2\n      pop\n        /* \"#utility.yul\":736:740   */\n      0x00\n        /* \"#utility.yul\":729:734   */\n      dup3\n        /* \"#utility.yul\":726:741   */\n      sub\n        /* \"#utility.yul\":723:764   */\n      tag_28\n      jumpi\n        /* \"#utility.yul\":744:762   */\n      tag_29\n      tag_18\n      jump\t// in\n    tag_29:\n        /* \"#utility.yul\":723:764   */\n    tag_28:\n        /* \"#utility.yul\":791:792   */\n      0x01\n        /* \"#utility.yul\":784:789   */\n      dup3\n        /* \"#utility.yul\":780:793   */\n      sub\n        /* \"#utility.yul\":773:793   */\n      swap1\n      pop\n        /* \"#utility.yul\":628:799   */\n      swap2\n      swap1\n      pop\n      jump\t// out\n\n    auxdata: 0xa2646970667358221220edf2a55c6019f0c73558126d9a7e377fb38ab28b11845380792756f0f21da53664736f6c63430008120033\n}\n",
				"bytecode": {
					"linkReferences": {},
					"object": "608060405234801561001057600080fd5b5061016c806100206000396000f3fe608060405234801561001057600080fd5b50600436106100365760003560e01c80637f3f6a731461003b578063a9a3e61114610059575b600080fd5b610043610077565b60405161005091906100c3565b60405180910390f35b610061610093565b60405161006e91906100c3565b60405180910390f35b6000806000905080806100899061010d565b9150508091505090565b600080600090508080600190039150508091505090565b6000819050919050565b6100bd816100aa565b82525050565b60006020820190506100d860008301846100b4565b92915050565b7f4e487b7100000000000000000000000000000000000000000000000000000000600052601160045260246000fd5b6000610118826100aa565b91506000820361012b5761012a6100de565b5b60018203905091905056fea2646970667358221220edf2a55c6019f0c73558126d9a7e377fb38ab28b11845380792756f0f21da53664736f6c63430008120033",
					"opcodes": "PUSH1 0x80 PUSH1 0x40 MSTORE CALLVALUE DUP1 ISZERO PUSH2 0x10 JUMPI PUSH1 0x0 DUP1 REVERT JUMPDEST POP PUSH2 0x16C DUP1 PUSH2 0x20 PUSH1 0x0 CODECOPY PUSH1 0x0 RETURN INVALID PUSH1 0x80 PUSH1 0x40 MSTORE CALLVALUE DUP1 ISZERO PUSH2 0x10 JUMPI PUSH1 0x0 DUP1 REVERT JUMPDEST POP PUSH1 0x4 CALLDATASIZE LT PUSH2 0x36 JUMPI PUSH1 0x0 CALLDATALOAD PUSH1 0xE0 SHR DUP1 PUSH4 0x7F3F6A73 EQ PUSH2 0x3B JUMPI DUP1 PUSH4 0xA9A3E611 EQ PUSH2 0x59 JUMPI JUMPDEST PUSH1 0x0 DUP1 REVERT JUMPDEST PUSH2 0x43 PUSH2 0x77 JUMP JUMPDEST PUSH1 0x40 MLOAD PUSH2 0x50 SWAP2 SWAP1 PUSH2 0xC3 JUMP JUMPDEST PUSH1 0x40 MLOAD DUP1 SWAP2 SUB SWAP1 RETURN JUMPDEST PUSH2 0x61 PUSH2 0x93 JUMP JUMPDEST PUSH1 0x40 MLOAD PUSH2 0x6E SWAP2 SWAP1 PUSH2 0xC3 JUMP JUMPDEST PUSH1 0x40 MLOAD DUP1 SWAP2 SUB SWAP1 RETURN JUMPDEST PUSH1 0x0 DUP1 PUSH1 0x0 SWAP1 POP DUP1 DUP1 PUSH2 0x89 SWAP1 PUSH2 0x10D JUMP JUMPDEST SWAP2 POP POP DUP1 SWAP2 POP POP SWAP1 JUMP JUMPDEST PUSH1 0x0 DUP1 PUSH1 0x0 SWAP1 POP DUP1 DUP1 PUSH1 0x1 SWAP1 SUB SWAP2 POP POP DUP1 SWAP2 POP POP SWAP1 JUMP JUMPDEST PUSH1 0x0 DUP2 SWAP1 POP SWAP2 SWAP1 POP JUMP JUMPDEST PUSH2 0xBD DUP2 PUSH2 0xAA JUMP JUMPDEST DUP3 MSTORE POP POP JUMP JUMPDEST PUSH1 0x0 PUSH1 0x20 DUP3 ADD SWAP1 POP PUSH2 0xD8 PUSH1 0x0 DUP4 ADD DUP5 PUSH2 0xB4 JUMP JUMPDEST SWAP3 SWAP2 POP POP JUMP JUMPDEST PUSH32 0x4E487B7100000000000000000000000000000000000000000000000000000000 PUSH1 0x0 MSTORE PUSH1 0x11 PUSH1 0x4 MSTORE PUSH1 0x24 PUSH1 0x0 REVERT JUMPDEST PUSH1 0x0 PUSH2 0x118 DUP3 PUSH2 0xAA JUMP JUMPDEST SWAP2 POP PUSH1 0x0 DUP3 SUB PUSH2 0x12B JUMPI PUSH2 0x12A PUSH2 0xDE JUMP JUMPDEST JUMPDEST PUSH1 0x1 DUP3 SUB SWAP1 POP SWAP2 SWAP1 POP JUMP INVALID LOG2 PUSH5 0x6970667358 0x22 SLT KECCAK256 0xED CALLCODE 0xA5 0x5C PUSH1 0x19 CREATE 0xC7 CALLDATALOAD PC SLT PUSH14 0x9A7E377FB38AB28B118453807927 JUMP CREATE CALLCODE SAR 0xA5 CALLDATASIZE PUSH5 0x736F6C6343 STOP ADDMOD SLT STOP CALLER "
				},
				"gasEstimates": {
					"creation": {
						"codeDepositCost": "72800",
						"executionCost": "123",
						"totalCost": "72923"
					},
					"external": {
						"testUncheckedUnderflow()": "372",
						"testUnderflow()": "266"
					}
				},
				"methodIdentifiers": {
					"testUncheckedUnderflow()": "a9a3e611",
					"testUnderflow()": "7f3f6a73"
				}
			},
			"storageLayout": {
				"storage": [],
				"types": null
			},
			"userdoc": {
				"kind": "user",
				"methods": {},
				"version": 1
			}
		}
	}
}