{
	"data": {
		"bytecode": {
			"linkReferences": {},
			"object": "608060405234801561001057600080fd5b50610610806100206000396000f3fe6080604052600436106100295760003560e01c806387ba61791461002e578063ff00726c1461004a575b600080fd5b61004860048036038101906100439190610337565b610066565b005b610064600480360381019061005f91906103a2565b6101a4565b005b6000808273ffffffffffffffffffffffffffffffffffffffff166103e8607b604051602401610095919061047e565b6040516020818303038152906040527f24ccab8f000000000000000000000000000000000000000000000000000000007bffffffffffffffffffffffffffffffffffffffffffffffffffffffff19166020820180517bffffffffffffffffffffffffffffffffffffffffffffffffffffffff838183161783525050505060405161011f919061051d565b60006040518083038185875af1925050503d806000811461015c576040519150601f19603f3d011682016040523d82523d6000602084013e610161565b606091505b50915091507f13848c3e38f8886f3f5d2ad9dff80d8092c2bbb8efd5b887a99c2c6cfc09ac2a82826040516101979291906105aa565b60405180910390a1505050565b6000808273ffffffffffffffffffffffffffffffffffffffff16346040516024016040516020818303038152906040527f1dcc85ae000000000000000000000000000000000000000000000000000000007bffffffffffffffffffffffffffffffffffffffffffffffffffffffff19166020820180517bffffffffffffffffffffffffffffffffffffffffffffffffffffffff838183161783525050505060405161024f919061051d565b60006040518083038185875af1925050503d806000811461028c576040519150601f19603f3d011682016040523d82523d6000602084013e610291565b606091505b50915091507f13848c3e38f8886f3f5d2ad9dff80d8092c2bbb8efd5b887a99c2c6cfc09ac2a82826040516102c79291906105aa565b60405180910390a1505050565b600080fd5b600073ffffffffffffffffffffffffffffffffffffffff82169050919050565b6000610304826102d9565b9050919050565b610314816102f9565b811461031f57600080fd5b50565b6000813590506103318161030b565b92915050565b60006020828403121561034d5761034c6102d4565b5b600061035b84828501610322565b91505092915050565b600061036f826102d9565b9050919050565b61037f81610364565b811461038a57600080fd5b50565b60008135905061039c81610376565b92915050565b6000602082840312156103b8576103b76102d4565b5b60006103c68482850161038d565b91505092915050565b600082825260208201905092915050565b7f63616c6c20666f6f000000000000000000000000000000000000000000000000600082015250565b60006104166008836103cf565b9150610421826103e0565b602082019050919050565b6000819050919050565b600060ff82169050919050565b6000819050919050565b600061046861046361045e8461042c565b610443565b610436565b9050919050565b6104788161044d565b82525050565b6000604082019050818103600083015261049781610409565b90506104a6602083018461046f565b92915050565b600081519050919050565b600081905092915050565b60005b838110156104e05780820151818401526020810190506104c5565b60008484015250505050565b60006104f7826104ac565b61050181856104b7565b93506105118185602086016104c2565b80840191505092915050565b600061052982846104ec565b915081905092915050565b60008115159050919050565b61054981610534565b82525050565b600082825260208201905092915050565b6000601f19601f8301169050919050565b600061057c826104ac565b610586818561054f565b93506105968185602086016104c2565b61059f81610560565b840191505092915050565b60006040820190506105bf6000830185610540565b81810360208301526105d18184610571565b9050939250505056fea26469706673582212202f028f5690bc731ab84df3b159946343ddab278a4238986080623850a13da71164736f6c63430008120033",
			"opcodes": "PUSH1 0x80 PUSH1 0x40 MSTORE CALLVALUE DUP1 ISZERO PUSH2 0x10 JUMPI PUSH1 0x0 DUP1 REVERT JUMPDEST POP PUSH2 0x610 DUP1 PUSH2 0x20 PUSH1 0x0 CODECOPY PUSH1 0x0 RETURN INVALID PUSH1 0x80 PUSH1 0x40 MSTORE PUSH1 0x4 CALLDATASIZE LT PUSH2 0x29 JUMPI PUSH1 0x0 CALLDATALOAD PUSH1 0xE0 SHR DUP1 PUSH4 0x87BA6179 EQ PUSH2 0x2E JUMPI DUP1 PUSH4 0xFF00726C EQ PUSH2 0x4A JUMPI JUMPDEST PUSH1 0x0 DUP1 REVERT JUMPDEST PUSH2 0x48 PUSH1 0x4 DUP1 CALLDATASIZE SUB DUP2 ADD SWAP1 PUSH2 0x43 SWAP2 SWAP1 PUSH2 0x337 JUMP JUMPDEST PUSH2 0x66 JUMP JUMPDEST STOP JUMPDEST PUSH2 0x64 PUSH1 0x4 DUP1 CALLDATASIZE SUB DUP2 ADD SWAP1 PUSH2 0x5F SWAP2 SWAP1 PUSH2 0x3A2 JUMP JUMPDEST PUSH2 0x1A4 JUMP JUMPDEST STOP JUMPDEST PUSH1 0x0 DUP1 DUP3 PUSH20 0xFFFFFFFFFFFFFFFFFFFFFFFFFFFFFFFFFFFFFFFF AND PUSH2 0x3E8 PUSH1 0x7B PUSH1 0x40 MLOAD PUSH1 0x24 ADD PUSH2 0x95 SWAP2 SWAP1 PUSH2 0x47E JUMP JUMPDEST PUSH1 0x40 MLOAD PUSH1 0x20 DUP2 DUP4 SUB SUB DUP2 MSTORE SWAP1 PUSH1 0x40 MSTORE PUSH32 0x24CCAB8F00000000000000000000000000000000000000000000000000000000 PUSH28 0xFFFFFFFFFFFFFFFFFFFFFFFFFFFFFFFFFFFFFFFFFFFFFFFFFFFFFFFF NOT AND PUSH1 0x20 DUP3 ADD DUP1 MLOAD PUSH28 0xFFFFFFFFFFFFFFFFFFFFFFFFFFFFFFFFFFFFFFFFFFFFFFFFFFFFFFFF DUP4 DUP2 DUP4 AND OR DUP4 MSTORE POP POP POP POP PUSH1 0x40 MLOAD PUSH2 0x11F SWAP2 SWAP1 PUSH2 0x51D JUMP JUMPDEST PUSH1 0x0 PUSH1 0x40 MLOAD DUP1 DUP4 SUB DUP2 DUP6 DUP8 GAS CALL SWAP3 POP POP POP RETURNDATASIZE DUP1 PUSH1 0x0 DUP2 EQ PUSH2 0x15C JUMPI PUSH1 0x40 MLOAD SWAP2 POP PUSH1 0x1F NOT PUSH1 0x3F RETURNDATASIZE ADD AND DUP3 ADD PUSH1 0x40 MSTORE RETURNDATASIZE DUP3 MSTORE RETURNDATASIZE PUSH1 0x0 PUSH1 0x20 DUP5 ADD RETURNDATACOPY PUSH2 0x161 JUMP JUMPDEST PUSH1 0x60 SWAP2 POP JUMPDEST POP SWAP2 POP SWAP2 POP PUSH32 0x13848C3E38F8886F3F5D2AD9DFF80D8092C2BBB8EFD5B887A99C2C6CFC09AC2A DUP3 DUP3 PUSH1 0x40 MLOAD PUSH2 0x197 SWAP3 SWAP2 SWAP1 PUSH2 0x5AA JUMP JUMPDEST PUSH1 0x40 MLOAD DUP1 SWAP2 SUB SWAP1 LOG1 POP POP POP JUMP JUMPDEST PUSH1 0x0 DUP1 DUP3 PUSH20 0xFFFFFFFFFFFFFFFFFFFFFFFFFFFFFFFFFFFFFFFF AND CALLVALUE PUSH1 0x40 MLOAD PUSH1 0x24 ADD PUSH1 0x40 MLOAD PUSH1 0x20 DUP2 DUP4 SUB SUB DUP2 MSTORE SWAP1 PUSH1 0x40 MSTORE PUSH32 0x1DCC85AE00000000000000000000000000000000000000000000000000000000 PUSH28 0xFFFFFFFFFFFFFFFFFFFFFFFFFFFFFFFFFFFFFFFFFFFFFFFFFFFFFFFF NOT AND PUSH1 0x20 DUP3 ADD DUP1 MLOAD PUSH28 0xFFFFFFFFFFFFFFFFFFFFFFFFFFFFFFFFFFFFFFFFFFFFFFFFFFFFFFFF DUP4 DUP2 DUP4 AND OR DUP4 MSTORE POP POP POP POP PUSH1 0x40 MLOAD PUSH2 0x24F SWAP2 SWAP1 PUSH2 0x51D JUMP JUMPDEST PUSH1 0x0 PUSH1 0x40 MLOAD DUP1 DUP4 SUB DUP2 DUP6 DUP8 GAS CALL SWAP3 POP POP POP RETURNDATASIZE DUP1 PUSH1 0x0 DUP2 EQ PUSH2 0x28C JUMPI PUSH1 0x40 MLOAD SWAP2 POP PUSH1 0x1F NOT PUSH1 0x3F RETURNDATASIZE ADD AND DUP3 ADD PUSH1 0x40 MSTORE RETURNDATASIZE DUP3 MSTORE RETURNDATASIZE PUSH1 0x0 PUSH1 0x20 DUP5 ADD RETURNDATACOPY PUSH2 0x291 JUMP JUMPDEST PUSH1 0x60 SWAP2 POP JUMPDEST POP SWAP2 POP SWAP2 POP PUSH32 0x13848C3E38F8886F3F5D2AD9DFF80D8092C2BBB8EFD5B887A99C2C6CFC09AC2A DUP3 DUP3 PUSH1 0x40 MLOAD PUSH2 0x2C7 SWAP3 SWAP2 SWAP1 PUSH2 0x5AA JUMP JUMPDEST PUSH1 0x40 MLOAD DUP1 SWAP2 SUB SWAP1 LOG1 POP POP POP JUMP JUMPDEST PUSH1 0x0 DUP1 REVERT JUMPDEST PUSH1 0x0 PUSH20 0xFFFFFFFFFFFFFFFFFFFFFFFFFFFFFFFFFFFFFFFF DUP3 AND SWAP1 POP SWAP2 SWAP1 POP JUMP JUMPDEST PUSH1 0x0 PUSH2 0x304 DUP3 PUSH2 0x2D9 JUMP JUMPDEST SWAP1 POP SWAP2 SWAP1 POP JUMP JUMPDEST PUSH2 0x314 DUP2 PUSH2 0x2F9 JUMP JUMPDEST DUP2 EQ PUSH2 0x31F JUMPI PUSH1 0x0 DUP1 REVERT JUMPDEST POP JUMP JUMPDEST PUSH1 0x0 DUP2 CALLDATALOAD SWAP1 POP PUSH2 0x331 DUP2 PUSH2 0x30B JUMP JUMPDEST SWAP3 SWAP2 POP POP JUMP JUMPDEST PUSH1 0x0 PUSH1 0x20 DUP3 DUP5 SUB SLT ISZERO PUSH2 0x34D JUMPI PUSH2 0x34C PUSH2 0x2D4 JUMP JUMPDEST JUMPDEST PUSH1 0x0 PUSH2 0x35B DUP5 DUP3 DUP6 ADD PUSH2 0x322 JUMP JUMPDEST SWAP2 POP POP SWAP3 SWAP2 POP POP JUMP JUMPDEST PUSH1 0x0 PUSH2 0x36F DUP3 PUSH2 0x2D9 JUMP JUMPDEST SWAP1 POP SWAP2 SWAP1 POP JUMP JUMPDEST PUSH2 0x37F DUP2 PUSH2 0x364 JUMP JUMPDEST DUP2 EQ PUSH2 0x38A JUMPI PUSH1 0x0 DUP1 REVERT JUMPDEST POP JUMP JUMPDEST PUSH1 0x0 DUP2 CALLDATALOAD SWAP1 POP PUSH2 0x39C DUP2 PUSH2 0x376 JUMP JUMPDEST SWAP3 SWAP2 POP POP JUMP JUMPDEST PUSH1 0x0 PUSH1 0x20 DUP3 DUP5 SUB SLT ISZERO PUSH2 0x3B8 JUMPI PUSH2 0x3B7 PUSH2 0x2D4 JUMP JUMPDEST JUMPDEST PUSH1 0x0 PUSH2 0x3C6 DUP5 DUP3 DUP6 ADD PUSH2 0x38D JUMP JUMPDEST SWAP2 POP POP SWAP3 SWAP2 POP POP JUMP JUMPDEST PUSH1 0x0 DUP3 DUP3 MSTORE PUSH1 0x20 DUP3 ADD SWAP1 POP SWAP3 SWAP2 POP POP JUMP JUMPDEST PUSH32 0x63616C6C20666F6F000000000000000000000000000000000000000000000000 PUSH1 0x0 DUP3 ADD MSTORE POP JUMP JUMPDEST PUSH1 0x0 PUSH2 0x416 PUSH1 0x8 DUP4 PUSH2 0x3CF JUMP JUMPDEST SWAP2 POP PUSH2 0x421 DUP3 PUSH2 0x3E0 JUMP JUMPDEST PUSH1 0x20 DUP3 ADD SWAP1 POP SWAP2 SWAP1 POP JUMP JUMPDEST PUSH1 0x0 DUP2 SWAP1 POP SWAP2 SWAP1 POP JUMP JUMPDEST PUSH1 0x0 PUSH1 0xFF DUP3 AND SWAP1 POP SWAP2 SWAP1 POP JUMP JUMPDEST PUSH1 0x0 DUP2 SWAP1 POP SWAP2 SWAP1 POP JUMP JUMPDEST PUSH1 0x0 PUSH2 0x468 PUSH2 0x463 PUSH2 0x45E DUP5 PUSH2 0x42C JUMP JUMPDEST PUSH2 0x443 JUMP JUMPDEST PUSH2 0x436 JUMP JUMPDEST SWAP1 POP SWAP2 SWAP1 POP JUMP JUMPDEST PUSH2 0x478 DUP2 PUSH2 0x44D JUMP JUMPDEST DUP3 MSTORE POP POP JUMP JUMPDEST PUSH1 0x0 PUSH1 0x40 DUP3 ADD SWAP1 POP DUP2 DUP2 SUB PUSH1 0x0 DUP4 ADD MSTORE PUSH2 0x497 DUP2 PUSH2 0x409 JUMP JUMPDEST SWAP1 POP PUSH2 0x4A6 PUSH1 0x20 DUP4 ADD DUP5 PUSH2 0x46F JUMP JUMPDEST SWAP3 SWAP2 POP POP JUMP JUMPDEST PUSH1 0x0 DUP2 MLOAD SWAP1 POP SWAP2 SWAP1 POP JUMP JUMPDEST PUSH1 0x0 DUP2 SWAP1 POP SWAP3 SWAP2 POP POP JUMP JUMPDEST PUSH1 0x0 JUMPDEST DUP4 DUP2 LT ISZERO PUSH2 0x4E0 JUMPI DUP1 DUP3 ADD MLOAD DUP2 DUP5 ADD MSTORE PUSH1 0x20 DUP2 ADD SWAP1 POP PUSH2 0x4C5 JUMP JUMPDEST PUSH1 0x0 DUP5 DUP5 ADD MSTORE POP POP POP POP JUMP JUMPDEST PUSH1 0x0 PUSH2 0x4F7 DUP3 PUSH2 0x4AC JUMP JUMPDEST PUSH2 0x501 DUP2 DUP6 PUSH2 0x4B7 JUMP JUMPDEST SWAP4 POP PUSH2 0x511 DUP2 DUP6 PUSH1 0x20 DUP7 ADD PUSH2 0x4C2 JUMP JUMPDEST DUP1 DUP5 ADD SWAP2 POP POP SWAP3 SWAP2 POP POP JUMP JUMPDEST PUSH1 0x0 PUSH2 0x529 DUP3 DUP5 PUSH2 0x4EC JUMP JUMPDEST SWAP2 POP DUP2 SWAP1 POP SWAP3 SWAP2 POP POP JUMP JUMPDEST PUSH1 0x0 DUP2 ISZERO ISZERO SWAP1 POP SWAP2 SWAP1 POP JUMP JUMPDEST PUSH2 0x549 DUP2 PUSH2 0x534 JUMP JUMPDEST DUP3 MSTORE POP POP JUMP JUMPDEST PUSH1 0x0 DUP3 DUP3 MSTORE PUSH1 0x20 DUP3 ADD SWAP1 POP SWAP3 SWAP2 POP POP JUMP JUMPDEST PUSH1 0x0 PUSH1 0x1F NOT PUSH1 0x1F DUP4 ADD AND SWAP1 POP SWAP2 SWAP1 POP JUMP JUMPDEST PUSH1 0x0 PUSH2 0x57C DUP3 PUSH2 0x4AC JUMP JUMPDEST PUSH2 0x586 DUP2 DUP6 PUSH2 0x54F JUMP JUMPDEST SWAP4 POP PUSH2 0x596 DUP2 DUP6 PUSH1 0x20 DUP7 ADD PUSH2 0x4C2 JUMP JUMPDEST PUSH2 0x59F DUP2 PUSH2 0x560 JUMP JUMPDEST DUP5 ADD SWAP2 POP POP SWAP3 SWAP2 POP POP JUMP JUMPDEST PUSH1 0x0 PUSH1 0x40 DUP3 ADD SWAP1 POP PUSH2 0x5BF PUSH1 0x0 DUP4 ADD DUP6 PUSH2 0x540 JUMP JUMPDEST DUP2 DUP2 SUB PUSH1 0x20 DUP4 ADD MSTORE PUSH2 0x5D1 DUP2 DUP5 PUSH2 0x571 JUMP JUMPDEST SWAP1 POP SWAP4 SWAP3 POP POP POP JUMP INVALID LOG2 PUSH5 0x6970667358 0x22 SLT KECCAK256 0x2F MUL DUP16 JUMP SWAP1 0xBC PUSH20 0x1AB84DF3B159946343DDAB278A42389860806238 POP LOG1 RETURNDATASIZE 0xA7 GT PUSH5 0x736F6C6343 STOP ADDMOD SLT STOP CALLER "
		},
		"gasEstimates": {
			"creation": {
				"codeDepositCost": "310400",
				"executionCost": "349",
				"totalCost": "310749"
			},
			"external": {
				"testCallDoesNotExist(address)": "infinite",
				"testCallFoo(address)": "infinite"
			}
		},
		"methodIdentifiers": {
			"testCallDoesNotExist(address)": "ff00726c",
			"testCallFoo(address)": "87ba6179"
		}
	},
	"abi": [
		{
			"anonymous": false,
			"inputs": [
				{
					"indexed": false,
					"internalType": "bool",
					"name": "success",
					"type": "bool"
				},
				{
					"indexed": false,
					"internalType": "bytes",
					"name": "data",
					"type": "bytes"
				}
			],
			"name": "Response",
			"type": "event"
		},
		{
			"inputs": [
				{
					"internalType": "address payable",
					"name": "_addr",
					"type": "address"
				}
			],
			"name": "testCallDoesNotExist",
			"outputs": [],
			"stateMutability": "payable",
			"type": "function"
		},
		{
			"inputs": [
				{
					"internalType": "address",
					"name": "_addr",
					"type": "address"
				}
			],
			"name": "testCallFoo",
			"outputs": [],
			"stateMutability": "payable",
			"type": "function"
		}
	]
}