{
	"data": {
		"bytecode": {
			"linkReferences": {},
			"object": "608060405234801561001057600080fd5b506108d9806100206000396000f3fe608060405234801561001057600080fd5b506004361061002b5760003560e01c8063fc277a9514610030575b600080fd5b61004a600480360381019061004591906103f1565b610060565b604051610057919061053a565b60405180910390f35b60606040518060400160405280607b81526020016040518060400160405280600381526020017f62617200000000000000000000000000000000000000000000000000000000008152508152506000803373ffffffffffffffffffffffffffffffffffffffff1673ffffffffffffffffffffffffffffffffffffffff16815260200190815260200160002060008201518160000155602082015181600101908161010a91906107a2565b5090505060008060003373ffffffffffffffffffffffffffffffffffffffff1673ffffffffffffffffffffffffffffffffffffffff16815260200190815260200160002090506040518060400160405280600381526020017f666f6f000000000000000000000000000000000000000000000000000000000081525081600101908161019691906107a2565b5060008060003373ffffffffffffffffffffffffffffffffffffffff1673ffffffffffffffffffffffffffffffffffffffff168152602001908152602001600020604051806040016040529081600082015481526020016001820180546101fc906105c5565b80601f0160208091040260200160405190810160405280929190818152602001828054610228906105c5565b80156102755780601f1061024a57610100808354040283529160200191610275565b820191906000526020600020905b81548152906001019060200180831161025857829003601f168201915b505050505081525050905061028a8787610308565b6000600367ffffffffffffffff8111156102a7576102a6610567565b5b6040519080825280602002602001820160405280156102d55781602001602082028036833780820191505090505b50905060ea816000815181106102ee576102ed610874565b5b602002602001018181525050809350505050949350505050565b60008282600081811061031e5761031d610874565b5b905060200201359050505050565b600080fd5b600080fd5b600080fd5b600080fd5b600080fd5b60008083601f84011261035b5761035a610336565b5b8235905067ffffffffffffffff8111156103785761037761033b565b5b60208301915083602082028301111561039457610393610340565b5b9250929050565b60008083601f8401126103b1576103b0610336565b5b8235905067ffffffffffffffff8111156103ce576103cd61033b565b5b6020830191508360018202830111156103ea576103e9610340565b5b9250929050565b6000806000806040858703121561040b5761040a61032c565b5b600085013567ffffffffffffffff81111561042957610428610331565b5b61043587828801610345565b9450945050602085013567ffffffffffffffff81111561045857610457610331565b5b6104648782880161039b565b925092505092959194509250565b600081519050919050565b600082825260208201905092915050565b6000819050602082019050919050565b6000819050919050565b6104b18161049e565b82525050565b60006104c383836104a8565b60208301905092915050565b6000602082019050919050565b60006104e782610472565b6104f1818561047d565b93506104fc8361048e565b8060005b8381101561052d57815161051488826104b7565b975061051f836104cf565b925050600181019050610500565b5085935050505092915050565b6000602082019050818103600083015261055481846104dc565b905092915050565b600081519050919050565b7f4e487b7100000000000000000000000000000000000000000000000000000000600052604160045260246000fd5b7f4e487b7100000000000000000000000000000000000000000000000000000000600052602260045260246000fd5b600060028204905060018216806105dd57607f821691505b6020821081036105f0576105ef610596565b5b50919050565b60008190508160005260206000209050919050565b60006020601f8301049050919050565b600082821b905092915050565b6000600883026106587fffffffffffffffffffffffffffffffffffffffffffffffffffffffffffffffff8261061b565b610662868361061b565b95508019841693508086168417925050509392505050565b6000819050919050565b600061069f61069a6106958461049e565b61067a565b61049e565b9050919050565b6000819050919050565b6106b983610684565b6106cd6106c5826106a6565b848454610628565b825550505050565b600090565b6106e26106d5565b6106ed8184846106b0565b505050565b5b81811015610711576107066000826106da565b6001810190506106f3565b5050565b601f82111561075657610727816105f6565b6107308461060b565b8101602085101561073f578190505b61075361074b8561060b565b8301826106f2565b50505b505050565b600082821c905092915050565b60006107796000198460080261075b565b1980831691505092915050565b60006107928383610768565b9150826002028217905092915050565b6107ab8261055c565b67ffffffffffffffff8111156107c4576107c3610567565b5b6107ce82546105c5565b6107d9828285610715565b600060209050601f83116001811461080c57600084156107fa578287015190505b6108048582610786565b86555061086c565b601f19841661081a866105f6565b60005b828110156108425784890151825560018201915060208501945060208101905061081d565b8683101561085f578489015161085b601f891682610768565b8355505b6001600288020188555050505b505050505050565b7f4e487b7100000000000000000000000000000000000000000000000000000000600052603260045260246000fdfea2646970667358221220dfc3c52aa5dae8e6de20f2d79b00dce11e1cb0539cb9c9f2f950ed21d38ba2a564736f6c63430008120033",
			"opcodes": "PUSH1 0x80 PUSH1 0x40 MSTORE CALLVALUE DUP1 ISZERO PUSH2 0x10 JUMPI PUSH1 0x0 DUP1 REVERT JUMPDEST POP PUSH2 0x8D9 DUP1 PUSH2 0x20 PUSH1 0x0 CODECOPY PUSH1 0x0 RETURN INVALID PUSH1 0x80 PUSH1 0x40 MSTORE CALLVALUE DUP1 ISZERO PUSH2 0x10 JUMPI PUSH1 0x0 DUP1 REVERT JUMPDEST POP PUSH1 0x4 CALLDATASIZE LT PUSH2 0x2B JUMPI PUSH1 0x0 CALLDATALOAD PUSH1 0xE0 SHR DUP1 PUSH4 0xFC277A95 EQ PUSH2 0x30 JUMPI JUMPDEST PUSH1 0x0 DUP1 REVERT JUMPDEST PUSH2 0x4A PUSH1 0x4 DUP1 CALLDATASIZE SUB DUP2 ADD SWAP1 PUSH2 0x45 SWAP2 SWAP1 PUSH2 0x3F1 JUMP JUMPDEST PUSH2 0x60 JUMP JUMPDEST PUSH1 0x40 MLOAD PUSH2 0x57 SWAP2 SWAP1 PUSH2 0x53A JUMP JUMPDEST PUSH1 0x40 MLOAD DUP1 SWAP2 SUB SWAP1 RETURN JUMPDEST PUSH1 0x60 PUSH1 0x40 MLOAD DUP1 PUSH1 0x40 ADD PUSH1 0x40 MSTORE DUP1 PUSH1 0x7B DUP2 MSTORE PUSH1 0x20 ADD PUSH1 0x40 MLOAD DUP1 PUSH1 0x40 ADD PUSH1 0x40 MSTORE DUP1 PUSH1 0x3 DUP2 MSTORE PUSH1 0x20 ADD PUSH32 0x6261720000000000000000000000000000000000000000000000000000000000 DUP2 MSTORE POP DUP2 MSTORE POP PUSH1 0x0 DUP1 CALLER PUSH20 0xFFFFFFFFFFFFFFFFFFFFFFFFFFFFFFFFFFFFFFFF AND PUSH20 0xFFFFFFFFFFFFFFFFFFFFFFFFFFFFFFFFFFFFFFFF AND DUP2 MSTORE PUSH1 0x20 ADD SWAP1 DUP2 MSTORE PUSH1 0x20 ADD PUSH1 0x0 KECCAK256 PUSH1 0x0 DUP3 ADD MLOAD DUP2 PUSH1 0x0 ADD SSTORE PUSH1 0x20 DUP3 ADD MLOAD DUP2 PUSH1 0x1 ADD SWAP1 DUP2 PUSH2 0x10A SWAP2 SWAP1 PUSH2 0x7A2 JUMP JUMPDEST POP SWAP1 POP POP PUSH1 0x0 DUP1 PUSH1 0x0 CALLER PUSH20 0xFFFFFFFFFFFFFFFFFFFFFFFFFFFFFFFFFFFFFFFF AND PUSH20 0xFFFFFFFFFFFFFFFFFFFFFFFFFFFFFFFFFFFFFFFF AND DUP2 MSTORE PUSH1 0x20 ADD SWAP1 DUP2 MSTORE PUSH1 0x20 ADD PUSH1 0x0 KECCAK256 SWAP1 POP PUSH1 0x40 MLOAD DUP1 PUSH1 0x40 ADD PUSH1 0x40 MSTORE DUP1 PUSH1 0x3 DUP2 MSTORE PUSH1 0x20 ADD PUSH32 0x666F6F0000000000000000000000000000000000000000000000000000000000 DUP2 MSTORE POP DUP2 PUSH1 0x1 ADD SWAP1 DUP2 PUSH2 0x196 SWAP2 SWAP1 PUSH2 0x7A2 JUMP JUMPDEST POP PUSH1 0x0 DUP1 PUSH1 0x0 CALLER PUSH20 0xFFFFFFFFFFFFFFFFFFFFFFFFFFFFFFFFFFFFFFFF AND PUSH20 0xFFFFFFFFFFFFFFFFFFFFFFFFFFFFFFFFFFFFFFFF AND DUP2 MSTORE PUSH1 0x20 ADD SWAP1 DUP2 MSTORE PUSH1 0x20 ADD PUSH1 0x0 KECCAK256 PUSH1 0x40 MLOAD DUP1 PUSH1 0x40 ADD PUSH1 0x40 MSTORE SWAP1 DUP2 PUSH1 0x0 DUP3 ADD SLOAD DUP2 MSTORE PUSH1 0x20 ADD PUSH1 0x1 DUP3 ADD DUP1 SLOAD PUSH2 0x1FC SWAP1 PUSH2 0x5C5 JUMP JUMPDEST DUP1 PUSH1 0x1F ADD PUSH1 0x20 DUP1 SWAP2 DIV MUL PUSH1 0x20 ADD PUSH1 0x40 MLOAD SWAP1 DUP2 ADD PUSH1 0x40 MSTORE DUP1 SWAP3 SWAP2 SWAP1 DUP2 DUP2 MSTORE PUSH1 0x20 ADD DUP3 DUP1 SLOAD PUSH2 0x228 SWAP1 PUSH2 0x5C5 JUMP JUMPDEST DUP1 ISZERO PUSH2 0x275 JUMPI DUP1 PUSH1 0x1F LT PUSH2 0x24A JUMPI PUSH2 0x100 DUP1 DUP4 SLOAD DIV MUL DUP4 MSTORE SWAP2 PUSH1 0x20 ADD SWAP2 PUSH2 0x275 JUMP JUMPDEST DUP3 ADD SWAP2 SWAP1 PUSH1 0x0 MSTORE PUSH1 0x20 PUSH1 0x0 KECCAK256 SWAP1 JUMPDEST DUP2 SLOAD DUP2 MSTORE SWAP1 PUSH1 0x1 ADD SWAP1 PUSH1 0x20 ADD DUP1 DUP4 GT PUSH2 0x258 JUMPI DUP3 SWAP1 SUB PUSH1 0x1F AND DUP3 ADD SWAP2 JUMPDEST POP POP POP POP POP DUP2 MSTORE POP POP SWAP1 POP PUSH2 0x28A DUP8 DUP8 PUSH2 0x308 JUMP JUMPDEST PUSH1 0x0 PUSH1 0x3 PUSH8 0xFFFFFFFFFFFFFFFF DUP2 GT ISZERO PUSH2 0x2A7 JUMPI PUSH2 0x2A6 PUSH2 0x567 JUMP JUMPDEST JUMPDEST PUSH1 0x40 MLOAD SWAP1 DUP1 DUP3 MSTORE DUP1 PUSH1 0x20 MUL PUSH1 0x20 ADD DUP3 ADD PUSH1 0x40 MSTORE DUP1 ISZERO PUSH2 0x2D5 JUMPI DUP2 PUSH1 0x20 ADD PUSH1 0x20 DUP3 MUL DUP1 CALLDATASIZE DUP4 CALLDATACOPY DUP1 DUP3 ADD SWAP2 POP POP SWAP1 POP JUMPDEST POP SWAP1 POP PUSH1 0xEA DUP2 PUSH1 0x0 DUP2 MLOAD DUP2 LT PUSH2 0x2EE JUMPI PUSH2 0x2ED PUSH2 0x874 JUMP JUMPDEST JUMPDEST PUSH1 0x20 MUL PUSH1 0x20 ADD ADD DUP2 DUP2 MSTORE POP POP DUP1 SWAP4 POP POP POP POP SWAP5 SWAP4 POP POP POP POP JUMP JUMPDEST PUSH1 0x0 DUP3 DUP3 PUSH1 0x0 DUP2 DUP2 LT PUSH2 0x31E JUMPI PUSH2 0x31D PUSH2 0x874 JUMP JUMPDEST JUMPDEST SWAP1 POP PUSH1 0x20 MUL ADD CALLDATALOAD SWAP1 POP POP POP POP JUMP JUMPDEST PUSH1 0x0 DUP1 REVERT JUMPDEST PUSH1 0x0 DUP1 REVERT JUMPDEST PUSH1 0x0 DUP1 REVERT JUMPDEST PUSH1 0x0 DUP1 REVERT JUMPDEST PUSH1 0x0 DUP1 REVERT JUMPDEST PUSH1 0x0 DUP1 DUP4 PUSH1 0x1F DUP5 ADD SLT PUSH2 0x35B JUMPI PUSH2 0x35A PUSH2 0x336 JUMP JUMPDEST JUMPDEST DUP3 CALLDATALOAD SWAP1 POP PUSH8 0xFFFFFFFFFFFFFFFF DUP2 GT ISZERO PUSH2 0x378 JUMPI PUSH2 0x377 PUSH2 0x33B JUMP JUMPDEST JUMPDEST PUSH1 0x20 DUP4 ADD SWAP2 POP DUP4 PUSH1 0x20 DUP3 MUL DUP4 ADD GT ISZERO PUSH2 0x394 JUMPI PUSH2 0x393 PUSH2 0x340 JUMP JUMPDEST JUMPDEST SWAP3 POP SWAP3 SWAP1 POP JUMP JUMPDEST PUSH1 0x0 DUP1 DUP4 PUSH1 0x1F DUP5 ADD SLT PUSH2 0x3B1 JUMPI PUSH2 0x3B0 PUSH2 0x336 JUMP JUMPDEST JUMPDEST DUP3 CALLDATALOAD SWAP1 POP PUSH8 0xFFFFFFFFFFFFFFFF DUP2 GT ISZERO PUSH2 0x3CE JUMPI PUSH2 0x3CD PUSH2 0x33B JUMP JUMPDEST JUMPDEST PUSH1 0x20 DUP4 ADD SWAP2 POP DUP4 PUSH1 0x1 DUP3 MUL DUP4 ADD GT ISZERO PUSH2 0x3EA JUMPI PUSH2 0x3E9 PUSH2 0x340 JUMP JUMPDEST JUMPDEST SWAP3 POP SWAP3 SWAP1 POP JUMP JUMPDEST PUSH1 0x0 DUP1 PUSH1 0x0 DUP1 PUSH1 0x40 DUP6 DUP8 SUB SLT ISZERO PUSH2 0x40B JUMPI PUSH2 0x40A PUSH2 0x32C JUMP JUMPDEST JUMPDEST PUSH1 0x0 DUP6 ADD CALLDATALOAD PUSH8 0xFFFFFFFFFFFFFFFF DUP2 GT ISZERO PUSH2 0x429 JUMPI PUSH2 0x428 PUSH2 0x331 JUMP JUMPDEST JUMPDEST PUSH2 0x435 DUP8 DUP3 DUP9 ADD PUSH2 0x345 JUMP JUMPDEST SWAP5 POP SWAP5 POP POP PUSH1 0x20 DUP6 ADD CALLDATALOAD PUSH8 0xFFFFFFFFFFFFFFFF DUP2 GT ISZERO PUSH2 0x458 JUMPI PUSH2 0x457 PUSH2 0x331 JUMP JUMPDEST JUMPDEST PUSH2 0x464 DUP8 DUP3 DUP9 ADD PUSH2 0x39B JUMP JUMPDEST SWAP3 POP SWAP3 POP POP SWAP3 SWAP6 SWAP2 SWAP5 POP SWAP3 POP JUMP JUMPDEST PUSH1 0x0 DUP2 MLOAD SWAP1 POP SWAP2 SWAP1 POP JUMP JUMPDEST PUSH1 0x0 DUP3 DUP3 MSTORE PUSH1 0x20 DUP3 ADD SWAP1 POP SWAP3 SWAP2 POP POP JUMP JUMPDEST PUSH1 0x0 DUP2 SWAP1 POP PUSH1 0x20 DUP3 ADD SWAP1 POP SWAP2 SWAP1 POP JUMP JUMPDEST PUSH1 0x0 DUP2 SWAP1 POP SWAP2 SWAP1 POP JUMP JUMPDEST PUSH2 0x4B1 DUP2 PUSH2 0x49E JUMP JUMPDEST DUP3 MSTORE POP POP JUMP JUMPDEST PUSH1 0x0 PUSH2 0x4C3 DUP4 DUP4 PUSH2 0x4A8 JUMP JUMPDEST PUSH1 0x20 DUP4 ADD SWAP1 POP SWAP3 SWAP2 POP POP JUMP JUMPDEST PUSH1 0x0 PUSH1 0x20 DUP3 ADD SWAP1 POP SWAP2 SWAP1 POP JUMP JUMPDEST PUSH1 0x0 PUSH2 0x4E7 DUP3 PUSH2 0x472 JUMP JUMPDEST PUSH2 0x4F1 DUP2 DUP6 PUSH2 0x47D JUMP JUMPDEST SWAP4 POP PUSH2 0x4FC DUP4 PUSH2 0x48E JUMP JUMPDEST DUP1 PUSH1 0x0 JUMPDEST DUP4 DUP2 LT ISZERO PUSH2 0x52D JUMPI DUP2 MLOAD PUSH2 0x514 DUP9 DUP3 PUSH2 0x4B7 JUMP JUMPDEST SWAP8 POP PUSH2 0x51F DUP4 PUSH2 0x4CF JUMP JUMPDEST SWAP3 POP POP PUSH1 0x1 DUP2 ADD SWAP1 POP PUSH2 0x500 JUMP JUMPDEST POP DUP6 SWAP4 POP POP POP POP SWAP3 SWAP2 POP POP JUMP JUMPDEST PUSH1 0x0 PUSH1 0x20 DUP3 ADD SWAP1 POP DUP2 DUP2 SUB PUSH1 0x0 DUP4 ADD MSTORE PUSH2 0x554 DUP2 DUP5 PUSH2 0x4DC JUMP JUMPDEST SWAP1 POP SWAP3 SWAP2 POP POP JUMP JUMPDEST PUSH1 0x0 DUP2 MLOAD SWAP1 POP SWAP2 SWAP1 POP JUMP JUMPDEST PUSH32 0x4E487B7100000000000000000000000000000000000000000000000000000000 PUSH1 0x0 MSTORE PUSH1 0x41 PUSH1 0x4 MSTORE PUSH1 0x24 PUSH1 0x0 REVERT JUMPDEST PUSH32 0x4E487B7100000000000000000000000000000000000000000000000000000000 PUSH1 0x0 MSTORE PUSH1 0x22 PUSH1 0x4 MSTORE PUSH1 0x24 PUSH1 0x0 REVERT JUMPDEST PUSH1 0x0 PUSH1 0x2 DUP3 DIV SWAP1 POP PUSH1 0x1 DUP3 AND DUP1 PUSH2 0x5DD JUMPI PUSH1 0x7F DUP3 AND SWAP2 POP JUMPDEST PUSH1 0x20 DUP3 LT DUP2 SUB PUSH2 0x5F0 JUMPI PUSH2 0x5EF PUSH2 0x596 JUMP JUMPDEST JUMPDEST POP SWAP2 SWAP1 POP JUMP JUMPDEST PUSH1 0x0 DUP2 SWAP1 POP DUP2 PUSH1 0x0 MSTORE PUSH1 0x20 PUSH1 0x0 KECCAK256 SWAP1 POP SWAP2 SWAP1 POP JUMP JUMPDEST PUSH1 0x0 PUSH1 0x20 PUSH1 0x1F DUP4 ADD DIV SWAP1 POP SWAP2 SWAP1 POP JUMP JUMPDEST PUSH1 0x0 DUP3 DUP3 SHL SWAP1 POP SWAP3 SWAP2 POP POP JUMP JUMPDEST PUSH1 0x0 PUSH1 0x8 DUP4 MUL PUSH2 0x658 PUSH32 0xFFFFFFFFFFFFFFFFFFFFFFFFFFFFFFFFFFFFFFFFFFFFFFFFFFFFFFFFFFFFFFFF DUP3 PUSH2 0x61B JUMP JUMPDEST PUSH2 0x662 DUP7 DUP4 PUSH2 0x61B JUMP JUMPDEST SWAP6 POP DUP1 NOT DUP5 AND SWAP4 POP DUP1 DUP7 AND DUP5 OR SWAP3 POP POP POP SWAP4 SWAP3 POP POP POP JUMP JUMPDEST PUSH1 0x0 DUP2 SWAP1 POP SWAP2 SWAP1 POP JUMP JUMPDEST PUSH1 0x0 PUSH2 0x69F PUSH2 0x69A PUSH2 0x695 DUP5 PUSH2 0x49E JUMP JUMPDEST PUSH2 0x67A JUMP JUMPDEST PUSH2 0x49E JUMP JUMPDEST SWAP1 POP SWAP2 SWAP1 POP JUMP JUMPDEST PUSH1 0x0 DUP2 SWAP1 POP SWAP2 SWAP1 POP JUMP JUMPDEST PUSH2 0x6B9 DUP4 PUSH2 0x684 JUMP JUMPDEST PUSH2 0x6CD PUSH2 0x6C5 DUP3 PUSH2 0x6A6 JUMP JUMPDEST DUP5 DUP5 SLOAD PUSH2 0x628 JUMP JUMPDEST DUP3 SSTORE POP POP POP POP JUMP JUMPDEST PUSH1 0x0 SWAP1 JUMP JUMPDEST PUSH2 0x6E2 PUSH2 0x6D5 JUMP JUMPDEST PUSH2 0x6ED DUP2 DUP5 DUP5 PUSH2 0x6B0 JUMP JUMPDEST POP POP POP JUMP JUMPDEST JUMPDEST DUP2 DUP2 LT ISZERO PUSH2 0x711 JUMPI PUSH2 0x706 PUSH1 0x0 DUP3 PUSH2 0x6DA JUMP JUMPDEST PUSH1 0x1 DUP2 ADD SWAP1 POP PUSH2 0x6F3 JUMP JUMPDEST POP POP JUMP JUMPDEST PUSH1 0x1F DUP3 GT ISZERO PUSH2 0x756 JUMPI PUSH2 0x727 DUP2 PUSH2 0x5F6 JUMP JUMPDEST PUSH2 0x730 DUP5 PUSH2 0x60B JUMP JUMPDEST DUP2 ADD PUSH1 0x20 DUP6 LT ISZERO PUSH2 0x73F JUMPI DUP2 SWAP1 POP JUMPDEST PUSH2 0x753 PUSH2 0x74B DUP6 PUSH2 0x60B JUMP JUMPDEST DUP4 ADD DUP3 PUSH2 0x6F2 JUMP JUMPDEST POP POP JUMPDEST POP POP POP JUMP JUMPDEST PUSH1 0x0 DUP3 DUP3 SHR SWAP1 POP SWAP3 SWAP2 POP POP JUMP JUMPDEST PUSH1 0x0 PUSH2 0x779 PUSH1 0x0 NOT DUP5 PUSH1 0x8 MUL PUSH2 0x75B JUMP JUMPDEST NOT DUP1 DUP4 AND SWAP2 POP POP SWAP3 SWAP2 POP POP JUMP JUMPDEST PUSH1 0x0 PUSH2 0x792 DUP4 DUP4 PUSH2 0x768 JUMP JUMPDEST SWAP2 POP DUP3 PUSH1 0x2 MUL DUP3 OR SWAP1 POP SWAP3 SWAP2 POP POP JUMP JUMPDEST PUSH2 0x7AB DUP3 PUSH2 0x55C JUMP JUMPDEST PUSH8 0xFFFFFFFFFFFFFFFF DUP2 GT ISZERO PUSH2 0x7C4 JUMPI PUSH2 0x7C3 PUSH2 0x567 JUMP JUMPDEST JUMPDEST PUSH2 0x7CE DUP3 SLOAD PUSH2 0x5C5 JUMP JUMPDEST PUSH2 0x7D9 DUP3 DUP3 DUP6 PUSH2 0x715 JUMP JUMPDEST PUSH1 0x0 PUSH1 0x20 SWAP1 POP PUSH1 0x1F DUP4 GT PUSH1 0x1 DUP2 EQ PUSH2 0x80C JUMPI PUSH1 0x0 DUP5 ISZERO PUSH2 0x7FA JUMPI DUP3 DUP8 ADD MLOAD SWAP1 POP JUMPDEST PUSH2 0x804 DUP6 DUP3 PUSH2 0x786 JUMP JUMPDEST DUP7 SSTORE POP PUSH2 0x86C JUMP JUMPDEST PUSH1 0x1F NOT DUP5 AND PUSH2 0x81A DUP7 PUSH2 0x5F6 JUMP JUMPDEST PUSH1 0x0 JUMPDEST DUP3 DUP2 LT ISZERO PUSH2 0x842 JUMPI DUP5 DUP10 ADD MLOAD DUP3 SSTORE PUSH1 0x1 DUP3 ADD SWAP2 POP PUSH1 0x20 DUP6 ADD SWAP5 POP PUSH1 0x20 DUP2 ADD SWAP1 POP PUSH2 0x81D JUMP JUMPDEST DUP7 DUP4 LT ISZERO PUSH2 0x85F JUMPI DUP5 DUP10 ADD MLOAD PUSH2 0x85B PUSH1 0x1F DUP10 AND DUP3 PUSH2 0x768 JUMP JUMPDEST DUP4 SSTORE POP JUMPDEST PUSH1 0x1 PUSH1 0x2 DUP9 MUL ADD DUP9 SSTORE POP POP POP JUMPDEST POP POP POP POP POP POP JUMP JUMPDEST PUSH32 0x4E487B7100000000000000000000000000000000000000000000000000000000 PUSH1 0x0 MSTORE PUSH1 0x32 PUSH1 0x4 MSTORE PUSH1 0x24 PUSH1 0x0 REVERT INVALID LOG2 PUSH5 0x6970667358 0x22 SLT KECCAK256 0xDF 0xC3 0xC5 0x2A 0xA5 0xDA 0xE8 0xE6 0xDE KECCAK256 CALLCODE 0xD7 SWAP12 STOP 0xDC 0xE1 0x1E SHR 0xB0 MSTORE8 SWAP13 0xB9 0xC9 CALLCODE 0xF9 POP 0xED 0x21 0xD3 DUP12 LOG2 0xA5 PUSH5 0x736F6C6343 STOP ADDMOD SLT STOP CALLER "
		},
		"gasEstimates": {
			"creation": {
				"codeDepositCost": "453000",
				"executionCost": "486",
				"totalCost": "453486"
			},
			"external": {
				"examples(uint256[],string)": "infinite"
			},
			"internal": {
				"_internal(uint256[] calldata)": "80"
			}
		},
		"methodIdentifiers": {
			"examples(uint256[],string)": "fc277a95"
		}
	},
	"abi": [
		{
			"inputs": [
				{
					"internalType": "uint256[]",
					"name": "y",
					"type": "uint256[]"
				},
				{
					"internalType": "string",
					"name": "s",
					"type": "string"
				}
			],
			"name": "examples",
			"outputs": [
				{
					"internalType": "uint256[]",
					"name": "",
					"type": "uint256[]"
				}
			],
			"stateMutability": "nonpayable",
			"type": "function"
		}
	]
}