{
	"data": {
		"bytecode": {
			"linkReferences": {},
			"object": "608060405234801561001057600080fd5b5061066b806100206000396000f3fe608060405234801561001057600080fd5b506004361061007d5760003560e01c80635c975abb1161005b5780635c975abb146100b457806370119d06146100d2578063bedb86fb146100ee578063c29855781461010a5761007d565b806306661abd14610082578063371303c0146100a057806355f150f1146100aa575b600080fd5b61008a610114565b604051610097919061032e565b60405180910390f35b6100a861011a565b005b6100b2610182565b005b6100bc6101ea565b6040516100c99190610364565b60405180910390f35b6100ec60048036038101906100e791906103b0565b6101fb565b005b61010860048036038101906101039190610409565b6102aa565b005b6101126102c6565b005b60015481565b60008054906101000a900460ff1615610168576040517f08c379a000000000000000000000000000000000000000000000000000000000815260040161015f90610493565b60405180910390fd5b6001600081548092919061017b906104e2565b9190505550565b60008054906101000a900460ff16156101d0576040517f08c379a00000000000000000000000000000000000000000000000000000000081526004016101c790610493565b60405180910390fd5b600160008154809291906101e39061052a565b9190505550565b60008054906101000a900460ff1681565b60008054906101000a900460ff1615610249576040517f08c379a000000000000000000000000000000000000000000000000000000000815260040161024090610493565b60405180910390fd5b806064811061028d576040517f08c379a00000000000000000000000000000000000000000000000000000000081526004016102849061059f565b60405180910390fd5b816001600082825461029f91906105bf565b925050819055505050565b806000806101000a81548160ff02191690831515021790555050565b600a600160008282546102d991906105bf565b9250508190555060018060008282546102f291906105bf565b9250508190555060026001600082825461030c91906105f3565b92505081905550565b6000819050919050565b61032881610315565b82525050565b6000602082019050610343600083018461031f565b92915050565b60008115159050919050565b61035e81610349565b82525050565b60006020820190506103796000830184610355565b92915050565b600080fd5b61038d81610315565b811461039857600080fd5b50565b6000813590506103aa81610384565b92915050565b6000602082840312156103c6576103c561037f565b5b60006103d48482850161039b565b91505092915050565b6103e681610349565b81146103f157600080fd5b50565b600081359050610403816103dd565b92915050565b60006020828403121561041f5761041e61037f565b5b600061042d848285016103f4565b91505092915050565b600082825260208201905092915050565b7f436f6e7472616374205061757365642e00000000000000000000000000000000600082015250565b600061047d601083610436565b915061048882610447565b602082019050919050565b600060208201905081810360008301526104ac81610470565b9050919050565b7f4e487b7100000000000000000000000000000000000000000000000000000000600052601160045260246000fd5b60006104ed82610315565b91507fffffffffffffffffffffffffffffffffffffffffffffffffffffffffffffffff820361051f5761051e6104b3565b5b600182019050919050565b600061053582610315565b915060008203610548576105476104b3565b5b600182039050919050565b7f78206d757374206c657373207468616e203130302e0000000000000000000000600082015250565b6000610589601583610436565b915061059482610553565b602082019050919050565b600060208201905081810360008301526105b88161057c565b9050919050565b60006105ca82610315565b91506105d583610315565b92508282019050808211156105ed576105ec6104b3565b5b92915050565b60006105fe82610315565b915061060983610315565b925082820261061781610315565b9150828204841483151761062e5761062d6104b3565b5b509291505056fea2646970667358221220fe8de185e110b989ad0f908effc0ebaf9d3ebc204908e5ddea359ddd50cf630264736f6c63430008120033",
			"opcodes": "PUSH1 0x80 PUSH1 0x40 MSTORE CALLVALUE DUP1 ISZERO PUSH2 0x10 JUMPI PUSH1 0x0 DUP1 REVERT JUMPDEST POP PUSH2 0x66B DUP1 PUSH2 0x20 PUSH1 0x0 CODECOPY PUSH1 0x0 RETURN INVALID PUSH1 0x80 PUSH1 0x40 MSTORE CALLVALUE DUP1 ISZERO PUSH2 0x10 JUMPI PUSH1 0x0 DUP1 REVERT JUMPDEST POP PUSH1 0x4 CALLDATASIZE LT PUSH2 0x7D JUMPI PUSH1 0x0 CALLDATALOAD PUSH1 0xE0 SHR DUP1 PUSH4 0x5C975ABB GT PUSH2 0x5B JUMPI DUP1 PUSH4 0x5C975ABB EQ PUSH2 0xB4 JUMPI DUP1 PUSH4 0x70119D06 EQ PUSH2 0xD2 JUMPI DUP1 PUSH4 0xBEDB86FB EQ PUSH2 0xEE JUMPI DUP1 PUSH4 0xC2985578 EQ PUSH2 0x10A JUMPI PUSH2 0x7D JUMP JUMPDEST DUP1 PUSH4 0x6661ABD EQ PUSH2 0x82 JUMPI DUP1 PUSH4 0x371303C0 EQ PUSH2 0xA0 JUMPI DUP1 PUSH4 0x55F150F1 EQ PUSH2 0xAA JUMPI JUMPDEST PUSH1 0x0 DUP1 REVERT JUMPDEST PUSH2 0x8A PUSH2 0x114 JUMP JUMPDEST PUSH1 0x40 MLOAD PUSH2 0x97 SWAP2 SWAP1 PUSH2 0x32E JUMP JUMPDEST PUSH1 0x40 MLOAD DUP1 SWAP2 SUB SWAP1 RETURN JUMPDEST PUSH2 0xA8 PUSH2 0x11A JUMP JUMPDEST STOP JUMPDEST PUSH2 0xB2 PUSH2 0x182 JUMP JUMPDEST STOP JUMPDEST PUSH2 0xBC PUSH2 0x1EA JUMP JUMPDEST PUSH1 0x40 MLOAD PUSH2 0xC9 SWAP2 SWAP1 PUSH2 0x364 JUMP JUMPDEST PUSH1 0x40 MLOAD DUP1 SWAP2 SUB SWAP1 RETURN JUMPDEST PUSH2 0xEC PUSH1 0x4 DUP1 CALLDATASIZE SUB DUP2 ADD SWAP1 PUSH2 0xE7 SWAP2 SWAP1 PUSH2 0x3B0 JUMP JUMPDEST PUSH2 0x1FB JUMP JUMPDEST STOP JUMPDEST PUSH2 0x108 PUSH1 0x4 DUP1 CALLDATASIZE SUB DUP2 ADD SWAP1 PUSH2 0x103 SWAP2 SWAP1 PUSH2 0x409 JUMP JUMPDEST PUSH2 0x2AA JUMP JUMPDEST STOP JUMPDEST PUSH2 0x112 PUSH2 0x2C6 JUMP JUMPDEST STOP JUMPDEST PUSH1 0x1 SLOAD DUP2 JUMP JUMPDEST PUSH1 0x0 DUP1 SLOAD SWAP1 PUSH2 0x100 EXP SWAP1 DIV PUSH1 0xFF AND ISZERO PUSH2 0x168 JUMPI PUSH1 0x40 MLOAD PUSH32 0x8C379A000000000000000000000000000000000000000000000000000000000 DUP2 MSTORE PUSH1 0x4 ADD PUSH2 0x15F SWAP1 PUSH2 0x493 JUMP JUMPDEST PUSH1 0x40 MLOAD DUP1 SWAP2 SUB SWAP1 REVERT JUMPDEST PUSH1 0x1 PUSH1 0x0 DUP2 SLOAD DUP1 SWAP3 SWAP2 SWAP1 PUSH2 0x17B SWAP1 PUSH2 0x4E2 JUMP JUMPDEST SWAP2 SWAP1 POP SSTORE POP JUMP JUMPDEST PUSH1 0x0 DUP1 SLOAD SWAP1 PUSH2 0x100 EXP SWAP1 DIV PUSH1 0xFF AND ISZERO PUSH2 0x1D0 JUMPI PUSH1 0x40 MLOAD PUSH32 0x8C379A000000000000000000000000000000000000000000000000000000000 DUP2 MSTORE PUSH1 0x4 ADD PUSH2 0x1C7 SWAP1 PUSH2 0x493 JUMP JUMPDEST PUSH1 0x40 MLOAD DUP1 SWAP2 SUB SWAP1 REVERT JUMPDEST PUSH1 0x1 PUSH1 0x0 DUP2 SLOAD DUP1 SWAP3 SWAP2 SWAP1 PUSH2 0x1E3 SWAP1 PUSH2 0x52A JUMP JUMPDEST SWAP2 SWAP1 POP SSTORE POP JUMP JUMPDEST PUSH1 0x0 DUP1 SLOAD SWAP1 PUSH2 0x100 EXP SWAP1 DIV PUSH1 0xFF AND DUP2 JUMP JUMPDEST PUSH1 0x0 DUP1 SLOAD SWAP1 PUSH2 0x100 EXP SWAP1 DIV PUSH1 0xFF AND ISZERO PUSH2 0x249 JUMPI PUSH1 0x40 MLOAD PUSH32 0x8C379A000000000000000000000000000000000000000000000000000000000 DUP2 MSTORE PUSH1 0x4 ADD PUSH2 0x240 SWAP1 PUSH2 0x493 JUMP JUMPDEST PUSH1 0x40 MLOAD DUP1 SWAP2 SUB SWAP1 REVERT JUMPDEST DUP1 PUSH1 0x64 DUP2 LT PUSH2 0x28D JUMPI PUSH1 0x40 MLOAD PUSH32 0x8C379A000000000000000000000000000000000000000000000000000000000 DUP2 MSTORE PUSH1 0x4 ADD PUSH2 0x284 SWAP1 PUSH2 0x59F JUMP JUMPDEST PUSH1 0x40 MLOAD DUP1 SWAP2 SUB SWAP1 REVERT JUMPDEST DUP2 PUSH1 0x1 PUSH1 0x0 DUP3 DUP3 SLOAD PUSH2 0x29F SWAP2 SWAP1 PUSH2 0x5BF JUMP JUMPDEST SWAP3 POP POP DUP2 SWAP1 SSTORE POP POP POP JUMP JUMPDEST DUP1 PUSH1 0x0 DUP1 PUSH2 0x100 EXP DUP2 SLOAD DUP2 PUSH1 0xFF MUL NOT AND SWAP1 DUP4 ISZERO ISZERO MUL OR SWAP1 SSTORE POP POP JUMP JUMPDEST PUSH1 0xA PUSH1 0x1 PUSH1 0x0 DUP3 DUP3 SLOAD PUSH2 0x2D9 SWAP2 SWAP1 PUSH2 0x5BF JUMP JUMPDEST SWAP3 POP POP DUP2 SWAP1 SSTORE POP PUSH1 0x1 DUP1 PUSH1 0x0 DUP3 DUP3 SLOAD PUSH2 0x2F2 SWAP2 SWAP1 PUSH2 0x5BF JUMP JUMPDEST SWAP3 POP POP DUP2 SWAP1 SSTORE POP PUSH1 0x2 PUSH1 0x1 PUSH1 0x0 DUP3 DUP3 SLOAD PUSH2 0x30C SWAP2 SWAP1 PUSH2 0x5F3 JUMP JUMPDEST SWAP3 POP POP DUP2 SWAP1 SSTORE POP JUMP JUMPDEST PUSH1 0x0 DUP2 SWAP1 POP SWAP2 SWAP1 POP JUMP JUMPDEST PUSH2 0x328 DUP2 PUSH2 0x315 JUMP JUMPDEST DUP3 MSTORE POP POP JUMP JUMPDEST PUSH1 0x0 PUSH1 0x20 DUP3 ADD SWAP1 POP PUSH2 0x343 PUSH1 0x0 DUP4 ADD DUP5 PUSH2 0x31F JUMP JUMPDEST SWAP3 SWAP2 POP POP JUMP JUMPDEST PUSH1 0x0 DUP2 ISZERO ISZERO SWAP1 POP SWAP2 SWAP1 POP JUMP JUMPDEST PUSH2 0x35E DUP2 PUSH2 0x349 JUMP JUMPDEST DUP3 MSTORE POP POP JUMP JUMPDEST PUSH1 0x0 PUSH1 0x20 DUP3 ADD SWAP1 POP PUSH2 0x379 PUSH1 0x0 DUP4 ADD DUP5 PUSH2 0x355 JUMP JUMPDEST SWAP3 SWAP2 POP POP JUMP JUMPDEST PUSH1 0x0 DUP1 REVERT JUMPDEST PUSH2 0x38D DUP2 PUSH2 0x315 JUMP JUMPDEST DUP2 EQ PUSH2 0x398 JUMPI PUSH1 0x0 DUP1 REVERT JUMPDEST POP JUMP JUMPDEST PUSH1 0x0 DUP2 CALLDATALOAD SWAP1 POP PUSH2 0x3AA DUP2 PUSH2 0x384 JUMP JUMPDEST SWAP3 SWAP2 POP POP JUMP JUMPDEST PUSH1 0x0 PUSH1 0x20 DUP3 DUP5 SUB SLT ISZERO PUSH2 0x3C6 JUMPI PUSH2 0x3C5 PUSH2 0x37F JUMP JUMPDEST JUMPDEST PUSH1 0x0 PUSH2 0x3D4 DUP5 DUP3 DUP6 ADD PUSH2 0x39B JUMP JUMPDEST SWAP2 POP POP SWAP3 SWAP2 POP POP JUMP JUMPDEST PUSH2 0x3E6 DUP2 PUSH2 0x349 JUMP JUMPDEST DUP2 EQ PUSH2 0x3F1 JUMPI PUSH1 0x0 DUP1 REVERT JUMPDEST POP JUMP JUMPDEST PUSH1 0x0 DUP2 CALLDATALOAD SWAP1 POP PUSH2 0x403 DUP2 PUSH2 0x3DD JUMP JUMPDEST SWAP3 SWAP2 POP POP JUMP JUMPDEST PUSH1 0x0 PUSH1 0x20 DUP3 DUP5 SUB SLT ISZERO PUSH2 0x41F JUMPI PUSH2 0x41E PUSH2 0x37F JUMP JUMPDEST JUMPDEST PUSH1 0x0 PUSH2 0x42D DUP5 DUP3 DUP6 ADD PUSH2 0x3F4 JUMP JUMPDEST SWAP2 POP POP SWAP3 SWAP2 POP POP JUMP JUMPDEST PUSH1 0x0 DUP3 DUP3 MSTORE PUSH1 0x20 DUP3 ADD SWAP1 POP SWAP3 SWAP2 POP POP JUMP JUMPDEST PUSH32 0x436F6E7472616374205061757365642E00000000000000000000000000000000 PUSH1 0x0 DUP3 ADD MSTORE POP JUMP JUMPDEST PUSH1 0x0 PUSH2 0x47D PUSH1 0x10 DUP4 PUSH2 0x436 JUMP JUMPDEST SWAP2 POP PUSH2 0x488 DUP3 PUSH2 0x447 JUMP JUMPDEST PUSH1 0x20 DUP3 ADD SWAP1 POP SWAP2 SWAP1 POP JUMP JUMPDEST PUSH1 0x0 PUSH1 0x20 DUP3 ADD SWAP1 POP DUP2 DUP2 SUB PUSH1 0x0 DUP4 ADD MSTORE PUSH2 0x4AC DUP2 PUSH2 0x470 JUMP JUMPDEST SWAP1 POP SWAP2 SWAP1 POP JUMP JUMPDEST PUSH32 0x4E487B7100000000000000000000000000000000000000000000000000000000 PUSH1 0x0 MSTORE PUSH1 0x11 PUSH1 0x4 MSTORE PUSH1 0x24 PUSH1 0x0 REVERT JUMPDEST PUSH1 0x0 PUSH2 0x4ED DUP3 PUSH2 0x315 JUMP JUMPDEST SWAP2 POP PUSH32 0xFFFFFFFFFFFFFFFFFFFFFFFFFFFFFFFFFFFFFFFFFFFFFFFFFFFFFFFFFFFFFFFF DUP3 SUB PUSH2 0x51F JUMPI PUSH2 0x51E PUSH2 0x4B3 JUMP JUMPDEST JUMPDEST PUSH1 0x1 DUP3 ADD SWAP1 POP SWAP2 SWAP1 POP JUMP JUMPDEST PUSH1 0x0 PUSH2 0x535 DUP3 PUSH2 0x315 JUMP JUMPDEST SWAP2 POP PUSH1 0x0 DUP3 SUB PUSH2 0x548 JUMPI PUSH2 0x547 PUSH2 0x4B3 JUMP JUMPDEST JUMPDEST PUSH1 0x1 DUP3 SUB SWAP1 POP SWAP2 SWAP1 POP JUMP JUMPDEST PUSH32 0x78206D757374206C657373207468616E203130302E0000000000000000000000 PUSH1 0x0 DUP3 ADD MSTORE POP JUMP JUMPDEST PUSH1 0x0 PUSH2 0x589 PUSH1 0x15 DUP4 PUSH2 0x436 JUMP JUMPDEST SWAP2 POP PUSH2 0x594 DUP3 PUSH2 0x553 JUMP JUMPDEST PUSH1 0x20 DUP3 ADD SWAP1 POP SWAP2 SWAP1 POP JUMP JUMPDEST PUSH1 0x0 PUSH1 0x20 DUP3 ADD SWAP1 POP DUP2 DUP2 SUB PUSH1 0x0 DUP4 ADD MSTORE PUSH2 0x5B8 DUP2 PUSH2 0x57C JUMP JUMPDEST SWAP1 POP SWAP2 SWAP1 POP JUMP JUMPDEST PUSH1 0x0 PUSH2 0x5CA DUP3 PUSH2 0x315 JUMP JUMPDEST SWAP2 POP PUSH2 0x5D5 DUP4 PUSH2 0x315 JUMP JUMPDEST SWAP3 POP DUP3 DUP3 ADD SWAP1 POP DUP1 DUP3 GT ISZERO PUSH2 0x5ED JUMPI PUSH2 0x5EC PUSH2 0x4B3 JUMP JUMPDEST JUMPDEST SWAP3 SWAP2 POP POP JUMP JUMPDEST PUSH1 0x0 PUSH2 0x5FE DUP3 PUSH2 0x315 JUMP JUMPDEST SWAP2 POP PUSH2 0x609 DUP4 PUSH2 0x315 JUMP JUMPDEST SWAP3 POP DUP3 DUP3 MUL PUSH2 0x617 DUP2 PUSH2 0x315 JUMP JUMPDEST SWAP2 POP DUP3 DUP3 DIV DUP5 EQ DUP4 ISZERO OR PUSH2 0x62E JUMPI PUSH2 0x62D PUSH2 0x4B3 JUMP JUMPDEST JUMPDEST POP SWAP3 SWAP2 POP POP JUMP INVALID LOG2 PUSH5 0x6970667358 0x22 SLT KECCAK256 INVALID DUP14 0xE1 DUP6 0xE1 LT 0xB9 DUP10 0xAD 0xF SWAP1 DUP15 SELFDESTRUCT 0xC0 0xEB 0xAF SWAP14 RETURNDATACOPY 0xBC KECCAK256 0x49 ADDMOD 0xE5 0xDD 0xEA CALLDATALOAD SWAP14 0xDD POP 0xCF PUSH4 0x264736F PUSH13 0x63430008120033000000000000 "
		},
		"gasEstimates": {
			"creation": {
				"codeDepositCost": "328600",
				"executionCost": "368",
				"totalCost": "328968"
			},
			"external": {
				"count()": "2430",
				"desc()": "26699",
				"foo()": "infinite",
				"inc()": "26677",
				"incBy(uint256)": "infinite",
				"paused()": "2468",
				"setPause(bool)": "24723"
			}
		},
		"methodIdentifiers": {
			"count()": "06661abd",
			"desc()": "55f150f1",
			"foo()": "c2985578",
			"inc()": "371303c0",
			"incBy(uint256)": "70119d06",
			"paused()": "5c975abb",
			"setPause(bool)": "bedb86fb"
		}
	},
	"abi": [
		{
			"inputs": [],
			"name": "count",
			"outputs": [
				{
					"internalType": "uint256",
					"name": "",
					"type": "uint256"
				}
			],
			"stateMutability": "view",
			"type": "function"
		},
		{
			"inputs": [],
			"name": "desc",
			"outputs": [],
			"stateMutability": "nonpayable",
			"type": "function"
		},
		{
			"inputs": [],
			"name": "foo",
			"outputs": [],
			"stateMutability": "nonpayable",
			"type": "function"
		},
		{
			"inputs": [],
			"name": "inc",
			"outputs": [],
			"stateMutability": "nonpayable",
			"type": "function"
		},
		{
			"inputs": [
				{
					"internalType": "uint256",
					"name": "_x",
					"type": "uint256"
				}
			],
			"name": "incBy",
			"outputs": [],
			"stateMutability": "nonpayable",
			"type": "function"
		},
		{
			"inputs": [],
			"name": "paused",
			"outputs": [
				{
					"internalType": "bool",
					"name": "",
					"type": "bool"
				}
			],
			"stateMutability": "view",
			"type": "function"
		},
		{
			"inputs": [
				{
					"internalType": "bool",
					"name": "_paused",
					"type": "bool"
				}
			],
			"name": "setPause",
			"outputs": [],
			"stateMutability": "nonpayable",
			"type": "function"
		}
	]
}